{
	"loops.sol": {
		"loopss": {
			"abi": [
				{
					"inputs": [],
					"name": "LOOP",
					"outputs": [
						{
							"internalType": "uint256",
							"name": "",
							"type": "uint256"
						}
					],
					"stateMutability": "pure",
					"type": "function"
				}
			],
			"devdoc": {
				"kind": "dev",
				"methods": {},
				"version": 1
			},
			"evm": {
				"assembly": "    /* \"loops.sol\":60:273  contract loopss{... */\n  mstore(0x40, 0x80)\n  callvalue\n  dup1\n  iszero\n  tag_1\n  jumpi\n  0x00\n  dup1\n  revert\ntag_1:\n  pop\n  dataSize(sub_0)\n  dup1\n  dataOffset(sub_0)\n  0x00\n  codecopy\n  0x00\n  return\nstop\n\nsub_0: assembly {\n        /* \"loops.sol\":60:273  contract loopss{... */\n      mstore(0x40, 0x80)\n      callvalue\n      dup1\n      iszero\n      tag_1\n      jumpi\n      0x00\n      dup1\n      revert\n    tag_1:\n      pop\n      jumpi(tag_2, lt(calldatasize, 0x04))\n      shr(0xe0, calldataload(0x00))\n      dup1\n      0x45be1e53\n      eq\n      tag_3\n      jumpi\n    tag_2:\n      0x00\n      dup1\n      revert\n        /* \"loops.sol\":92:264  function LOOP()public pure returns(uint){... */\n    tag_3:\n      tag_4\n      tag_5\n      jump\t// in\n    tag_4:\n      mload(0x40)\n      tag_6\n      swap2\n      swap1\n      tag_7\n      jump\t// in\n    tag_6:\n      mload(0x40)\n      dup1\n      swap2\n      sub\n      swap1\n      return\n    tag_5:\n        /* \"loops.sol\":127:131  uint */\n      0x00\n        /* \"loops.sol\":143:153  uint count */\n      dup1\n        /* \"loops.sol\":156:157  0 */\n      0x00\n        /* \"loops.sol\":143:157  uint count = 0 */\n      swap1\n      pop\n        /* \"loops.sol\":172:178  uint i */\n      0x00\n        /* \"loops.sol\":168:234  for(uint i=0;i<10;i=i+2){... */\n    tag_9:\n        /* \"loops.sol\":183:185  10 */\n      0x0a\n        /* \"loops.sol\":181:182  i */\n      dup2\n        /* \"loops.sol\":181:185  i<10 */\n      lt\n        /* \"loops.sol\":168:234  for(uint i=0;i<10;i=i+2){... */\n      iszero\n      tag_10\n      jumpi\n        /* \"loops.sol\":221:222  5 */\n      0x05\n        /* \"loops.sol\":215:220  count */\n      dup3\n        /* \"loops.sol\":215:222  count+5 */\n      tag_12\n      swap2\n      swap1\n      tag_13\n      jump\t// in\n    tag_12:\n        /* \"loops.sol\":207:222  count = count+5 */\n      swap2\n      pop\n        /* \"loops.sol\":190:191  2 */\n      0x02\n        /* \"loops.sol\":188:189  i */\n      dup2\n        /* \"loops.sol\":188:191  i+2 */\n      tag_14\n      swap2\n      swap1\n      tag_13\n      jump\t// in\n    tag_14:\n        /* \"loops.sol\":186:191  i=i+2 */\n      swap1\n      pop\n        /* \"loops.sol\":168:234  for(uint i=0;i<10;i=i+2){... */\n      jump(tag_9)\n    tag_10:\n      pop\n        /* \"loops.sol\":251:256  count */\n      dup1\n        /* \"loops.sol\":244:256  return count */\n      swap2\n      pop\n      pop\n        /* \"loops.sol\":92:264  function LOOP()public pure returns(uint){... */\n      swap1\n      jump\t// out\n        /* \"#utility.yul\":7:84   */\n    tag_15:\n        /* \"#utility.yul\":44:51   */\n      0x00\n        /* \"#utility.yul\":73:78   */\n      dup2\n        /* \"#utility.yul\":62:78   */\n      swap1\n      pop\n        /* \"#utility.yul\":7:84   */\n      swap2\n      swap1\n      pop\n      jump\t// out\n        /* \"#utility.yul\":90:208   */\n    tag_16:\n        /* \"#utility.yul\":177:201   */\n      tag_21\n        /* \"#utility.yul\":195:200   */\n      dup2\n        /* \"#utility.yul\":177:201   */\n      tag_15\n      jump\t// in\n    tag_21:\n        /* \"#utility.yul\":172:175   */\n      dup3\n        /* \"#utility.yul\":165:202   */\n      mstore\n        /* \"#utility.yul\":90:208   */\n      pop\n      pop\n      jump\t// out\n        /* \"#utility.yul\":214:436   */\n    tag_7:\n        /* \"#utility.yul\":307:311   */\n      0x00\n        /* \"#utility.yul\":345:347   */\n      0x20\n        /* \"#utility.yul\":334:343   */\n      dup3\n        /* \"#utility.yul\":330:348   */\n      add\n        /* \"#utility.yul\":322:348   */\n      swap1\n      pop\n        /* \"#utility.yul\":358:429   */\n      tag_23\n        /* \"#utility.yul\":426:427   */\n      0x00\n        /* \"#utility.yul\":415:424   */\n      dup4\n        /* \"#utility.yul\":411:428   */\n      add\n        /* \"#utility.yul\":402:408   */\n      dup5\n        /* \"#utility.yul\":358:429   */\n      tag_16\n      jump\t// in\n    tag_23:\n        /* \"#utility.yul\":214:436   */\n      swap3\n      swap2\n      pop\n      pop\n      jump\t// out\n        /* \"#utility.yul\":442:622   */\n    tag_17:\n        /* \"#utility.yul\":490:567   */\n      0x4e487b7100000000000000000000000000000000000000000000000000000000\n        /* \"#utility.yul\":487:488   */\n      0x00\n        /* \"#utility.yul\":480:568   */\n      mstore\n        /* \"#utility.yul\":587:591   */\n      0x11\n        /* \"#utility.yul\":584:585   */\n      0x04\n        /* \"#utility.yul\":577:592   */\n      mstore\n        /* \"#utility.yul\":611:615   */\n      0x24\n        /* \"#utility.yul\":608:609   */\n      0x00\n        /* \"#utility.yul\":601:616   */\n      revert\n        /* \"#utility.yul\":628:819   */\n    tag_13:\n        /* \"#utility.yul\":668:671   */\n      0x00\n        /* \"#utility.yul\":687:707   */\n      tag_26\n        /* \"#utility.yul\":705:706   */\n      dup3\n        /* \"#utility.yul\":687:707   */\n      tag_15\n      jump\t// in\n    tag_26:\n        /* \"#utility.yul\":682:707   */\n      swap2\n      pop\n        /* \"#utility.yul\":721:741   */\n      tag_27\n        /* \"#utility.yul\":739:740   */\n      dup4\n        /* \"#utility.yul\":721:741   */\n      tag_15\n      jump\t// in\n    tag_27:\n        /* \"#utility.yul\":716:741   */\n      swap3\n      pop\n        /* \"#utility.yul\":764:765   */\n      dup3\n        /* \"#utility.yul\":761:762   */\n      dup3\n        /* \"#utility.yul\":757:766   */\n      add\n        /* \"#utility.yul\":750:766   */\n      swap1\n      pop\n        /* \"#utility.yul\":785:788   */\n      dup1\n        /* \"#utility.yul\":782:783   */\n      dup3\n        /* \"#utility.yul\":779:789   */\n      gt\n        /* \"#utility.yul\":776:812   */\n      iszero\n      tag_28\n      jumpi\n        /* \"#utility.yul\":792:810   */\n      tag_29\n      tag_17\n      jump\t// in\n    tag_29:\n        /* \"#utility.yul\":776:812   */\n    tag_28:\n        /* \"#utility.yul\":628:819   */\n      swap3\n      swap2\n      pop\n      pop\n      jump\t// out\n\n    auxdata: 0xa2646970667358221220b91a626c72628ac09fa59fe8960a02807d0f99edc2abb5a567413b937dcd9e7264736f6c63430008110033\n}\n",
				"bytecode": {
					"linkReferences": {},
					"object": "608060405234801561001057600080fd5b50610159806100206000396000f3fe608060405234801561001057600080fd5b506004361061002b5760003560e01c806345be1e5314610030575b600080fd5b61003861004e565b60405161004591906100a5565b60405180910390f35b6000806000905060005b600a8110156100845760058261006e91906100ef565b915060028161007d91906100ef565b9050610058565b508091505090565b6000819050919050565b61009f8161008c565b82525050565b60006020820190506100ba6000830184610096565b92915050565b7f4e487b7100000000000000000000000000000000000000000000000000000000600052601160045260246000fd5b60006100fa8261008c565b91506101058361008c565b925082820190508082111561011d5761011c6100c0565b5b9291505056fea2646970667358221220b91a626c72628ac09fa59fe8960a02807d0f99edc2abb5a567413b937dcd9e7264736f6c63430008110033",
					"opcodes": "PUSH1 0x80 PUSH1 0x40 MSTORE CALLVALUE DUP1 ISZERO PUSH2 0x10 JUMPI PUSH1 0x0 DUP1 REVERT JUMPDEST POP PUSH2 0x159 DUP1 PUSH2 0x20 PUSH1 0x0 CODECOPY PUSH1 0x0 RETURN INVALID PUSH1 0x80 PUSH1 0x40 MSTORE CALLVALUE DUP1 ISZERO PUSH2 0x10 JUMPI PUSH1 0x0 DUP1 REVERT JUMPDEST POP PUSH1 0x4 CALLDATASIZE LT PUSH2 0x2B JUMPI PUSH1 0x0 CALLDATALOAD PUSH1 0xE0 SHR DUP1 PUSH4 0x45BE1E53 EQ PUSH2 0x30 JUMPI JUMPDEST PUSH1 0x0 DUP1 REVERT JUMPDEST PUSH2 0x38 PUSH2 0x4E JUMP JUMPDEST PUSH1 0x40 MLOAD PUSH2 0x45 SWAP2 SWAP1 PUSH2 0xA5 JUMP JUMPDEST PUSH1 0x40 MLOAD DUP1 SWAP2 SUB SWAP1 RETURN JUMPDEST PUSH1 0x0 DUP1 PUSH1 0x0 SWAP1 POP PUSH1 0x0 JUMPDEST PUSH1 0xA DUP2 LT ISZERO PUSH2 0x84 JUMPI PUSH1 0x5 DUP3 PUSH2 0x6E SWAP2 SWAP1 PUSH2 0xEF JUMP JUMPDEST SWAP2 POP PUSH1 0x2 DUP2 PUSH2 0x7D SWAP2 SWAP1 PUSH2 0xEF JUMP JUMPDEST SWAP1 POP PUSH2 0x58 JUMP JUMPDEST POP DUP1 SWAP2 POP POP SWAP1 JUMP JUMPDEST PUSH1 0x0 DUP2 SWAP1 POP SWAP2 SWAP1 POP JUMP JUMPDEST PUSH2 0x9F DUP2 PUSH2 0x8C JUMP JUMPDEST DUP3 MSTORE POP POP JUMP JUMPDEST PUSH1 0x0 PUSH1 0x20 DUP3 ADD SWAP1 POP PUSH2 0xBA PUSH1 0x0 DUP4 ADD DUP5 PUSH2 0x96 JUMP JUMPDEST SWAP3 SWAP2 POP POP JUMP JUMPDEST PUSH32 0x4E487B7100000000000000000000000000000000000000000000000000000000 PUSH1 0x0 MSTORE PUSH1 0x11 PUSH1 0x4 MSTORE PUSH1 0x24 PUSH1 0x0 REVERT JUMPDEST PUSH1 0x0 PUSH2 0xFA DUP3 PUSH2 0x8C JUMP JUMPDEST SWAP2 POP PUSH2 0x105 DUP4 PUSH2 0x8C JUMP JUMPDEST SWAP3 POP DUP3 DUP3 ADD SWAP1 POP DUP1 DUP3 GT ISZERO PUSH2 0x11D JUMPI PUSH2 0x11C PUSH2 0xC0 JUMP JUMPDEST JUMPDEST SWAP3 SWAP2 POP POP JUMP INVALID LOG2 PUSH5 0x6970667358 0x22 SLT KECCAK256 0xB9 BYTE PUSH3 0x6C7262 DUP11 0xC0 SWAP16 0xA5 SWAP16 0xE8 SWAP7 EXP MUL DUP1 PUSH30 0xF99EDC2ABB5A567413B937DCD9E7264736F6C6343000811003300000000 "
				},
				"gasEstimates": {
					"creation": {
						"codeDepositCost": "69000",
						"executionCost": "117",
						"totalCost": "69117"
					},
					"external": {
						"LOOP()": "infinite"
					}
				},
				"methodIdentifiers": {
					"LOOP()": "45be1e53"
				}
			},
			"storageLayout": {
				"storage": [],
				"types": null
			},
			"userdoc": {
				"kind": "user",
				"methods": {},
				"version": 1
			}
		}
	}
}