{
	"ENUMsol.sol": {
		"ENUM": {
			"abi": [
				{
					"inputs": [],
					"name": "delstatus",
					"outputs": [],
					"stateMutability": "nonpayable",
					"type": "function"
				},
				{
					"inputs": [],
					"name": "getstatus",
					"outputs": [
						{
							"internalType": "enum ENUM.Status",
							"name": "",
							"type": "uint8"
						}
					],
					"stateMutability": "view",
					"type": "function"
				},
				{
					"inputs": [],
					"name": "rej",
					"outputs": [],
					"stateMutability": "nonpayable",
					"type": "function"
				},
				{
					"inputs": [
						{
							"internalType": "enum ENUM.Status",
							"name": "_status",
							"type": "uint8"
						}
					],
					"name": "setstatus",
					"outputs": [],
					"stateMutability": "nonpayable",
					"type": "function"
				}
			],
			"devdoc": {
				"kind": "dev",
				"methods": {},
				"version": 1
			},
			"evm": {
				"assembly": "    /* \"ENUMsol.sol\":60:1039  contract ENUM{... */\n  mstore(0x40, 0x80)\n  callvalue\n  dup1\n  iszero\n  tag_1\n  jumpi\n  0x00\n  dup1\n  revert\ntag_1:\n  pop\n  dataSize(sub_0)\n  dup1\n  dataOffset(sub_0)\n  0x00\n  codecopy\n  0x00\n  return\nstop\n\nsub_0: assembly {\n        /* \"ENUMsol.sol\":60:1039  contract ENUM{... */\n      mstore(0x40, 0x80)\n      callvalue\n      dup1\n      iszero\n      tag_1\n      jumpi\n      0x00\n      dup1\n      revert\n    tag_1:\n      pop\n      jumpi(tag_2, lt(calldatasize, 0x04))\n      shr(0xe0, calldataload(0x00))\n      dup1\n      0x3b0b0290\n      eq\n      tag_3\n      jumpi\n      dup1\n      0x98c29bfb\n      eq\n      tag_4\n      jumpi\n      dup1\n      0xc8c7b9fe\n      eq\n      tag_5\n      jumpi\n      dup1\n      0xf4c3fbd1\n      eq\n      tag_6\n      jumpi\n    tag_2:\n      0x00\n      dup1\n      revert\n        /* \"ENUMsol.sol\":358:504  function getstatus()public view returns(Status){ // why  Status it is  a datatype now.status variable of dataype... */\n    tag_3:\n      tag_7\n      tag_8\n      jump\t// in\n    tag_7:\n      mload(0x40)\n      tag_9\n      swap2\n      swap1\n      tag_10\n      jump\t// in\n    tag_9:\n      mload(0x40)\n      dup1\n      swap2\n      sub\n      swap1\n      return\n        /* \"ENUMsol.sol\":941:1022  function delstatus()public{... */\n    tag_4:\n      tag_11\n      tag_12\n      jump\t// in\n    tag_11:\n      stop\n        /* \"ENUMsol.sol\":839:932  function rej()public{     ... */\n    tag_5:\n      tag_13\n      tag_14\n      jump\t// in\n    tag_13:\n      stop\n        /* \"ENUMsol.sol\":575:748  function setstatus(Status _status)public{  // modifying state variable status) ... */\n    tag_6:\n      tag_15\n      0x04\n      dup1\n      calldatasize\n      sub\n      dup2\n      add\n      swap1\n      tag_16\n      swap2\n      swap1\n      tag_17\n      jump\t// in\n    tag_16:\n      tag_18\n      jump\t// in\n    tag_15:\n      stop\n        /* \"ENUMsol.sol\":358:504  function getstatus()public view returns(Status){ // why  Status it is  a datatype now.status variable of dataype... */\n    tag_8:\n        /* \"ENUMsol.sol\":398:404  Status */\n      0x00\n        /* \"ENUMsol.sol\":489:495  status */\n      dup1\n      0x00\n      swap1\n      sload\n      swap1\n      0x0100\n      exp\n      swap1\n      div\n      0xff\n      and\n        /* \"ENUMsol.sol\":481:495  return  status */\n      swap1\n      pop\n        /* \"ENUMsol.sol\":358:504  function getstatus()public view returns(Status){ // why  Status it is  a datatype now.status variable of dataype... */\n      swap1\n      jump\t// out\n        /* \"ENUMsol.sol\":941:1022  function delstatus()public{... */\n    tag_12:\n        /* \"ENUMsol.sol\":985:991  status */\n      0x00\n      dup1\n        /* \"ENUMsol.sol\":978:991  delete status */\n      0x0100\n      exp\n      dup2\n      sload\n      swap1\n      0xff\n      mul\n      not\n      and\n      swap1\n      sstore\n        /* \"ENUMsol.sol\":941:1022  function delstatus()public{... */\n      jump\t// out\n        /* \"ENUMsol.sol\":839:932  function rej()public{     ... */\n    tag_14:\n        /* \"ENUMsol.sol\":883:898  Status.Rejected */\n      0x03\n        /* \"ENUMsol.sol\":876:882  status */\n      0x00\n      dup1\n        /* \"ENUMsol.sol\":876:898  status=Status.Rejected */\n      0x0100\n      exp\n      dup2\n      sload\n      dup2\n      0xff\n      mul\n      not\n      and\n      swap1\n      dup4\n      0x04\n      dup2\n      gt\n      iszero\n      tag_22\n      jumpi\n      tag_23\n      tag_24\n      jump\t// in\n    tag_23:\n    tag_22:\n      mul\n      or\n      swap1\n      sstore\n      pop\n        /* \"ENUMsol.sol\":839:932  function rej()public{     ... */\n      jump\t// out\n        /* \"ENUMsol.sol\":575:748  function setstatus(Status _status)public{  // modifying state variable status) ... */\n    tag_18:\n        /* \"ENUMsol.sol\":674:681  _status */\n      dup1\n        /* \"ENUMsol.sol\":665:671  status */\n      0x00\n      dup1\n        /* \"ENUMsol.sol\":665:681  status = _status */\n      0x0100\n      exp\n      dup2\n      sload\n      dup2\n      0xff\n      mul\n      not\n      and\n      swap1\n      dup4\n      0x04\n      dup2\n      gt\n      iszero\n      tag_26\n      jumpi\n      tag_27\n      tag_24\n      jump\t// in\n    tag_27:\n    tag_26:\n      mul\n      or\n      swap1\n      sstore\n      pop\n        /* \"ENUMsol.sol\":575:748  function setstatus(Status _status)public{  // modifying state variable status) ... */\n      pop\n      jump\t// out\n        /* \"#utility.yul\":7:187   */\n    tag_24:\n        /* \"#utility.yul\":55:132   */\n      0x4e487b7100000000000000000000000000000000000000000000000000000000\n        /* \"#utility.yul\":52:53   */\n      0x00\n        /* \"#utility.yul\":45:133   */\n      mstore\n        /* \"#utility.yul\":152:156   */\n      0x21\n        /* \"#utility.yul\":149:150   */\n      0x04\n        /* \"#utility.yul\":142:157   */\n      mstore\n        /* \"#utility.yul\":176:180   */\n      0x24\n        /* \"#utility.yul\":173:174   */\n      0x00\n        /* \"#utility.yul\":166:181   */\n      revert\n        /* \"#utility.yul\":193:306   */\n    tag_28:\n        /* \"#utility.yul\":274:275   */\n      0x05\n        /* \"#utility.yul\":267:272   */\n      dup2\n        /* \"#utility.yul\":264:276   */\n      lt\n        /* \"#utility.yul\":254:300   */\n      tag_40\n      jumpi\n        /* \"#utility.yul\":280:298   */\n      tag_41\n      tag_24\n      jump\t// in\n    tag_41:\n        /* \"#utility.yul\":254:300   */\n    tag_40:\n        /* \"#utility.yul\":193:306   */\n      pop\n      jump\t// out\n        /* \"#utility.yul\":312:439   */\n    tag_29:\n        /* \"#utility.yul\":357:364   */\n      0x00\n        /* \"#utility.yul\":386:391   */\n      dup2\n        /* \"#utility.yul\":375:391   */\n      swap1\n      pop\n        /* \"#utility.yul\":392:433   */\n      tag_43\n        /* \"#utility.yul\":427:432   */\n      dup3\n        /* \"#utility.yul\":392:433   */\n      tag_28\n      jump\t// in\n    tag_43:\n        /* \"#utility.yul\":312:439   */\n      swap2\n      swap1\n      pop\n      jump\t// out\n        /* \"#utility.yul\":445:572   */\n    tag_30:\n        /* \"#utility.yul\":501:510   */\n      0x00\n        /* \"#utility.yul\":534:566   */\n      tag_45\n        /* \"#utility.yul\":560:565   */\n      dup3\n        /* \"#utility.yul\":534:566   */\n      tag_29\n      jump\t// in\n    tag_45:\n        /* \"#utility.yul\":521:566   */\n      swap1\n      pop\n        /* \"#utility.yul\":445:572   */\n      swap2\n      swap1\n      pop\n      jump\t// out\n        /* \"#utility.yul\":578:721   */\n    tag_31:\n        /* \"#utility.yul\":671:714   */\n      tag_47\n        /* \"#utility.yul\":708:713   */\n      dup2\n        /* \"#utility.yul\":671:714   */\n      tag_30\n      jump\t// in\n    tag_47:\n        /* \"#utility.yul\":666:669   */\n      dup3\n        /* \"#utility.yul\":659:715   */\n      mstore\n        /* \"#utility.yul\":578:721   */\n      pop\n      pop\n      jump\t// out\n        /* \"#utility.yul\":727:961   */\n    tag_10:\n        /* \"#utility.yul\":826:830   */\n      0x00\n        /* \"#utility.yul\":864:866   */\n      0x20\n        /* \"#utility.yul\":853:862   */\n      dup3\n        /* \"#utility.yul\":849:867   */\n      add\n        /* \"#utility.yul\":841:867   */\n      swap1\n      pop\n        /* \"#utility.yul\":877:954   */\n      tag_49\n        /* \"#utility.yul\":951:952   */\n      0x00\n        /* \"#utility.yul\":940:949   */\n      dup4\n        /* \"#utility.yul\":936:953   */\n      add\n        /* \"#utility.yul\":927:933   */\n      dup5\n        /* \"#utility.yul\":877:954   */\n      tag_31\n      jump\t// in\n    tag_49:\n        /* \"#utility.yul\":727:961   */\n      swap3\n      swap2\n      pop\n      pop\n      jump\t// out\n        /* \"#utility.yul\":1048:1165   */\n    tag_33:\n        /* \"#utility.yul\":1157:1158   */\n      0x00\n        /* \"#utility.yul\":1154:1155   */\n      dup1\n        /* \"#utility.yul\":1147:1159   */\n      revert\n        /* \"#utility.yul\":1294:1401   */\n    tag_35:\n        /* \"#utility.yul\":1375:1376   */\n      0x05\n        /* \"#utility.yul\":1368:1373   */\n      dup2\n        /* \"#utility.yul\":1365:1377   */\n      lt\n        /* \"#utility.yul\":1355:1395   */\n      tag_54\n      jumpi\n        /* \"#utility.yul\":1391:1392   */\n      0x00\n        /* \"#utility.yul\":1388:1389   */\n      dup1\n        /* \"#utility.yul\":1381:1393   */\n      revert\n        /* \"#utility.yul\":1355:1395   */\n    tag_54:\n        /* \"#utility.yul\":1294:1401   */\n      pop\n      jump\t// out\n        /* \"#utility.yul\":1407:1562   */\n    tag_36:\n        /* \"#utility.yul\":1461:1466   */\n      0x00\n        /* \"#utility.yul\":1499:1505   */\n      dup2\n        /* \"#utility.yul\":1486:1506   */\n      calldataload\n        /* \"#utility.yul\":1477:1506   */\n      swap1\n      pop\n        /* \"#utility.yul\":1515:1556   */\n      tag_56\n        /* \"#utility.yul\":1550:1555   */\n      dup2\n        /* \"#utility.yul\":1515:1556   */\n      tag_35\n      jump\t// in\n    tag_56:\n        /* \"#utility.yul\":1407:1562   */\n      swap3\n      swap2\n      pop\n      pop\n      jump\t// out\n        /* \"#utility.yul\":1568:1913   */\n    tag_17:\n        /* \"#utility.yul\":1635:1641   */\n      0x00\n        /* \"#utility.yul\":1684:1686   */\n      0x20\n        /* \"#utility.yul\":1672:1681   */\n      dup3\n        /* \"#utility.yul\":1663:1670   */\n      dup5\n        /* \"#utility.yul\":1659:1682   */\n      sub\n        /* \"#utility.yul\":1655:1687   */\n      slt\n        /* \"#utility.yul\":1652:1771   */\n      iszero\n      tag_58\n      jumpi\n        /* \"#utility.yul\":1690:1769   */\n      tag_59\n      tag_33\n      jump\t// in\n    tag_59:\n        /* \"#utility.yul\":1652:1771   */\n    tag_58:\n        /* \"#utility.yul\":1810:1811   */\n      0x00\n        /* \"#utility.yul\":1835:1896   */\n      tag_60\n        /* \"#utility.yul\":1888:1895   */\n      dup5\n        /* \"#utility.yul\":1879:1885   */\n      dup3\n        /* \"#utility.yul\":1868:1877   */\n      dup6\n        /* \"#utility.yul\":1864:1886   */\n      add\n        /* \"#utility.yul\":1835:1896   */\n      tag_36\n      jump\t// in\n    tag_60:\n        /* \"#utility.yul\":1825:1896   */\n      swap2\n      pop\n        /* \"#utility.yul\":1781:1906   */\n      pop\n        /* \"#utility.yul\":1568:1913   */\n      swap3\n      swap2\n      pop\n      pop\n      jump\t// out\n\n    auxdata: 0xa26469706673582212205ef9b8b6fb4490fc2249a6e2c4589adcc2b6968bc2e41eb90a60c00d634ae97f64736f6c63430008110033\n}\n",
				"bytecode": {
					"linkReferences": {},
					"object": "608060405234801561001057600080fd5b5061023f806100206000396000f3fe608060405234801561001057600080fd5b506004361061004c5760003560e01c80633b0b02901461005157806398c29bfb1461006f578063c8c7b9fe14610079578063f4c3fbd114610083575b600080fd5b61005961009f565b6040516100669190610197565b60405180910390f35b6100776100b5565b005b6100816100c8565b005b61009d600480360381019061009891906101dc565b6100f4565b005b60008060009054906101000a900460ff16905090565b6000806101000a81549060ff0219169055565b60036000806101000a81548160ff021916908360048111156100ed576100ec610120565b5b0217905550565b806000806101000a81548160ff0219169083600481111561011857610117610120565b5b021790555050565b7f4e487b7100000000000000000000000000000000000000000000000000000000600052602160045260246000fd5b600581106101605761015f610120565b5b50565b60008190506101718261014f565b919050565b600061018182610163565b9050919050565b61019181610176565b82525050565b60006020820190506101ac6000830184610188565b92915050565b600080fd5b600581106101c457600080fd5b50565b6000813590506101d6816101b7565b92915050565b6000602082840312156101f2576101f16101b2565b5b6000610200848285016101c7565b9150509291505056fea26469706673582212205ef9b8b6fb4490fc2249a6e2c4589adcc2b6968bc2e41eb90a60c00d634ae97f64736f6c63430008110033",
					"opcodes": "PUSH1 0x80 PUSH1 0x40 MSTORE CALLVALUE DUP1 ISZERO PUSH2 0x10 JUMPI PUSH1 0x0 DUP1 REVERT JUMPDEST POP PUSH2 0x23F DUP1 PUSH2 0x20 PUSH1 0x0 CODECOPY PUSH1 0x0 RETURN INVALID PUSH1 0x80 PUSH1 0x40 MSTORE CALLVALUE DUP1 ISZERO PUSH2 0x10 JUMPI PUSH1 0x0 DUP1 REVERT JUMPDEST POP PUSH1 0x4 CALLDATASIZE LT PUSH2 0x4C JUMPI PUSH1 0x0 CALLDATALOAD PUSH1 0xE0 SHR DUP1 PUSH4 0x3B0B0290 EQ PUSH2 0x51 JUMPI DUP1 PUSH4 0x98C29BFB EQ PUSH2 0x6F JUMPI DUP1 PUSH4 0xC8C7B9FE EQ PUSH2 0x79 JUMPI DUP1 PUSH4 0xF4C3FBD1 EQ PUSH2 0x83 JUMPI JUMPDEST PUSH1 0x0 DUP1 REVERT JUMPDEST PUSH2 0x59 PUSH2 0x9F JUMP JUMPDEST PUSH1 0x40 MLOAD PUSH2 0x66 SWAP2 SWAP1 PUSH2 0x197 JUMP JUMPDEST PUSH1 0x40 MLOAD DUP1 SWAP2 SUB SWAP1 RETURN JUMPDEST PUSH2 0x77 PUSH2 0xB5 JUMP JUMPDEST STOP JUMPDEST PUSH2 0x81 PUSH2 0xC8 JUMP JUMPDEST STOP JUMPDEST PUSH2 0x9D PUSH1 0x4 DUP1 CALLDATASIZE SUB DUP2 ADD SWAP1 PUSH2 0x98 SWAP2 SWAP1 PUSH2 0x1DC JUMP JUMPDEST PUSH2 0xF4 JUMP JUMPDEST STOP JUMPDEST PUSH1 0x0 DUP1 PUSH1 0x0 SWAP1 SLOAD SWAP1 PUSH2 0x100 EXP SWAP1 DIV PUSH1 0xFF AND SWAP1 POP SWAP1 JUMP JUMPDEST PUSH1 0x0 DUP1 PUSH2 0x100 EXP DUP2 SLOAD SWAP1 PUSH1 0xFF MUL NOT AND SWAP1 SSTORE JUMP JUMPDEST PUSH1 0x3 PUSH1 0x0 DUP1 PUSH2 0x100 EXP DUP2 SLOAD DUP2 PUSH1 0xFF MUL NOT AND SWAP1 DUP4 PUSH1 0x4 DUP2 GT ISZERO PUSH2 0xED JUMPI PUSH2 0xEC PUSH2 0x120 JUMP JUMPDEST JUMPDEST MUL OR SWAP1 SSTORE POP JUMP JUMPDEST DUP1 PUSH1 0x0 DUP1 PUSH2 0x100 EXP DUP2 SLOAD DUP2 PUSH1 0xFF MUL NOT AND SWAP1 DUP4 PUSH1 0x4 DUP2 GT ISZERO PUSH2 0x118 JUMPI PUSH2 0x117 PUSH2 0x120 JUMP JUMPDEST JUMPDEST MUL OR SWAP1 SSTORE POP POP JUMP JUMPDEST PUSH32 0x4E487B7100000000000000000000000000000000000000000000000000000000 PUSH1 0x0 MSTORE PUSH1 0x21 PUSH1 0x4 MSTORE PUSH1 0x24 PUSH1 0x0 REVERT JUMPDEST PUSH1 0x5 DUP2 LT PUSH2 0x160 JUMPI PUSH2 0x15F PUSH2 0x120 JUMP JUMPDEST JUMPDEST POP JUMP JUMPDEST PUSH1 0x0 DUP2 SWAP1 POP PUSH2 0x171 DUP3 PUSH2 0x14F JUMP JUMPDEST SWAP2 SWAP1 POP JUMP JUMPDEST PUSH1 0x0 PUSH2 0x181 DUP3 PUSH2 0x163 JUMP JUMPDEST SWAP1 POP SWAP2 SWAP1 POP JUMP JUMPDEST PUSH2 0x191 DUP2 PUSH2 0x176 JUMP JUMPDEST DUP3 MSTORE POP POP JUMP JUMPDEST PUSH1 0x0 PUSH1 0x20 DUP3 ADD SWAP1 POP PUSH2 0x1AC PUSH1 0x0 DUP4 ADD DUP5 PUSH2 0x188 JUMP JUMPDEST SWAP3 SWAP2 POP POP JUMP JUMPDEST PUSH1 0x0 DUP1 REVERT JUMPDEST PUSH1 0x5 DUP2 LT PUSH2 0x1C4 JUMPI PUSH1 0x0 DUP1 REVERT JUMPDEST POP JUMP JUMPDEST PUSH1 0x0 DUP2 CALLDATALOAD SWAP1 POP PUSH2 0x1D6 DUP2 PUSH2 0x1B7 JUMP JUMPDEST SWAP3 SWAP2 POP POP JUMP JUMPDEST PUSH1 0x0 PUSH1 0x20 DUP3 DUP5 SUB SLT ISZERO PUSH2 0x1F2 JUMPI PUSH2 0x1F1 PUSH2 0x1B2 JUMP JUMPDEST JUMPDEST PUSH1 0x0 PUSH2 0x200 DUP5 DUP3 DUP6 ADD PUSH2 0x1C7 JUMP JUMPDEST SWAP2 POP POP SWAP3 SWAP2 POP POP JUMP INVALID LOG2 PUSH5 0x6970667358 0x22 SLT KECCAK256 0x5E 0xF9 0xB8 0xB6 0xFB DIFFICULTY SWAP1 0xFC 0x22 0x49 0xA6 0xE2 0xC4 PC SWAP11 0xDC 0xC2 0xB6 SWAP7 DUP12 0xC2 0xE4 0x1E 0xB9 EXP PUSH1 0xC0 0xD PUSH4 0x4AE97F64 PUSH20 0x6F6C634300081100330000000000000000000000 "
				},
				"gasEstimates": {
					"creation": {
						"codeDepositCost": "115000",
						"executionCost": "159",
						"totalCost": "115159"
					},
					"external": {
						"delstatus()": "24386",
						"getstatus()": "2546",
						"rej()": "24453",
						"setstatus(uint8)": "24694"
					}
				},
				"methodIdentifiers": {
					"delstatus()": "98c29bfb",
					"getstatus()": "3b0b0290",
					"rej()": "c8c7b9fe",
					"setstatus(uint8)": "f4c3fbd1"
				}
			},
			"storageLayout": {
				"storage": [
					{
						"astId": 10,
						"contract": "ENUMsol.sol:ENUM",
						"label": "status",
						"offset": 0,
						"slot": "0",
						"type": "t_enum(Status)7"
					}
				],
				"types": {
					"t_enum(Status)7": {
						"encoding": "inplace",
						"label": "enum ENUM.Status",
						"numberOfBytes": "1"
					}
				}
			},
			"userdoc": {
				"kind": "user",
				"methods": {},
				"version": 1
			}
		}
	}
}