{
	"contracts/STRUCT.sol": {
		"STRUCT": {
			"abi": [
				{
					"inputs": [],
					"name": "emp",
					"outputs": [
						{
							"internalType": "string",
							"name": "name",
							"type": "string"
						},
						{
							"internalType": "uint256",
							"name": "age",
							"type": "uint256"
						},
						{
							"internalType": "address",
							"name": "acc",
							"type": "address"
						}
					],
					"stateMutability": "view",
					"type": "function"
				},
				{
					"inputs": [
						{
							"internalType": "uint256",
							"name": "",
							"type": "uint256"
						}
					],
					"name": "emps",
					"outputs": [
						{
							"internalType": "string",
							"name": "name",
							"type": "string"
						},
						{
							"internalType": "uint256",
							"name": "age",
							"type": "uint256"
						},
						{
							"internalType": "address",
							"name": "acc",
							"type": "address"
						}
					],
					"stateMutability": "view",
					"type": "function"
				},
				{
					"inputs": [],
					"name": "setvalues",
					"outputs": [],
					"stateMutability": "nonpayable",
					"type": "function"
				}
			],
			"devdoc": {
				"kind": "dev",
				"methods": {},
				"version": 1
			},
			"evm": {
				"assembly": "    /* \"contracts/STRUCT.sol\":31:707  contract STRUCT{... */\n  mstore(0x40, 0x80)\n  callvalue\n  dup1\n  iszero\n  tag_1\n  jumpi\n  0x00\n  dup1\n  revert\ntag_1:\n  pop\n  dataSize(sub_0)\n  dup1\n  dataOffset(sub_0)\n  0x00\n  codecopy\n  0x00\n  return\nstop\n\nsub_0: assembly {\n        /* \"contracts/STRUCT.sol\":31:707  contract STRUCT{... */\n      mstore(0x40, 0x80)\n      callvalue\n      dup1\n      iszero\n      tag_1\n      jumpi\n      0x00\n      dup1\n      revert\n    tag_1:\n      pop\n      jumpi(tag_2, lt(calldatasize, 0x04))\n      shr(0xe0, calldataload(0x00))\n      dup1\n      0x4b9698c6\n      eq\n      tag_3\n      jumpi\n      dup1\n      0xb34fad41\n      eq\n      tag_4\n      jumpi\n      dup1\n      0xe53b109e\n      eq\n      tag_5\n      jumpi\n    tag_2:\n      0x00\n      dup1\n      revert\n        /* \"contracts/STRUCT.sol\":187:623  function setvalues() public{... */\n    tag_3:\n      tag_6\n      tag_7\n      jump\t// in\n    tag_6:\n      stop\n        /* \"contracts/STRUCT.sol\":140:154  Emp public emp */\n    tag_4:\n      tag_8\n      tag_9\n      jump\t// in\n    tag_8:\n      mload(0x40)\n      tag_10\n      swap4\n      swap3\n      swap2\n      swap1\n      tag_11\n      jump\t// in\n    tag_10:\n      mload(0x40)\n      dup1\n      swap2\n      sub\n      swap1\n      return\n        /* \"contracts/STRUCT.sol\":161:178  Emp[] public emps */\n    tag_5:\n      tag_12\n      0x04\n      dup1\n      calldatasize\n      sub\n      dup2\n      add\n      swap1\n      tag_13\n      swap2\n      swap1\n      tag_14\n      jump\t// in\n    tag_13:\n      tag_15\n      jump\t// in\n    tag_12:\n      mload(0x40)\n      tag_16\n      swap4\n      swap3\n      swap2\n      swap1\n      tag_11\n      jump\t// in\n    tag_16:\n      mload(0x40)\n      dup1\n      swap2\n      sub\n      swap1\n      return\n        /* \"contracts/STRUCT.sol\":187:623  function setvalues() public{... */\n    tag_7:\n        /* \"contracts/STRUCT.sol\":225:240  Emp memory emp1 */\n      0x00\n        /* \"contracts/STRUCT.sol\":243:303  Emp(\"lakshay\",22,0xAb8483F64d9C6d1EcF9b849Ae677dD3315835cb2) */\n      mload(0x40)\n      dup1\n      0x60\n      add\n      0x40\n      mstore\n      dup1\n      mload(0x40)\n      dup1\n      0x40\n      add\n      0x40\n      mstore\n      dup1\n      0x07\n      dup2\n      mstore\n      0x20\n      add\n      0x6c616b7368617900000000000000000000000000000000000000000000000000\n      dup2\n      mstore\n      pop\n      dup2\n      mstore\n      0x20\n      add\n        /* \"contracts/STRUCT.sol\":257:259  22 */\n      0x16\n        /* \"contracts/STRUCT.sol\":243:303  Emp(\"lakshay\",22,0xAb8483F64d9C6d1EcF9b849Ae677dD3315835cb2) */\n      dup2\n      mstore\n      0x20\n      add\n        /* \"contracts/STRUCT.sol\":260:302  0xAb8483F64d9C6d1EcF9b849Ae677dD3315835cb2 */\n      0xab8483f64d9c6d1ecf9b849ae677dd3315835cb2\n        /* \"contracts/STRUCT.sol\":243:303  Emp(\"lakshay\",22,0xAb8483F64d9C6d1EcF9b849Ae677dD3315835cb2) */\n      0xffffffffffffffffffffffffffffffffffffffff\n      and\n      dup2\n      mstore\n      pop\n        /* \"contracts/STRUCT.sol\":225:303  Emp memory emp1 = Emp(\"lakshay\",22,0xAb8483F64d9C6d1EcF9b849Ae677dD3315835cb2) */\n      swap1\n      pop\n        /* \"contracts/STRUCT.sol\":314:329  Emp memory emp2 */\n      0x00\n        /* \"contracts/STRUCT.sol\":332:373  Emp({acc: msg.sender,name:\"ajay\",age:22}) */\n      mload(0x40)\n      dup1\n      0x60\n      add\n      0x40\n      mstore\n      dup1\n      mload(0x40)\n      dup1\n      0x40\n      add\n      0x40\n      mstore\n      dup1\n      0x04\n      dup2\n      mstore\n      0x20\n      add\n      0x616a617900000000000000000000000000000000000000000000000000000000\n      dup2\n      mstore\n      pop\n      dup2\n      mstore\n      0x20\n      add\n        /* \"contracts/STRUCT.sol\":369:371  22 */\n      0x16\n        /* \"contracts/STRUCT.sol\":332:373  Emp({acc: msg.sender,name:\"ajay\",age:22}) */\n      dup2\n      mstore\n      0x20\n      add\n        /* \"contracts/STRUCT.sol\":342:352  msg.sender */\n      caller\n        /* \"contracts/STRUCT.sol\":332:373  Emp({acc: msg.sender,name:\"ajay\",age:22}) */\n      0xffffffffffffffffffffffffffffffffffffffff\n      and\n      dup2\n      mstore\n      pop\n        /* \"contracts/STRUCT.sol\":314:373  Emp memory emp2 = Emp({acc: msg.sender,name:\"ajay\",age:22}) */\n      swap1\n      pop\n        /* \"contracts/STRUCT.sol\":382:397  Emp memory emp3 */\n      tag_18\n      tag_19\n      jump\t// in\n    tag_18:\n        /* \"contracts/STRUCT.sol\":404:422  emp3.name = \"golu\" */\n      mload(0x40)\n      dup1\n      0x40\n      add\n      0x40\n      mstore\n      dup1\n      0x04\n      dup2\n      mstore\n      0x20\n      add\n      0x676f6c7500000000000000000000000000000000000000000000000000000000\n      dup2\n      mstore\n      pop\n        /* \"contracts/STRUCT.sol\":404:408  emp3 */\n      dup2\n        /* \"contracts/STRUCT.sol\":404:413  emp3.name */\n      0x00\n      add\n        /* \"contracts/STRUCT.sol\":404:422  emp3.name = \"golu\" */\n      dup2\n      swap1\n      mstore\n      pop\n        /* \"contracts/STRUCT.sol\":440:442  22 */\n      0x16\n        /* \"contracts/STRUCT.sol\":429:433  emp3 */\n      dup2\n        /* \"contracts/STRUCT.sol\":429:437  emp3.age */\n      0x20\n      add\n        /* \"contracts/STRUCT.sol\":429:442  emp3.age = 22 */\n      dup2\n      dup2\n      mstore\n      pop\n      pop\n        /* \"contracts/STRUCT.sol\":460:502  0xAb8483F64d9C6d1EcF9b849Ae677dD3315835cb2 */\n      0xab8483f64d9c6d1ecf9b849ae677dd3315835cb2\n        /* \"contracts/STRUCT.sol\":449:453  emp3 */\n      dup2\n        /* \"contracts/STRUCT.sol\":449:457  emp3.acc */\n      0x40\n      add\n        /* \"contracts/STRUCT.sol\":449:502  emp3.acc = 0xAb8483F64d9C6d1EcF9b849Ae677dD3315835cb2 */\n      swap1\n      0xffffffffffffffffffffffffffffffffffffffff\n      and\n      swap1\n      dup2\n      0xffffffffffffffffffffffffffffffffffffffff\n      and\n      dup2\n      mstore\n      pop\n      pop\n        /* \"contracts/STRUCT.sol\":511:515  emps */\n      0x03\n        /* \"contracts/STRUCT.sol\":521:525  emp1 */\n      dup4\n        /* \"contracts/STRUCT.sol\":511:526  emps.push(emp1) */\n      swap1\n      dup1\n      0x01\n      dup2\n      sload\n      add\n      dup1\n      dup3\n      sstore\n      dup1\n      swap2\n      pop\n      pop\n      0x01\n      swap1\n      sub\n      swap1\n      0x00\n      mstore\n      keccak256(0x00, 0x20)\n      swap1\n      0x03\n      mul\n      add\n      0x00\n      swap1\n      swap2\n      swap1\n      swap2\n      swap1\n      swap2\n      pop\n      0x00\n      dup3\n      add\n      mload\n      dup2\n      0x00\n      add\n      swap1\n      dup2\n      tag_21\n      swap2\n      swap1\n      tag_22\n      jump\t// in\n    tag_21:\n      pop\n      0x20\n      dup3\n      add\n      mload\n      dup2\n      0x01\n      add\n      sstore\n      0x40\n      dup3\n      add\n      mload\n      dup2\n      0x02\n      add\n      exp(0x0100, 0x00)\n      dup2\n      sload\n      dup2\n      0xffffffffffffffffffffffffffffffffffffffff\n      mul\n      not\n      and\n      swap1\n      dup4\n      0xffffffffffffffffffffffffffffffffffffffff\n      and\n      mul\n      or\n      swap1\n      sstore\n      pop\n      pop\n      pop\n        /* \"contracts/STRUCT.sol\":533:537  emps */\n      0x03\n        /* \"contracts/STRUCT.sol\":543:547  emp2 */\n      dup3\n        /* \"contracts/STRUCT.sol\":533:548  emps.push(emp2) */\n      swap1\n      dup1\n      0x01\n      dup2\n      sload\n      add\n      dup1\n      dup3\n      sstore\n      dup1\n      swap2\n      pop\n      pop\n      0x01\n      swap1\n      sub\n      swap1\n      0x00\n      mstore\n      keccak256(0x00, 0x20)\n      swap1\n      0x03\n      mul\n      add\n      0x00\n      swap1\n      swap2\n      swap1\n      swap2\n      swap1\n      swap2\n      pop\n      0x00\n      dup3\n      add\n      mload\n      dup2\n      0x00\n      add\n      swap1\n      dup2\n      tag_24\n      swap2\n      swap1\n      tag_22\n      jump\t// in\n    tag_24:\n      pop\n      0x20\n      dup3\n      add\n      mload\n      dup2\n      0x01\n      add\n      sstore\n      0x40\n      dup3\n      add\n      mload\n      dup2\n      0x02\n      add\n      exp(0x0100, 0x00)\n      dup2\n      sload\n      dup2\n      0xffffffffffffffffffffffffffffffffffffffff\n      mul\n      not\n      and\n      swap1\n      dup4\n      0xffffffffffffffffffffffffffffffffffffffff\n      and\n      mul\n      or\n      swap1\n      sstore\n      pop\n      pop\n      pop\n        /* \"contracts/STRUCT.sol\":555:559  emps */\n      0x03\n        /* \"contracts/STRUCT.sol\":565:569  emp3 */\n      dup2\n        /* \"contracts/STRUCT.sol\":555:570  emps.push(emp3) */\n      swap1\n      dup1\n      0x01\n      dup2\n      sload\n      add\n      dup1\n      dup3\n      sstore\n      dup1\n      swap2\n      pop\n      pop\n      0x01\n      swap1\n      sub\n      swap1\n      0x00\n      mstore\n      keccak256(0x00, 0x20)\n      swap1\n      0x03\n      mul\n      add\n      0x00\n      swap1\n      swap2\n      swap1\n      swap2\n      swap1\n      swap2\n      pop\n      0x00\n      dup3\n      add\n      mload\n      dup2\n      0x00\n      add\n      swap1\n      dup2\n      tag_26\n      swap2\n      swap1\n      tag_22\n      jump\t// in\n    tag_26:\n      pop\n      0x20\n      dup3\n      add\n      mload\n      dup2\n      0x01\n      add\n      sstore\n      0x40\n      dup3\n      add\n      mload\n      dup2\n      0x02\n      add\n      exp(0x0100, 0x00)\n      dup2\n      sload\n      dup2\n      0xffffffffffffffffffffffffffffffffffffffff\n      mul\n      not\n      and\n      swap1\n      dup4\n      0xffffffffffffffffffffffffffffffffffffffff\n      and\n      mul\n      or\n      swap1\n      sstore\n      pop\n      pop\n      pop\n        /* \"contracts/STRUCT.sol\":579:583  emps */\n      0x03\n        /* \"contracts/STRUCT.sol\":589:614  Emp(\"allu\",24,msg.sender) */\n      mload(0x40)\n      dup1\n      0x60\n      add\n      0x40\n      mstore\n      dup1\n      mload(0x40)\n      dup1\n      0x40\n      add\n      0x40\n      mstore\n      dup1\n      0x04\n      dup2\n      mstore\n      0x20\n      add\n      0x616c6c7500000000000000000000000000000000000000000000000000000000\n      dup2\n      mstore\n      pop\n      dup2\n      mstore\n      0x20\n      add\n        /* \"contracts/STRUCT.sol\":600:602  24 */\n      0x18\n        /* \"contracts/STRUCT.sol\":589:614  Emp(\"allu\",24,msg.sender) */\n      dup2\n      mstore\n      0x20\n      add\n        /* \"contracts/STRUCT.sol\":603:613  msg.sender */\n      caller\n        /* \"contracts/STRUCT.sol\":589:614  Emp(\"allu\",24,msg.sender) */\n      0xffffffffffffffffffffffffffffffffffffffff\n      and\n      dup2\n      mstore\n      pop\n        /* \"contracts/STRUCT.sol\":579:615  emps.push(Emp(\"allu\",24,msg.sender)) */\n      swap1\n      dup1\n      0x01\n      dup2\n      sload\n      add\n      dup1\n      dup3\n      sstore\n      dup1\n      swap2\n      pop\n      pop\n      0x01\n      swap1\n      sub\n      swap1\n      0x00\n      mstore\n      keccak256(0x00, 0x20)\n      swap1\n      0x03\n      mul\n      add\n      0x00\n      swap1\n      swap2\n      swap1\n      swap2\n      swap1\n      swap2\n      pop\n      0x00\n      dup3\n      add\n      mload\n      dup2\n      0x00\n      add\n      swap1\n      dup2\n      tag_28\n      swap2\n      swap1\n      tag_22\n      jump\t// in\n    tag_28:\n      pop\n      0x20\n      dup3\n      add\n      mload\n      dup2\n      0x01\n      add\n      sstore\n      0x40\n      dup3\n      add\n      mload\n      dup2\n      0x02\n      add\n      exp(0x0100, 0x00)\n      dup2\n      sload\n      dup2\n      0xffffffffffffffffffffffffffffffffffffffff\n      mul\n      not\n      and\n      swap1\n      dup4\n      0xffffffffffffffffffffffffffffffffffffffff\n      and\n      mul\n      or\n      swap1\n      sstore\n      pop\n      pop\n      pop\n        /* \"contracts/STRUCT.sol\":214:623  {... */\n      pop\n      pop\n      pop\n        /* \"contracts/STRUCT.sol\":187:623  function setvalues() public{... */\n      jump\t// out\n        /* \"contracts/STRUCT.sol\":140:154  Emp public emp */\n    tag_9:\n      0x00\n      dup1\n      0x00\n      add\n      dup1\n      sload\n      tag_29\n      swap1\n      tag_30\n      jump\t// in\n    tag_29:\n      dup1\n      0x1f\n      add\n      0x20\n      dup1\n      swap2\n      div\n      mul\n      0x20\n      add\n      mload(0x40)\n      swap1\n      dup2\n      add\n      0x40\n      mstore\n      dup1\n      swap3\n      swap2\n      swap1\n      dup2\n      dup2\n      mstore\n      0x20\n      add\n      dup3\n      dup1\n      sload\n      tag_31\n      swap1\n      tag_30\n      jump\t// in\n    tag_31:\n      dup1\n      iszero\n      tag_32\n      jumpi\n      dup1\n      0x1f\n      lt\n      tag_33\n      jumpi\n      0x0100\n      dup1\n      dup4\n      sload\n      div\n      mul\n      dup4\n      mstore\n      swap2\n      0x20\n      add\n      swap2\n      jump(tag_32)\n    tag_33:\n      dup3\n      add\n      swap2\n      swap1\n      0x00\n      mstore\n      keccak256(0x00, 0x20)\n      swap1\n    tag_34:\n      dup2\n      sload\n      dup2\n      mstore\n      swap1\n      0x01\n      add\n      swap1\n      0x20\n      add\n      dup1\n      dup4\n      gt\n      tag_34\n      jumpi\n      dup3\n      swap1\n      sub\n      0x1f\n      and\n      dup3\n      add\n      swap2\n    tag_32:\n      pop\n      pop\n      pop\n      pop\n      pop\n      swap1\n      dup1\n      0x01\n      add\n      sload\n      swap1\n      dup1\n      0x02\n      add\n      0x00\n      swap1\n      sload\n      swap1\n      0x0100\n      exp\n      swap1\n      div\n      0xffffffffffffffffffffffffffffffffffffffff\n      and\n      swap1\n      pop\n      dup4\n      jump\t// out\n        /* \"contracts/STRUCT.sol\":161:178  Emp[] public emps */\n    tag_15:\n      0x03\n      dup2\n      dup2\n      sload\n      dup2\n      lt\n      tag_35\n      jumpi\n      0x00\n      dup1\n      revert\n    tag_35:\n      swap1\n      0x00\n      mstore\n      keccak256(0x00, 0x20)\n      swap1\n      0x03\n      mul\n      add\n      0x00\n      swap2\n      pop\n      swap1\n      pop\n      dup1\n      0x00\n      add\n      dup1\n      sload\n      tag_37\n      swap1\n      tag_30\n      jump\t// in\n    tag_37:\n      dup1\n      0x1f\n      add\n      0x20\n      dup1\n      swap2\n      div\n      mul\n      0x20\n      add\n      mload(0x40)\n      swap1\n      dup2\n      add\n      0x40\n      mstore\n      dup1\n      swap3\n      swap2\n      swap1\n      dup2\n      dup2\n      mstore\n      0x20\n      add\n      dup3\n      dup1\n      sload\n      tag_38\n      swap1\n      tag_30\n      jump\t// in\n    tag_38:\n      dup1\n      iszero\n      tag_39\n      jumpi\n      dup1\n      0x1f\n      lt\n      tag_40\n      jumpi\n      0x0100\n      dup1\n      dup4\n      sload\n      div\n      mul\n      dup4\n      mstore\n      swap2\n      0x20\n      add\n      swap2\n      jump(tag_39)\n    tag_40:\n      dup3\n      add\n      swap2\n      swap1\n      0x00\n      mstore\n      keccak256(0x00, 0x20)\n      swap1\n    tag_41:\n      dup2\n      sload\n      dup2\n      mstore\n      swap1\n      0x01\n      add\n      swap1\n      0x20\n      add\n      dup1\n      dup4\n      gt\n      tag_41\n      jumpi\n      dup3\n      swap1\n      sub\n      0x1f\n      and\n      dup3\n      add\n      swap2\n    tag_39:\n      pop\n      pop\n      pop\n      pop\n      pop\n      swap1\n      dup1\n      0x01\n      add\n      sload\n      swap1\n      dup1\n      0x02\n      add\n      0x00\n      swap1\n      sload\n      swap1\n      0x0100\n      exp\n      swap1\n      div\n      0xffffffffffffffffffffffffffffffffffffffff\n      and\n      swap1\n      pop\n      dup4\n      jump\t// out\n    tag_19:\n      mload(0x40)\n      dup1\n      0x60\n      add\n      0x40\n      mstore\n      dup1\n      0x60\n      dup2\n      mstore\n      0x20\n      add\n      0x00\n      dup2\n      mstore\n      0x20\n      add\n      and(0xffffffffffffffffffffffffffffffffffffffff, 0x00)\n      dup2\n      mstore\n      pop\n      swap1\n      jump\t// out\n        /* \"#utility.yul\":7:106   */\n    tag_42:\n        /* \"#utility.yul\":59:65   */\n      0x00\n        /* \"#utility.yul\":93:98   */\n      dup2\n        /* \"#utility.yul\":87:99   */\n      mload\n        /* \"#utility.yul\":77:99   */\n      swap1\n      pop\n        /* \"#utility.yul\":7:106   */\n      swap2\n      swap1\n      pop\n      jump\t// out\n        /* \"#utility.yul\":112:281   */\n    tag_43:\n        /* \"#utility.yul\":196:207   */\n      0x00\n        /* \"#utility.yul\":230:236   */\n      dup3\n        /* \"#utility.yul\":225:228   */\n      dup3\n        /* \"#utility.yul\":218:237   */\n      mstore\n        /* \"#utility.yul\":270:274   */\n      0x20\n        /* \"#utility.yul\":265:268   */\n      dup3\n        /* \"#utility.yul\":261:275   */\n      add\n        /* \"#utility.yul\":246:275   */\n      swap1\n      pop\n        /* \"#utility.yul\":112:281   */\n      swap3\n      swap2\n      pop\n      pop\n      jump\t// out\n        /* \"#utility.yul\":287:533   */\n    tag_44:\n        /* \"#utility.yul\":368:369   */\n      0x00\n        /* \"#utility.yul\":378:491   */\n    tag_78:\n        /* \"#utility.yul\":392:398   */\n      dup4\n        /* \"#utility.yul\":389:390   */\n      dup2\n        /* \"#utility.yul\":386:399   */\n      lt\n        /* \"#utility.yul\":378:491   */\n      iszero\n      tag_80\n      jumpi\n        /* \"#utility.yul\":477:478   */\n      dup1\n        /* \"#utility.yul\":472:475   */\n      dup3\n        /* \"#utility.yul\":468:479   */\n      add\n        /* \"#utility.yul\":462:480   */\n      mload\n        /* \"#utility.yul\":458:459   */\n      dup2\n        /* \"#utility.yul\":453:456   */\n      dup5\n        /* \"#utility.yul\":449:460   */\n      add\n        /* \"#utility.yul\":442:481   */\n      mstore\n        /* \"#utility.yul\":414:416   */\n      0x20\n        /* \"#utility.yul\":411:412   */\n      dup2\n        /* \"#utility.yul\":407:417   */\n      add\n        /* \"#utility.yul\":402:417   */\n      swap1\n      pop\n        /* \"#utility.yul\":378:491   */\n      jump(tag_78)\n    tag_80:\n        /* \"#utility.yul\":525:526   */\n      0x00\n        /* \"#utility.yul\":516:522   */\n      dup5\n        /* \"#utility.yul\":511:514   */\n      dup5\n        /* \"#utility.yul\":507:523   */\n      add\n        /* \"#utility.yul\":500:527   */\n      mstore\n        /* \"#utility.yul\":349:533   */\n      pop\n        /* \"#utility.yul\":287:533   */\n      pop\n      pop\n      pop\n      jump\t// out\n        /* \"#utility.yul\":539:641   */\n    tag_45:\n        /* \"#utility.yul\":580:586   */\n      0x00\n        /* \"#utility.yul\":631:633   */\n      0x1f\n        /* \"#utility.yul\":627:634   */\n      not\n        /* \"#utility.yul\":622:624   */\n      0x1f\n        /* \"#utility.yul\":615:620   */\n      dup4\n        /* \"#utility.yul\":611:625   */\n      add\n        /* \"#utility.yul\":607:635   */\n      and\n        /* \"#utility.yul\":597:635   */\n      swap1\n      pop\n        /* \"#utility.yul\":539:641   */\n      swap2\n      swap1\n      pop\n      jump\t// out\n        /* \"#utility.yul\":647:1024   */\n    tag_46:\n        /* \"#utility.yul\":735:738   */\n      0x00\n        /* \"#utility.yul\":763:802   */\n      tag_83\n        /* \"#utility.yul\":796:801   */\n      dup3\n        /* \"#utility.yul\":763:802   */\n      tag_42\n      jump\t// in\n    tag_83:\n        /* \"#utility.yul\":818:889   */\n      tag_84\n        /* \"#utility.yul\":882:888   */\n      dup2\n        /* \"#utility.yul\":877:880   */\n      dup6\n        /* \"#utility.yul\":818:889   */\n      tag_43\n      jump\t// in\n    tag_84:\n        /* \"#utility.yul\":811:889   */\n      swap4\n      pop\n        /* \"#utility.yul\":898:963   */\n      tag_85\n        /* \"#utility.yul\":956:962   */\n      dup2\n        /* \"#utility.yul\":951:954   */\n      dup6\n        /* \"#utility.yul\":944:948   */\n      0x20\n        /* \"#utility.yul\":937:942   */\n      dup7\n        /* \"#utility.yul\":933:949   */\n      add\n        /* \"#utility.yul\":898:963   */\n      tag_44\n      jump\t// in\n    tag_85:\n        /* \"#utility.yul\":988:1017   */\n      tag_86\n        /* \"#utility.yul\":1010:1016   */\n      dup2\n        /* \"#utility.yul\":988:1017   */\n      tag_45\n      jump\t// in\n    tag_86:\n        /* \"#utility.yul\":983:986   */\n      dup5\n        /* \"#utility.yul\":979:1018   */\n      add\n        /* \"#utility.yul\":972:1018   */\n      swap2\n      pop\n        /* \"#utility.yul\":739:1024   */\n      pop\n        /* \"#utility.yul\":647:1024   */\n      swap3\n      swap2\n      pop\n      pop\n      jump\t// out\n        /* \"#utility.yul\":1030:1107   */\n    tag_47:\n        /* \"#utility.yul\":1067:1074   */\n      0x00\n        /* \"#utility.yul\":1096:1101   */\n      dup2\n        /* \"#utility.yul\":1085:1101   */\n      swap1\n      pop\n        /* \"#utility.yul\":1030:1107   */\n      swap2\n      swap1\n      pop\n      jump\t// out\n        /* \"#utility.yul\":1113:1231   */\n    tag_48:\n        /* \"#utility.yul\":1200:1224   */\n      tag_89\n        /* \"#utility.yul\":1218:1223   */\n      dup2\n        /* \"#utility.yul\":1200:1224   */\n      tag_47\n      jump\t// in\n    tag_89:\n        /* \"#utility.yul\":1195:1198   */\n      dup3\n        /* \"#utility.yul\":1188:1225   */\n      mstore\n        /* \"#utility.yul\":1113:1231   */\n      pop\n      pop\n      jump\t// out\n        /* \"#utility.yul\":1237:1363   */\n    tag_49:\n        /* \"#utility.yul\":1274:1281   */\n      0x00\n        /* \"#utility.yul\":1314:1356   */\n      0xffffffffffffffffffffffffffffffffffffffff\n        /* \"#utility.yul\":1307:1312   */\n      dup3\n        /* \"#utility.yul\":1303:1357   */\n      and\n        /* \"#utility.yul\":1292:1357   */\n      swap1\n      pop\n        /* \"#utility.yul\":1237:1363   */\n      swap2\n      swap1\n      pop\n      jump\t// out\n        /* \"#utility.yul\":1369:1465   */\n    tag_50:\n        /* \"#utility.yul\":1406:1413   */\n      0x00\n        /* \"#utility.yul\":1435:1459   */\n      tag_92\n        /* \"#utility.yul\":1453:1458   */\n      dup3\n        /* \"#utility.yul\":1435:1459   */\n      tag_49\n      jump\t// in\n    tag_92:\n        /* \"#utility.yul\":1424:1459   */\n      swap1\n      pop\n        /* \"#utility.yul\":1369:1465   */\n      swap2\n      swap1\n      pop\n      jump\t// out\n        /* \"#utility.yul\":1471:1589   */\n    tag_51:\n        /* \"#utility.yul\":1558:1582   */\n      tag_94\n        /* \"#utility.yul\":1576:1581   */\n      dup2\n        /* \"#utility.yul\":1558:1582   */\n      tag_50\n      jump\t// in\n    tag_94:\n        /* \"#utility.yul\":1553:1556   */\n      dup3\n        /* \"#utility.yul\":1546:1583   */\n      mstore\n        /* \"#utility.yul\":1471:1589   */\n      pop\n      pop\n      jump\t// out\n        /* \"#utility.yul\":1595:2128   */\n    tag_11:\n        /* \"#utility.yul\":1764:1768   */\n      0x00\n        /* \"#utility.yul\":1802:1804   */\n      0x60\n        /* \"#utility.yul\":1791:1800   */\n      dup3\n        /* \"#utility.yul\":1787:1805   */\n      add\n        /* \"#utility.yul\":1779:1805   */\n      swap1\n      pop\n        /* \"#utility.yul\":1851:1860   */\n      dup2\n        /* \"#utility.yul\":1845:1849   */\n      dup2\n        /* \"#utility.yul\":1841:1861   */\n      sub\n        /* \"#utility.yul\":1837:1838   */\n      0x00\n        /* \"#utility.yul\":1826:1835   */\n      dup4\n        /* \"#utility.yul\":1822:1839   */\n      add\n        /* \"#utility.yul\":1815:1862   */\n      mstore\n        /* \"#utility.yul\":1879:1957   */\n      tag_96\n        /* \"#utility.yul\":1952:1956   */\n      dup2\n        /* \"#utility.yul\":1943:1949   */\n      dup7\n        /* \"#utility.yul\":1879:1957   */\n      tag_46\n      jump\t// in\n    tag_96:\n        /* \"#utility.yul\":1871:1957   */\n      swap1\n      pop\n        /* \"#utility.yul\":1967:2039   */\n      tag_97\n        /* \"#utility.yul\":2035:2037   */\n      0x20\n        /* \"#utility.yul\":2024:2033   */\n      dup4\n        /* \"#utility.yul\":2020:2038   */\n      add\n        /* \"#utility.yul\":2011:2017   */\n      dup6\n        /* \"#utility.yul\":1967:2039   */\n      tag_48\n      jump\t// in\n    tag_97:\n        /* \"#utility.yul\":2049:2121   */\n      tag_98\n        /* \"#utility.yul\":2117:2119   */\n      0x40\n        /* \"#utility.yul\":2106:2115   */\n      dup4\n        /* \"#utility.yul\":2102:2120   */\n      add\n        /* \"#utility.yul\":2093:2099   */\n      dup5\n        /* \"#utility.yul\":2049:2121   */\n      tag_51\n      jump\t// in\n    tag_98:\n        /* \"#utility.yul\":1595:2128   */\n      swap5\n      swap4\n      pop\n      pop\n      pop\n      pop\n      jump\t// out\n        /* \"#utility.yul\":2215:2332   */\n    tag_53:\n        /* \"#utility.yul\":2324:2325   */\n      0x00\n        /* \"#utility.yul\":2321:2322   */\n      dup1\n        /* \"#utility.yul\":2314:2326   */\n      revert\n        /* \"#utility.yul\":2461:2583   */\n    tag_55:\n        /* \"#utility.yul\":2534:2558   */\n      tag_103\n        /* \"#utility.yul\":2552:2557   */\n      dup2\n        /* \"#utility.yul\":2534:2558   */\n      tag_47\n      jump\t// in\n    tag_103:\n        /* \"#utility.yul\":2527:2532   */\n      dup2\n        /* \"#utility.yul\":2524:2559   */\n      eq\n        /* \"#utility.yul\":2514:2577   */\n      tag_104\n      jumpi\n        /* \"#utility.yul\":2573:2574   */\n      0x00\n        /* \"#utility.yul\":2570:2571   */\n      dup1\n        /* \"#utility.yul\":2563:2575   */\n      revert\n        /* \"#utility.yul\":2514:2577   */\n    tag_104:\n        /* \"#utility.yul\":2461:2583   */\n      pop\n      jump\t// out\n        /* \"#utility.yul\":2589:2728   */\n    tag_56:\n        /* \"#utility.yul\":2635:2640   */\n      0x00\n        /* \"#utility.yul\":2673:2679   */\n      dup2\n        /* \"#utility.yul\":2660:2680   */\n      calldataload\n        /* \"#utility.yul\":2651:2680   */\n      swap1\n      pop\n        /* \"#utility.yul\":2689:2722   */\n      tag_106\n        /* \"#utility.yul\":2716:2721   */\n      dup2\n        /* \"#utility.yul\":2689:2722   */\n      tag_55\n      jump\t// in\n    tag_106:\n        /* \"#utility.yul\":2589:2728   */\n      swap3\n      swap2\n      pop\n      pop\n      jump\t// out\n        /* \"#utility.yul\":2734:3063   */\n    tag_14:\n        /* \"#utility.yul\":2793:2799   */\n      0x00\n        /* \"#utility.yul\":2842:2844   */\n      0x20\n        /* \"#utility.yul\":2830:2839   */\n      dup3\n        /* \"#utility.yul\":2821:2828   */\n      dup5\n        /* \"#utility.yul\":2817:2840   */\n      sub\n        /* \"#utility.yul\":2813:2845   */\n      slt\n        /* \"#utility.yul\":2810:2929   */\n      iszero\n      tag_108\n      jumpi\n        /* \"#utility.yul\":2848:2927   */\n      tag_109\n      tag_53\n      jump\t// in\n    tag_109:\n        /* \"#utility.yul\":2810:2929   */\n    tag_108:\n        /* \"#utility.yul\":2968:2969   */\n      0x00\n        /* \"#utility.yul\":2993:3046   */\n      tag_110\n        /* \"#utility.yul\":3038:3045   */\n      dup5\n        /* \"#utility.yul\":3029:3035   */\n      dup3\n        /* \"#utility.yul\":3018:3027   */\n      dup6\n        /* \"#utility.yul\":3014:3036   */\n      add\n        /* \"#utility.yul\":2993:3046   */\n      tag_56\n      jump\t// in\n    tag_110:\n        /* \"#utility.yul\":2983:3046   */\n      swap2\n      pop\n        /* \"#utility.yul\":2939:3056   */\n      pop\n        /* \"#utility.yul\":2734:3063   */\n      swap3\n      swap2\n      pop\n      pop\n      jump\t// out\n        /* \"#utility.yul\":3069:3249   */\n    tag_57:\n        /* \"#utility.yul\":3117:3194   */\n      0x4e487b7100000000000000000000000000000000000000000000000000000000\n        /* \"#utility.yul\":3114:3115   */\n      0x00\n        /* \"#utility.yul\":3107:3195   */\n      mstore\n        /* \"#utility.yul\":3214:3218   */\n      0x41\n        /* \"#utility.yul\":3211:3212   */\n      0x04\n        /* \"#utility.yul\":3204:3219   */\n      mstore\n        /* \"#utility.yul\":3238:3242   */\n      0x24\n        /* \"#utility.yul\":3235:3236   */\n      0x00\n        /* \"#utility.yul\":3228:3243   */\n      revert\n        /* \"#utility.yul\":3255:3435   */\n    tag_58:\n        /* \"#utility.yul\":3303:3380   */\n      0x4e487b7100000000000000000000000000000000000000000000000000000000\n        /* \"#utility.yul\":3300:3301   */\n      0x00\n        /* \"#utility.yul\":3293:3381   */\n      mstore\n        /* \"#utility.yul\":3400:3404   */\n      0x22\n        /* \"#utility.yul\":3397:3398   */\n      0x04\n        /* \"#utility.yul\":3390:3405   */\n      mstore\n        /* \"#utility.yul\":3424:3428   */\n      0x24\n        /* \"#utility.yul\":3421:3422   */\n      0x00\n        /* \"#utility.yul\":3414:3429   */\n      revert\n        /* \"#utility.yul\":3441:3761   */\n    tag_30:\n        /* \"#utility.yul\":3485:3491   */\n      0x00\n        /* \"#utility.yul\":3522:3523   */\n      0x02\n        /* \"#utility.yul\":3516:3520   */\n      dup3\n        /* \"#utility.yul\":3512:3524   */\n      div\n        /* \"#utility.yul\":3502:3524   */\n      swap1\n      pop\n        /* \"#utility.yul\":3569:3570   */\n      0x01\n        /* \"#utility.yul\":3563:3567   */\n      dup3\n        /* \"#utility.yul\":3559:3571   */\n      and\n        /* \"#utility.yul\":3590:3608   */\n      dup1\n        /* \"#utility.yul\":3580:3661   */\n      tag_114\n      jumpi\n        /* \"#utility.yul\":3646:3650   */\n      0x7f\n        /* \"#utility.yul\":3638:3644   */\n      dup3\n        /* \"#utility.yul\":3634:3651   */\n      and\n        /* \"#utility.yul\":3624:3651   */\n      swap2\n      pop\n        /* \"#utility.yul\":3580:3661   */\n    tag_114:\n        /* \"#utility.yul\":3708:3710   */\n      0x20\n        /* \"#utility.yul\":3700:3706   */\n      dup3\n        /* \"#utility.yul\":3697:3711   */\n      lt\n        /* \"#utility.yul\":3677:3695   */\n      dup2\n        /* \"#utility.yul\":3674:3712   */\n      sub\n        /* \"#utility.yul\":3671:3755   */\n      tag_115\n      jumpi\n        /* \"#utility.yul\":3727:3745   */\n      tag_116\n      tag_58\n      jump\t// in\n    tag_116:\n        /* \"#utility.yul\":3671:3755   */\n    tag_115:\n        /* \"#utility.yul\":3492:3761   */\n      pop\n        /* \"#utility.yul\":3441:3761   */\n      swap2\n      swap1\n      pop\n      jump\t// out\n        /* \"#utility.yul\":3767:3908   */\n    tag_59:\n        /* \"#utility.yul\":3816:3820   */\n      0x00\n        /* \"#utility.yul\":3839:3842   */\n      dup2\n        /* \"#utility.yul\":3831:3842   */\n      swap1\n      pop\n        /* \"#utility.yul\":3862:3865   */\n      dup2\n        /* \"#utility.yul\":3859:3860   */\n      0x00\n        /* \"#utility.yul\":3852:3866   */\n      mstore\n        /* \"#utility.yul\":3896:3900   */\n      0x20\n        /* \"#utility.yul\":3893:3894   */\n      0x00\n        /* \"#utility.yul\":3883:3901   */\n      keccak256\n        /* \"#utility.yul\":3875:3901   */\n      swap1\n      pop\n        /* \"#utility.yul\":3767:3908   */\n      swap2\n      swap1\n      pop\n      jump\t// out\n        /* \"#utility.yul\":3914:4007   */\n    tag_60:\n        /* \"#utility.yul\":3951:3957   */\n      0x00\n        /* \"#utility.yul\":3998:4000   */\n      0x20\n        /* \"#utility.yul\":3993:3995   */\n      0x1f\n        /* \"#utility.yul\":3986:3991   */\n      dup4\n        /* \"#utility.yul\":3982:3996   */\n      add\n        /* \"#utility.yul\":3978:4001   */\n      div\n        /* \"#utility.yul\":3968:4001   */\n      swap1\n      pop\n        /* \"#utility.yul\":3914:4007   */\n      swap2\n      swap1\n      pop\n      jump\t// out\n        /* \"#utility.yul\":4013:4120   */\n    tag_61:\n        /* \"#utility.yul\":4057:4065   */\n      0x00\n        /* \"#utility.yul\":4107:4112   */\n      dup3\n        /* \"#utility.yul\":4101:4105   */\n      dup3\n        /* \"#utility.yul\":4097:4113   */\n      shl\n        /* \"#utility.yul\":4076:4113   */\n      swap1\n      pop\n        /* \"#utility.yul\":4013:4120   */\n      swap3\n      swap2\n      pop\n      pop\n      jump\t// out\n        /* \"#utility.yul\":4126:4519   */\n    tag_62:\n        /* \"#utility.yul\":4195:4201   */\n      0x00\n        /* \"#utility.yul\":4245:4246   */\n      0x08\n        /* \"#utility.yul\":4233:4243   */\n      dup4\n        /* \"#utility.yul\":4229:4247   */\n      mul\n        /* \"#utility.yul\":4268:4365   */\n      tag_121\n        /* \"#utility.yul\":4298:4364   */\n      0xffffffffffffffffffffffffffffffffffffffffffffffffffffffffffffffff\n        /* \"#utility.yul\":4287:4296   */\n      dup3\n        /* \"#utility.yul\":4268:4365   */\n      tag_61\n      jump\t// in\n    tag_121:\n        /* \"#utility.yul\":4386:4425   */\n      tag_122\n        /* \"#utility.yul\":4416:4424   */\n      dup7\n        /* \"#utility.yul\":4405:4414   */\n      dup4\n        /* \"#utility.yul\":4386:4425   */\n      tag_61\n      jump\t// in\n    tag_122:\n        /* \"#utility.yul\":4374:4425   */\n      swap6\n      pop\n        /* \"#utility.yul\":4458:4462   */\n      dup1\n        /* \"#utility.yul\":4454:4463   */\n      not\n        /* \"#utility.yul\":4447:4452   */\n      dup5\n        /* \"#utility.yul\":4443:4464   */\n      and\n        /* \"#utility.yul\":4434:4464   */\n      swap4\n      pop\n        /* \"#utility.yul\":4507:4511   */\n      dup1\n        /* \"#utility.yul\":4497:4505   */\n      dup7\n        /* \"#utility.yul\":4493:4512   */\n      and\n        /* \"#utility.yul\":4486:4491   */\n      dup5\n        /* \"#utility.yul\":4483:4513   */\n      or\n        /* \"#utility.yul\":4473:4513   */\n      swap3\n      pop\n        /* \"#utility.yul\":4202:4519   */\n      pop\n      pop\n        /* \"#utility.yul\":4126:4519   */\n      swap4\n      swap3\n      pop\n      pop\n      pop\n      jump\t// out\n        /* \"#utility.yul\":4525:4585   */\n    tag_63:\n        /* \"#utility.yul\":4553:4556   */\n      0x00\n        /* \"#utility.yul\":4574:4579   */\n      dup2\n        /* \"#utility.yul\":4567:4579   */\n      swap1\n      pop\n        /* \"#utility.yul\":4525:4585   */\n      swap2\n      swap1\n      pop\n      jump\t// out\n        /* \"#utility.yul\":4591:4733   */\n    tag_64:\n        /* \"#utility.yul\":4641:4650   */\n      0x00\n        /* \"#utility.yul\":4674:4727   */\n      tag_125\n        /* \"#utility.yul\":4692:4726   */\n      tag_126\n        /* \"#utility.yul\":4701:4725   */\n      tag_127\n        /* \"#utility.yul\":4719:4724   */\n      dup5\n        /* \"#utility.yul\":4701:4725   */\n      tag_47\n      jump\t// in\n    tag_127:\n        /* \"#utility.yul\":4692:4726   */\n      tag_63\n      jump\t// in\n    tag_126:\n        /* \"#utility.yul\":4674:4727   */\n      tag_47\n      jump\t// in\n    tag_125:\n        /* \"#utility.yul\":4661:4727   */\n      swap1\n      pop\n        /* \"#utility.yul\":4591:4733   */\n      swap2\n      swap1\n      pop\n      jump\t// out\n        /* \"#utility.yul\":4739:4814   */\n    tag_65:\n        /* \"#utility.yul\":4782:4785   */\n      0x00\n        /* \"#utility.yul\":4803:4808   */\n      dup2\n        /* \"#utility.yul\":4796:4808   */\n      swap1\n      pop\n        /* \"#utility.yul\":4739:4814   */\n      swap2\n      swap1\n      pop\n      jump\t// out\n        /* \"#utility.yul\":4820:5089   */\n    tag_66:\n        /* \"#utility.yul\":4930:4969   */\n      tag_130\n        /* \"#utility.yul\":4961:4968   */\n      dup4\n        /* \"#utility.yul\":4930:4969   */\n      tag_64\n      jump\t// in\n    tag_130:\n        /* \"#utility.yul\":4991:5082   */\n      tag_131\n        /* \"#utility.yul\":5040:5081   */\n      tag_132\n        /* \"#utility.yul\":5064:5080   */\n      dup3\n        /* \"#utility.yul\":5040:5081   */\n      tag_65\n      jump\t// in\n    tag_132:\n        /* \"#utility.yul\":5032:5038   */\n      dup5\n        /* \"#utility.yul\":5025:5029   */\n      dup5\n        /* \"#utility.yul\":5019:5030   */\n      sload\n        /* \"#utility.yul\":4991:5082   */\n      tag_62\n      jump\t// in\n    tag_131:\n        /* \"#utility.yul\":4985:4989   */\n      dup3\n        /* \"#utility.yul\":4978:5083   */\n      sstore\n        /* \"#utility.yul\":4896:5089   */\n      pop\n        /* \"#utility.yul\":4820:5089   */\n      pop\n      pop\n      pop\n      jump\t// out\n        /* \"#utility.yul\":5095:5168   */\n    tag_67:\n        /* \"#utility.yul\":5140:5143   */\n      0x00\n        /* \"#utility.yul\":5095:5168   */\n      swap1\n      jump\t// out\n        /* \"#utility.yul\":5174:5363   */\n    tag_68:\n        /* \"#utility.yul\":5251:5283   */\n      tag_135\n      tag_67\n      jump\t// in\n    tag_135:\n        /* \"#utility.yul\":5292:5357   */\n      tag_136\n        /* \"#utility.yul\":5350:5356   */\n      dup2\n        /* \"#utility.yul\":5342:5348   */\n      dup5\n        /* \"#utility.yul\":5336:5340   */\n      dup5\n        /* \"#utility.yul\":5292:5357   */\n      tag_66\n      jump\t// in\n    tag_136:\n        /* \"#utility.yul\":5227:5363   */\n      pop\n        /* \"#utility.yul\":5174:5363   */\n      pop\n      pop\n      jump\t// out\n        /* \"#utility.yul\":5369:5555   */\n    tag_69:\n        /* \"#utility.yul\":5429:5549   */\n    tag_138:\n        /* \"#utility.yul\":5446:5449   */\n      dup2\n        /* \"#utility.yul\":5439:5444   */\n      dup2\n        /* \"#utility.yul\":5436:5450   */\n      lt\n        /* \"#utility.yul\":5429:5549   */\n      iszero\n      tag_140\n      jumpi\n        /* \"#utility.yul\":5500:5539   */\n      tag_141\n        /* \"#utility.yul\":5537:5538   */\n      0x00\n        /* \"#utility.yul\":5530:5535   */\n      dup3\n        /* \"#utility.yul\":5500:5539   */\n      tag_68\n      jump\t// in\n    tag_141:\n        /* \"#utility.yul\":5473:5474   */\n      0x01\n        /* \"#utility.yul\":5466:5471   */\n      dup2\n        /* \"#utility.yul\":5462:5475   */\n      add\n        /* \"#utility.yul\":5453:5475   */\n      swap1\n      pop\n        /* \"#utility.yul\":5429:5549   */\n      jump(tag_138)\n    tag_140:\n        /* \"#utility.yul\":5369:5555   */\n      pop\n      pop\n      jump\t// out\n        /* \"#utility.yul\":5561:6104   */\n    tag_70:\n        /* \"#utility.yul\":5662:5664   */\n      0x1f\n        /* \"#utility.yul\":5657:5660   */\n      dup3\n        /* \"#utility.yul\":5654:5665   */\n      gt\n        /* \"#utility.yul\":5651:6097   */\n      iszero\n      tag_143\n      jumpi\n        /* \"#utility.yul\":5696:5734   */\n      tag_144\n        /* \"#utility.yul\":5728:5733   */\n      dup2\n        /* \"#utility.yul\":5696:5734   */\n      tag_59\n      jump\t// in\n    tag_144:\n        /* \"#utility.yul\":5780:5809   */\n      tag_145\n        /* \"#utility.yul\":5798:5808   */\n      dup5\n        /* \"#utility.yul\":5780:5809   */\n      tag_60\n      jump\t// in\n    tag_145:\n        /* \"#utility.yul\":5770:5778   */\n      dup2\n        /* \"#utility.yul\":5766:5810   */\n      add\n        /* \"#utility.yul\":5963:5965   */\n      0x20\n        /* \"#utility.yul\":5951:5961   */\n      dup6\n        /* \"#utility.yul\":5948:5966   */\n      lt\n        /* \"#utility.yul\":5945:5994   */\n      iszero\n      tag_146\n      jumpi\n        /* \"#utility.yul\":5984:5992   */\n      dup2\n        /* \"#utility.yul\":5969:5992   */\n      swap1\n      pop\n        /* \"#utility.yul\":5945:5994   */\n    tag_146:\n        /* \"#utility.yul\":6007:6087   */\n      tag_147\n        /* \"#utility.yul\":6063:6085   */\n      tag_148\n        /* \"#utility.yul\":6081:6084   */\n      dup6\n        /* \"#utility.yul\":6063:6085   */\n      tag_60\n      jump\t// in\n    tag_148:\n        /* \"#utility.yul\":6053:6061   */\n      dup4\n        /* \"#utility.yul\":6049:6086   */\n      add\n        /* \"#utility.yul\":6036:6047   */\n      dup3\n        /* \"#utility.yul\":6007:6087   */\n      tag_69\n      jump\t// in\n    tag_147:\n        /* \"#utility.yul\":5666:6097   */\n      pop\n      pop\n        /* \"#utility.yul\":5651:6097   */\n    tag_143:\n        /* \"#utility.yul\":5561:6104   */\n      pop\n      pop\n      pop\n      jump\t// out\n        /* \"#utility.yul\":6110:6227   */\n    tag_71:\n        /* \"#utility.yul\":6164:6172   */\n      0x00\n        /* \"#utility.yul\":6214:6219   */\n      dup3\n        /* \"#utility.yul\":6208:6212   */\n      dup3\n        /* \"#utility.yul\":6204:6220   */\n      shr\n        /* \"#utility.yul\":6183:6220   */\n      swap1\n      pop\n        /* \"#utility.yul\":6110:6227   */\n      swap3\n      swap2\n      pop\n      pop\n      jump\t// out\n        /* \"#utility.yul\":6233:6402   */\n    tag_72:\n        /* \"#utility.yul\":6277:6283   */\n      0x00\n        /* \"#utility.yul\":6310:6361   */\n      tag_151\n        /* \"#utility.yul\":6358:6359   */\n      0x00\n        /* \"#utility.yul\":6354:6360   */\n      not\n        /* \"#utility.yul\":6346:6351   */\n      dup5\n        /* \"#utility.yul\":6343:6344   */\n      0x08\n        /* \"#utility.yul\":6339:6352   */\n      mul\n        /* \"#utility.yul\":6310:6361   */\n      tag_71\n      jump\t// in\n    tag_151:\n        /* \"#utility.yul\":6306:6362   */\n      not\n        /* \"#utility.yul\":6391:6395   */\n      dup1\n        /* \"#utility.yul\":6385:6389   */\n      dup4\n        /* \"#utility.yul\":6381:6396   */\n      and\n        /* \"#utility.yul\":6371:6396   */\n      swap2\n      pop\n        /* \"#utility.yul\":6284:6402   */\n      pop\n        /* \"#utility.yul\":6233:6402   */\n      swap3\n      swap2\n      pop\n      pop\n      jump\t// out\n        /* \"#utility.yul\":6407:6702   */\n    tag_73:\n        /* \"#utility.yul\":6483:6487   */\n      0x00\n        /* \"#utility.yul\":6629:6658   */\n      tag_153\n        /* \"#utility.yul\":6654:6657   */\n      dup4\n        /* \"#utility.yul\":6648:6652   */\n      dup4\n        /* \"#utility.yul\":6629:6658   */\n      tag_72\n      jump\t// in\n    tag_153:\n        /* \"#utility.yul\":6621:6658   */\n      swap2\n      pop\n        /* \"#utility.yul\":6691:6694   */\n      dup3\n        /* \"#utility.yul\":6688:6689   */\n      0x02\n        /* \"#utility.yul\":6684:6695   */\n      mul\n        /* \"#utility.yul\":6678:6682   */\n      dup3\n        /* \"#utility.yul\":6675:6696   */\n      or\n        /* \"#utility.yul\":6667:6696   */\n      swap1\n      pop\n        /* \"#utility.yul\":6407:6702   */\n      swap3\n      swap2\n      pop\n      pop\n      jump\t// out\n        /* \"#utility.yul\":6707:8102   */\n    tag_22:\n        /* \"#utility.yul\":6824:6861   */\n      tag_155\n        /* \"#utility.yul\":6857:6860   */\n      dup3\n        /* \"#utility.yul\":6824:6861   */\n      tag_42\n      jump\t// in\n    tag_155:\n        /* \"#utility.yul\":6926:6944   */\n      0xffffffffffffffff\n        /* \"#utility.yul\":6918:6924   */\n      dup2\n        /* \"#utility.yul\":6915:6945   */\n      gt\n        /* \"#utility.yul\":6912:6968   */\n      iszero\n      tag_156\n      jumpi\n        /* \"#utility.yul\":6948:6966   */\n      tag_157\n      tag_57\n      jump\t// in\n    tag_157:\n        /* \"#utility.yul\":6912:6968   */\n    tag_156:\n        /* \"#utility.yul\":6992:7030   */\n      tag_158\n        /* \"#utility.yul\":7024:7028   */\n      dup3\n        /* \"#utility.yul\":7018:7029   */\n      sload\n        /* \"#utility.yul\":6992:7030   */\n      tag_30\n      jump\t// in\n    tag_158:\n        /* \"#utility.yul\":7077:7144   */\n      tag_159\n        /* \"#utility.yul\":7137:7143   */\n      dup3\n        /* \"#utility.yul\":7129:7135   */\n      dup3\n        /* \"#utility.yul\":7123:7127   */\n      dup6\n        /* \"#utility.yul\":7077:7144   */\n      tag_70\n      jump\t// in\n    tag_159:\n        /* \"#utility.yul\":7171:7172   */\n      0x00\n        /* \"#utility.yul\":7195:7199   */\n      0x20\n        /* \"#utility.yul\":7182:7199   */\n      swap1\n      pop\n        /* \"#utility.yul\":7227:7229   */\n      0x1f\n        /* \"#utility.yul\":7219:7225   */\n      dup4\n        /* \"#utility.yul\":7216:7230   */\n      gt\n        /* \"#utility.yul\":7244:7245   */\n      0x01\n        /* \"#utility.yul\":7239:7857   */\n      dup2\n      eq\n      tag_161\n      jumpi\n        /* \"#utility.yul\":7901:7902   */\n      0x00\n        /* \"#utility.yul\":7918:7924   */\n      dup5\n        /* \"#utility.yul\":7915:7992   */\n      iszero\n      tag_162\n      jumpi\n        /* \"#utility.yul\":7967:7976   */\n      dup3\n        /* \"#utility.yul\":7962:7965   */\n      dup8\n        /* \"#utility.yul\":7958:7977   */\n      add\n        /* \"#utility.yul\":7952:7978   */\n      mload\n        /* \"#utility.yul\":7943:7978   */\n      swap1\n      pop\n        /* \"#utility.yul\":7915:7992   */\n    tag_162:\n        /* \"#utility.yul\":8018:8085   */\n      tag_163\n        /* \"#utility.yul\":8078:8084   */\n      dup6\n        /* \"#utility.yul\":8071:8076   */\n      dup3\n        /* \"#utility.yul\":8018:8085   */\n      tag_73\n      jump\t// in\n    tag_163:\n        /* \"#utility.yul\":8012:8016   */\n      dup7\n        /* \"#utility.yul\":8005:8086   */\n      sstore\n        /* \"#utility.yul\":7874:8096   */\n      pop\n        /* \"#utility.yul\":7209:8096   */\n      jump(tag_160)\n        /* \"#utility.yul\":7239:7857   */\n    tag_161:\n        /* \"#utility.yul\":7291:7295   */\n      0x1f\n        /* \"#utility.yul\":7287:7296   */\n      not\n        /* \"#utility.yul\":7279:7285   */\n      dup5\n        /* \"#utility.yul\":7275:7297   */\n      and\n        /* \"#utility.yul\":7325:7362   */\n      tag_164\n        /* \"#utility.yul\":7357:7361   */\n      dup7\n        /* \"#utility.yul\":7325:7362   */\n      tag_59\n      jump\t// in\n    tag_164:\n        /* \"#utility.yul\":7384:7385   */\n      0x00\n        /* \"#utility.yul\":7398:7606   */\n    tag_165:\n        /* \"#utility.yul\":7412:7419   */\n      dup3\n        /* \"#utility.yul\":7409:7410   */\n      dup2\n        /* \"#utility.yul\":7406:7420   */\n      lt\n        /* \"#utility.yul\":7398:7606   */\n      iszero\n      tag_167\n      jumpi\n        /* \"#utility.yul\":7491:7500   */\n      dup5\n        /* \"#utility.yul\":7486:7489   */\n      dup10\n        /* \"#utility.yul\":7482:7501   */\n      add\n        /* \"#utility.yul\":7476:7502   */\n      mload\n        /* \"#utility.yul\":7468:7474   */\n      dup3\n        /* \"#utility.yul\":7461:7503   */\n      sstore\n        /* \"#utility.yul\":7542:7543   */\n      0x01\n        /* \"#utility.yul\":7534:7540   */\n      dup3\n        /* \"#utility.yul\":7530:7544   */\n      add\n        /* \"#utility.yul\":7520:7544   */\n      swap2\n      pop\n        /* \"#utility.yul\":7589:7591   */\n      0x20\n        /* \"#utility.yul\":7578:7587   */\n      dup6\n        /* \"#utility.yul\":7574:7592   */\n      add\n        /* \"#utility.yul\":7561:7592   */\n      swap5\n      pop\n        /* \"#utility.yul\":7435:7439   */\n      0x20\n        /* \"#utility.yul\":7432:7433   */\n      dup2\n        /* \"#utility.yul\":7428:7440   */\n      add\n        /* \"#utility.yul\":7423:7440   */\n      swap1\n      pop\n        /* \"#utility.yul\":7398:7606   */\n      jump(tag_165)\n    tag_167:\n        /* \"#utility.yul\":7634:7640   */\n      dup7\n        /* \"#utility.yul\":7625:7632   */\n      dup4\n        /* \"#utility.yul\":7622:7641   */\n      lt\n        /* \"#utility.yul\":7619:7798   */\n      iszero\n      tag_168\n      jumpi\n        /* \"#utility.yul\":7692:7701   */\n      dup5\n        /* \"#utility.yul\":7687:7690   */\n      dup10\n        /* \"#utility.yul\":7683:7702   */\n      add\n        /* \"#utility.yul\":7677:7703   */\n      mload\n        /* \"#utility.yul\":7735:7783   */\n      tag_169\n        /* \"#utility.yul\":7777:7781   */\n      0x1f\n        /* \"#utility.yul\":7769:7775   */\n      dup10\n        /* \"#utility.yul\":7765:7782   */\n      and\n        /* \"#utility.yul\":7754:7763   */\n      dup3\n        /* \"#utility.yul\":7735:7783   */\n      tag_72\n      jump\t// in\n    tag_169:\n        /* \"#utility.yul\":7727:7733   */\n      dup4\n        /* \"#utility.yul\":7720:7784   */\n      sstore\n        /* \"#utility.yul\":7642:7798   */\n      pop\n        /* \"#utility.yul\":7619:7798   */\n    tag_168:\n        /* \"#utility.yul\":7844:7845   */\n      0x01\n        /* \"#utility.yul\":7840:7841   */\n      0x02\n        /* \"#utility.yul\":7832:7838   */\n      dup9\n        /* \"#utility.yul\":7828:7842   */\n      mul\n        /* \"#utility.yul\":7824:7846   */\n      add\n        /* \"#utility.yul\":7818:7822   */\n      dup9\n        /* \"#utility.yul\":7811:7847   */\n      sstore\n        /* \"#utility.yul\":7246:7857   */\n      pop\n      pop\n      pop\n        /* \"#utility.yul\":7209:8096   */\n    tag_160:\n      pop\n        /* \"#utility.yul\":6799:8102   */\n      pop\n      pop\n      pop\n        /* \"#utility.yul\":6707:8102   */\n      pop\n      pop\n      jump\t// out\n\n    auxdata: 0xa2646970667358221220d1915f352aaa04a2400b97c68b82ba9d2b8f2f602fe904414b0671546ebe9b7564736f6c63430008110033\n}\n",
				"bytecode": {
					"linkReferences": {},
					"object": "608060405234801561001057600080fd5b50610b8a806100206000396000f3fe608060405234801561001057600080fd5b50600436106100415760003560e01c80634b9698c614610046578063b34fad4114610050578063e53b109e14610070575b600080fd5b61004e6100a2565b005b6100586104e8565b604051610067939291906107ab565b60405180910390f35b61008a6004803603810190610085919061081a565b6105a8565b604051610099939291906107ab565b60405180910390f35b600060405180606001604052806040518060400160405280600781526020017f6c616b736861790000000000000000000000000000000000000000000000000081525081526020016016815260200173ab8483f64d9c6d1ecf9b849ae677dd3315835cb273ffffffffffffffffffffffffffffffffffffffff168152509050600060405180606001604052806040518060400160405280600481526020017f616a6179000000000000000000000000000000000000000000000000000000008152508152602001601681526020013373ffffffffffffffffffffffffffffffffffffffff16815250905061019461068a565b6040518060400160405280600481526020017f676f6c75000000000000000000000000000000000000000000000000000000008152508160000181905250601681602001818152505073ab8483f64d9c6d1ecf9b849ae677dd3315835cb2816040019073ffffffffffffffffffffffffffffffffffffffff16908173ffffffffffffffffffffffffffffffffffffffff16815250506003839080600181540180825580915050600190039060005260206000209060030201600090919091909150600082015181600001908161026a9190610a82565b506020820151816001015560408201518160020160006101000a81548173ffffffffffffffffffffffffffffffffffffffff021916908373ffffffffffffffffffffffffffffffffffffffff1602179055505050600382908060018154018082558091505060019003906000526020600020906003020160009091909190915060008201518160000190816102ff9190610a82565b506020820151816001015560408201518160020160006101000a81548173ffffffffffffffffffffffffffffffffffffffff021916908373ffffffffffffffffffffffffffffffffffffffff1602179055505050600381908060018154018082558091505060019003906000526020600020906003020160009091909190915060008201518160000190816103949190610a82565b506020820151816001015560408201518160020160006101000a81548173ffffffffffffffffffffffffffffffffffffffff021916908373ffffffffffffffffffffffffffffffffffffffff1602179055505050600360405180606001604052806040518060400160405280600481526020017f616c6c75000000000000000000000000000000000000000000000000000000008152508152602001601881526020013373ffffffffffffffffffffffffffffffffffffffff168152509080600181540180825580915050600190039060005260206000209060030201600090919091909150600082015181600001908161048f9190610a82565b506020820151816001015560408201518160020160006101000a81548173ffffffffffffffffffffffffffffffffffffffff021916908373ffffffffffffffffffffffffffffffffffffffff1602179055505050505050565b60008060000180546104f9906108a5565b80601f0160208091040260200160405190810160405280929190818152602001828054610525906108a5565b80156105725780601f1061054757610100808354040283529160200191610572565b820191906000526020600020905b81548152906001019060200180831161055557829003601f168201915b5050505050908060010154908060020160009054906101000a900473ffffffffffffffffffffffffffffffffffffffff16905083565b600381815481106105b857600080fd5b90600052602060002090600302016000915090508060000180546105db906108a5565b80601f0160208091040260200160405190810160405280929190818152602001828054610607906108a5565b80156106545780601f1061062957610100808354040283529160200191610654565b820191906000526020600020905b81548152906001019060200180831161063757829003601f168201915b5050505050908060010154908060020160009054906101000a900473ffffffffffffffffffffffffffffffffffffffff16905083565b60405180606001604052806060815260200160008152602001600073ffffffffffffffffffffffffffffffffffffffff1681525090565b600081519050919050565b600082825260208201905092915050565b60005b838110156106fb5780820151818401526020810190506106e0565b60008484015250505050565b6000601f19601f8301169050919050565b6000610723826106c1565b61072d81856106cc565b935061073d8185602086016106dd565b61074681610707565b840191505092915050565b6000819050919050565b61076481610751565b82525050565b600073ffffffffffffffffffffffffffffffffffffffff82169050919050565b60006107958261076a565b9050919050565b6107a58161078a565b82525050565b600060608201905081810360008301526107c58186610718565b90506107d4602083018561075b565b6107e1604083018461079c565b949350505050565b600080fd5b6107f781610751565b811461080257600080fd5b50565b600081359050610814816107ee565b92915050565b6000602082840312156108305761082f6107e9565b5b600061083e84828501610805565b91505092915050565b7f4e487b7100000000000000000000000000000000000000000000000000000000600052604160045260246000fd5b7f4e487b7100000000000000000000000000000000000000000000000000000000600052602260045260246000fd5b600060028204905060018216806108bd57607f821691505b6020821081036108d0576108cf610876565b5b50919050565b60008190508160005260206000209050919050565b60006020601f8301049050919050565b600082821b905092915050565b6000600883026109387fffffffffffffffffffffffffffffffffffffffffffffffffffffffffffffffff826108fb565b61094286836108fb565b95508019841693508086168417925050509392505050565b6000819050919050565b600061097f61097a61097584610751565b61095a565b610751565b9050919050565b6000819050919050565b61099983610964565b6109ad6109a582610986565b848454610908565b825550505050565b600090565b6109c26109b5565b6109cd818484610990565b505050565b5b818110156109f1576109e66000826109ba565b6001810190506109d3565b5050565b601f821115610a3657610a07816108d6565b610a10846108eb565b81016020851015610a1f578190505b610a33610a2b856108eb565b8301826109d2565b50505b505050565b600082821c905092915050565b6000610a5960001984600802610a3b565b1980831691505092915050565b6000610a728383610a48565b9150826002028217905092915050565b610a8b826106c1565b67ffffffffffffffff811115610aa457610aa3610847565b5b610aae82546108a5565b610ab98282856109f5565b600060209050601f831160018114610aec5760008415610ada578287015190505b610ae48582610a66565b865550610b4c565b601f198416610afa866108d6565b60005b82811015610b2257848901518255600182019150602085019450602081019050610afd565b86831015610b3f5784890151610b3b601f891682610a48565b8355505b6001600288020188555050505b50505050505056fea2646970667358221220d1915f352aaa04a2400b97c68b82ba9d2b8f2f602fe904414b0671546ebe9b7564736f6c63430008110033",
					"opcodes": "PUSH1 0x80 PUSH1 0x40 MSTORE CALLVALUE DUP1 ISZERO PUSH2 0x10 JUMPI PUSH1 0x0 DUP1 REVERT JUMPDEST POP PUSH2 0xB8A DUP1 PUSH2 0x20 PUSH1 0x0 CODECOPY PUSH1 0x0 RETURN INVALID PUSH1 0x80 PUSH1 0x40 MSTORE CALLVALUE DUP1 ISZERO PUSH2 0x10 JUMPI PUSH1 0x0 DUP1 REVERT JUMPDEST POP PUSH1 0x4 CALLDATASIZE LT PUSH2 0x41 JUMPI PUSH1 0x0 CALLDATALOAD PUSH1 0xE0 SHR DUP1 PUSH4 0x4B9698C6 EQ PUSH2 0x46 JUMPI DUP1 PUSH4 0xB34FAD41 EQ PUSH2 0x50 JUMPI DUP1 PUSH4 0xE53B109E EQ PUSH2 0x70 JUMPI JUMPDEST PUSH1 0x0 DUP1 REVERT JUMPDEST PUSH2 0x4E PUSH2 0xA2 JUMP JUMPDEST STOP JUMPDEST PUSH2 0x58 PUSH2 0x4E8 JUMP JUMPDEST PUSH1 0x40 MLOAD PUSH2 0x67 SWAP4 SWAP3 SWAP2 SWAP1 PUSH2 0x7AB JUMP JUMPDEST PUSH1 0x40 MLOAD DUP1 SWAP2 SUB SWAP1 RETURN JUMPDEST PUSH2 0x8A PUSH1 0x4 DUP1 CALLDATASIZE SUB DUP2 ADD SWAP1 PUSH2 0x85 SWAP2 SWAP1 PUSH2 0x81A JUMP JUMPDEST PUSH2 0x5A8 JUMP JUMPDEST PUSH1 0x40 MLOAD PUSH2 0x99 SWAP4 SWAP3 SWAP2 SWAP1 PUSH2 0x7AB JUMP JUMPDEST PUSH1 0x40 MLOAD DUP1 SWAP2 SUB SWAP1 RETURN JUMPDEST PUSH1 0x0 PUSH1 0x40 MLOAD DUP1 PUSH1 0x60 ADD PUSH1 0x40 MSTORE DUP1 PUSH1 0x40 MLOAD DUP1 PUSH1 0x40 ADD PUSH1 0x40 MSTORE DUP1 PUSH1 0x7 DUP2 MSTORE PUSH1 0x20 ADD PUSH32 0x6C616B7368617900000000000000000000000000000000000000000000000000 DUP2 MSTORE POP DUP2 MSTORE PUSH1 0x20 ADD PUSH1 0x16 DUP2 MSTORE PUSH1 0x20 ADD PUSH20 0xAB8483F64D9C6D1ECF9B849AE677DD3315835CB2 PUSH20 0xFFFFFFFFFFFFFFFFFFFFFFFFFFFFFFFFFFFFFFFF AND DUP2 MSTORE POP SWAP1 POP PUSH1 0x0 PUSH1 0x40 MLOAD DUP1 PUSH1 0x60 ADD PUSH1 0x40 MSTORE DUP1 PUSH1 0x40 MLOAD DUP1 PUSH1 0x40 ADD PUSH1 0x40 MSTORE DUP1 PUSH1 0x4 DUP2 MSTORE PUSH1 0x20 ADD PUSH32 0x616A617900000000000000000000000000000000000000000000000000000000 DUP2 MSTORE POP DUP2 MSTORE PUSH1 0x20 ADD PUSH1 0x16 DUP2 MSTORE PUSH1 0x20 ADD CALLER PUSH20 0xFFFFFFFFFFFFFFFFFFFFFFFFFFFFFFFFFFFFFFFF AND DUP2 MSTORE POP SWAP1 POP PUSH2 0x194 PUSH2 0x68A JUMP JUMPDEST PUSH1 0x40 MLOAD DUP1 PUSH1 0x40 ADD PUSH1 0x40 MSTORE DUP1 PUSH1 0x4 DUP2 MSTORE PUSH1 0x20 ADD PUSH32 0x676F6C7500000000000000000000000000000000000000000000000000000000 DUP2 MSTORE POP DUP2 PUSH1 0x0 ADD DUP2 SWAP1 MSTORE POP PUSH1 0x16 DUP2 PUSH1 0x20 ADD DUP2 DUP2 MSTORE POP POP PUSH20 0xAB8483F64D9C6D1ECF9B849AE677DD3315835CB2 DUP2 PUSH1 0x40 ADD SWAP1 PUSH20 0xFFFFFFFFFFFFFFFFFFFFFFFFFFFFFFFFFFFFFFFF AND SWAP1 DUP2 PUSH20 0xFFFFFFFFFFFFFFFFFFFFFFFFFFFFFFFFFFFFFFFF AND DUP2 MSTORE POP POP PUSH1 0x3 DUP4 SWAP1 DUP1 PUSH1 0x1 DUP2 SLOAD ADD DUP1 DUP3 SSTORE DUP1 SWAP2 POP POP PUSH1 0x1 SWAP1 SUB SWAP1 PUSH1 0x0 MSTORE PUSH1 0x20 PUSH1 0x0 KECCAK256 SWAP1 PUSH1 0x3 MUL ADD PUSH1 0x0 SWAP1 SWAP2 SWAP1 SWAP2 SWAP1 SWAP2 POP PUSH1 0x0 DUP3 ADD MLOAD DUP2 PUSH1 0x0 ADD SWAP1 DUP2 PUSH2 0x26A SWAP2 SWAP1 PUSH2 0xA82 JUMP JUMPDEST POP PUSH1 0x20 DUP3 ADD MLOAD DUP2 PUSH1 0x1 ADD SSTORE PUSH1 0x40 DUP3 ADD MLOAD DUP2 PUSH1 0x2 ADD PUSH1 0x0 PUSH2 0x100 EXP DUP2 SLOAD DUP2 PUSH20 0xFFFFFFFFFFFFFFFFFFFFFFFFFFFFFFFFFFFFFFFF MUL NOT AND SWAP1 DUP4 PUSH20 0xFFFFFFFFFFFFFFFFFFFFFFFFFFFFFFFFFFFFFFFF AND MUL OR SWAP1 SSTORE POP POP POP PUSH1 0x3 DUP3 SWAP1 DUP1 PUSH1 0x1 DUP2 SLOAD ADD DUP1 DUP3 SSTORE DUP1 SWAP2 POP POP PUSH1 0x1 SWAP1 SUB SWAP1 PUSH1 0x0 MSTORE PUSH1 0x20 PUSH1 0x0 KECCAK256 SWAP1 PUSH1 0x3 MUL ADD PUSH1 0x0 SWAP1 SWAP2 SWAP1 SWAP2 SWAP1 SWAP2 POP PUSH1 0x0 DUP3 ADD MLOAD DUP2 PUSH1 0x0 ADD SWAP1 DUP2 PUSH2 0x2FF SWAP2 SWAP1 PUSH2 0xA82 JUMP JUMPDEST POP PUSH1 0x20 DUP3 ADD MLOAD DUP2 PUSH1 0x1 ADD SSTORE PUSH1 0x40 DUP3 ADD MLOAD DUP2 PUSH1 0x2 ADD PUSH1 0x0 PUSH2 0x100 EXP DUP2 SLOAD DUP2 PUSH20 0xFFFFFFFFFFFFFFFFFFFFFFFFFFFFFFFFFFFFFFFF MUL NOT AND SWAP1 DUP4 PUSH20 0xFFFFFFFFFFFFFFFFFFFFFFFFFFFFFFFFFFFFFFFF AND MUL OR SWAP1 SSTORE POP POP POP PUSH1 0x3 DUP2 SWAP1 DUP1 PUSH1 0x1 DUP2 SLOAD ADD DUP1 DUP3 SSTORE DUP1 SWAP2 POP POP PUSH1 0x1 SWAP1 SUB SWAP1 PUSH1 0x0 MSTORE PUSH1 0x20 PUSH1 0x0 KECCAK256 SWAP1 PUSH1 0x3 MUL ADD PUSH1 0x0 SWAP1 SWAP2 SWAP1 SWAP2 SWAP1 SWAP2 POP PUSH1 0x0 DUP3 ADD MLOAD DUP2 PUSH1 0x0 ADD SWAP1 DUP2 PUSH2 0x394 SWAP2 SWAP1 PUSH2 0xA82 JUMP JUMPDEST POP PUSH1 0x20 DUP3 ADD MLOAD DUP2 PUSH1 0x1 ADD SSTORE PUSH1 0x40 DUP3 ADD MLOAD DUP2 PUSH1 0x2 ADD PUSH1 0x0 PUSH2 0x100 EXP DUP2 SLOAD DUP2 PUSH20 0xFFFFFFFFFFFFFFFFFFFFFFFFFFFFFFFFFFFFFFFF MUL NOT AND SWAP1 DUP4 PUSH20 0xFFFFFFFFFFFFFFFFFFFFFFFFFFFFFFFFFFFFFFFF AND MUL OR SWAP1 SSTORE POP POP POP PUSH1 0x3 PUSH1 0x40 MLOAD DUP1 PUSH1 0x60 ADD PUSH1 0x40 MSTORE DUP1 PUSH1 0x40 MLOAD DUP1 PUSH1 0x40 ADD PUSH1 0x40 MSTORE DUP1 PUSH1 0x4 DUP2 MSTORE PUSH1 0x20 ADD PUSH32 0x616C6C7500000000000000000000000000000000000000000000000000000000 DUP2 MSTORE POP DUP2 MSTORE PUSH1 0x20 ADD PUSH1 0x18 DUP2 MSTORE PUSH1 0x20 ADD CALLER PUSH20 0xFFFFFFFFFFFFFFFFFFFFFFFFFFFFFFFFFFFFFFFF AND DUP2 MSTORE POP SWAP1 DUP1 PUSH1 0x1 DUP2 SLOAD ADD DUP1 DUP3 SSTORE DUP1 SWAP2 POP POP PUSH1 0x1 SWAP1 SUB SWAP1 PUSH1 0x0 MSTORE PUSH1 0x20 PUSH1 0x0 KECCAK256 SWAP1 PUSH1 0x3 MUL ADD PUSH1 0x0 SWAP1 SWAP2 SWAP1 SWAP2 SWAP1 SWAP2 POP PUSH1 0x0 DUP3 ADD MLOAD DUP2 PUSH1 0x0 ADD SWAP1 DUP2 PUSH2 0x48F SWAP2 SWAP1 PUSH2 0xA82 JUMP JUMPDEST POP PUSH1 0x20 DUP3 ADD MLOAD DUP2 PUSH1 0x1 ADD SSTORE PUSH1 0x40 DUP3 ADD MLOAD DUP2 PUSH1 0x2 ADD PUSH1 0x0 PUSH2 0x100 EXP DUP2 SLOAD DUP2 PUSH20 0xFFFFFFFFFFFFFFFFFFFFFFFFFFFFFFFFFFFFFFFF MUL NOT AND SWAP1 DUP4 PUSH20 0xFFFFFFFFFFFFFFFFFFFFFFFFFFFFFFFFFFFFFFFF AND MUL OR SWAP1 SSTORE POP POP POP POP POP POP JUMP JUMPDEST PUSH1 0x0 DUP1 PUSH1 0x0 ADD DUP1 SLOAD PUSH2 0x4F9 SWAP1 PUSH2 0x8A5 JUMP JUMPDEST DUP1 PUSH1 0x1F ADD PUSH1 0x20 DUP1 SWAP2 DIV MUL PUSH1 0x20 ADD PUSH1 0x40 MLOAD SWAP1 DUP2 ADD PUSH1 0x40 MSTORE DUP1 SWAP3 SWAP2 SWAP1 DUP2 DUP2 MSTORE PUSH1 0x20 ADD DUP3 DUP1 SLOAD PUSH2 0x525 SWAP1 PUSH2 0x8A5 JUMP JUMPDEST DUP1 ISZERO PUSH2 0x572 JUMPI DUP1 PUSH1 0x1F LT PUSH2 0x547 JUMPI PUSH2 0x100 DUP1 DUP4 SLOAD DIV MUL DUP4 MSTORE SWAP2 PUSH1 0x20 ADD SWAP2 PUSH2 0x572 JUMP JUMPDEST DUP3 ADD SWAP2 SWAP1 PUSH1 0x0 MSTORE PUSH1 0x20 PUSH1 0x0 KECCAK256 SWAP1 JUMPDEST DUP2 SLOAD DUP2 MSTORE SWAP1 PUSH1 0x1 ADD SWAP1 PUSH1 0x20 ADD DUP1 DUP4 GT PUSH2 0x555 JUMPI DUP3 SWAP1 SUB PUSH1 0x1F AND DUP3 ADD SWAP2 JUMPDEST POP POP POP POP POP SWAP1 DUP1 PUSH1 0x1 ADD SLOAD SWAP1 DUP1 PUSH1 0x2 ADD PUSH1 0x0 SWAP1 SLOAD SWAP1 PUSH2 0x100 EXP SWAP1 DIV PUSH20 0xFFFFFFFFFFFFFFFFFFFFFFFFFFFFFFFFFFFFFFFF AND SWAP1 POP DUP4 JUMP JUMPDEST PUSH1 0x3 DUP2 DUP2 SLOAD DUP2 LT PUSH2 0x5B8 JUMPI PUSH1 0x0 DUP1 REVERT JUMPDEST SWAP1 PUSH1 0x0 MSTORE PUSH1 0x20 PUSH1 0x0 KECCAK256 SWAP1 PUSH1 0x3 MUL ADD PUSH1 0x0 SWAP2 POP SWAP1 POP DUP1 PUSH1 0x0 ADD DUP1 SLOAD PUSH2 0x5DB SWAP1 PUSH2 0x8A5 JUMP JUMPDEST DUP1 PUSH1 0x1F ADD PUSH1 0x20 DUP1 SWAP2 DIV MUL PUSH1 0x20 ADD PUSH1 0x40 MLOAD SWAP1 DUP2 ADD PUSH1 0x40 MSTORE DUP1 SWAP3 SWAP2 SWAP1 DUP2 DUP2 MSTORE PUSH1 0x20 ADD DUP3 DUP1 SLOAD PUSH2 0x607 SWAP1 PUSH2 0x8A5 JUMP JUMPDEST DUP1 ISZERO PUSH2 0x654 JUMPI DUP1 PUSH1 0x1F LT PUSH2 0x629 JUMPI PUSH2 0x100 DUP1 DUP4 SLOAD DIV MUL DUP4 MSTORE SWAP2 PUSH1 0x20 ADD SWAP2 PUSH2 0x654 JUMP JUMPDEST DUP3 ADD SWAP2 SWAP1 PUSH1 0x0 MSTORE PUSH1 0x20 PUSH1 0x0 KECCAK256 SWAP1 JUMPDEST DUP2 SLOAD DUP2 MSTORE SWAP1 PUSH1 0x1 ADD SWAP1 PUSH1 0x20 ADD DUP1 DUP4 GT PUSH2 0x637 JUMPI DUP3 SWAP1 SUB PUSH1 0x1F AND DUP3 ADD SWAP2 JUMPDEST POP POP POP POP POP SWAP1 DUP1 PUSH1 0x1 ADD SLOAD SWAP1 DUP1 PUSH1 0x2 ADD PUSH1 0x0 SWAP1 SLOAD SWAP1 PUSH2 0x100 EXP SWAP1 DIV PUSH20 0xFFFFFFFFFFFFFFFFFFFFFFFFFFFFFFFFFFFFFFFF AND SWAP1 POP DUP4 JUMP JUMPDEST PUSH1 0x40 MLOAD DUP1 PUSH1 0x60 ADD PUSH1 0x40 MSTORE DUP1 PUSH1 0x60 DUP2 MSTORE PUSH1 0x20 ADD PUSH1 0x0 DUP2 MSTORE PUSH1 0x20 ADD PUSH1 0x0 PUSH20 0xFFFFFFFFFFFFFFFFFFFFFFFFFFFFFFFFFFFFFFFF AND DUP2 MSTORE POP SWAP1 JUMP JUMPDEST PUSH1 0x0 DUP2 MLOAD SWAP1 POP SWAP2 SWAP1 POP JUMP JUMPDEST PUSH1 0x0 DUP3 DUP3 MSTORE PUSH1 0x20 DUP3 ADD SWAP1 POP SWAP3 SWAP2 POP POP JUMP JUMPDEST PUSH1 0x0 JUMPDEST DUP4 DUP2 LT ISZERO PUSH2 0x6FB JUMPI DUP1 DUP3 ADD MLOAD DUP2 DUP5 ADD MSTORE PUSH1 0x20 DUP2 ADD SWAP1 POP PUSH2 0x6E0 JUMP JUMPDEST PUSH1 0x0 DUP5 DUP5 ADD MSTORE POP POP POP POP JUMP JUMPDEST PUSH1 0x0 PUSH1 0x1F NOT PUSH1 0x1F DUP4 ADD AND SWAP1 POP SWAP2 SWAP1 POP JUMP JUMPDEST PUSH1 0x0 PUSH2 0x723 DUP3 PUSH2 0x6C1 JUMP JUMPDEST PUSH2 0x72D DUP2 DUP6 PUSH2 0x6CC JUMP JUMPDEST SWAP4 POP PUSH2 0x73D DUP2 DUP6 PUSH1 0x20 DUP7 ADD PUSH2 0x6DD JUMP JUMPDEST PUSH2 0x746 DUP2 PUSH2 0x707 JUMP JUMPDEST DUP5 ADD SWAP2 POP POP SWAP3 SWAP2 POP POP JUMP JUMPDEST PUSH1 0x0 DUP2 SWAP1 POP SWAP2 SWAP1 POP JUMP JUMPDEST PUSH2 0x764 DUP2 PUSH2 0x751 JUMP JUMPDEST DUP3 MSTORE POP POP JUMP JUMPDEST PUSH1 0x0 PUSH20 0xFFFFFFFFFFFFFFFFFFFFFFFFFFFFFFFFFFFFFFFF DUP3 AND SWAP1 POP SWAP2 SWAP1 POP JUMP JUMPDEST PUSH1 0x0 PUSH2 0x795 DUP3 PUSH2 0x76A JUMP JUMPDEST SWAP1 POP SWAP2 SWAP1 POP JUMP JUMPDEST PUSH2 0x7A5 DUP2 PUSH2 0x78A JUMP JUMPDEST DUP3 MSTORE POP POP JUMP JUMPDEST PUSH1 0x0 PUSH1 0x60 DUP3 ADD SWAP1 POP DUP2 DUP2 SUB PUSH1 0x0 DUP4 ADD MSTORE PUSH2 0x7C5 DUP2 DUP7 PUSH2 0x718 JUMP JUMPDEST SWAP1 POP PUSH2 0x7D4 PUSH1 0x20 DUP4 ADD DUP6 PUSH2 0x75B JUMP JUMPDEST PUSH2 0x7E1 PUSH1 0x40 DUP4 ADD DUP5 PUSH2 0x79C JUMP JUMPDEST SWAP5 SWAP4 POP POP POP POP JUMP JUMPDEST PUSH1 0x0 DUP1 REVERT JUMPDEST PUSH2 0x7F7 DUP2 PUSH2 0x751 JUMP JUMPDEST DUP2 EQ PUSH2 0x802 JUMPI PUSH1 0x0 DUP1 REVERT JUMPDEST POP JUMP JUMPDEST PUSH1 0x0 DUP2 CALLDATALOAD SWAP1 POP PUSH2 0x814 DUP2 PUSH2 0x7EE JUMP JUMPDEST SWAP3 SWAP2 POP POP JUMP JUMPDEST PUSH1 0x0 PUSH1 0x20 DUP3 DUP5 SUB SLT ISZERO PUSH2 0x830 JUMPI PUSH2 0x82F PUSH2 0x7E9 JUMP JUMPDEST JUMPDEST PUSH1 0x0 PUSH2 0x83E DUP5 DUP3 DUP6 ADD PUSH2 0x805 JUMP JUMPDEST SWAP2 POP POP SWAP3 SWAP2 POP POP JUMP JUMPDEST PUSH32 0x4E487B7100000000000000000000000000000000000000000000000000000000 PUSH1 0x0 MSTORE PUSH1 0x41 PUSH1 0x4 MSTORE PUSH1 0x24 PUSH1 0x0 REVERT JUMPDEST PUSH32 0x4E487B7100000000000000000000000000000000000000000000000000000000 PUSH1 0x0 MSTORE PUSH1 0x22 PUSH1 0x4 MSTORE PUSH1 0x24 PUSH1 0x0 REVERT JUMPDEST PUSH1 0x0 PUSH1 0x2 DUP3 DIV SWAP1 POP PUSH1 0x1 DUP3 AND DUP1 PUSH2 0x8BD JUMPI PUSH1 0x7F DUP3 AND SWAP2 POP JUMPDEST PUSH1 0x20 DUP3 LT DUP2 SUB PUSH2 0x8D0 JUMPI PUSH2 0x8CF PUSH2 0x876 JUMP JUMPDEST JUMPDEST POP SWAP2 SWAP1 POP JUMP JUMPDEST PUSH1 0x0 DUP2 SWAP1 POP DUP2 PUSH1 0x0 MSTORE PUSH1 0x20 PUSH1 0x0 KECCAK256 SWAP1 POP SWAP2 SWAP1 POP JUMP JUMPDEST PUSH1 0x0 PUSH1 0x20 PUSH1 0x1F DUP4 ADD DIV SWAP1 POP SWAP2 SWAP1 POP JUMP JUMPDEST PUSH1 0x0 DUP3 DUP3 SHL SWAP1 POP SWAP3 SWAP2 POP POP JUMP JUMPDEST PUSH1 0x0 PUSH1 0x8 DUP4 MUL PUSH2 0x938 PUSH32 0xFFFFFFFFFFFFFFFFFFFFFFFFFFFFFFFFFFFFFFFFFFFFFFFFFFFFFFFFFFFFFFFF DUP3 PUSH2 0x8FB JUMP JUMPDEST PUSH2 0x942 DUP7 DUP4 PUSH2 0x8FB JUMP JUMPDEST SWAP6 POP DUP1 NOT DUP5 AND SWAP4 POP DUP1 DUP7 AND DUP5 OR SWAP3 POP POP POP SWAP4 SWAP3 POP POP POP JUMP JUMPDEST PUSH1 0x0 DUP2 SWAP1 POP SWAP2 SWAP1 POP JUMP JUMPDEST PUSH1 0x0 PUSH2 0x97F PUSH2 0x97A PUSH2 0x975 DUP5 PUSH2 0x751 JUMP JUMPDEST PUSH2 0x95A JUMP JUMPDEST PUSH2 0x751 JUMP JUMPDEST SWAP1 POP SWAP2 SWAP1 POP JUMP JUMPDEST PUSH1 0x0 DUP2 SWAP1 POP SWAP2 SWAP1 POP JUMP JUMPDEST PUSH2 0x999 DUP4 PUSH2 0x964 JUMP JUMPDEST PUSH2 0x9AD PUSH2 0x9A5 DUP3 PUSH2 0x986 JUMP JUMPDEST DUP5 DUP5 SLOAD PUSH2 0x908 JUMP JUMPDEST DUP3 SSTORE POP POP POP POP JUMP JUMPDEST PUSH1 0x0 SWAP1 JUMP JUMPDEST PUSH2 0x9C2 PUSH2 0x9B5 JUMP JUMPDEST PUSH2 0x9CD DUP2 DUP5 DUP5 PUSH2 0x990 JUMP JUMPDEST POP POP POP JUMP JUMPDEST JUMPDEST DUP2 DUP2 LT ISZERO PUSH2 0x9F1 JUMPI PUSH2 0x9E6 PUSH1 0x0 DUP3 PUSH2 0x9BA JUMP JUMPDEST PUSH1 0x1 DUP2 ADD SWAP1 POP PUSH2 0x9D3 JUMP JUMPDEST POP POP JUMP JUMPDEST PUSH1 0x1F DUP3 GT ISZERO PUSH2 0xA36 JUMPI PUSH2 0xA07 DUP2 PUSH2 0x8D6 JUMP JUMPDEST PUSH2 0xA10 DUP5 PUSH2 0x8EB JUMP JUMPDEST DUP2 ADD PUSH1 0x20 DUP6 LT ISZERO PUSH2 0xA1F JUMPI DUP2 SWAP1 POP JUMPDEST PUSH2 0xA33 PUSH2 0xA2B DUP6 PUSH2 0x8EB JUMP JUMPDEST DUP4 ADD DUP3 PUSH2 0x9D2 JUMP JUMPDEST POP POP JUMPDEST POP POP POP JUMP JUMPDEST PUSH1 0x0 DUP3 DUP3 SHR SWAP1 POP SWAP3 SWAP2 POP POP JUMP JUMPDEST PUSH1 0x0 PUSH2 0xA59 PUSH1 0x0 NOT DUP5 PUSH1 0x8 MUL PUSH2 0xA3B JUMP JUMPDEST NOT DUP1 DUP4 AND SWAP2 POP POP SWAP3 SWAP2 POP POP JUMP JUMPDEST PUSH1 0x0 PUSH2 0xA72 DUP4 DUP4 PUSH2 0xA48 JUMP JUMPDEST SWAP2 POP DUP3 PUSH1 0x2 MUL DUP3 OR SWAP1 POP SWAP3 SWAP2 POP POP JUMP JUMPDEST PUSH2 0xA8B DUP3 PUSH2 0x6C1 JUMP JUMPDEST PUSH8 0xFFFFFFFFFFFFFFFF DUP2 GT ISZERO PUSH2 0xAA4 JUMPI PUSH2 0xAA3 PUSH2 0x847 JUMP JUMPDEST JUMPDEST PUSH2 0xAAE DUP3 SLOAD PUSH2 0x8A5 JUMP JUMPDEST PUSH2 0xAB9 DUP3 DUP3 DUP6 PUSH2 0x9F5 JUMP JUMPDEST PUSH1 0x0 PUSH1 0x20 SWAP1 POP PUSH1 0x1F DUP4 GT PUSH1 0x1 DUP2 EQ PUSH2 0xAEC JUMPI PUSH1 0x0 DUP5 ISZERO PUSH2 0xADA JUMPI DUP3 DUP8 ADD MLOAD SWAP1 POP JUMPDEST PUSH2 0xAE4 DUP6 DUP3 PUSH2 0xA66 JUMP JUMPDEST DUP7 SSTORE POP PUSH2 0xB4C JUMP JUMPDEST PUSH1 0x1F NOT DUP5 AND PUSH2 0xAFA DUP7 PUSH2 0x8D6 JUMP JUMPDEST PUSH1 0x0 JUMPDEST DUP3 DUP2 LT ISZERO PUSH2 0xB22 JUMPI DUP5 DUP10 ADD MLOAD DUP3 SSTORE PUSH1 0x1 DUP3 ADD SWAP2 POP PUSH1 0x20 DUP6 ADD SWAP5 POP PUSH1 0x20 DUP2 ADD SWAP1 POP PUSH2 0xAFD JUMP JUMPDEST DUP7 DUP4 LT ISZERO PUSH2 0xB3F JUMPI DUP5 DUP10 ADD MLOAD PUSH2 0xB3B PUSH1 0x1F DUP10 AND DUP3 PUSH2 0xA48 JUMP JUMPDEST DUP4 SSTORE POP JUMPDEST PUSH1 0x1 PUSH1 0x2 DUP9 MUL ADD DUP9 SSTORE POP POP POP JUMPDEST POP POP POP POP POP POP JUMP INVALID LOG2 PUSH5 0x6970667358 0x22 SLT KECCAK256 0xD1 SWAP2 0x5F CALLDATALOAD 0x2A 0xAA DIV LOG2 BLOCKHASH SIGNEXTEND SWAP8 0xC6 DUP12 DUP3 0xBA SWAP14 0x2B DUP16 0x2F PUSH1 0x2F 0xE9 DIV COINBASE 0x4B MOD PUSH18 0x546EBE9B7564736F6C634300081100330000 "
				},
				"gasEstimates": {
					"creation": {
						"codeDepositCost": "590800",
						"executionCost": "625",
						"totalCost": "591425"
					},
					"external": {
						"emp()": "infinite",
						"emps(uint256)": "infinite",
						"setvalues()": "infinite"
					}
				},
				"methodIdentifiers": {
					"emp()": "b34fad41",
					"emps(uint256)": "e53b109e",
					"setvalues()": "4b9698c6"
				}
			},
			"storageLayout": {
				"storage": [
					{
						"astId": 11,
						"contract": "contracts/STRUCT.sol:STRUCT",
						"label": "emp",
						"offset": 0,
						"slot": "0",
						"type": "t_struct(Emp)8_storage"
					},
					{
						"astId": 15,
						"contract": "contracts/STRUCT.sol:STRUCT",
						"label": "emps",
						"offset": 0,
						"slot": "3",
						"type": "t_array(t_struct(Emp)8_storage)dyn_storage"
					}
				],
				"types": {
					"t_address": {
						"encoding": "inplace",
						"label": "address",
						"numberOfBytes": "20"
					},
					"t_array(t_struct(Emp)8_storage)dyn_storage": {
						"base": "t_struct(Emp)8_storage",
						"encoding": "dynamic_array",
						"label": "struct STRUCT.Emp[]",
						"numberOfBytes": "32"
					},
					"t_string_storage": {
						"encoding": "bytes",
						"label": "string",
						"numberOfBytes": "32"
					},
					"t_struct(Emp)8_storage": {
						"encoding": "inplace",
						"label": "struct STRUCT.Emp",
						"members": [
							{
								"astId": 3,
								"contract": "contracts/STRUCT.sol:STRUCT",
								"label": "name",
								"offset": 0,
								"slot": "0",
								"type": "t_string_storage"
							},
							{
								"astId": 5,
								"contract": "contracts/STRUCT.sol:STRUCT",
								"label": "age",
								"offset": 0,
								"slot": "1",
								"type": "t_uint256"
							},
							{
								"astId": 7,
								"contract": "contracts/STRUCT.sol:STRUCT",
								"label": "acc",
								"offset": 0,
								"slot": "2",
								"type": "t_address"
							}
						],
						"numberOfBytes": "96"
					},
					"t_uint256": {
						"encoding": "inplace",
						"label": "uint256",
						"numberOfBytes": "32"
					}
				}
			},
			"userdoc": {
				"kind": "user",
				"methods": {},
				"version": 1
			}
		}
	}
}