{
	"contracts/parent_function_calling_child.sol": {
		"B": {
			"abi": [
				{
					"anonymous": false,
					"inputs": [
						{
							"indexed": false,
							"internalType": "string",
							"name": "name",
							"type": "string"
						},
						{
							"indexed": false,
							"internalType": "uint256",
							"name": "age",
							"type": "uint256"
						}
					],
					"name": "log",
					"type": "event"
				},
				{
					"inputs": [],
					"name": "fun1",
					"outputs": [],
					"stateMutability": "nonpayable",
					"type": "function"
				},
				{
					"inputs": [],
					"name": "fun2",
					"outputs": [],
					"stateMutability": "nonpayable",
					"type": "function"
				}
			],
			"devdoc": {
				"kind": "dev",
				"methods": {},
				"version": 1
			},
			"evm": {
				"assembly": "    /* \"contracts/parent_function_calling_child.sol\":318:806  contract B is A{... */\n  mstore(0x40, 0x80)\n  callvalue\n  dup1\n  iszero\n  tag_1\n  jumpi\n  0x00\n  dup1\n  revert\ntag_1:\n  pop\n  dataSize(sub_0)\n  dup1\n  dataOffset(sub_0)\n  0x00\n  codecopy\n  0x00\n  return\nstop\n\nsub_0: assembly {\n        /* \"contracts/parent_function_calling_child.sol\":318:806  contract B is A{... */\n      mstore(0x40, 0x80)\n      callvalue\n      dup1\n      iszero\n      tag_1\n      jumpi\n      0x00\n      dup1\n      revert\n    tag_1:\n      pop\n      jumpi(tag_2, lt(calldatasize, 0x04))\n      shr(0xe0, calldataload(0x00))\n      dup1\n      0x157b5167\n      eq\n      tag_3\n      jumpi\n      dup1\n      0x446a45b7\n      eq\n      tag_4\n      jumpi\n    tag_2:\n      0x00\n      dup1\n      revert\n        /* \"contracts/parent_function_calling_child.sol\":558:799  function fun2()public virtual override{... */\n    tag_3:\n      tag_5\n      tag_6\n      jump\t// in\n    tag_5:\n      stop\n        /* \"contracts/parent_function_calling_child.sol\":345:548  function fun1()public virtual override{... */\n    tag_4:\n      tag_7\n      tag_8\n      jump\t// in\n    tag_7:\n      stop\n        /* \"contracts/parent_function_calling_child.sol\":558:799  function fun2()public virtual override{... */\n    tag_6:\n        /* \"contracts/parent_function_calling_child.sol\":616:632  log(\"B.fun2\",22) */\n      0xb60e72ccf6d57ab53eb84d7e94a9545806ed7f93c4d5673f11a64f03471e584e\n        /* \"contracts/parent_function_calling_child.sol\":629:631  22 */\n      0x16\n        /* \"contracts/parent_function_calling_child.sol\":616:632  log(\"B.fun2\",22) */\n      mload(0x40)\n      tag_10\n      swap2\n      swap1\n      tag_11\n      jump\t// in\n    tag_10:\n      mload(0x40)\n      dup1\n      swap2\n      sub\n      swap1\n      log1\n        /* \"contracts/parent_function_calling_child.sol\":647:659  super.fun2() */\n      tag_12\n        /* \"contracts/parent_function_calling_child.sol\":647:657  super.fun2 */\n      tag_13\n        /* \"contracts/parent_function_calling_child.sol\":647:659  super.fun2() */\n      jump\t// in\n    tag_12:\n        /* \"contracts/parent_function_calling_child.sol\":558:799  function fun2()public virtual override{... */\n      jump\t// out\n        /* \"contracts/parent_function_calling_child.sol\":345:548  function fun1()public virtual override{... */\n    tag_8:\n        /* \"contracts/parent_function_calling_child.sol\":403:419  log(\"B.fun1\",22) */\n      0xb60e72ccf6d57ab53eb84d7e94a9545806ed7f93c4d5673f11a64f03471e584e\n        /* \"contracts/parent_function_calling_child.sol\":416:418  22 */\n      0x16\n        /* \"contracts/parent_function_calling_child.sol\":403:419  log(\"B.fun1\",22) */\n      mload(0x40)\n      tag_15\n      swap2\n      swap1\n      tag_16\n      jump\t// in\n    tag_15:\n      mload(0x40)\n      dup1\n      swap2\n      sub\n      swap1\n      log1\n        /* \"contracts/parent_function_calling_child.sol\":434:442  A.fun1() */\n      tag_17\n        /* \"contracts/parent_function_calling_child.sol\":434:440  A.fun1 */\n      tag_18\n        /* \"contracts/parent_function_calling_child.sol\":434:442  A.fun1() */\n      jump\t// in\n    tag_17:\n        /* \"contracts/parent_function_calling_child.sol\":345:548  function fun1()public virtual override{... */\n      jump\t// out\n        /* \"contracts/parent_function_calling_child.sol\":222:299  function fun2()public virtual{... */\n    tag_13:\n        /* \"contracts/parent_function_calling_child.sol\":271:287  log(\"A.fun2\",23) */\n      0xb60e72ccf6d57ab53eb84d7e94a9545806ed7f93c4d5673f11a64f03471e584e\n        /* \"contracts/parent_function_calling_child.sol\":284:286  23 */\n      0x17\n        /* \"contracts/parent_function_calling_child.sol\":271:287  log(\"A.fun2\",23) */\n      mload(0x40)\n      tag_20\n      swap2\n      swap1\n      tag_21\n      jump\t// in\n    tag_20:\n      mload(0x40)\n      dup1\n      swap2\n      sub\n      swap1\n      log1\n        /* \"contracts/parent_function_calling_child.sol\":222:299  function fun2()public virtual{... */\n      jump\t// out\n        /* \"contracts/parent_function_calling_child.sol\":135:212  function fun1()public virtual{... */\n    tag_18:\n        /* \"contracts/parent_function_calling_child.sol\":184:200  log(\"A.fun1\",23) */\n      0xb60e72ccf6d57ab53eb84d7e94a9545806ed7f93c4d5673f11a64f03471e584e\n        /* \"contracts/parent_function_calling_child.sol\":197:199  23 */\n      0x17\n        /* \"contracts/parent_function_calling_child.sol\":184:200  log(\"A.fun1\",23) */\n      mload(0x40)\n      tag_23\n      swap2\n      swap1\n      tag_24\n      jump\t// in\n    tag_23:\n      mload(0x40)\n      dup1\n      swap2\n      sub\n      swap1\n      log1\n        /* \"contracts/parent_function_calling_child.sol\":135:212  function fun1()public virtual{... */\n      jump\t// out\n        /* \"#utility.yul\":7:176   */\n    tag_25:\n        /* \"#utility.yul\":91:102   */\n      0x00\n        /* \"#utility.yul\":125:131   */\n      dup3\n        /* \"#utility.yul\":120:123   */\n      dup3\n        /* \"#utility.yul\":113:132   */\n      mstore\n        /* \"#utility.yul\":165:169   */\n      0x20\n        /* \"#utility.yul\":160:163   */\n      dup3\n        /* \"#utility.yul\":156:170   */\n      add\n        /* \"#utility.yul\":141:170   */\n      swap1\n      pop\n        /* \"#utility.yul\":7:176   */\n      swap3\n      swap2\n      pop\n      pop\n      jump\t// out\n        /* \"#utility.yul\":182:338   */\n    tag_26:\n        /* \"#utility.yul\":322:330   */\n      0x422e66756e320000000000000000000000000000000000000000000000000000\n        /* \"#utility.yul\":318:319   */\n      0x00\n        /* \"#utility.yul\":310:316   */\n      dup3\n        /* \"#utility.yul\":306:320   */\n      add\n        /* \"#utility.yul\":299:331   */\n      mstore\n        /* \"#utility.yul\":182:338   */\n      pop\n      jump\t// out\n        /* \"#utility.yul\":344:709   */\n    tag_27:\n        /* \"#utility.yul\":486:489   */\n      0x00\n        /* \"#utility.yul\":507:573   */\n      tag_46\n        /* \"#utility.yul\":571:572   */\n      0x06\n        /* \"#utility.yul\":566:569   */\n      dup4\n        /* \"#utility.yul\":507:573   */\n      tag_25\n      jump\t// in\n    tag_46:\n        /* \"#utility.yul\":500:573   */\n      swap2\n      pop\n        /* \"#utility.yul\":582:675   */\n      tag_47\n        /* \"#utility.yul\":671:674   */\n      dup3\n        /* \"#utility.yul\":582:675   */\n      tag_26\n      jump\t// in\n    tag_47:\n        /* \"#utility.yul\":700:702   */\n      0x20\n        /* \"#utility.yul\":695:698   */\n      dup3\n        /* \"#utility.yul\":691:703   */\n      add\n        /* \"#utility.yul\":684:703   */\n      swap1\n      pop\n        /* \"#utility.yul\":344:709   */\n      swap2\n      swap1\n      pop\n      jump\t// out\n        /* \"#utility.yul\":715:801   */\n    tag_28:\n        /* \"#utility.yul\":761:768   */\n      0x00\n        /* \"#utility.yul\":790:795   */\n      dup2\n        /* \"#utility.yul\":779:795   */\n      swap1\n      pop\n        /* \"#utility.yul\":715:801   */\n      swap2\n      swap1\n      pop\n      jump\t// out\n        /* \"#utility.yul\":807:884   */\n    tag_29:\n        /* \"#utility.yul\":844:851   */\n      0x00\n        /* \"#utility.yul\":873:878   */\n      dup2\n        /* \"#utility.yul\":862:878   */\n      swap1\n      pop\n        /* \"#utility.yul\":807:884   */\n      swap2\n      swap1\n      pop\n      jump\t// out\n        /* \"#utility.yul\":890:950   */\n    tag_30:\n        /* \"#utility.yul\":918:921   */\n      0x00\n        /* \"#utility.yul\":939:944   */\n      dup2\n        /* \"#utility.yul\":932:944   */\n      swap1\n      pop\n        /* \"#utility.yul\":890:950   */\n      swap2\n      swap1\n      pop\n      jump\t// out\n        /* \"#utility.yul\":956:1116   */\n    tag_31:\n        /* \"#utility.yul\":1015:1024   */\n      0x00\n        /* \"#utility.yul\":1048:1110   */\n      tag_52\n        /* \"#utility.yul\":1066:1109   */\n      tag_53\n        /* \"#utility.yul\":1075:1108   */\n      tag_54\n        /* \"#utility.yul\":1102:1107   */\n      dup5\n        /* \"#utility.yul\":1075:1108   */\n      tag_28\n      jump\t// in\n    tag_54:\n        /* \"#utility.yul\":1066:1109   */\n      tag_30\n      jump\t// in\n    tag_53:\n        /* \"#utility.yul\":1048:1110   */\n      tag_29\n      jump\t// in\n    tag_52:\n        /* \"#utility.yul\":1035:1110   */\n      swap1\n      pop\n        /* \"#utility.yul\":956:1116   */\n      swap2\n      swap1\n      pop\n      jump\t// out\n        /* \"#utility.yul\":1122:1271   */\n    tag_32:\n        /* \"#utility.yul\":1218:1264   */\n      tag_56\n        /* \"#utility.yul\":1258:1263   */\n      dup2\n        /* \"#utility.yul\":1218:1264   */\n      tag_31\n      jump\t// in\n    tag_56:\n        /* \"#utility.yul\":1213:1216   */\n      dup3\n        /* \"#utility.yul\":1206:1265   */\n      mstore\n        /* \"#utility.yul\":1122:1271   */\n      pop\n      pop\n      jump\t// out\n        /* \"#utility.yul\":1277:1824   */\n    tag_11:\n        /* \"#utility.yul\":1480:1484   */\n      0x00\n        /* \"#utility.yul\":1518:1520   */\n      0x40\n        /* \"#utility.yul\":1507:1516   */\n      dup3\n        /* \"#utility.yul\":1503:1521   */\n      add\n        /* \"#utility.yul\":1495:1521   */\n      swap1\n      pop\n        /* \"#utility.yul\":1567:1576   */\n      dup2\n        /* \"#utility.yul\":1561:1565   */\n      dup2\n        /* \"#utility.yul\":1557:1577   */\n      sub\n        /* \"#utility.yul\":1553:1554   */\n      0x00\n        /* \"#utility.yul\":1542:1551   */\n      dup4\n        /* \"#utility.yul\":1538:1555   */\n      add\n        /* \"#utility.yul\":1531:1578   */\n      mstore\n        /* \"#utility.yul\":1595:1726   */\n      tag_58\n        /* \"#utility.yul\":1721:1725   */\n      dup2\n        /* \"#utility.yul\":1595:1726   */\n      tag_27\n      jump\t// in\n    tag_58:\n        /* \"#utility.yul\":1587:1726   */\n      swap1\n      pop\n        /* \"#utility.yul\":1736:1817   */\n      tag_59\n        /* \"#utility.yul\":1813:1815   */\n      0x20\n        /* \"#utility.yul\":1802:1811   */\n      dup4\n        /* \"#utility.yul\":1798:1816   */\n      add\n        /* \"#utility.yul\":1789:1795   */\n      dup5\n        /* \"#utility.yul\":1736:1817   */\n      tag_32\n      jump\t// in\n    tag_59:\n        /* \"#utility.yul\":1277:1824   */\n      swap3\n      swap2\n      pop\n      pop\n      jump\t// out\n        /* \"#utility.yul\":1830:1986   */\n    tag_33:\n        /* \"#utility.yul\":1970:1978   */\n      0x422e66756e310000000000000000000000000000000000000000000000000000\n        /* \"#utility.yul\":1966:1967   */\n      0x00\n        /* \"#utility.yul\":1958:1964   */\n      dup3\n        /* \"#utility.yul\":1954:1968   */\n      add\n        /* \"#utility.yul\":1947:1979   */\n      mstore\n        /* \"#utility.yul\":1830:1986   */\n      pop\n      jump\t// out\n        /* \"#utility.yul\":1992:2357   */\n    tag_34:\n        /* \"#utility.yul\":2134:2137   */\n      0x00\n        /* \"#utility.yul\":2155:2221   */\n      tag_62\n        /* \"#utility.yul\":2219:2220   */\n      0x06\n        /* \"#utility.yul\":2214:2217   */\n      dup4\n        /* \"#utility.yul\":2155:2221   */\n      tag_25\n      jump\t// in\n    tag_62:\n        /* \"#utility.yul\":2148:2221   */\n      swap2\n      pop\n        /* \"#utility.yul\":2230:2323   */\n      tag_63\n        /* \"#utility.yul\":2319:2322   */\n      dup3\n        /* \"#utility.yul\":2230:2323   */\n      tag_33\n      jump\t// in\n    tag_63:\n        /* \"#utility.yul\":2348:2350   */\n      0x20\n        /* \"#utility.yul\":2343:2346   */\n      dup3\n        /* \"#utility.yul\":2339:2351   */\n      add\n        /* \"#utility.yul\":2332:2351   */\n      swap1\n      pop\n        /* \"#utility.yul\":1992:2357   */\n      swap2\n      swap1\n      pop\n      jump\t// out\n        /* \"#utility.yul\":2363:2910   */\n    tag_16:\n        /* \"#utility.yul\":2566:2570   */\n      0x00\n        /* \"#utility.yul\":2604:2606   */\n      0x40\n        /* \"#utility.yul\":2593:2602   */\n      dup3\n        /* \"#utility.yul\":2589:2607   */\n      add\n        /* \"#utility.yul\":2581:2607   */\n      swap1\n      pop\n        /* \"#utility.yul\":2653:2662   */\n      dup2\n        /* \"#utility.yul\":2647:2651   */\n      dup2\n        /* \"#utility.yul\":2643:2663   */\n      sub\n        /* \"#utility.yul\":2639:2640   */\n      0x00\n        /* \"#utility.yul\":2628:2637   */\n      dup4\n        /* \"#utility.yul\":2624:2641   */\n      add\n        /* \"#utility.yul\":2617:2664   */\n      mstore\n        /* \"#utility.yul\":2681:2812   */\n      tag_65\n        /* \"#utility.yul\":2807:2811   */\n      dup2\n        /* \"#utility.yul\":2681:2812   */\n      tag_34\n      jump\t// in\n    tag_65:\n        /* \"#utility.yul\":2673:2812   */\n      swap1\n      pop\n        /* \"#utility.yul\":2822:2903   */\n      tag_66\n        /* \"#utility.yul\":2899:2901   */\n      0x20\n        /* \"#utility.yul\":2888:2897   */\n      dup4\n        /* \"#utility.yul\":2884:2902   */\n      add\n        /* \"#utility.yul\":2875:2881   */\n      dup5\n        /* \"#utility.yul\":2822:2903   */\n      tag_32\n      jump\t// in\n    tag_66:\n        /* \"#utility.yul\":2363:2910   */\n      swap3\n      swap2\n      pop\n      pop\n      jump\t// out\n        /* \"#utility.yul\":2916:3072   */\n    tag_35:\n        /* \"#utility.yul\":3056:3064   */\n      0x412e66756e320000000000000000000000000000000000000000000000000000\n        /* \"#utility.yul\":3052:3053   */\n      0x00\n        /* \"#utility.yul\":3044:3050   */\n      dup3\n        /* \"#utility.yul\":3040:3054   */\n      add\n        /* \"#utility.yul\":3033:3065   */\n      mstore\n        /* \"#utility.yul\":2916:3072   */\n      pop\n      jump\t// out\n        /* \"#utility.yul\":3078:3443   */\n    tag_36:\n        /* \"#utility.yul\":3220:3223   */\n      0x00\n        /* \"#utility.yul\":3241:3307   */\n      tag_69\n        /* \"#utility.yul\":3305:3306   */\n      0x06\n        /* \"#utility.yul\":3300:3303   */\n      dup4\n        /* \"#utility.yul\":3241:3307   */\n      tag_25\n      jump\t// in\n    tag_69:\n        /* \"#utility.yul\":3234:3307   */\n      swap2\n      pop\n        /* \"#utility.yul\":3316:3409   */\n      tag_70\n        /* \"#utility.yul\":3405:3408   */\n      dup3\n        /* \"#utility.yul\":3316:3409   */\n      tag_35\n      jump\t// in\n    tag_70:\n        /* \"#utility.yul\":3434:3436   */\n      0x20\n        /* \"#utility.yul\":3429:3432   */\n      dup3\n        /* \"#utility.yul\":3425:3437   */\n      add\n        /* \"#utility.yul\":3418:3437   */\n      swap1\n      pop\n        /* \"#utility.yul\":3078:3443   */\n      swap2\n      swap1\n      pop\n      jump\t// out\n        /* \"#utility.yul\":3449:3535   */\n    tag_37:\n        /* \"#utility.yul\":3495:3502   */\n      0x00\n        /* \"#utility.yul\":3524:3529   */\n      dup2\n        /* \"#utility.yul\":3513:3529   */\n      swap1\n      pop\n        /* \"#utility.yul\":3449:3535   */\n      swap2\n      swap1\n      pop\n      jump\t// out\n        /* \"#utility.yul\":3541:3701   */\n    tag_38:\n        /* \"#utility.yul\":3600:3609   */\n      0x00\n        /* \"#utility.yul\":3633:3695   */\n      tag_73\n        /* \"#utility.yul\":3651:3694   */\n      tag_74\n        /* \"#utility.yul\":3660:3693   */\n      tag_75\n        /* \"#utility.yul\":3687:3692   */\n      dup5\n        /* \"#utility.yul\":3660:3693   */\n      tag_37\n      jump\t// in\n    tag_75:\n        /* \"#utility.yul\":3651:3694   */\n      tag_30\n      jump\t// in\n    tag_74:\n        /* \"#utility.yul\":3633:3695   */\n      tag_29\n      jump\t// in\n    tag_73:\n        /* \"#utility.yul\":3620:3695   */\n      swap1\n      pop\n        /* \"#utility.yul\":3541:3701   */\n      swap2\n      swap1\n      pop\n      jump\t// out\n        /* \"#utility.yul\":3707:3856   */\n    tag_39:\n        /* \"#utility.yul\":3803:3849   */\n      tag_77\n        /* \"#utility.yul\":3843:3848   */\n      dup2\n        /* \"#utility.yul\":3803:3849   */\n      tag_38\n      jump\t// in\n    tag_77:\n        /* \"#utility.yul\":3798:3801   */\n      dup3\n        /* \"#utility.yul\":3791:3850   */\n      mstore\n        /* \"#utility.yul\":3707:3856   */\n      pop\n      pop\n      jump\t// out\n        /* \"#utility.yul\":3862:4409   */\n    tag_21:\n        /* \"#utility.yul\":4065:4069   */\n      0x00\n        /* \"#utility.yul\":4103:4105   */\n      0x40\n        /* \"#utility.yul\":4092:4101   */\n      dup3\n        /* \"#utility.yul\":4088:4106   */\n      add\n        /* \"#utility.yul\":4080:4106   */\n      swap1\n      pop\n        /* \"#utility.yul\":4152:4161   */\n      dup2\n        /* \"#utility.yul\":4146:4150   */\n      dup2\n        /* \"#utility.yul\":4142:4162   */\n      sub\n        /* \"#utility.yul\":4138:4139   */\n      0x00\n        /* \"#utility.yul\":4127:4136   */\n      dup4\n        /* \"#utility.yul\":4123:4140   */\n      add\n        /* \"#utility.yul\":4116:4163   */\n      mstore\n        /* \"#utility.yul\":4180:4311   */\n      tag_79\n        /* \"#utility.yul\":4306:4310   */\n      dup2\n        /* \"#utility.yul\":4180:4311   */\n      tag_36\n      jump\t// in\n    tag_79:\n        /* \"#utility.yul\":4172:4311   */\n      swap1\n      pop\n        /* \"#utility.yul\":4321:4402   */\n      tag_80\n        /* \"#utility.yul\":4398:4400   */\n      0x20\n        /* \"#utility.yul\":4387:4396   */\n      dup4\n        /* \"#utility.yul\":4383:4401   */\n      add\n        /* \"#utility.yul\":4374:4380   */\n      dup5\n        /* \"#utility.yul\":4321:4402   */\n      tag_39\n      jump\t// in\n    tag_80:\n        /* \"#utility.yul\":3862:4409   */\n      swap3\n      swap2\n      pop\n      pop\n      jump\t// out\n        /* \"#utility.yul\":4415:4571   */\n    tag_40:\n        /* \"#utility.yul\":4555:4563   */\n      0x412e66756e310000000000000000000000000000000000000000000000000000\n        /* \"#utility.yul\":4551:4552   */\n      0x00\n        /* \"#utility.yul\":4543:4549   */\n      dup3\n        /* \"#utility.yul\":4539:4553   */\n      add\n        /* \"#utility.yul\":4532:4564   */\n      mstore\n        /* \"#utility.yul\":4415:4571   */\n      pop\n      jump\t// out\n        /* \"#utility.yul\":4577:4942   */\n    tag_41:\n        /* \"#utility.yul\":4719:4722   */\n      0x00\n        /* \"#utility.yul\":4740:4806   */\n      tag_83\n        /* \"#utility.yul\":4804:4805   */\n      0x06\n        /* \"#utility.yul\":4799:4802   */\n      dup4\n        /* \"#utility.yul\":4740:4806   */\n      tag_25\n      jump\t// in\n    tag_83:\n        /* \"#utility.yul\":4733:4806   */\n      swap2\n      pop\n        /* \"#utility.yul\":4815:4908   */\n      tag_84\n        /* \"#utility.yul\":4904:4907   */\n      dup3\n        /* \"#utility.yul\":4815:4908   */\n      tag_40\n      jump\t// in\n    tag_84:\n        /* \"#utility.yul\":4933:4935   */\n      0x20\n        /* \"#utility.yul\":4928:4931   */\n      dup3\n        /* \"#utility.yul\":4924:4936   */\n      add\n        /* \"#utility.yul\":4917:4936   */\n      swap1\n      pop\n        /* \"#utility.yul\":4577:4942   */\n      swap2\n      swap1\n      pop\n      jump\t// out\n        /* \"#utility.yul\":4948:5495   */\n    tag_24:\n        /* \"#utility.yul\":5151:5155   */\n      0x00\n        /* \"#utility.yul\":5189:5191   */\n      0x40\n        /* \"#utility.yul\":5178:5187   */\n      dup3\n        /* \"#utility.yul\":5174:5192   */\n      add\n        /* \"#utility.yul\":5166:5192   */\n      swap1\n      pop\n        /* \"#utility.yul\":5238:5247   */\n      dup2\n        /* \"#utility.yul\":5232:5236   */\n      dup2\n        /* \"#utility.yul\":5228:5248   */\n      sub\n        /* \"#utility.yul\":5224:5225   */\n      0x00\n        /* \"#utility.yul\":5213:5222   */\n      dup4\n        /* \"#utility.yul\":5209:5226   */\n      add\n        /* \"#utility.yul\":5202:5249   */\n      mstore\n        /* \"#utility.yul\":5266:5397   */\n      tag_86\n        /* \"#utility.yul\":5392:5396   */\n      dup2\n        /* \"#utility.yul\":5266:5397   */\n      tag_41\n      jump\t// in\n    tag_86:\n        /* \"#utility.yul\":5258:5397   */\n      swap1\n      pop\n        /* \"#utility.yul\":5407:5488   */\n      tag_87\n        /* \"#utility.yul\":5484:5486   */\n      0x20\n        /* \"#utility.yul\":5473:5482   */\n      dup4\n        /* \"#utility.yul\":5469:5487   */\n      add\n        /* \"#utility.yul\":5460:5466   */\n      dup5\n        /* \"#utility.yul\":5407:5488   */\n      tag_39\n      jump\t// in\n    tag_87:\n        /* \"#utility.yul\":4948:5495   */\n      swap3\n      swap2\n      pop\n      pop\n      jump\t// out\n\n    auxdata: 0xa264697066735822122026ebd8437ce97a07da974a3bcae1f7574603516370b6bcd7267c8459412c2cc264736f6c63430008110033\n}\n",
				"bytecode": {
					"linkReferences": {},
					"object": "608060405234801561001057600080fd5b50610400806100206000396000f3fe608060405234801561001057600080fd5b50600436106100365760003560e01c8063157b51671461003b578063446a45b714610045575b600080fd5b61004361004f565b005b61004d610091565b005b7fb60e72ccf6d57ab53eb84d7e94a9545806ed7f93c4d5673f11a64f03471e584e601660405161007f91906101f3565b60405180910390a161008f6100d3565b565b7fb60e72ccf6d57ab53eb84d7e94a9545806ed7f93c4d5673f11a64f03471e584e60166040516100c1919061026d565b60405180910390a16100d161010d565b565b7fb60e72ccf6d57ab53eb84d7e94a9545806ed7f93c4d5673f11a64f03471e584e60176040516101039190610322565b60405180910390a1565b7fb60e72ccf6d57ab53eb84d7e94a9545806ed7f93c4d5673f11a64f03471e584e601760405161013d919061039c565b60405180910390a1565b600082825260208201905092915050565b7f422e66756e320000000000000000000000000000000000000000000000000000600082015250565b600061018e600683610147565b915061019982610158565b602082019050919050565b6000819050919050565b6000819050919050565b6000819050919050565b60006101dd6101d86101d3846101a4565b6101b8565b6101ae565b9050919050565b6101ed816101c2565b82525050565b6000604082019050818103600083015261020c81610181565b905061021b60208301846101e4565b92915050565b7f422e66756e310000000000000000000000000000000000000000000000000000600082015250565b6000610257600683610147565b915061026282610221565b602082019050919050565b600060408201905081810360008301526102868161024a565b905061029560208301846101e4565b92915050565b7f412e66756e320000000000000000000000000000000000000000000000000000600082015250565b60006102d1600683610147565b91506102dc8261029b565b602082019050919050565b6000819050919050565b600061030c610307610302846102e7565b6101b8565b6101ae565b9050919050565b61031c816102f1565b82525050565b6000604082019050818103600083015261033b816102c4565b905061034a6020830184610313565b92915050565b7f412e66756e310000000000000000000000000000000000000000000000000000600082015250565b6000610386600683610147565b915061039182610350565b602082019050919050565b600060408201905081810360008301526103b581610379565b90506103c46020830184610313565b9291505056fea264697066735822122026ebd8437ce97a07da974a3bcae1f7574603516370b6bcd7267c8459412c2cc264736f6c63430008110033",
					"opcodes": "PUSH1 0x80 PUSH1 0x40 MSTORE CALLVALUE DUP1 ISZERO PUSH2 0x10 JUMPI PUSH1 0x0 DUP1 REVERT JUMPDEST POP PUSH2 0x400 DUP1 PUSH2 0x20 PUSH1 0x0 CODECOPY PUSH1 0x0 RETURN INVALID PUSH1 0x80 PUSH1 0x40 MSTORE CALLVALUE DUP1 ISZERO PUSH2 0x10 JUMPI PUSH1 0x0 DUP1 REVERT JUMPDEST POP PUSH1 0x4 CALLDATASIZE LT PUSH2 0x36 JUMPI PUSH1 0x0 CALLDATALOAD PUSH1 0xE0 SHR DUP1 PUSH4 0x157B5167 EQ PUSH2 0x3B JUMPI DUP1 PUSH4 0x446A45B7 EQ PUSH2 0x45 JUMPI JUMPDEST PUSH1 0x0 DUP1 REVERT JUMPDEST PUSH2 0x43 PUSH2 0x4F JUMP JUMPDEST STOP JUMPDEST PUSH2 0x4D PUSH2 0x91 JUMP JUMPDEST STOP JUMPDEST PUSH32 0xB60E72CCF6D57AB53EB84D7E94A9545806ED7F93C4D5673F11A64F03471E584E PUSH1 0x16 PUSH1 0x40 MLOAD PUSH2 0x7F SWAP2 SWAP1 PUSH2 0x1F3 JUMP JUMPDEST PUSH1 0x40 MLOAD DUP1 SWAP2 SUB SWAP1 LOG1 PUSH2 0x8F PUSH2 0xD3 JUMP JUMPDEST JUMP JUMPDEST PUSH32 0xB60E72CCF6D57AB53EB84D7E94A9545806ED7F93C4D5673F11A64F03471E584E PUSH1 0x16 PUSH1 0x40 MLOAD PUSH2 0xC1 SWAP2 SWAP1 PUSH2 0x26D JUMP JUMPDEST PUSH1 0x40 MLOAD DUP1 SWAP2 SUB SWAP1 LOG1 PUSH2 0xD1 PUSH2 0x10D JUMP JUMPDEST JUMP JUMPDEST PUSH32 0xB60E72CCF6D57AB53EB84D7E94A9545806ED7F93C4D5673F11A64F03471E584E PUSH1 0x17 PUSH1 0x40 MLOAD PUSH2 0x103 SWAP2 SWAP1 PUSH2 0x322 JUMP JUMPDEST PUSH1 0x40 MLOAD DUP1 SWAP2 SUB SWAP1 LOG1 JUMP JUMPDEST PUSH32 0xB60E72CCF6D57AB53EB84D7E94A9545806ED7F93C4D5673F11A64F03471E584E PUSH1 0x17 PUSH1 0x40 MLOAD PUSH2 0x13D SWAP2 SWAP1 PUSH2 0x39C JUMP JUMPDEST PUSH1 0x40 MLOAD DUP1 SWAP2 SUB SWAP1 LOG1 JUMP JUMPDEST PUSH1 0x0 DUP3 DUP3 MSTORE PUSH1 0x20 DUP3 ADD SWAP1 POP SWAP3 SWAP2 POP POP JUMP JUMPDEST PUSH32 0x422E66756E320000000000000000000000000000000000000000000000000000 PUSH1 0x0 DUP3 ADD MSTORE POP JUMP JUMPDEST PUSH1 0x0 PUSH2 0x18E PUSH1 0x6 DUP4 PUSH2 0x147 JUMP JUMPDEST SWAP2 POP PUSH2 0x199 DUP3 PUSH2 0x158 JUMP JUMPDEST PUSH1 0x20 DUP3 ADD SWAP1 POP SWAP2 SWAP1 POP JUMP JUMPDEST PUSH1 0x0 DUP2 SWAP1 POP SWAP2 SWAP1 POP JUMP JUMPDEST PUSH1 0x0 DUP2 SWAP1 POP SWAP2 SWAP1 POP JUMP JUMPDEST PUSH1 0x0 DUP2 SWAP1 POP SWAP2 SWAP1 POP JUMP JUMPDEST PUSH1 0x0 PUSH2 0x1DD PUSH2 0x1D8 PUSH2 0x1D3 DUP5 PUSH2 0x1A4 JUMP JUMPDEST PUSH2 0x1B8 JUMP JUMPDEST PUSH2 0x1AE JUMP JUMPDEST SWAP1 POP SWAP2 SWAP1 POP JUMP JUMPDEST PUSH2 0x1ED DUP2 PUSH2 0x1C2 JUMP JUMPDEST DUP3 MSTORE POP POP JUMP JUMPDEST PUSH1 0x0 PUSH1 0x40 DUP3 ADD SWAP1 POP DUP2 DUP2 SUB PUSH1 0x0 DUP4 ADD MSTORE PUSH2 0x20C DUP2 PUSH2 0x181 JUMP JUMPDEST SWAP1 POP PUSH2 0x21B PUSH1 0x20 DUP4 ADD DUP5 PUSH2 0x1E4 JUMP JUMPDEST SWAP3 SWAP2 POP POP JUMP JUMPDEST PUSH32 0x422E66756E310000000000000000000000000000000000000000000000000000 PUSH1 0x0 DUP3 ADD MSTORE POP JUMP JUMPDEST PUSH1 0x0 PUSH2 0x257 PUSH1 0x6 DUP4 PUSH2 0x147 JUMP JUMPDEST SWAP2 POP PUSH2 0x262 DUP3 PUSH2 0x221 JUMP JUMPDEST PUSH1 0x20 DUP3 ADD SWAP1 POP SWAP2 SWAP1 POP JUMP JUMPDEST PUSH1 0x0 PUSH1 0x40 DUP3 ADD SWAP1 POP DUP2 DUP2 SUB PUSH1 0x0 DUP4 ADD MSTORE PUSH2 0x286 DUP2 PUSH2 0x24A JUMP JUMPDEST SWAP1 POP PUSH2 0x295 PUSH1 0x20 DUP4 ADD DUP5 PUSH2 0x1E4 JUMP JUMPDEST SWAP3 SWAP2 POP POP JUMP JUMPDEST PUSH32 0x412E66756E320000000000000000000000000000000000000000000000000000 PUSH1 0x0 DUP3 ADD MSTORE POP JUMP JUMPDEST PUSH1 0x0 PUSH2 0x2D1 PUSH1 0x6 DUP4 PUSH2 0x147 JUMP JUMPDEST SWAP2 POP PUSH2 0x2DC DUP3 PUSH2 0x29B JUMP JUMPDEST PUSH1 0x20 DUP3 ADD SWAP1 POP SWAP2 SWAP1 POP JUMP JUMPDEST PUSH1 0x0 DUP2 SWAP1 POP SWAP2 SWAP1 POP JUMP JUMPDEST PUSH1 0x0 PUSH2 0x30C PUSH2 0x307 PUSH2 0x302 DUP5 PUSH2 0x2E7 JUMP JUMPDEST PUSH2 0x1B8 JUMP JUMPDEST PUSH2 0x1AE JUMP JUMPDEST SWAP1 POP SWAP2 SWAP1 POP JUMP JUMPDEST PUSH2 0x31C DUP2 PUSH2 0x2F1 JUMP JUMPDEST DUP3 MSTORE POP POP JUMP JUMPDEST PUSH1 0x0 PUSH1 0x40 DUP3 ADD SWAP1 POP DUP2 DUP2 SUB PUSH1 0x0 DUP4 ADD MSTORE PUSH2 0x33B DUP2 PUSH2 0x2C4 JUMP JUMPDEST SWAP1 POP PUSH2 0x34A PUSH1 0x20 DUP4 ADD DUP5 PUSH2 0x313 JUMP JUMPDEST SWAP3 SWAP2 POP POP JUMP JUMPDEST PUSH32 0x412E66756E310000000000000000000000000000000000000000000000000000 PUSH1 0x0 DUP3 ADD MSTORE POP JUMP JUMPDEST PUSH1 0x0 PUSH2 0x386 PUSH1 0x6 DUP4 PUSH2 0x147 JUMP JUMPDEST SWAP2 POP PUSH2 0x391 DUP3 PUSH2 0x350 JUMP JUMPDEST PUSH1 0x20 DUP3 ADD SWAP1 POP SWAP2 SWAP1 POP JUMP JUMPDEST PUSH1 0x0 PUSH1 0x40 DUP3 ADD SWAP1 POP DUP2 DUP2 SUB PUSH1 0x0 DUP4 ADD MSTORE PUSH2 0x3B5 DUP2 PUSH2 0x379 JUMP JUMPDEST SWAP1 POP PUSH2 0x3C4 PUSH1 0x20 DUP4 ADD DUP5 PUSH2 0x313 JUMP JUMPDEST SWAP3 SWAP2 POP POP JUMP INVALID LOG2 PUSH5 0x6970667358 0x22 SLT KECCAK256 0x26 0xEB 0xD8 NUMBER PUSH29 0xE97A07DA974A3BCAE1F7574603516370B6BCD7267C8459412C2CC26473 PUSH16 0x6C634300081100330000000000000000 "
				},
				"gasEstimates": {
					"creation": {
						"codeDepositCost": "204800",
						"executionCost": "245",
						"totalCost": "205045"
					},
					"external": {
						"fun1()": "infinite",
						"fun2()": "infinite"
					}
				},
				"methodIdentifiers": {
					"fun1()": "446a45b7",
					"fun2()": "157b5167"
				}
			},
			"storageLayout": {
				"storage": [],
				"types": null
			},
			"userdoc": {
				"kind": "user",
				"methods": {},
				"version": 1
			}
		}
	}
}