{
	"contracts/virtual.override.sol": {
		"B": {
			"abi": [
				{
					"inputs": [],
					"stateMutability": "nonpayable",
					"type": "constructor"
				},
				{
					"inputs": [],
					"name": "a",
					"outputs": [
						{
							"internalType": "uint256",
							"name": "",
							"type": "uint256"
						}
					],
					"stateMutability": "view",
					"type": "function"
				},
				{
					"inputs": [],
					"name": "b",
					"outputs": [
						{
							"internalType": "uint256",
							"name": "",
							"type": "uint256"
						}
					],
					"stateMutability": "view",
					"type": "function"
				},
				{
					"inputs": [],
					"name": "fun",
					"outputs": [
						{
							"internalType": "string",
							"name": "",
							"type": "string"
						}
					],
					"stateMutability": "pure",
					"type": "function"
				},
				{
					"inputs": [],
					"name": "geta",
					"outputs": [],
					"stateMutability": "nonpayable",
					"type": "function"
				},
				{
					"inputs": [],
					"name": "geta1",
					"outputs": [],
					"stateMutability": "nonpayable",
					"type": "function"
				}
			],
			"devdoc": {
				"kind": "dev",
				"methods": {},
				"version": 1
			},
			"evm": {
				"assembly": "    /* \"contracts/virtual.override.sol\":291:528  contract B is A{... */\n  mstore(0x40, 0x80)\n    /* \"contracts/virtual.override.sol\":333:366  constructor(){... */\n  callvalue\n  dup1\n  iszero\n  tag_1\n  jumpi\n  0x00\n  dup1\n  revert\ntag_1:\n  pop\n    /* \"contracts/virtual.override.sol\":123:125  11 */\n  0x0b\n    /* \"contracts/virtual.override.sol\":121:122  a */\n  0x00\n    /* \"contracts/virtual.override.sol\":121:125  a=11 */\n  dup2\n  swap1\n  sstore\n  pop\n    /* \"contracts/virtual.override.sol\":356:358  11 */\n  0x0b\n    /* \"contracts/virtual.override.sol\":354:355  b */\n  0x01\n    /* \"contracts/virtual.override.sol\":354:358  b=11 */\n  dup2\n  swap1\n  sstore\n  pop\n    /* \"contracts/virtual.override.sol\":291:528  contract B is A{... */\n  dataSize(sub_0)\n  dup1\n  dataOffset(sub_0)\n  0x00\n  codecopy\n  0x00\n  return\nstop\n\nsub_0: assembly {\n        /* \"contracts/virtual.override.sol\":291:528  contract B is A{... */\n      mstore(0x40, 0x80)\n      callvalue\n      dup1\n      iszero\n      tag_1\n      jumpi\n      0x00\n      dup1\n      revert\n    tag_1:\n      pop\n      jumpi(tag_2, lt(calldatasize, 0x04))\n      shr(0xe0, calldataload(0x00))\n      dup1\n      0x0dbe671f\n      eq\n      tag_3\n      jumpi\n      dup1\n      0x4df7e3d0\n      eq\n      tag_4\n      jumpi\n      dup1\n      0x6bf6b038\n      eq\n      tag_5\n      jumpi\n      dup1\n      0x8f51c4f5\n      eq\n      tag_6\n      jumpi\n      dup1\n      0x946644cd\n      eq\n      tag_7\n      jumpi\n    tag_2:\n      0x00\n      dup1\n      revert\n        /* \"contracts/virtual.override.sol\":77:90  uint public a */\n    tag_3:\n      tag_8\n      tag_9\n      jump\t// in\n    tag_8:\n      mload(0x40)\n      tag_10\n      swap2\n      swap1\n      tag_11\n      jump\t// in\n    tag_10:\n      mload(0x40)\n      dup1\n      swap2\n      sub\n      swap1\n      return\n        /* \"contracts/virtual.override.sol\":313:326  uint public b */\n    tag_4:\n      tag_12\n      tag_13\n      jump\t// in\n    tag_12:\n      mload(0x40)\n      tag_14\n      swap2\n      swap1\n      tag_11\n      jump\t// in\n    tag_14:\n      mload(0x40)\n      dup1\n      swap2\n      sub\n      swap1\n      return\n        /* \"contracts/virtual.override.sol\":139:183  function geta()public{... */\n    tag_5:\n      tag_15\n      tag_16\n      jump\t// in\n    tag_15:\n      stop\n        /* \"contracts/virtual.override.sol\":372:417  function geta1()public{... */\n    tag_6:\n      tag_17\n      tag_18\n      jump\t// in\n    tag_17:\n      stop\n        /* \"contracts/virtual.override.sol\":423:523  function fun()public pure virtual override returns(string memory){... */\n    tag_7:\n      tag_19\n      tag_20\n      jump\t// in\n    tag_19:\n      mload(0x40)\n      tag_21\n      swap2\n      swap1\n      tag_22\n      jump\t// in\n    tag_21:\n      mload(0x40)\n      dup1\n      swap2\n      sub\n      swap1\n      return\n        /* \"contracts/virtual.override.sol\":77:90  uint public a */\n    tag_9:\n      sload(0x00)\n      dup2\n      jump\t// out\n        /* \"contracts/virtual.override.sol\":313:326  uint public b */\n    tag_13:\n      sload(0x01)\n      dup2\n      jump\t// out\n        /* \"contracts/virtual.override.sol\":139:183  function geta()public{... */\n    tag_16:\n        /* \"contracts/virtual.override.sol\":173:175  12 */\n      0x0c\n        /* \"contracts/virtual.override.sol\":171:172  a */\n      0x00\n        /* \"contracts/virtual.override.sol\":171:175  a=12 */\n      dup2\n      swap1\n      sstore\n      pop\n        /* \"contracts/virtual.override.sol\":139:183  function geta()public{... */\n      jump\t// out\n        /* \"contracts/virtual.override.sol\":372:417  function geta1()public{... */\n    tag_18:\n        /* \"contracts/virtual.override.sol\":407:409  12 */\n      0x0c\n        /* \"contracts/virtual.override.sol\":405:406  b */\n      0x01\n        /* \"contracts/virtual.override.sol\":405:409  b=12 */\n      dup2\n      swap1\n      sstore\n      pop\n        /* \"contracts/virtual.override.sol\":372:417  function geta1()public{... */\n      jump\t// out\n        /* \"contracts/virtual.override.sol\":423:523  function fun()public pure virtual override returns(string memory){... */\n    tag_20:\n        /* \"contracts/virtual.override.sol\":474:487  string memory */\n      0x60\n        /* \"contracts/virtual.override.sol\":499:515  return \"im in b\" */\n      mload(0x40)\n      dup1\n      0x40\n      add\n      0x40\n      mstore\n      dup1\n      0x07\n      dup2\n      mstore\n      0x20\n      add\n      0x696d20696e206200000000000000000000000000000000000000000000000000\n      dup2\n      mstore\n      pop\n      swap1\n      pop\n        /* \"contracts/virtual.override.sol\":423:523  function fun()public pure virtual override returns(string memory){... */\n      swap1\n      jump\t// out\n        /* \"#utility.yul\":7:84   */\n    tag_26:\n        /* \"#utility.yul\":44:51   */\n      0x00\n        /* \"#utility.yul\":73:78   */\n      dup2\n        /* \"#utility.yul\":62:78   */\n      swap1\n      pop\n        /* \"#utility.yul\":7:84   */\n      swap2\n      swap1\n      pop\n      jump\t// out\n        /* \"#utility.yul\":90:208   */\n    tag_27:\n        /* \"#utility.yul\":177:201   */\n      tag_36\n        /* \"#utility.yul\":195:200   */\n      dup2\n        /* \"#utility.yul\":177:201   */\n      tag_26\n      jump\t// in\n    tag_36:\n        /* \"#utility.yul\":172:175   */\n      dup3\n        /* \"#utility.yul\":165:202   */\n      mstore\n        /* \"#utility.yul\":90:208   */\n      pop\n      pop\n      jump\t// out\n        /* \"#utility.yul\":214:436   */\n    tag_11:\n        /* \"#utility.yul\":307:311   */\n      0x00\n        /* \"#utility.yul\":345:347   */\n      0x20\n        /* \"#utility.yul\":334:343   */\n      dup3\n        /* \"#utility.yul\":330:348   */\n      add\n        /* \"#utility.yul\":322:348   */\n      swap1\n      pop\n        /* \"#utility.yul\":358:429   */\n      tag_38\n        /* \"#utility.yul\":426:427   */\n      0x00\n        /* \"#utility.yul\":415:424   */\n      dup4\n        /* \"#utility.yul\":411:428   */\n      add\n        /* \"#utility.yul\":402:408   */\n      dup5\n        /* \"#utility.yul\":358:429   */\n      tag_27\n      jump\t// in\n    tag_38:\n        /* \"#utility.yul\":214:436   */\n      swap3\n      swap2\n      pop\n      pop\n      jump\t// out\n        /* \"#utility.yul\":442:541   */\n    tag_28:\n        /* \"#utility.yul\":494:500   */\n      0x00\n        /* \"#utility.yul\":528:533   */\n      dup2\n        /* \"#utility.yul\":522:534   */\n      mload\n        /* \"#utility.yul\":512:534   */\n      swap1\n      pop\n        /* \"#utility.yul\":442:541   */\n      swap2\n      swap1\n      pop\n      jump\t// out\n        /* \"#utility.yul\":547:716   */\n    tag_29:\n        /* \"#utility.yul\":631:642   */\n      0x00\n        /* \"#utility.yul\":665:671   */\n      dup3\n        /* \"#utility.yul\":660:663   */\n      dup3\n        /* \"#utility.yul\":653:672   */\n      mstore\n        /* \"#utility.yul\":705:709   */\n      0x20\n        /* \"#utility.yul\":700:703   */\n      dup3\n        /* \"#utility.yul\":696:710   */\n      add\n        /* \"#utility.yul\":681:710   */\n      swap1\n      pop\n        /* \"#utility.yul\":547:716   */\n      swap3\n      swap2\n      pop\n      pop\n      jump\t// out\n        /* \"#utility.yul\":722:968   */\n    tag_30:\n        /* \"#utility.yul\":803:804   */\n      0x00\n        /* \"#utility.yul\":813:926   */\n    tag_42:\n        /* \"#utility.yul\":827:833   */\n      dup4\n        /* \"#utility.yul\":824:825   */\n      dup2\n        /* \"#utility.yul\":821:834   */\n      lt\n        /* \"#utility.yul\":813:926   */\n      iszero\n      tag_44\n      jumpi\n        /* \"#utility.yul\":912:913   */\n      dup1\n        /* \"#utility.yul\":907:910   */\n      dup3\n        /* \"#utility.yul\":903:914   */\n      add\n        /* \"#utility.yul\":897:915   */\n      mload\n        /* \"#utility.yul\":893:894   */\n      dup2\n        /* \"#utility.yul\":888:891   */\n      dup5\n        /* \"#utility.yul\":884:895   */\n      add\n        /* \"#utility.yul\":877:916   */\n      mstore\n        /* \"#utility.yul\":849:851   */\n      0x20\n        /* \"#utility.yul\":846:847   */\n      dup2\n        /* \"#utility.yul\":842:852   */\n      add\n        /* \"#utility.yul\":837:852   */\n      swap1\n      pop\n        /* \"#utility.yul\":813:926   */\n      jump(tag_42)\n    tag_44:\n        /* \"#utility.yul\":960:961   */\n      0x00\n        /* \"#utility.yul\":951:957   */\n      dup5\n        /* \"#utility.yul\":946:949   */\n      dup5\n        /* \"#utility.yul\":942:958   */\n      add\n        /* \"#utility.yul\":935:962   */\n      mstore\n        /* \"#utility.yul\":784:968   */\n      pop\n        /* \"#utility.yul\":722:968   */\n      pop\n      pop\n      pop\n      jump\t// out\n        /* \"#utility.yul\":974:1076   */\n    tag_31:\n        /* \"#utility.yul\":1015:1021   */\n      0x00\n        /* \"#utility.yul\":1066:1068   */\n      0x1f\n        /* \"#utility.yul\":1062:1069   */\n      not\n        /* \"#utility.yul\":1057:1059   */\n      0x1f\n        /* \"#utility.yul\":1050:1055   */\n      dup4\n        /* \"#utility.yul\":1046:1060   */\n      add\n        /* \"#utility.yul\":1042:1070   */\n      and\n        /* \"#utility.yul\":1032:1070   */\n      swap1\n      pop\n        /* \"#utility.yul\":974:1076   */\n      swap2\n      swap1\n      pop\n      jump\t// out\n        /* \"#utility.yul\":1082:1459   */\n    tag_32:\n        /* \"#utility.yul\":1170:1173   */\n      0x00\n        /* \"#utility.yul\":1198:1237   */\n      tag_47\n        /* \"#utility.yul\":1231:1236   */\n      dup3\n        /* \"#utility.yul\":1198:1237   */\n      tag_28\n      jump\t// in\n    tag_47:\n        /* \"#utility.yul\":1253:1324   */\n      tag_48\n        /* \"#utility.yul\":1317:1323   */\n      dup2\n        /* \"#utility.yul\":1312:1315   */\n      dup6\n        /* \"#utility.yul\":1253:1324   */\n      tag_29\n      jump\t// in\n    tag_48:\n        /* \"#utility.yul\":1246:1324   */\n      swap4\n      pop\n        /* \"#utility.yul\":1333:1398   */\n      tag_49\n        /* \"#utility.yul\":1391:1397   */\n      dup2\n        /* \"#utility.yul\":1386:1389   */\n      dup6\n        /* \"#utility.yul\":1379:1383   */\n      0x20\n        /* \"#utility.yul\":1372:1377   */\n      dup7\n        /* \"#utility.yul\":1368:1384   */\n      add\n        /* \"#utility.yul\":1333:1398   */\n      tag_30\n      jump\t// in\n    tag_49:\n        /* \"#utility.yul\":1423:1452   */\n      tag_50\n        /* \"#utility.yul\":1445:1451   */\n      dup2\n        /* \"#utility.yul\":1423:1452   */\n      tag_31\n      jump\t// in\n    tag_50:\n        /* \"#utility.yul\":1418:1421   */\n      dup5\n        /* \"#utility.yul\":1414:1453   */\n      add\n        /* \"#utility.yul\":1407:1453   */\n      swap2\n      pop\n        /* \"#utility.yul\":1174:1459   */\n      pop\n        /* \"#utility.yul\":1082:1459   */\n      swap3\n      swap2\n      pop\n      pop\n      jump\t// out\n        /* \"#utility.yul\":1465:1778   */\n    tag_22:\n        /* \"#utility.yul\":1578:1582   */\n      0x00\n        /* \"#utility.yul\":1616:1618   */\n      0x20\n        /* \"#utility.yul\":1605:1614   */\n      dup3\n        /* \"#utility.yul\":1601:1619   */\n      add\n        /* \"#utility.yul\":1593:1619   */\n      swap1\n      pop\n        /* \"#utility.yul\":1665:1674   */\n      dup2\n        /* \"#utility.yul\":1659:1663   */\n      dup2\n        /* \"#utility.yul\":1655:1675   */\n      sub\n        /* \"#utility.yul\":1651:1652   */\n      0x00\n        /* \"#utility.yul\":1640:1649   */\n      dup4\n        /* \"#utility.yul\":1636:1653   */\n      add\n        /* \"#utility.yul\":1629:1676   */\n      mstore\n        /* \"#utility.yul\":1693:1771   */\n      tag_52\n        /* \"#utility.yul\":1766:1770   */\n      dup2\n        /* \"#utility.yul\":1757:1763   */\n      dup5\n        /* \"#utility.yul\":1693:1771   */\n      tag_32\n      jump\t// in\n    tag_52:\n        /* \"#utility.yul\":1685:1771   */\n      swap1\n      pop\n        /* \"#utility.yul\":1465:1778   */\n      swap3\n      swap2\n      pop\n      pop\n      jump\t// out\n\n    auxdata: 0xa264697066735822122048847fc98fb2307096ffea0adc920f2d292ca2aab17d7bd0fa3f305242d2de2264736f6c63430008110033\n}\n",
				"bytecode": {
					"linkReferences": {},
					"object": "608060405234801561001057600080fd5b50600b600081905550600b600181905550610243806100306000396000f3fe608060405234801561001057600080fd5b50600436106100575760003560e01c80630dbe671f1461005c5780634df7e3d01461007a5780636bf6b038146100985780638f51c4f5146100a2578063946644cd146100ac575b600080fd5b6100646100ca565b6040516100719190610140565b60405180910390f35b6100826100d0565b60405161008f9190610140565b60405180910390f35b6100a06100d6565b005b6100aa6100e0565b005b6100b46100ea565b6040516100c191906101eb565b60405180910390f35b60005481565b60015481565b600c600081905550565b600c600181905550565b60606040518060400160405280600781526020017f696d20696e206200000000000000000000000000000000000000000000000000815250905090565b6000819050919050565b61013a81610127565b82525050565b60006020820190506101556000830184610131565b92915050565b600081519050919050565b600082825260208201905092915050565b60005b8381101561019557808201518184015260208101905061017a565b60008484015250505050565b6000601f19601f8301169050919050565b60006101bd8261015b565b6101c78185610166565b93506101d7818560208601610177565b6101e0816101a1565b840191505092915050565b6000602082019050818103600083015261020581846101b2565b90509291505056fea264697066735822122048847fc98fb2307096ffea0adc920f2d292ca2aab17d7bd0fa3f305242d2de2264736f6c63430008110033",
					"opcodes": "PUSH1 0x80 PUSH1 0x40 MSTORE CALLVALUE DUP1 ISZERO PUSH2 0x10 JUMPI PUSH1 0x0 DUP1 REVERT JUMPDEST POP PUSH1 0xB PUSH1 0x0 DUP2 SWAP1 SSTORE POP PUSH1 0xB PUSH1 0x1 DUP2 SWAP1 SSTORE POP PUSH2 0x243 DUP1 PUSH2 0x30 PUSH1 0x0 CODECOPY PUSH1 0x0 RETURN INVALID PUSH1 0x80 PUSH1 0x40 MSTORE CALLVALUE DUP1 ISZERO PUSH2 0x10 JUMPI PUSH1 0x0 DUP1 REVERT JUMPDEST POP PUSH1 0x4 CALLDATASIZE LT PUSH2 0x57 JUMPI PUSH1 0x0 CALLDATALOAD PUSH1 0xE0 SHR DUP1 PUSH4 0xDBE671F EQ PUSH2 0x5C JUMPI DUP1 PUSH4 0x4DF7E3D0 EQ PUSH2 0x7A JUMPI DUP1 PUSH4 0x6BF6B038 EQ PUSH2 0x98 JUMPI DUP1 PUSH4 0x8F51C4F5 EQ PUSH2 0xA2 JUMPI DUP1 PUSH4 0x946644CD EQ PUSH2 0xAC JUMPI JUMPDEST PUSH1 0x0 DUP1 REVERT JUMPDEST PUSH2 0x64 PUSH2 0xCA JUMP JUMPDEST PUSH1 0x40 MLOAD PUSH2 0x71 SWAP2 SWAP1 PUSH2 0x140 JUMP JUMPDEST PUSH1 0x40 MLOAD DUP1 SWAP2 SUB SWAP1 RETURN JUMPDEST PUSH2 0x82 PUSH2 0xD0 JUMP JUMPDEST PUSH1 0x40 MLOAD PUSH2 0x8F SWAP2 SWAP1 PUSH2 0x140 JUMP JUMPDEST PUSH1 0x40 MLOAD DUP1 SWAP2 SUB SWAP1 RETURN JUMPDEST PUSH2 0xA0 PUSH2 0xD6 JUMP JUMPDEST STOP JUMPDEST PUSH2 0xAA PUSH2 0xE0 JUMP JUMPDEST STOP JUMPDEST PUSH2 0xB4 PUSH2 0xEA JUMP JUMPDEST PUSH1 0x40 MLOAD PUSH2 0xC1 SWAP2 SWAP1 PUSH2 0x1EB JUMP JUMPDEST PUSH1 0x40 MLOAD DUP1 SWAP2 SUB SWAP1 RETURN JUMPDEST PUSH1 0x0 SLOAD DUP2 JUMP JUMPDEST PUSH1 0x1 SLOAD DUP2 JUMP JUMPDEST PUSH1 0xC PUSH1 0x0 DUP2 SWAP1 SSTORE POP JUMP JUMPDEST PUSH1 0xC PUSH1 0x1 DUP2 SWAP1 SSTORE POP JUMP JUMPDEST PUSH1 0x60 PUSH1 0x40 MLOAD DUP1 PUSH1 0x40 ADD PUSH1 0x40 MSTORE DUP1 PUSH1 0x7 DUP2 MSTORE PUSH1 0x20 ADD PUSH32 0x696D20696E206200000000000000000000000000000000000000000000000000 DUP2 MSTORE POP SWAP1 POP SWAP1 JUMP JUMPDEST PUSH1 0x0 DUP2 SWAP1 POP SWAP2 SWAP1 POP JUMP JUMPDEST PUSH2 0x13A DUP2 PUSH2 0x127 JUMP JUMPDEST DUP3 MSTORE POP POP JUMP JUMPDEST PUSH1 0x0 PUSH1 0x20 DUP3 ADD SWAP1 POP PUSH2 0x155 PUSH1 0x0 DUP4 ADD DUP5 PUSH2 0x131 JUMP JUMPDEST SWAP3 SWAP2 POP POP JUMP JUMPDEST PUSH1 0x0 DUP2 MLOAD SWAP1 POP SWAP2 SWAP1 POP JUMP JUMPDEST PUSH1 0x0 DUP3 DUP3 MSTORE PUSH1 0x20 DUP3 ADD SWAP1 POP SWAP3 SWAP2 POP POP JUMP JUMPDEST PUSH1 0x0 JUMPDEST DUP4 DUP2 LT ISZERO PUSH2 0x195 JUMPI DUP1 DUP3 ADD MLOAD DUP2 DUP5 ADD MSTORE PUSH1 0x20 DUP2 ADD SWAP1 POP PUSH2 0x17A JUMP JUMPDEST PUSH1 0x0 DUP5 DUP5 ADD MSTORE POP POP POP POP JUMP JUMPDEST PUSH1 0x0 PUSH1 0x1F NOT PUSH1 0x1F DUP4 ADD AND SWAP1 POP SWAP2 SWAP1 POP JUMP JUMPDEST PUSH1 0x0 PUSH2 0x1BD DUP3 PUSH2 0x15B JUMP JUMPDEST PUSH2 0x1C7 DUP2 DUP6 PUSH2 0x166 JUMP JUMPDEST SWAP4 POP PUSH2 0x1D7 DUP2 DUP6 PUSH1 0x20 DUP7 ADD PUSH2 0x177 JUMP JUMPDEST PUSH2 0x1E0 DUP2 PUSH2 0x1A1 JUMP JUMPDEST DUP5 ADD SWAP2 POP POP SWAP3 SWAP2 POP POP JUMP JUMPDEST PUSH1 0x0 PUSH1 0x20 DUP3 ADD SWAP1 POP DUP2 DUP2 SUB PUSH1 0x0 DUP4 ADD MSTORE PUSH2 0x205 DUP2 DUP5 PUSH2 0x1B2 JUMP JUMPDEST SWAP1 POP SWAP3 SWAP2 POP POP JUMP INVALID LOG2 PUSH5 0x6970667358 0x22 SLT KECCAK256 BASEFEE DUP5 PUSH32 0xC98FB2307096FFEA0ADC920F2D292CA2AAB17D7BD0FA3F305242D2DE2264736F PUSH13 0x63430008110033000000000000 "
				},
				"gasEstimates": {
					"creation": {
						"codeDepositCost": "115800",
						"executionCost": "44393",
						"totalCost": "160193"
					},
					"external": {
						"a()": "2407",
						"b()": "2429",
						"fun()": "infinite",
						"geta()": "22280",
						"geta1()": "22302"
					}
				},
				"methodIdentifiers": {
					"a()": "0dbe671f",
					"b()": "4df7e3d0",
					"fun()": "946644cd",
					"geta()": "6bf6b038",
					"geta1()": "8f51c4f5"
				}
			},
			"storageLayout": {
				"storage": [
					{
						"astId": 3,
						"contract": "contracts/virtual.override.sol:B",
						"label": "a",
						"offset": 0,
						"slot": "0",
						"type": "t_uint256"
					},
					{
						"astId": 32,
						"contract": "contracts/virtual.override.sol:B",
						"label": "b",
						"offset": 0,
						"slot": "1",
						"type": "t_uint256"
					}
				],
				"types": {
					"t_uint256": {
						"encoding": "inplace",
						"label": "uint256",
						"numberOfBytes": "32"
					}
				}
			},
			"userdoc": {
				"kind": "user",
				"methods": {},
				"version": 1
			}
		}
	}
}