{
	"contracts/function_modifier.sol": {
		"FUNCTION_modifier": {
			"abi": [
				{
					"inputs": [],
					"name": "fun1",
					"outputs": [
						{
							"internalType": "string",
							"name": "",
							"type": "string"
						}
					],
					"stateMutability": "pure",
					"type": "function"
				},
				{
					"inputs": [],
					"name": "fun2",
					"outputs": [
						{
							"internalType": "uint256",
							"name": "_x",
							"type": "uint256"
						}
					],
					"stateMutability": "pure",
					"type": "function"
				},
				{
					"inputs": [],
					"name": "fun3",
					"outputs": [
						{
							"internalType": "address",
							"name": "",
							"type": "address"
						}
					],
					"stateMutability": "view",
					"type": "function"
				}
			],
			"devdoc": {
				"kind": "dev",
				"methods": {},
				"version": 1
			},
			"evm": {
				"assembly": "    /* \"contracts/function_modifier.sol\":60:1034  contract FUNCTION_modifier{... */\n  mstore(0x40, 0x80)\n  callvalue\n  dup1\n  iszero\n  tag_1\n  jumpi\n  0x00\n  dup1\n  revert\ntag_1:\n  pop\n  dataSize(sub_0)\n  dup1\n  dataOffset(sub_0)\n  0x00\n  codecopy\n  0x00\n  return\nstop\n\nsub_0: assembly {\n        /* \"contracts/function_modifier.sol\":60:1034  contract FUNCTION_modifier{... */\n      mstore(0x40, 0x80)\n      callvalue\n      dup1\n      iszero\n      tag_1\n      jumpi\n      0x00\n      dup1\n      revert\n    tag_1:\n      pop\n      jumpi(tag_2, lt(calldatasize, 0x04))\n      shr(0xe0, calldataload(0x00))\n      dup1\n      0x157b5167\n      eq\n      tag_3\n      jumpi\n      dup1\n      0x446a45b7\n      eq\n      tag_4\n      jumpi\n      dup1\n      0x7b8239fa\n      eq\n      tag_5\n      jumpi\n    tag_2:\n      0x00\n      dup1\n      revert\n        /* \"contracts/function_modifier.sol\":829:915  function fun2()public pure samneCode  returns(uint _x){... */\n    tag_3:\n      tag_6\n      tag_7\n      jump\t// in\n    tag_6:\n      mload(0x40)\n      tag_8\n      swap2\n      swap1\n      tag_9\n      jump\t// in\n    tag_8:\n      mload(0x40)\n      dup1\n      swap2\n      sub\n      swap1\n      return\n        /* \"contracts/function_modifier.sol\":667:821  function fun1()public pure samneCode returns(string memory){ // modifier samneCode has addded to the function... */\n    tag_4:\n      tag_10\n      tag_11\n      jump\t// in\n    tag_10:\n      mload(0x40)\n      tag_12\n      swap2\n      swap1\n      tag_13\n      jump\t// in\n    tag_12:\n      mload(0x40)\n      dup1\n      swap2\n      sub\n      swap1\n      return\n        /* \"contracts/function_modifier.sol\":928:1026  function fun3()public view samneCode  returns(address){... */\n    tag_5:\n      tag_14\n      tag_15\n      jump\t// in\n    tag_14:\n      mload(0x40)\n      tag_16\n      swap2\n      swap1\n      tag_17\n      jump\t// in\n    tag_16:\n      mload(0x40)\n      dup1\n      swap2\n      sub\n      swap1\n      return\n        /* \"contracts/function_modifier.sol\":829:915  function fun2()public pure samneCode  returns(uint _x){... */\n    tag_7:\n        /* \"contracts/function_modifier.sol\":875:882  uint _x */\n      0x00\n        /* \"contracts/function_modifier.sol\":164:171  uint _i */\n      dup1\n        /* \"contracts/function_modifier.sol\":172:173  0 */\n      0x00\n        /* \"contracts/function_modifier.sol\":164:173  uint _i=0 */\n      swap1\n      pop\n        /* \"contracts/function_modifier.sol\":160:241  for(uint _i=0;_i<10;_i++){  // this for loop was common in 3 functions... */\n    tag_19:\n        /* \"contracts/function_modifier.sol\":177:179  10 */\n      0x0a\n        /* \"contracts/function_modifier.sol\":174:176  _i */\n      dup2\n        /* \"contracts/function_modifier.sol\":174:179  _i<10 */\n      lt\n        /* \"contracts/function_modifier.sol\":160:241  for(uint _i=0;_i<10;_i++){  // this for loop was common in 3 functions... */\n      iszero\n      tag_20\n      jumpi\n        /* \"contracts/function_modifier.sol\":180:184  _i++ */\n      dup1\n      dup1\n      tag_22\n      swap1\n      tag_23\n      jump\t// in\n    tag_22:\n      swap2\n      pop\n      pop\n        /* \"contracts/function_modifier.sol\":160:241  for(uint _i=0;_i<10;_i++){  // this for loop was common in 3 functions... */\n      jump(tag_19)\n    tag_20:\n      pop\n        /* \"contracts/function_modifier.sol\":905:907  20 */\n      0x14\n        /* \"contracts/function_modifier.sol\":902:907  _x=20 */\n      swap1\n      pop\n        /* \"contracts/function_modifier.sol\":829:915  function fun2()public pure samneCode  returns(uint _x){... */\n      swap1\n      jump\t// out\n        /* \"contracts/function_modifier.sol\":667:821  function fun1()public pure samneCode returns(string memory){ // modifier samneCode has addded to the function... */\n    tag_11:\n        /* \"contracts/function_modifier.sol\":712:725  string memory */\n      0x60\n        /* \"contracts/function_modifier.sol\":164:171  uint _i */\n      0x00\n        /* \"contracts/function_modifier.sol\":160:241  for(uint _i=0;_i<10;_i++){  // this for loop was common in 3 functions... */\n    tag_26:\n        /* \"contracts/function_modifier.sol\":177:179  10 */\n      0x0a\n        /* \"contracts/function_modifier.sol\":174:176  _i */\n      dup2\n        /* \"contracts/function_modifier.sol\":174:179  _i<10 */\n      lt\n        /* \"contracts/function_modifier.sol\":160:241  for(uint _i=0;_i<10;_i++){  // this for loop was common in 3 functions... */\n      iszero\n      tag_27\n      jumpi\n        /* \"contracts/function_modifier.sol\":180:184  _i++ */\n      dup1\n      dup1\n      tag_29\n      swap1\n      tag_23\n      jump\t// in\n    tag_29:\n      swap2\n      pop\n      pop\n        /* \"contracts/function_modifier.sol\":160:241  for(uint _i=0;_i<10;_i++){  // this for loop was common in 3 functions... */\n      jump(tag_26)\n    tag_27:\n      pop\n        /* \"contracts/function_modifier.sol\":794:812  return \"heyy fun1\" */\n      mload(0x40)\n      dup1\n      0x40\n      add\n      0x40\n      mstore\n      dup1\n      0x09\n      dup2\n      mstore\n      0x20\n      add\n      0x686579792066756e310000000000000000000000000000000000000000000000\n      dup2\n      mstore\n      pop\n      swap1\n      pop\n        /* \"contracts/function_modifier.sol\":667:821  function fun1()public pure samneCode returns(string memory){ // modifier samneCode has addded to the function... */\n      swap1\n      jump\t// out\n        /* \"contracts/function_modifier.sol\":928:1026  function fun3()public view samneCode  returns(address){... */\n    tag_15:\n        /* \"contracts/function_modifier.sol\":974:981  address */\n      0x00\n        /* \"contracts/function_modifier.sol\":164:171  uint _i */\n      dup1\n        /* \"contracts/function_modifier.sol\":172:173  0 */\n      0x00\n        /* \"contracts/function_modifier.sol\":164:173  uint _i=0 */\n      swap1\n      pop\n        /* \"contracts/function_modifier.sol\":160:241  for(uint _i=0;_i<10;_i++){  // this for loop was common in 3 functions... */\n    tag_32:\n        /* \"contracts/function_modifier.sol\":177:179  10 */\n      0x0a\n        /* \"contracts/function_modifier.sol\":174:176  _i */\n      dup2\n        /* \"contracts/function_modifier.sol\":174:179  _i<10 */\n      lt\n        /* \"contracts/function_modifier.sol\":160:241  for(uint _i=0;_i<10;_i++){  // this for loop was common in 3 functions... */\n      iszero\n      tag_33\n      jumpi\n        /* \"contracts/function_modifier.sol\":180:184  _i++ */\n      dup1\n      dup1\n      tag_35\n      swap1\n      tag_23\n      jump\t// in\n    tag_35:\n      swap2\n      pop\n      pop\n        /* \"contracts/function_modifier.sol\":160:241  for(uint _i=0;_i<10;_i++){  // this for loop was common in 3 functions... */\n      jump(tag_32)\n    tag_33:\n      pop\n        /* \"contracts/function_modifier.sol\":1007:1017  msg.sender */\n      caller\n        /* \"contracts/function_modifier.sol\":1000:1017  return msg.sender */\n      swap1\n      pop\n        /* \"contracts/function_modifier.sol\":928:1026  function fun3()public view samneCode  returns(address){... */\n      swap1\n      jump\t// out\n        /* \"#utility.yul\":7:84   */\n    tag_37:\n        /* \"#utility.yul\":44:51   */\n      0x00\n        /* \"#utility.yul\":73:78   */\n      dup2\n        /* \"#utility.yul\":62:78   */\n      swap1\n      pop\n        /* \"#utility.yul\":7:84   */\n      swap2\n      swap1\n      pop\n      jump\t// out\n        /* \"#utility.yul\":90:208   */\n    tag_38:\n        /* \"#utility.yul\":177:201   */\n      tag_51\n        /* \"#utility.yul\":195:200   */\n      dup2\n        /* \"#utility.yul\":177:201   */\n      tag_37\n      jump\t// in\n    tag_51:\n        /* \"#utility.yul\":172:175   */\n      dup3\n        /* \"#utility.yul\":165:202   */\n      mstore\n        /* \"#utility.yul\":90:208   */\n      pop\n      pop\n      jump\t// out\n        /* \"#utility.yul\":214:436   */\n    tag_9:\n        /* \"#utility.yul\":307:311   */\n      0x00\n        /* \"#utility.yul\":345:347   */\n      0x20\n        /* \"#utility.yul\":334:343   */\n      dup3\n        /* \"#utility.yul\":330:348   */\n      add\n        /* \"#utility.yul\":322:348   */\n      swap1\n      pop\n        /* \"#utility.yul\":358:429   */\n      tag_53\n        /* \"#utility.yul\":426:427   */\n      0x00\n        /* \"#utility.yul\":415:424   */\n      dup4\n        /* \"#utility.yul\":411:428   */\n      add\n        /* \"#utility.yul\":402:408   */\n      dup5\n        /* \"#utility.yul\":358:429   */\n      tag_38\n      jump\t// in\n    tag_53:\n        /* \"#utility.yul\":214:436   */\n      swap3\n      swap2\n      pop\n      pop\n      jump\t// out\n        /* \"#utility.yul\":442:541   */\n    tag_39:\n        /* \"#utility.yul\":494:500   */\n      0x00\n        /* \"#utility.yul\":528:533   */\n      dup2\n        /* \"#utility.yul\":522:534   */\n      mload\n        /* \"#utility.yul\":512:534   */\n      swap1\n      pop\n        /* \"#utility.yul\":442:541   */\n      swap2\n      swap1\n      pop\n      jump\t// out\n        /* \"#utility.yul\":547:716   */\n    tag_40:\n        /* \"#utility.yul\":631:642   */\n      0x00\n        /* \"#utility.yul\":665:671   */\n      dup3\n        /* \"#utility.yul\":660:663   */\n      dup3\n        /* \"#utility.yul\":653:672   */\n      mstore\n        /* \"#utility.yul\":705:709   */\n      0x20\n        /* \"#utility.yul\":700:703   */\n      dup3\n        /* \"#utility.yul\":696:710   */\n      add\n        /* \"#utility.yul\":681:710   */\n      swap1\n      pop\n        /* \"#utility.yul\":547:716   */\n      swap3\n      swap2\n      pop\n      pop\n      jump\t// out\n        /* \"#utility.yul\":722:968   */\n    tag_41:\n        /* \"#utility.yul\":803:804   */\n      0x00\n        /* \"#utility.yul\":813:926   */\n    tag_57:\n        /* \"#utility.yul\":827:833   */\n      dup4\n        /* \"#utility.yul\":824:825   */\n      dup2\n        /* \"#utility.yul\":821:834   */\n      lt\n        /* \"#utility.yul\":813:926   */\n      iszero\n      tag_59\n      jumpi\n        /* \"#utility.yul\":912:913   */\n      dup1\n        /* \"#utility.yul\":907:910   */\n      dup3\n        /* \"#utility.yul\":903:914   */\n      add\n        /* \"#utility.yul\":897:915   */\n      mload\n        /* \"#utility.yul\":893:894   */\n      dup2\n        /* \"#utility.yul\":888:891   */\n      dup5\n        /* \"#utility.yul\":884:895   */\n      add\n        /* \"#utility.yul\":877:916   */\n      mstore\n        /* \"#utility.yul\":849:851   */\n      0x20\n        /* \"#utility.yul\":846:847   */\n      dup2\n        /* \"#utility.yul\":842:852   */\n      add\n        /* \"#utility.yul\":837:852   */\n      swap1\n      pop\n        /* \"#utility.yul\":813:926   */\n      jump(tag_57)\n    tag_59:\n        /* \"#utility.yul\":960:961   */\n      0x00\n        /* \"#utility.yul\":951:957   */\n      dup5\n        /* \"#utility.yul\":946:949   */\n      dup5\n        /* \"#utility.yul\":942:958   */\n      add\n        /* \"#utility.yul\":935:962   */\n      mstore\n        /* \"#utility.yul\":784:968   */\n      pop\n        /* \"#utility.yul\":722:968   */\n      pop\n      pop\n      pop\n      jump\t// out\n        /* \"#utility.yul\":974:1076   */\n    tag_42:\n        /* \"#utility.yul\":1015:1021   */\n      0x00\n        /* \"#utility.yul\":1066:1068   */\n      0x1f\n        /* \"#utility.yul\":1062:1069   */\n      not\n        /* \"#utility.yul\":1057:1059   */\n      0x1f\n        /* \"#utility.yul\":1050:1055   */\n      dup4\n        /* \"#utility.yul\":1046:1060   */\n      add\n        /* \"#utility.yul\":1042:1070   */\n      and\n        /* \"#utility.yul\":1032:1070   */\n      swap1\n      pop\n        /* \"#utility.yul\":974:1076   */\n      swap2\n      swap1\n      pop\n      jump\t// out\n        /* \"#utility.yul\":1082:1459   */\n    tag_43:\n        /* \"#utility.yul\":1170:1173   */\n      0x00\n        /* \"#utility.yul\":1198:1237   */\n      tag_62\n        /* \"#utility.yul\":1231:1236   */\n      dup3\n        /* \"#utility.yul\":1198:1237   */\n      tag_39\n      jump\t// in\n    tag_62:\n        /* \"#utility.yul\":1253:1324   */\n      tag_63\n        /* \"#utility.yul\":1317:1323   */\n      dup2\n        /* \"#utility.yul\":1312:1315   */\n      dup6\n        /* \"#utility.yul\":1253:1324   */\n      tag_40\n      jump\t// in\n    tag_63:\n        /* \"#utility.yul\":1246:1324   */\n      swap4\n      pop\n        /* \"#utility.yul\":1333:1398   */\n      tag_64\n        /* \"#utility.yul\":1391:1397   */\n      dup2\n        /* \"#utility.yul\":1386:1389   */\n      dup6\n        /* \"#utility.yul\":1379:1383   */\n      0x20\n        /* \"#utility.yul\":1372:1377   */\n      dup7\n        /* \"#utility.yul\":1368:1384   */\n      add\n        /* \"#utility.yul\":1333:1398   */\n      tag_41\n      jump\t// in\n    tag_64:\n        /* \"#utility.yul\":1423:1452   */\n      tag_65\n        /* \"#utility.yul\":1445:1451   */\n      dup2\n        /* \"#utility.yul\":1423:1452   */\n      tag_42\n      jump\t// in\n    tag_65:\n        /* \"#utility.yul\":1418:1421   */\n      dup5\n        /* \"#utility.yul\":1414:1453   */\n      add\n        /* \"#utility.yul\":1407:1453   */\n      swap2\n      pop\n        /* \"#utility.yul\":1174:1459   */\n      pop\n        /* \"#utility.yul\":1082:1459   */\n      swap3\n      swap2\n      pop\n      pop\n      jump\t// out\n        /* \"#utility.yul\":1465:1778   */\n    tag_13:\n        /* \"#utility.yul\":1578:1582   */\n      0x00\n        /* \"#utility.yul\":1616:1618   */\n      0x20\n        /* \"#utility.yul\":1605:1614   */\n      dup3\n        /* \"#utility.yul\":1601:1619   */\n      add\n        /* \"#utility.yul\":1593:1619   */\n      swap1\n      pop\n        /* \"#utility.yul\":1665:1674   */\n      dup2\n        /* \"#utility.yul\":1659:1663   */\n      dup2\n        /* \"#utility.yul\":1655:1675   */\n      sub\n        /* \"#utility.yul\":1651:1652   */\n      0x00\n        /* \"#utility.yul\":1640:1649   */\n      dup4\n        /* \"#utility.yul\":1636:1653   */\n      add\n        /* \"#utility.yul\":1629:1676   */\n      mstore\n        /* \"#utility.yul\":1693:1771   */\n      tag_67\n        /* \"#utility.yul\":1766:1770   */\n      dup2\n        /* \"#utility.yul\":1757:1763   */\n      dup5\n        /* \"#utility.yul\":1693:1771   */\n      tag_43\n      jump\t// in\n    tag_67:\n        /* \"#utility.yul\":1685:1771   */\n      swap1\n      pop\n        /* \"#utility.yul\":1465:1778   */\n      swap3\n      swap2\n      pop\n      pop\n      jump\t// out\n        /* \"#utility.yul\":1784:1910   */\n    tag_44:\n        /* \"#utility.yul\":1821:1828   */\n      0x00\n        /* \"#utility.yul\":1861:1903   */\n      0xffffffffffffffffffffffffffffffffffffffff\n        /* \"#utility.yul\":1854:1859   */\n      dup3\n        /* \"#utility.yul\":1850:1904   */\n      and\n        /* \"#utility.yul\":1839:1904   */\n      swap1\n      pop\n        /* \"#utility.yul\":1784:1910   */\n      swap2\n      swap1\n      pop\n      jump\t// out\n        /* \"#utility.yul\":1916:2012   */\n    tag_45:\n        /* \"#utility.yul\":1953:1960   */\n      0x00\n        /* \"#utility.yul\":1982:2006   */\n      tag_70\n        /* \"#utility.yul\":2000:2005   */\n      dup3\n        /* \"#utility.yul\":1982:2006   */\n      tag_44\n      jump\t// in\n    tag_70:\n        /* \"#utility.yul\":1971:2006   */\n      swap1\n      pop\n        /* \"#utility.yul\":1916:2012   */\n      swap2\n      swap1\n      pop\n      jump\t// out\n        /* \"#utility.yul\":2018:2136   */\n    tag_46:\n        /* \"#utility.yul\":2105:2129   */\n      tag_72\n        /* \"#utility.yul\":2123:2128   */\n      dup2\n        /* \"#utility.yul\":2105:2129   */\n      tag_45\n      jump\t// in\n    tag_72:\n        /* \"#utility.yul\":2100:2103   */\n      dup3\n        /* \"#utility.yul\":2093:2130   */\n      mstore\n        /* \"#utility.yul\":2018:2136   */\n      pop\n      pop\n      jump\t// out\n        /* \"#utility.yul\":2142:2364   */\n    tag_17:\n        /* \"#utility.yul\":2235:2239   */\n      0x00\n        /* \"#utility.yul\":2273:2275   */\n      0x20\n        /* \"#utility.yul\":2262:2271   */\n      dup3\n        /* \"#utility.yul\":2258:2276   */\n      add\n        /* \"#utility.yul\":2250:2276   */\n      swap1\n      pop\n        /* \"#utility.yul\":2286:2357   */\n      tag_74\n        /* \"#utility.yul\":2354:2355   */\n      0x00\n        /* \"#utility.yul\":2343:2352   */\n      dup4\n        /* \"#utility.yul\":2339:2356   */\n      add\n        /* \"#utility.yul\":2330:2336   */\n      dup5\n        /* \"#utility.yul\":2286:2357   */\n      tag_46\n      jump\t// in\n    tag_74:\n        /* \"#utility.yul\":2142:2364   */\n      swap3\n      swap2\n      pop\n      pop\n      jump\t// out\n        /* \"#utility.yul\":2370:2550   */\n    tag_47:\n        /* \"#utility.yul\":2418:2495   */\n      0x4e487b7100000000000000000000000000000000000000000000000000000000\n        /* \"#utility.yul\":2415:2416   */\n      0x00\n        /* \"#utility.yul\":2408:2496   */\n      mstore\n        /* \"#utility.yul\":2515:2519   */\n      0x11\n        /* \"#utility.yul\":2512:2513   */\n      0x04\n        /* \"#utility.yul\":2505:2520   */\n      mstore\n        /* \"#utility.yul\":2539:2543   */\n      0x24\n        /* \"#utility.yul\":2536:2537   */\n      0x00\n        /* \"#utility.yul\":2529:2544   */\n      revert\n        /* \"#utility.yul\":2556:2789   */\n    tag_23:\n        /* \"#utility.yul\":2595:2598   */\n      0x00\n        /* \"#utility.yul\":2618:2642   */\n      tag_77\n        /* \"#utility.yul\":2636:2641   */\n      dup3\n        /* \"#utility.yul\":2618:2642   */\n      tag_37\n      jump\t// in\n    tag_77:\n        /* \"#utility.yul\":2609:2642   */\n      swap2\n      pop\n        /* \"#utility.yul\":2664:2730   */\n      0xffffffffffffffffffffffffffffffffffffffffffffffffffffffffffffffff\n        /* \"#utility.yul\":2657:2662   */\n      dup3\n        /* \"#utility.yul\":2654:2731   */\n      sub\n        /* \"#utility.yul\":2651:2754   */\n      tag_78\n      jumpi\n        /* \"#utility.yul\":2734:2752   */\n      tag_79\n      tag_47\n      jump\t// in\n    tag_79:\n        /* \"#utility.yul\":2651:2754   */\n    tag_78:\n        /* \"#utility.yul\":2781:2782   */\n      0x01\n        /* \"#utility.yul\":2774:2779   */\n      dup3\n        /* \"#utility.yul\":2770:2783   */\n      add\n        /* \"#utility.yul\":2763:2783   */\n      swap1\n      pop\n        /* \"#utility.yul\":2556:2789   */\n      swap2\n      swap1\n      pop\n      jump\t// out\n\n    auxdata: 0xa264697066735822122038ed429d7459a255cf2562b46cf43e2ab0556e29a57e231eee648a2362bfdfe664736f6c63430008110033\n}\n",
				"bytecode": {
					"linkReferences": {},
					"object": "608060405234801561001057600080fd5b50610343806100206000396000f3fe608060405234801561001057600080fd5b50600436106100415760003560e01c8063157b516714610046578063446a45b7146100645780637b8239fa14610082575b600080fd5b61004e6100a0565b60405161005b919061016d565b60405180910390f35b61006c6100cc565b6040516100799190610218565b60405180910390f35b61008a610129565b604051610097919061027b565b60405180910390f35b600080600090505b600a8110156100c45780806100bc906102c5565b9150506100a8565b506014905090565b606060005b600a8110156100ed5780806100e5906102c5565b9150506100d1565b506040518060400160405280600981526020017f686579792066756e310000000000000000000000000000000000000000000000815250905090565b600080600090505b600a81101561014d578080610145906102c5565b915050610131565b5033905090565b6000819050919050565b61016781610154565b82525050565b6000602082019050610182600083018461015e565b92915050565b600081519050919050565b600082825260208201905092915050565b60005b838110156101c25780820151818401526020810190506101a7565b60008484015250505050565b6000601f19601f8301169050919050565b60006101ea82610188565b6101f48185610193565b93506102048185602086016101a4565b61020d816101ce565b840191505092915050565b6000602082019050818103600083015261023281846101df565b905092915050565b600073ffffffffffffffffffffffffffffffffffffffff82169050919050565b60006102658261023a565b9050919050565b6102758161025a565b82525050565b6000602082019050610290600083018461026c565b92915050565b7f4e487b7100000000000000000000000000000000000000000000000000000000600052601160045260246000fd5b60006102d082610154565b91507fffffffffffffffffffffffffffffffffffffffffffffffffffffffffffffffff820361030257610301610296565b5b60018201905091905056fea264697066735822122038ed429d7459a255cf2562b46cf43e2ab0556e29a57e231eee648a2362bfdfe664736f6c63430008110033",
					"opcodes": "PUSH1 0x80 PUSH1 0x40 MSTORE CALLVALUE DUP1 ISZERO PUSH2 0x10 JUMPI PUSH1 0x0 DUP1 REVERT JUMPDEST POP PUSH2 0x343 DUP1 PUSH2 0x20 PUSH1 0x0 CODECOPY PUSH1 0x0 RETURN INVALID PUSH1 0x80 PUSH1 0x40 MSTORE CALLVALUE DUP1 ISZERO PUSH2 0x10 JUMPI PUSH1 0x0 DUP1 REVERT JUMPDEST POP PUSH1 0x4 CALLDATASIZE LT PUSH2 0x41 JUMPI PUSH1 0x0 CALLDATALOAD PUSH1 0xE0 SHR DUP1 PUSH4 0x157B5167 EQ PUSH2 0x46 JUMPI DUP1 PUSH4 0x446A45B7 EQ PUSH2 0x64 JUMPI DUP1 PUSH4 0x7B8239FA EQ PUSH2 0x82 JUMPI JUMPDEST PUSH1 0x0 DUP1 REVERT JUMPDEST PUSH2 0x4E PUSH2 0xA0 JUMP JUMPDEST PUSH1 0x40 MLOAD PUSH2 0x5B SWAP2 SWAP1 PUSH2 0x16D JUMP JUMPDEST PUSH1 0x40 MLOAD DUP1 SWAP2 SUB SWAP1 RETURN JUMPDEST PUSH2 0x6C PUSH2 0xCC JUMP JUMPDEST PUSH1 0x40 MLOAD PUSH2 0x79 SWAP2 SWAP1 PUSH2 0x218 JUMP JUMPDEST PUSH1 0x40 MLOAD DUP1 SWAP2 SUB SWAP1 RETURN JUMPDEST PUSH2 0x8A PUSH2 0x129 JUMP JUMPDEST PUSH1 0x40 MLOAD PUSH2 0x97 SWAP2 SWAP1 PUSH2 0x27B JUMP JUMPDEST PUSH1 0x40 MLOAD DUP1 SWAP2 SUB SWAP1 RETURN JUMPDEST PUSH1 0x0 DUP1 PUSH1 0x0 SWAP1 POP JUMPDEST PUSH1 0xA DUP2 LT ISZERO PUSH2 0xC4 JUMPI DUP1 DUP1 PUSH2 0xBC SWAP1 PUSH2 0x2C5 JUMP JUMPDEST SWAP2 POP POP PUSH2 0xA8 JUMP JUMPDEST POP PUSH1 0x14 SWAP1 POP SWAP1 JUMP JUMPDEST PUSH1 0x60 PUSH1 0x0 JUMPDEST PUSH1 0xA DUP2 LT ISZERO PUSH2 0xED JUMPI DUP1 DUP1 PUSH2 0xE5 SWAP1 PUSH2 0x2C5 JUMP JUMPDEST SWAP2 POP POP PUSH2 0xD1 JUMP JUMPDEST POP PUSH1 0x40 MLOAD DUP1 PUSH1 0x40 ADD PUSH1 0x40 MSTORE DUP1 PUSH1 0x9 DUP2 MSTORE PUSH1 0x20 ADD PUSH32 0x686579792066756E310000000000000000000000000000000000000000000000 DUP2 MSTORE POP SWAP1 POP SWAP1 JUMP JUMPDEST PUSH1 0x0 DUP1 PUSH1 0x0 SWAP1 POP JUMPDEST PUSH1 0xA DUP2 LT ISZERO PUSH2 0x14D JUMPI DUP1 DUP1 PUSH2 0x145 SWAP1 PUSH2 0x2C5 JUMP JUMPDEST SWAP2 POP POP PUSH2 0x131 JUMP JUMPDEST POP CALLER SWAP1 POP SWAP1 JUMP JUMPDEST PUSH1 0x0 DUP2 SWAP1 POP SWAP2 SWAP1 POP JUMP JUMPDEST PUSH2 0x167 DUP2 PUSH2 0x154 JUMP JUMPDEST DUP3 MSTORE POP POP JUMP JUMPDEST PUSH1 0x0 PUSH1 0x20 DUP3 ADD SWAP1 POP PUSH2 0x182 PUSH1 0x0 DUP4 ADD DUP5 PUSH2 0x15E JUMP JUMPDEST SWAP3 SWAP2 POP POP JUMP JUMPDEST PUSH1 0x0 DUP2 MLOAD SWAP1 POP SWAP2 SWAP1 POP JUMP JUMPDEST PUSH1 0x0 DUP3 DUP3 MSTORE PUSH1 0x20 DUP3 ADD SWAP1 POP SWAP3 SWAP2 POP POP JUMP JUMPDEST PUSH1 0x0 JUMPDEST DUP4 DUP2 LT ISZERO PUSH2 0x1C2 JUMPI DUP1 DUP3 ADD MLOAD DUP2 DUP5 ADD MSTORE PUSH1 0x20 DUP2 ADD SWAP1 POP PUSH2 0x1A7 JUMP JUMPDEST PUSH1 0x0 DUP5 DUP5 ADD MSTORE POP POP POP POP JUMP JUMPDEST PUSH1 0x0 PUSH1 0x1F NOT PUSH1 0x1F DUP4 ADD AND SWAP1 POP SWAP2 SWAP1 POP JUMP JUMPDEST PUSH1 0x0 PUSH2 0x1EA DUP3 PUSH2 0x188 JUMP JUMPDEST PUSH2 0x1F4 DUP2 DUP6 PUSH2 0x193 JUMP JUMPDEST SWAP4 POP PUSH2 0x204 DUP2 DUP6 PUSH1 0x20 DUP7 ADD PUSH2 0x1A4 JUMP JUMPDEST PUSH2 0x20D DUP2 PUSH2 0x1CE JUMP JUMPDEST DUP5 ADD SWAP2 POP POP SWAP3 SWAP2 POP POP JUMP JUMPDEST PUSH1 0x0 PUSH1 0x20 DUP3 ADD SWAP1 POP DUP2 DUP2 SUB PUSH1 0x0 DUP4 ADD MSTORE PUSH2 0x232 DUP2 DUP5 PUSH2 0x1DF JUMP JUMPDEST SWAP1 POP SWAP3 SWAP2 POP POP JUMP JUMPDEST PUSH1 0x0 PUSH20 0xFFFFFFFFFFFFFFFFFFFFFFFFFFFFFFFFFFFFFFFF DUP3 AND SWAP1 POP SWAP2 SWAP1 POP JUMP JUMPDEST PUSH1 0x0 PUSH2 0x265 DUP3 PUSH2 0x23A JUMP JUMPDEST SWAP1 POP SWAP2 SWAP1 POP JUMP JUMPDEST PUSH2 0x275 DUP2 PUSH2 0x25A JUMP JUMPDEST DUP3 MSTORE POP POP JUMP JUMPDEST PUSH1 0x0 PUSH1 0x20 DUP3 ADD SWAP1 POP PUSH2 0x290 PUSH1 0x0 DUP4 ADD DUP5 PUSH2 0x26C JUMP JUMPDEST SWAP3 SWAP2 POP POP JUMP JUMPDEST PUSH32 0x4E487B7100000000000000000000000000000000000000000000000000000000 PUSH1 0x0 MSTORE PUSH1 0x11 PUSH1 0x4 MSTORE PUSH1 0x24 PUSH1 0x0 REVERT JUMPDEST PUSH1 0x0 PUSH2 0x2D0 DUP3 PUSH2 0x154 JUMP JUMPDEST SWAP2 POP PUSH32 0xFFFFFFFFFFFFFFFFFFFFFFFFFFFFFFFFFFFFFFFFFFFFFFFFFFFFFFFFFFFFFFFF DUP3 SUB PUSH2 0x302 JUMPI PUSH2 0x301 PUSH2 0x296 JUMP JUMPDEST JUMPDEST PUSH1 0x1 DUP3 ADD SWAP1 POP SWAP2 SWAP1 POP JUMP INVALID LOG2 PUSH5 0x6970667358 0x22 SLT KECCAK256 CODESIZE 0xED TIMESTAMP SWAP14 PUSH21 0x59A255CF2562B46CF43E2AB0556E29A57E231EEE64 DUP11 0x23 PUSH3 0xBFDFE6 PUSH5 0x736F6C6343 STOP ADDMOD GT STOP CALLER "
				},
				"gasEstimates": {
					"creation": {
						"codeDepositCost": "167000",
						"executionCost": "214",
						"totalCost": "167214"
					},
					"external": {
						"fun1()": "infinite",
						"fun2()": "infinite",
						"fun3()": "infinite"
					}
				},
				"methodIdentifiers": {
					"fun1()": "446a45b7",
					"fun2()": "157b5167",
					"fun3()": "7b8239fa"
				}
			},
			"storageLayout": {
				"storage": [],
				"types": null
			},
			"userdoc": {
				"kind": "user",
				"methods": {},
				"version": 1
			}
		}
	}
}