{
	"contracts/fallback_recive.sol": {
		"fallback_recive": {
			"abi": [
				{
					"anonymous": false,
					"inputs": [
						{
							"indexed": false,
							"internalType": "string",
							"name": "_fun",
							"type": "string"
						},
						{
							"indexed": false,
							"internalType": "address",
							"name": "_sender",
							"type": "address"
						},
						{
							"indexed": false,
							"internalType": "uint256",
							"name": "_val",
							"type": "uint256"
						},
						{
							"indexed": false,
							"internalType": "bytes",
							"name": "_data",
							"type": "bytes"
						}
					],
					"name": "log",
					"type": "event"
				},
				{
					"stateMutability": "payable",
					"type": "fallback"
				},
				{
					"inputs": [],
					"name": "getbal",
					"outputs": [
						{
							"internalType": "uint256",
							"name": "",
							"type": "uint256"
						}
					],
					"stateMutability": "view",
					"type": "function"
				},
				{
					"stateMutability": "payable",
					"type": "receive"
				}
			],
			"devdoc": {
				"kind": "dev",
				"methods": {},
				"version": 1
			},
			"evm": {
				"assembly": "    /* \"contracts/fallback_recive.sol\":62:765  contract fallback_recive{... */\n  mstore(0x40, 0x80)\n  callvalue\n  dup1\n  iszero\n  tag_1\n  jumpi\n  0x00\n  dup1\n  revert\ntag_1:\n  pop\n  dataSize(sub_0)\n  dup1\n  dataOffset(sub_0)\n  0x00\n  codecopy\n  0x00\n  return\nstop\n\nsub_0: assembly {\n        /* \"contracts/fallback_recive.sol\":62:765  contract fallback_recive{... */\n      mstore(0x40, 0x80)\n      jumpi(tag_1, lt(calldatasize, 0x04))\n      shr(0xe0, calldataload(0x00))\n      dup1\n      0x1b3f4e07\n      eq\n      tag_3\n      jumpi\n      jump(tag_2)\n    tag_1:\n      jumpi(tag_2, calldatasize)\n        /* \"contracts/fallback_recive.sol\":578:616  log(\"Receive\",msg.sender,msg.value,\"\") */\n      0xbb7455e1330c1ad664613f3d998bd858bae53893f04a4eb34718b211dd87c59e\n        /* \"contracts/fallback_recive.sol\":592:602  msg.sender */\n      caller\n        /* \"contracts/fallback_recive.sol\":603:612  msg.value */\n      callvalue\n        /* \"contracts/fallback_recive.sol\":578:616  log(\"Receive\",msg.sender,msg.value,\"\") */\n      mload(0x40)\n      tag_6\n      swap3\n      swap2\n      swap1\n      tag_7\n      jump\t// in\n    tag_6:\n      mload(0x40)\n      dup1\n      swap2\n      sub\n      swap1\n      log1\n        /* \"contracts/fallback_recive.sol\":62:765  contract fallback_recive{... */\n      stop\n    tag_2:\n        /* \"contracts/fallback_recive.sol\":388:433  log(\"fallback\",msg.sender,msg.value,msg.data) */\n      0xbb7455e1330c1ad664613f3d998bd858bae53893f04a4eb34718b211dd87c59e\n        /* \"contracts/fallback_recive.sol\":403:413  msg.sender */\n      caller\n        /* \"contracts/fallback_recive.sol\":414:423  msg.value */\n      callvalue\n        /* \"contracts/fallback_recive.sol\":424:432  msg.data */\n      0x00\n      calldatasize\n        /* \"contracts/fallback_recive.sol\":388:433  log(\"fallback\",msg.sender,msg.value,msg.data) */\n      mload(0x40)\n      tag_10\n      swap5\n      swap4\n      swap3\n      swap2\n      swap1\n      tag_11\n      jump\t// in\n    tag_10:\n      mload(0x40)\n      dup1\n      swap2\n      sub\n      swap1\n      log1\n        /* \"contracts/fallback_recive.sol\":62:765  contract fallback_recive{... */\n      stop\n        /* \"contracts/fallback_recive.sol\":636:760  function getbal()public view returns(uint){... */\n    tag_3:\n      callvalue\n      dup1\n      iszero\n      tag_12\n      jumpi\n      0x00\n      dup1\n      revert\n    tag_12:\n      pop\n      tag_13\n      tag_14\n      jump\t// in\n    tag_13:\n      mload(0x40)\n      tag_15\n      swap2\n      swap1\n      tag_16\n      jump\t// in\n    tag_15:\n      mload(0x40)\n      dup1\n      swap2\n      sub\n      swap1\n      return\n    tag_14:\n        /* \"contracts/fallback_recive.sol\":673:677  uint */\n      0x00\n        /* \"contracts/fallback_recive.sol\":698:719  address(this).balance */\n      selfbalance\n        /* \"contracts/fallback_recive.sol\":691:719  return address(this).balance */\n      swap1\n      pop\n        /* \"contracts/fallback_recive.sol\":636:760  function getbal()public view returns(uint){... */\n      swap1\n      jump\t// out\n        /* \"#utility.yul\":7:176   */\n    tag_18:\n        /* \"#utility.yul\":91:102   */\n      0x00\n        /* \"#utility.yul\":125:131   */\n      dup3\n        /* \"#utility.yul\":120:123   */\n      dup3\n        /* \"#utility.yul\":113:132   */\n      mstore\n        /* \"#utility.yul\":165:169   */\n      0x20\n        /* \"#utility.yul\":160:163   */\n      dup3\n        /* \"#utility.yul\":156:170   */\n      add\n        /* \"#utility.yul\":141:170   */\n      swap1\n      pop\n        /* \"#utility.yul\":7:176   */\n      swap3\n      swap2\n      pop\n      pop\n      jump\t// out\n        /* \"#utility.yul\":182:339   */\n    tag_19:\n        /* \"#utility.yul\":322:331   */\n      0x5265636569766500000000000000000000000000000000000000000000000000\n        /* \"#utility.yul\":318:319   */\n      0x00\n        /* \"#utility.yul\":310:316   */\n      dup3\n        /* \"#utility.yul\":306:320   */\n      add\n        /* \"#utility.yul\":299:332   */\n      mstore\n        /* \"#utility.yul\":182:339   */\n      pop\n      jump\t// out\n        /* \"#utility.yul\":345:710   */\n    tag_20:\n        /* \"#utility.yul\":487:490   */\n      0x00\n        /* \"#utility.yul\":508:574   */\n      tag_38\n        /* \"#utility.yul\":572:573   */\n      0x07\n        /* \"#utility.yul\":567:570   */\n      dup4\n        /* \"#utility.yul\":508:574   */\n      tag_18\n      jump\t// in\n    tag_38:\n        /* \"#utility.yul\":501:574   */\n      swap2\n      pop\n        /* \"#utility.yul\":583:676   */\n      tag_39\n        /* \"#utility.yul\":672:675   */\n      dup3\n        /* \"#utility.yul\":583:676   */\n      tag_19\n      jump\t// in\n    tag_39:\n        /* \"#utility.yul\":701:703   */\n      0x20\n        /* \"#utility.yul\":696:699   */\n      dup3\n        /* \"#utility.yul\":692:704   */\n      add\n        /* \"#utility.yul\":685:704   */\n      swap1\n      pop\n        /* \"#utility.yul\":345:710   */\n      swap2\n      swap1\n      pop\n      jump\t// out\n        /* \"#utility.yul\":716:842   */\n    tag_21:\n        /* \"#utility.yul\":753:760   */\n      0x00\n        /* \"#utility.yul\":793:835   */\n      0xffffffffffffffffffffffffffffffffffffffff\n        /* \"#utility.yul\":786:791   */\n      dup3\n        /* \"#utility.yul\":782:836   */\n      and\n        /* \"#utility.yul\":771:836   */\n      swap1\n      pop\n        /* \"#utility.yul\":716:842   */\n      swap2\n      swap1\n      pop\n      jump\t// out\n        /* \"#utility.yul\":848:944   */\n    tag_22:\n        /* \"#utility.yul\":885:892   */\n      0x00\n        /* \"#utility.yul\":914:938   */\n      tag_42\n        /* \"#utility.yul\":932:937   */\n      dup3\n        /* \"#utility.yul\":914:938   */\n      tag_21\n      jump\t// in\n    tag_42:\n        /* \"#utility.yul\":903:938   */\n      swap1\n      pop\n        /* \"#utility.yul\":848:944   */\n      swap2\n      swap1\n      pop\n      jump\t// out\n        /* \"#utility.yul\":950:1068   */\n    tag_23:\n        /* \"#utility.yul\":1037:1061   */\n      tag_44\n        /* \"#utility.yul\":1055:1060   */\n      dup2\n        /* \"#utility.yul\":1037:1061   */\n      tag_22\n      jump\t// in\n    tag_44:\n        /* \"#utility.yul\":1032:1035   */\n      dup3\n        /* \"#utility.yul\":1025:1062   */\n      mstore\n        /* \"#utility.yul\":950:1068   */\n      pop\n      pop\n      jump\t// out\n        /* \"#utility.yul\":1074:1151   */\n    tag_24:\n        /* \"#utility.yul\":1111:1118   */\n      0x00\n        /* \"#utility.yul\":1140:1145   */\n      dup2\n        /* \"#utility.yul\":1129:1145   */\n      swap1\n      pop\n        /* \"#utility.yul\":1074:1151   */\n      swap2\n      swap1\n      pop\n      jump\t// out\n        /* \"#utility.yul\":1157:1275   */\n    tag_25:\n        /* \"#utility.yul\":1244:1268   */\n      tag_47\n        /* \"#utility.yul\":1262:1267   */\n      dup2\n        /* \"#utility.yul\":1244:1268   */\n      tag_24\n      jump\t// in\n    tag_47:\n        /* \"#utility.yul\":1239:1242   */\n      dup3\n        /* \"#utility.yul\":1232:1269   */\n      mstore\n        /* \"#utility.yul\":1157:1275   */\n      pop\n      pop\n      jump\t// out\n        /* \"#utility.yul\":1281:1449   */\n    tag_26:\n        /* \"#utility.yul\":1364:1375   */\n      0x00\n        /* \"#utility.yul\":1398:1404   */\n      dup3\n        /* \"#utility.yul\":1393:1396   */\n      dup3\n        /* \"#utility.yul\":1386:1405   */\n      mstore\n        /* \"#utility.yul\":1438:1442   */\n      0x20\n        /* \"#utility.yul\":1433:1436   */\n      dup3\n        /* \"#utility.yul\":1429:1443   */\n      add\n        /* \"#utility.yul\":1414:1443   */\n      swap1\n      pop\n        /* \"#utility.yul\":1281:1449   */\n      swap3\n      swap2\n      pop\n      pop\n      jump\t// out\n        /* \"#utility.yul\":1455:1569   */\n    tag_27:\n      pop\n      jump\t// out\n        /* \"#utility.yul\":1575:1937   */\n    tag_28:\n        /* \"#utility.yul\":1716:1719   */\n      0x00\n        /* \"#utility.yul\":1737:1802   */\n      tag_51\n        /* \"#utility.yul\":1800:1801   */\n      0x00\n        /* \"#utility.yul\":1795:1798   */\n      dup4\n        /* \"#utility.yul\":1737:1802   */\n      tag_26\n      jump\t// in\n    tag_51:\n        /* \"#utility.yul\":1730:1802   */\n      swap2\n      pop\n        /* \"#utility.yul\":1811:1904   */\n      tag_52\n        /* \"#utility.yul\":1900:1903   */\n      dup3\n        /* \"#utility.yul\":1811:1904   */\n      tag_27\n      jump\t// in\n    tag_52:\n        /* \"#utility.yul\":1929:1930   */\n      0x00\n        /* \"#utility.yul\":1924:1927   */\n      dup3\n        /* \"#utility.yul\":1920:1931   */\n      add\n        /* \"#utility.yul\":1913:1931   */\n      swap1\n      pop\n        /* \"#utility.yul\":1575:1937   */\n      swap2\n      swap1\n      pop\n      jump\t// out\n        /* \"#utility.yul\":1943:2888   */\n    tag_7:\n        /* \"#utility.yul\":2265:2269   */\n      0x00\n        /* \"#utility.yul\":2303:2306   */\n      0x80\n        /* \"#utility.yul\":2292:2301   */\n      dup3\n        /* \"#utility.yul\":2288:2307   */\n      add\n        /* \"#utility.yul\":2280:2307   */\n      swap1\n      pop\n        /* \"#utility.yul\":2353:2362   */\n      dup2\n        /* \"#utility.yul\":2347:2351   */\n      dup2\n        /* \"#utility.yul\":2343:2363   */\n      sub\n        /* \"#utility.yul\":2339:2340   */\n      0x00\n        /* \"#utility.yul\":2328:2337   */\n      dup4\n        /* \"#utility.yul\":2324:2341   */\n      add\n        /* \"#utility.yul\":2317:2364   */\n      mstore\n        /* \"#utility.yul\":2381:2512   */\n      tag_54\n        /* \"#utility.yul\":2507:2511   */\n      dup2\n        /* \"#utility.yul\":2381:2512   */\n      tag_20\n      jump\t// in\n    tag_54:\n        /* \"#utility.yul\":2373:2512   */\n      swap1\n      pop\n        /* \"#utility.yul\":2522:2594   */\n      tag_55\n        /* \"#utility.yul\":2590:2592   */\n      0x20\n        /* \"#utility.yul\":2579:2588   */\n      dup4\n        /* \"#utility.yul\":2575:2593   */\n      add\n        /* \"#utility.yul\":2566:2572   */\n      dup6\n        /* \"#utility.yul\":2522:2594   */\n      tag_23\n      jump\t// in\n    tag_55:\n        /* \"#utility.yul\":2604:2676   */\n      tag_56\n        /* \"#utility.yul\":2672:2674   */\n      0x40\n        /* \"#utility.yul\":2661:2670   */\n      dup4\n        /* \"#utility.yul\":2657:2675   */\n      add\n        /* \"#utility.yul\":2648:2654   */\n      dup5\n        /* \"#utility.yul\":2604:2676   */\n      tag_25\n      jump\t// in\n    tag_56:\n        /* \"#utility.yul\":2723:2732   */\n      dup2\n        /* \"#utility.yul\":2717:2721   */\n      dup2\n        /* \"#utility.yul\":2713:2733   */\n      sub\n        /* \"#utility.yul\":2708:2710   */\n      0x60\n        /* \"#utility.yul\":2697:2706   */\n      dup4\n        /* \"#utility.yul\":2693:2711   */\n      add\n        /* \"#utility.yul\":2686:2734   */\n      mstore\n        /* \"#utility.yul\":2751:2881   */\n      tag_57\n        /* \"#utility.yul\":2876:2880   */\n      dup2\n        /* \"#utility.yul\":2751:2881   */\n      tag_28\n      jump\t// in\n    tag_57:\n        /* \"#utility.yul\":2743:2881   */\n      swap1\n      pop\n        /* \"#utility.yul\":1943:2888   */\n      swap4\n      swap3\n      pop\n      pop\n      pop\n      jump\t// out\n        /* \"#utility.yul\":2894:3052   */\n    tag_29:\n        /* \"#utility.yul\":3034:3044   */\n      0x66616c6c6261636b000000000000000000000000000000000000000000000000\n        /* \"#utility.yul\":3030:3031   */\n      0x00\n        /* \"#utility.yul\":3022:3028   */\n      dup3\n        /* \"#utility.yul\":3018:3032   */\n      add\n        /* \"#utility.yul\":3011:3045   */\n      mstore\n        /* \"#utility.yul\":2894:3052   */\n      pop\n      jump\t// out\n        /* \"#utility.yul\":3058:3423   */\n    tag_30:\n        /* \"#utility.yul\":3200:3203   */\n      0x00\n        /* \"#utility.yul\":3221:3287   */\n      tag_60\n        /* \"#utility.yul\":3285:3286   */\n      0x08\n        /* \"#utility.yul\":3280:3283   */\n      dup4\n        /* \"#utility.yul\":3221:3287   */\n      tag_18\n      jump\t// in\n    tag_60:\n        /* \"#utility.yul\":3214:3287   */\n      swap2\n      pop\n        /* \"#utility.yul\":3296:3389   */\n      tag_61\n        /* \"#utility.yul\":3385:3388   */\n      dup3\n        /* \"#utility.yul\":3296:3389   */\n      tag_29\n      jump\t// in\n    tag_61:\n        /* \"#utility.yul\":3414:3416   */\n      0x20\n        /* \"#utility.yul\":3409:3412   */\n      dup3\n        /* \"#utility.yul\":3405:3417   */\n      add\n        /* \"#utility.yul\":3398:3417   */\n      swap1\n      pop\n        /* \"#utility.yul\":3058:3423   */\n      swap2\n      swap1\n      pop\n      jump\t// out\n        /* \"#utility.yul\":3429:3575   */\n    tag_31:\n        /* \"#utility.yul\":3526:3532   */\n      dup3\n        /* \"#utility.yul\":3521:3524   */\n      dup2\n        /* \"#utility.yul\":3516:3519   */\n      dup4\n        /* \"#utility.yul\":3503:3533   */\n      calldatacopy\n        /* \"#utility.yul\":3567:3568   */\n      0x00\n        /* \"#utility.yul\":3558:3564   */\n      dup4\n        /* \"#utility.yul\":3553:3556   */\n      dup4\n        /* \"#utility.yul\":3549:3565   */\n      add\n        /* \"#utility.yul\":3542:3569   */\n      mstore\n        /* \"#utility.yul\":3429:3575   */\n      pop\n      pop\n      pop\n      jump\t// out\n        /* \"#utility.yul\":3581:3683   */\n    tag_32:\n        /* \"#utility.yul\":3622:3628   */\n      0x00\n        /* \"#utility.yul\":3673:3675   */\n      0x1f\n        /* \"#utility.yul\":3669:3676   */\n      not\n        /* \"#utility.yul\":3664:3666   */\n      0x1f\n        /* \"#utility.yul\":3657:3662   */\n      dup4\n        /* \"#utility.yul\":3653:3667   */\n      add\n        /* \"#utility.yul\":3649:3677   */\n      and\n        /* \"#utility.yul\":3639:3677   */\n      swap1\n      pop\n        /* \"#utility.yul\":3581:3683   */\n      swap2\n      swap1\n      pop\n      jump\t// out\n        /* \"#utility.yul\":3711:4025   */\n    tag_33:\n        /* \"#utility.yul\":3807:3810   */\n      0x00\n        /* \"#utility.yul\":3828:3898   */\n      tag_65\n        /* \"#utility.yul\":3891:3897   */\n      dup4\n        /* \"#utility.yul\":3886:3889   */\n      dup6\n        /* \"#utility.yul\":3828:3898   */\n      tag_26\n      jump\t// in\n    tag_65:\n        /* \"#utility.yul\":3821:3898   */\n      swap4\n      pop\n        /* \"#utility.yul\":3908:3964   */\n      tag_66\n        /* \"#utility.yul\":3957:3963   */\n      dup4\n        /* \"#utility.yul\":3952:3955   */\n      dup6\n        /* \"#utility.yul\":3945:3950   */\n      dup5\n        /* \"#utility.yul\":3908:3964   */\n      tag_31\n      jump\t// in\n    tag_66:\n        /* \"#utility.yul\":3989:4018   */\n      tag_67\n        /* \"#utility.yul\":4011:4017   */\n      dup4\n        /* \"#utility.yul\":3989:4018   */\n      tag_32\n      jump\t// in\n    tag_67:\n        /* \"#utility.yul\":3984:3987   */\n      dup5\n        /* \"#utility.yul\":3980:4019   */\n      add\n        /* \"#utility.yul\":3973:4019   */\n      swap1\n      pop\n        /* \"#utility.yul\":3711:4025   */\n      swap4\n      swap3\n      pop\n      pop\n      pop\n      jump\t// out\n        /* \"#utility.yul\":4031:4888   */\n    tag_11:\n        /* \"#utility.yul\":4309:4313   */\n      0x00\n        /* \"#utility.yul\":4347:4350   */\n      0x80\n        /* \"#utility.yul\":4336:4345   */\n      dup3\n        /* \"#utility.yul\":4332:4351   */\n      add\n        /* \"#utility.yul\":4324:4351   */\n      swap1\n      pop\n        /* \"#utility.yul\":4397:4406   */\n      dup2\n        /* \"#utility.yul\":4391:4395   */\n      dup2\n        /* \"#utility.yul\":4387:4407   */\n      sub\n        /* \"#utility.yul\":4383:4384   */\n      0x00\n        /* \"#utility.yul\":4372:4381   */\n      dup4\n        /* \"#utility.yul\":4368:4385   */\n      add\n        /* \"#utility.yul\":4361:4408   */\n      mstore\n        /* \"#utility.yul\":4425:4556   */\n      tag_69\n        /* \"#utility.yul\":4551:4555   */\n      dup2\n        /* \"#utility.yul\":4425:4556   */\n      tag_30\n      jump\t// in\n    tag_69:\n        /* \"#utility.yul\":4417:4556   */\n      swap1\n      pop\n        /* \"#utility.yul\":4566:4638   */\n      tag_70\n        /* \"#utility.yul\":4634:4636   */\n      0x20\n        /* \"#utility.yul\":4623:4632   */\n      dup4\n        /* \"#utility.yul\":4619:4637   */\n      add\n        /* \"#utility.yul\":4610:4616   */\n      dup8\n        /* \"#utility.yul\":4566:4638   */\n      tag_23\n      jump\t// in\n    tag_70:\n        /* \"#utility.yul\":4648:4720   */\n      tag_71\n        /* \"#utility.yul\":4716:4718   */\n      0x40\n        /* \"#utility.yul\":4705:4714   */\n      dup4\n        /* \"#utility.yul\":4701:4719   */\n      add\n        /* \"#utility.yul\":4692:4698   */\n      dup7\n        /* \"#utility.yul\":4648:4720   */\n      tag_25\n      jump\t// in\n    tag_71:\n        /* \"#utility.yul\":4767:4776   */\n      dup2\n        /* \"#utility.yul\":4761:4765   */\n      dup2\n        /* \"#utility.yul\":4757:4777   */\n      sub\n        /* \"#utility.yul\":4752:4754   */\n      0x60\n        /* \"#utility.yul\":4741:4750   */\n      dup4\n        /* \"#utility.yul\":4737:4755   */\n      add\n        /* \"#utility.yul\":4730:4778   */\n      mstore\n        /* \"#utility.yul\":4795:4881   */\n      tag_72\n        /* \"#utility.yul\":4876:4880   */\n      dup2\n        /* \"#utility.yul\":4867:4873   */\n      dup5\n        /* \"#utility.yul\":4859:4865   */\n      dup7\n        /* \"#utility.yul\":4795:4881   */\n      tag_33\n      jump\t// in\n    tag_72:\n        /* \"#utility.yul\":4787:4881   */\n      swap1\n      pop\n        /* \"#utility.yul\":4031:4888   */\n      swap6\n      swap5\n      pop\n      pop\n      pop\n      pop\n      pop\n      jump\t// out\n        /* \"#utility.yul\":4894:5116   */\n    tag_16:\n        /* \"#utility.yul\":4987:4991   */\n      0x00\n        /* \"#utility.yul\":5025:5027   */\n      0x20\n        /* \"#utility.yul\":5014:5023   */\n      dup3\n        /* \"#utility.yul\":5010:5028   */\n      add\n        /* \"#utility.yul\":5002:5028   */\n      swap1\n      pop\n        /* \"#utility.yul\":5038:5109   */\n      tag_74\n        /* \"#utility.yul\":5106:5107   */\n      0x00\n        /* \"#utility.yul\":5095:5104   */\n      dup4\n        /* \"#utility.yul\":5091:5108   */\n      add\n        /* \"#utility.yul\":5082:5088   */\n      dup5\n        /* \"#utility.yul\":5038:5109   */\n      tag_25\n      jump\t// in\n    tag_74:\n        /* \"#utility.yul\":4894:5116   */\n      swap3\n      swap2\n      pop\n      pop\n      jump\t// out\n\n    auxdata: 0xa2646970667358221220eea49f512750c1c4452d542ec27728511ce3a80ada073bbe9f3476a2dc5e26c564736f6c63430008110033\n}\n",
				"bytecode": {
					"linkReferences": {},
					"object": "608060405234801561001057600080fd5b5061034f806100206000396000f3fe6080604052600436106100225760003560e01c80631b3f4e07146100a257610062565b36610062577fbb7455e1330c1ad664613f3d998bd858bae53893f04a4eb34718b211dd87c59e33346040516100589291906101c3565b60405180910390a1005b7fbb7455e1330c1ad664613f3d998bd858bae53893f04a4eb34718b211dd87c59e333460003660405161009894939291906102ab565b60405180910390a1005b3480156100ae57600080fd5b506100b76100cd565b6040516100c491906102fe565b60405180910390f35b600047905090565b600082825260208201905092915050565b7f5265636569766500000000000000000000000000000000000000000000000000600082015250565b600061011c6007836100d5565b9150610127826100e6565b602082019050919050565b600073ffffffffffffffffffffffffffffffffffffffff82169050919050565b600061015d82610132565b9050919050565b61016d81610152565b82525050565b6000819050919050565b61018681610173565b82525050565b600082825260208201905092915050565b50565b60006101ad60008361018c565b91506101b88261019d565b600082019050919050565b600060808201905081810360008301526101dc8161010f565b90506101eb6020830185610164565b6101f8604083018461017d565b8181036060830152610209816101a0565b90509392505050565b7f66616c6c6261636b000000000000000000000000000000000000000000000000600082015250565b60006102486008836100d5565b915061025382610212565b602082019050919050565b82818337600083830152505050565b6000601f19601f8301169050919050565b600061028a838561018c565b935061029783858461025e565b6102a08361026d565b840190509392505050565b600060808201905081810360008301526102c48161023b565b90506102d36020830187610164565b6102e0604083018661017d565b81810360608301526102f381848661027e565b905095945050505050565b6000602082019050610313600083018461017d565b9291505056fea2646970667358221220eea49f512750c1c4452d542ec27728511ce3a80ada073bbe9f3476a2dc5e26c564736f6c63430008110033",
					"opcodes": "PUSH1 0x80 PUSH1 0x40 MSTORE CALLVALUE DUP1 ISZERO PUSH2 0x10 JUMPI PUSH1 0x0 DUP1 REVERT JUMPDEST POP PUSH2 0x34F DUP1 PUSH2 0x20 PUSH1 0x0 CODECOPY PUSH1 0x0 RETURN INVALID PUSH1 0x80 PUSH1 0x40 MSTORE PUSH1 0x4 CALLDATASIZE LT PUSH2 0x22 JUMPI PUSH1 0x0 CALLDATALOAD PUSH1 0xE0 SHR DUP1 PUSH4 0x1B3F4E07 EQ PUSH2 0xA2 JUMPI PUSH2 0x62 JUMP JUMPDEST CALLDATASIZE PUSH2 0x62 JUMPI PUSH32 0xBB7455E1330C1AD664613F3D998BD858BAE53893F04A4EB34718B211DD87C59E CALLER CALLVALUE PUSH1 0x40 MLOAD PUSH2 0x58 SWAP3 SWAP2 SWAP1 PUSH2 0x1C3 JUMP JUMPDEST PUSH1 0x40 MLOAD DUP1 SWAP2 SUB SWAP1 LOG1 STOP JUMPDEST PUSH32 0xBB7455E1330C1AD664613F3D998BD858BAE53893F04A4EB34718B211DD87C59E CALLER CALLVALUE PUSH1 0x0 CALLDATASIZE PUSH1 0x40 MLOAD PUSH2 0x98 SWAP5 SWAP4 SWAP3 SWAP2 SWAP1 PUSH2 0x2AB JUMP JUMPDEST PUSH1 0x40 MLOAD DUP1 SWAP2 SUB SWAP1 LOG1 STOP JUMPDEST CALLVALUE DUP1 ISZERO PUSH2 0xAE JUMPI PUSH1 0x0 DUP1 REVERT JUMPDEST POP PUSH2 0xB7 PUSH2 0xCD JUMP JUMPDEST PUSH1 0x40 MLOAD PUSH2 0xC4 SWAP2 SWAP1 PUSH2 0x2FE JUMP JUMPDEST PUSH1 0x40 MLOAD DUP1 SWAP2 SUB SWAP1 RETURN JUMPDEST PUSH1 0x0 SELFBALANCE SWAP1 POP SWAP1 JUMP JUMPDEST PUSH1 0x0 DUP3 DUP3 MSTORE PUSH1 0x20 DUP3 ADD SWAP1 POP SWAP3 SWAP2 POP POP JUMP JUMPDEST PUSH32 0x5265636569766500000000000000000000000000000000000000000000000000 PUSH1 0x0 DUP3 ADD MSTORE POP JUMP JUMPDEST PUSH1 0x0 PUSH2 0x11C PUSH1 0x7 DUP4 PUSH2 0xD5 JUMP JUMPDEST SWAP2 POP PUSH2 0x127 DUP3 PUSH2 0xE6 JUMP JUMPDEST PUSH1 0x20 DUP3 ADD SWAP1 POP SWAP2 SWAP1 POP JUMP JUMPDEST PUSH1 0x0 PUSH20 0xFFFFFFFFFFFFFFFFFFFFFFFFFFFFFFFFFFFFFFFF DUP3 AND SWAP1 POP SWAP2 SWAP1 POP JUMP JUMPDEST PUSH1 0x0 PUSH2 0x15D DUP3 PUSH2 0x132 JUMP JUMPDEST SWAP1 POP SWAP2 SWAP1 POP JUMP JUMPDEST PUSH2 0x16D DUP2 PUSH2 0x152 JUMP JUMPDEST DUP3 MSTORE POP POP JUMP JUMPDEST PUSH1 0x0 DUP2 SWAP1 POP SWAP2 SWAP1 POP JUMP JUMPDEST PUSH2 0x186 DUP2 PUSH2 0x173 JUMP JUMPDEST DUP3 MSTORE POP POP JUMP JUMPDEST PUSH1 0x0 DUP3 DUP3 MSTORE PUSH1 0x20 DUP3 ADD SWAP1 POP SWAP3 SWAP2 POP POP JUMP JUMPDEST POP JUMP JUMPDEST PUSH1 0x0 PUSH2 0x1AD PUSH1 0x0 DUP4 PUSH2 0x18C JUMP JUMPDEST SWAP2 POP PUSH2 0x1B8 DUP3 PUSH2 0x19D JUMP JUMPDEST PUSH1 0x0 DUP3 ADD SWAP1 POP SWAP2 SWAP1 POP JUMP JUMPDEST PUSH1 0x0 PUSH1 0x80 DUP3 ADD SWAP1 POP DUP2 DUP2 SUB PUSH1 0x0 DUP4 ADD MSTORE PUSH2 0x1DC DUP2 PUSH2 0x10F JUMP JUMPDEST SWAP1 POP PUSH2 0x1EB PUSH1 0x20 DUP4 ADD DUP6 PUSH2 0x164 JUMP JUMPDEST PUSH2 0x1F8 PUSH1 0x40 DUP4 ADD DUP5 PUSH2 0x17D JUMP JUMPDEST DUP2 DUP2 SUB PUSH1 0x60 DUP4 ADD MSTORE PUSH2 0x209 DUP2 PUSH2 0x1A0 JUMP JUMPDEST SWAP1 POP SWAP4 SWAP3 POP POP POP JUMP JUMPDEST PUSH32 0x66616C6C6261636B000000000000000000000000000000000000000000000000 PUSH1 0x0 DUP3 ADD MSTORE POP JUMP JUMPDEST PUSH1 0x0 PUSH2 0x248 PUSH1 0x8 DUP4 PUSH2 0xD5 JUMP JUMPDEST SWAP2 POP PUSH2 0x253 DUP3 PUSH2 0x212 JUMP JUMPDEST PUSH1 0x20 DUP3 ADD SWAP1 POP SWAP2 SWAP1 POP JUMP JUMPDEST DUP3 DUP2 DUP4 CALLDATACOPY PUSH1 0x0 DUP4 DUP4 ADD MSTORE POP POP POP JUMP JUMPDEST PUSH1 0x0 PUSH1 0x1F NOT PUSH1 0x1F DUP4 ADD AND SWAP1 POP SWAP2 SWAP1 POP JUMP JUMPDEST PUSH1 0x0 PUSH2 0x28A DUP4 DUP6 PUSH2 0x18C JUMP JUMPDEST SWAP4 POP PUSH2 0x297 DUP4 DUP6 DUP5 PUSH2 0x25E JUMP JUMPDEST PUSH2 0x2A0 DUP4 PUSH2 0x26D JUMP JUMPDEST DUP5 ADD SWAP1 POP SWAP4 SWAP3 POP POP POP JUMP JUMPDEST PUSH1 0x0 PUSH1 0x80 DUP3 ADD SWAP1 POP DUP2 DUP2 SUB PUSH1 0x0 DUP4 ADD MSTORE PUSH2 0x2C4 DUP2 PUSH2 0x23B JUMP JUMPDEST SWAP1 POP PUSH2 0x2D3 PUSH1 0x20 DUP4 ADD DUP8 PUSH2 0x164 JUMP JUMPDEST PUSH2 0x2E0 PUSH1 0x40 DUP4 ADD DUP7 PUSH2 0x17D JUMP JUMPDEST DUP2 DUP2 SUB PUSH1 0x60 DUP4 ADD MSTORE PUSH2 0x2F3 DUP2 DUP5 DUP7 PUSH2 0x27E JUMP JUMPDEST SWAP1 POP SWAP6 SWAP5 POP POP POP POP POP JUMP JUMPDEST PUSH1 0x0 PUSH1 0x20 DUP3 ADD SWAP1 POP PUSH2 0x313 PUSH1 0x0 DUP4 ADD DUP5 PUSH2 0x17D JUMP JUMPDEST SWAP3 SWAP2 POP POP JUMP INVALID LOG2 PUSH5 0x6970667358 0x22 SLT KECCAK256 0xEE LOG4 SWAP16 MLOAD 0x27 POP 0xC1 0xC4 GASLIMIT 0x2D SLOAD 0x2E 0xC2 PUSH24 0x28511CE3A80ADA073BBE9F3476A2DC5E26C564736F6C6343 STOP ADDMOD GT STOP CALLER "
				},
				"gasEstimates": {
					"creation": {
						"codeDepositCost": "169400",
						"executionCost": "214",
						"totalCost": "169614"
					},
					"external": {
						"": "infinite",
						"getbal()": "317"
					}
				},
				"methodIdentifiers": {
					"getbal()": "1b3f4e07"
				}
			},
			"storageLayout": {
				"storage": [],
				"types": null
			},
			"userdoc": {
				"kind": "user",
				"methods": {},
				"version": 1
			}
		}
	}
}