{
	"contracts/send.eth.sol": {
		"sendeth": {
			"abi": [
				{
					"anonymous": false,
					"inputs": [
						{
							"indexed": false,
							"internalType": "uint256",
							"name": "value",
							"type": "uint256"
						}
					],
					"name": "log",
					"type": "event"
				},
				{
					"inputs": [
						{
							"internalType": "address payable",
							"name": "getter",
							"type": "address"
						}
					],
					"name": "CALL",
					"outputs": [],
					"stateMutability": "payable",
					"type": "function"
				},
				{
					"inputs": [
						{
							"internalType": "address payable",
							"name": "getter",
							"type": "address"
						}
					],
					"name": "SEND",
					"outputs": [],
					"stateMutability": "payable",
					"type": "function"
				},
				{
					"inputs": [
						{
							"internalType": "address payable",
							"name": "getter",
							"type": "address"
						}
					],
					"name": "TRANSFER",
					"outputs": [],
					"stateMutability": "payable",
					"type": "function"
				},
				{
					"inputs": [],
					"name": "checkbal",
					"outputs": [
						{
							"internalType": "uint256",
							"name": "",
							"type": "uint256"
						}
					],
					"stateMutability": "view",
					"type": "function"
				},
				{
					"stateMutability": "payable",
					"type": "receive"
				}
			],
			"devdoc": {
				"kind": "dev",
				"methods": {},
				"version": 1
			},
			"evm": {
				"assembly": "    /* \"contracts/send.eth.sol\":60:1305  contract sendeth{... */\n  mstore(0x40, 0x80)\n  callvalue\n  dup1\n  iszero\n  tag_1\n  jumpi\n  0x00\n  dup1\n  revert\ntag_1:\n  pop\n  dataSize(sub_0)\n  dup1\n  dataOffset(sub_0)\n  0x00\n  codecopy\n  0x00\n  return\nstop\n\nsub_0: assembly {\n        /* \"contracts/send.eth.sol\":60:1305  contract sendeth{... */\n      mstore(0x40, 0x80)\n      jumpi(tag_1, lt(calldatasize, 0x04))\n      shr(0xe0, calldataload(0x00))\n      dup1\n      0x20ace1d0\n      eq\n      tag_3\n      jumpi\n      dup1\n      0x9cb4ddd0\n      eq\n      tag_4\n      jumpi\n      dup1\n      0xaf075e0c\n      eq\n      tag_5\n      jumpi\n      dup1\n      0xb206494b\n      eq\n      tag_6\n      jumpi\n      jump(tag_2)\n    tag_1:\n      jumpi(tag_2, calldatasize)\n      stop\n    tag_2:\n      0x00\n      dup1\n      revert\n        /* \"contracts/send.eth.sol\":434:641  function checkbal()public view returns(uint){ // this function is for checking balance ... */\n    tag_3:\n      callvalue\n      dup1\n      iszero\n      tag_9\n      jumpi\n      0x00\n      dup1\n      revert\n    tag_9:\n      pop\n      tag_10\n      tag_11\n      jump\t// in\n    tag_10:\n      mload(0x40)\n      tag_12\n      swap2\n      swap1\n      tag_13\n      jump\t// in\n    tag_12:\n      mload(0x40)\n      dup1\n      swap2\n      sub\n      swap1\n      return\n        /* \"contracts/send.eth.sol\":1000:1102  function TRANSFER(address payable getter)public payable{... */\n    tag_4:\n      tag_14\n      0x04\n      dup1\n      calldatasize\n      sub\n      dup2\n      add\n      swap1\n      tag_15\n      swap2\n      swap1\n      tag_16\n      jump\t// in\n    tag_15:\n      tag_17\n      jump\t// in\n    tag_14:\n      stop\n        /* \"contracts/send.eth.sol\":740:949  function SEND(address payable getter)public payable{... */\n    tag_5:\n      tag_18\n      0x04\n      dup1\n      calldatasize\n      sub\n      dup2\n      add\n      swap1\n      tag_19\n      swap2\n      swap1\n      tag_16\n      jump\t// in\n    tag_19:\n      tag_20\n      jump\t// in\n    tag_18:\n      stop\n        /* \"contracts/send.eth.sol\":1134:1300  function CALL(address payable getter)public payable{... */\n    tag_6:\n      tag_21\n      0x04\n      dup1\n      calldatasize\n      sub\n      dup2\n      add\n      swap1\n      tag_22\n      swap2\n      swap1\n      tag_16\n      jump\t// in\n    tag_22:\n      tag_23\n      jump\t// in\n    tag_21:\n      stop\n        /* \"contracts/send.eth.sol\":434:641  function checkbal()public view returns(uint){ // this function is for checking balance ... */\n    tag_11:\n        /* \"contracts/send.eth.sol\":473:477  uint */\n      0x00\n        /* \"contracts/send.eth.sol\":537:558  address(this).balance */\n      selfbalance\n        /* \"contracts/send.eth.sol\":530:558  return address(this).balance */\n      swap1\n      pop\n        /* \"contracts/send.eth.sol\":434:641  function checkbal()public view returns(uint){ // this function is for checking balance ... */\n      swap1\n      jump\t// out\n        /* \"contracts/send.eth.sol\":1000:1102  function TRANSFER(address payable getter)public payable{... */\n    tag_17:\n        /* \"contracts/send.eth.sol\":1067:1073  getter */\n      dup1\n        /* \"contracts/send.eth.sol\":1067:1082  getter.transfer */\n      0xffffffffffffffffffffffffffffffffffffffff\n      and\n        /* \"contracts/send.eth.sol\":1067:1093  getter.transfer(msg.value) */\n      0x08fc\n        /* \"contracts/send.eth.sol\":1083:1092  msg.value */\n      callvalue\n        /* \"contracts/send.eth.sol\":1067:1093  getter.transfer(msg.value) */\n      swap1\n      dup2\n      iszero\n      mul\n      swap1\n      mload(0x40)\n      0x00\n      mload(0x40)\n      dup1\n      dup4\n      sub\n      dup2\n      dup6\n      dup9\n      dup9\n      call\n      swap4\n      pop\n      pop\n      pop\n      pop\n      iszero\n      dup1\n      iszero\n      tag_27\n      jumpi\n      returndatasize\n      0x00\n      dup1\n      returndatacopy\n      revert(0x00, returndatasize)\n    tag_27:\n      pop\n        /* \"contracts/send.eth.sol\":1000:1102  function TRANSFER(address payable getter)public payable{... */\n      pop\n      jump\t// out\n        /* \"contracts/send.eth.sol\":740:949  function SEND(address payable getter)public payable{... */\n    tag_20:\n        /* \"contracts/send.eth.sol\":806:820  log(msg.value) */\n      0xf82c50f1848136e6c140b186ea0c768b7deda5efffe42c25e96336a90b26c744\n        /* \"contracts/send.eth.sol\":810:819  msg.value */\n      callvalue\n        /* \"contracts/send.eth.sol\":806:820  log(msg.value) */\n      mload(0x40)\n      tag_29\n      swap2\n      swap1\n      tag_13\n      jump\t// in\n    tag_29:\n      mload(0x40)\n      dup1\n      swap2\n      sub\n      swap1\n      log1\n        /* \"contracts/send.eth.sol\":828:837  bool sent */\n      0x00\n        /* \"contracts/send.eth.sol\":840:846  getter */\n      dup2\n        /* \"contracts/send.eth.sol\":840:851  getter.send */\n      0xffffffffffffffffffffffffffffffffffffffff\n      and\n        /* \"contracts/send.eth.sol\":840:862  getter.send(msg.value) */\n      0x08fc\n        /* \"contracts/send.eth.sol\":852:861  msg.value */\n      callvalue\n        /* \"contracts/send.eth.sol\":840:862  getter.send(msg.value) */\n      swap1\n      dup2\n      iszero\n      mul\n      swap1\n      mload(0x40)\n      0x00\n      mload(0x40)\n      dup1\n      dup4\n      sub\n      dup2\n      dup6\n      dup9\n      dup9\n      call\n      swap4\n      pop\n      pop\n      pop\n      pop\n        /* \"contracts/send.eth.sol\":828:862  bool sent = getter.send(msg.value) */\n      swap1\n      pop\n        /* \"contracts/send.eth.sol\":878:882  sent */\n      dup1\n        /* \"contracts/send.eth.sol\":870:908  require(sent,\"transaction has failed\") */\n      tag_31\n      jumpi\n      mload(0x40)\n      0x08c379a000000000000000000000000000000000000000000000000000000000\n      dup2\n      mstore\n      0x04\n      add\n      tag_32\n      swap1\n      tag_33\n      jump\t// in\n    tag_32:\n      mload(0x40)\n      dup1\n      swap2\n      sub\n      swap1\n      revert\n    tag_31:\n        /* \"contracts/send.eth.sol\":791:949  {... */\n      pop\n        /* \"contracts/send.eth.sol\":740:949  function SEND(address payable getter)public payable{... */\n      pop\n      jump\t// out\n        /* \"contracts/send.eth.sol\":1134:1300  function CALL(address payable getter)public payable{... */\n    tag_23:\n        /* \"contracts/send.eth.sol\":1197:1206  bool sent */\n      0x00\n        /* \"contracts/send.eth.sol\":1210:1216  getter */\n      dup2\n        /* \"contracts/send.eth.sol\":1210:1221  getter.call */\n      0xffffffffffffffffffffffffffffffffffffffff\n      and\n        /* \"contracts/send.eth.sol\":1228:1237  msg.value */\n      callvalue\n        /* \"contracts/send.eth.sol\":1210:1242  getter.call{value:msg.value}(\"\") */\n      mload(0x40)\n      tag_35\n      swap1\n      tag_36\n      jump\t// in\n    tag_35:\n      0x00\n      mload(0x40)\n      dup1\n      dup4\n      sub\n      dup2\n      dup6\n      dup8\n      gas\n      call\n      swap3\n      pop\n      pop\n      pop\n      returndatasize\n      dup1\n      0x00\n      dup2\n      eq\n      tag_39\n      jumpi\n      mload(0x40)\n      swap2\n      pop\n      and(add(returndatasize, 0x3f), not(0x1f))\n      dup3\n      add\n      0x40\n      mstore\n      returndatasize\n      dup3\n      mstore\n      returndatasize\n      0x00\n      0x20\n      dup5\n      add\n      returndatacopy\n      jump(tag_38)\n    tag_39:\n      0x60\n      swap2\n      pop\n    tag_38:\n      pop\n        /* \"contracts/send.eth.sol\":1196:1242  (bool sent,)= getter.call{value:msg.value}(\"\") */\n      pop\n      swap1\n      pop\n        /* \"contracts/send.eth.sol\":1261:1265  sent */\n      dup1\n        /* \"contracts/send.eth.sol\":1253:1291  require(sent,\"transaction has failed\") */\n      tag_40\n      jumpi\n      mload(0x40)\n      0x08c379a000000000000000000000000000000000000000000000000000000000\n      dup2\n      mstore\n      0x04\n      add\n      tag_41\n      swap1\n      tag_33\n      jump\t// in\n    tag_41:\n      mload(0x40)\n      dup1\n      swap2\n      sub\n      swap1\n      revert\n    tag_40:\n        /* \"contracts/send.eth.sol\":1185:1300  {... */\n      pop\n        /* \"contracts/send.eth.sol\":1134:1300  function CALL(address payable getter)public payable{... */\n      pop\n      jump\t// out\n        /* \"#utility.yul\":7:84   */\n    tag_42:\n        /* \"#utility.yul\":44:51   */\n      0x00\n        /* \"#utility.yul\":73:78   */\n      dup2\n        /* \"#utility.yul\":62:78   */\n      swap1\n      pop\n        /* \"#utility.yul\":7:84   */\n      swap2\n      swap1\n      pop\n      jump\t// out\n        /* \"#utility.yul\":90:208   */\n    tag_43:\n        /* \"#utility.yul\":177:201   */\n      tag_60\n        /* \"#utility.yul\":195:200   */\n      dup2\n        /* \"#utility.yul\":177:201   */\n      tag_42\n      jump\t// in\n    tag_60:\n        /* \"#utility.yul\":172:175   */\n      dup3\n        /* \"#utility.yul\":165:202   */\n      mstore\n        /* \"#utility.yul\":90:208   */\n      pop\n      pop\n      jump\t// out\n        /* \"#utility.yul\":214:436   */\n    tag_13:\n        /* \"#utility.yul\":307:311   */\n      0x00\n        /* \"#utility.yul\":345:347   */\n      0x20\n        /* \"#utility.yul\":334:343   */\n      dup3\n        /* \"#utility.yul\":330:348   */\n      add\n        /* \"#utility.yul\":322:348   */\n      swap1\n      pop\n        /* \"#utility.yul\":358:429   */\n      tag_62\n        /* \"#utility.yul\":426:427   */\n      0x00\n        /* \"#utility.yul\":415:424   */\n      dup4\n        /* \"#utility.yul\":411:428   */\n      add\n        /* \"#utility.yul\":402:408   */\n      dup5\n        /* \"#utility.yul\":358:429   */\n      tag_43\n      jump\t// in\n    tag_62:\n        /* \"#utility.yul\":214:436   */\n      swap3\n      swap2\n      pop\n      pop\n      jump\t// out\n        /* \"#utility.yul\":523:640   */\n    tag_45:\n        /* \"#utility.yul\":632:633   */\n      0x00\n        /* \"#utility.yul\":629:630   */\n      dup1\n        /* \"#utility.yul\":622:634   */\n      revert\n        /* \"#utility.yul\":769:895   */\n    tag_47:\n        /* \"#utility.yul\":806:813   */\n      0x00\n        /* \"#utility.yul\":846:888   */\n      0xffffffffffffffffffffffffffffffffffffffff\n        /* \"#utility.yul\":839:844   */\n      dup3\n        /* \"#utility.yul\":835:889   */\n      and\n        /* \"#utility.yul\":824:889   */\n      swap1\n      pop\n        /* \"#utility.yul\":769:895   */\n      swap2\n      swap1\n      pop\n      jump\t// out\n        /* \"#utility.yul\":901:1005   */\n    tag_48:\n        /* \"#utility.yul\":946:953   */\n      0x00\n        /* \"#utility.yul\":975:999   */\n      tag_68\n        /* \"#utility.yul\":993:998   */\n      dup3\n        /* \"#utility.yul\":975:999   */\n      tag_47\n      jump\t// in\n    tag_68:\n        /* \"#utility.yul\":964:999   */\n      swap1\n      pop\n        /* \"#utility.yul\":901:1005   */\n      swap2\n      swap1\n      pop\n      jump\t// out\n        /* \"#utility.yul\":1011:1149   */\n    tag_49:\n        /* \"#utility.yul\":1092:1124   */\n      tag_70\n        /* \"#utility.yul\":1118:1123   */\n      dup2\n        /* \"#utility.yul\":1092:1124   */\n      tag_48\n      jump\t// in\n    tag_70:\n        /* \"#utility.yul\":1085:1090   */\n      dup2\n        /* \"#utility.yul\":1082:1125   */\n      eq\n        /* \"#utility.yul\":1072:1143   */\n      tag_71\n      jumpi\n        /* \"#utility.yul\":1139:1140   */\n      0x00\n        /* \"#utility.yul\":1136:1137   */\n      dup1\n        /* \"#utility.yul\":1129:1141   */\n      revert\n        /* \"#utility.yul\":1072:1143   */\n    tag_71:\n        /* \"#utility.yul\":1011:1149   */\n      pop\n      jump\t// out\n        /* \"#utility.yul\":1155:1310   */\n    tag_50:\n        /* \"#utility.yul\":1209:1214   */\n      0x00\n        /* \"#utility.yul\":1247:1253   */\n      dup2\n        /* \"#utility.yul\":1234:1254   */\n      calldataload\n        /* \"#utility.yul\":1225:1254   */\n      swap1\n      pop\n        /* \"#utility.yul\":1263:1304   */\n      tag_73\n        /* \"#utility.yul\":1298:1303   */\n      dup2\n        /* \"#utility.yul\":1263:1304   */\n      tag_49\n      jump\t// in\n    tag_73:\n        /* \"#utility.yul\":1155:1310   */\n      swap3\n      swap2\n      pop\n      pop\n      jump\t// out\n        /* \"#utility.yul\":1316:1661   */\n    tag_16:\n        /* \"#utility.yul\":1383:1389   */\n      0x00\n        /* \"#utility.yul\":1432:1434   */\n      0x20\n        /* \"#utility.yul\":1420:1429   */\n      dup3\n        /* \"#utility.yul\":1411:1418   */\n      dup5\n        /* \"#utility.yul\":1407:1430   */\n      sub\n        /* \"#utility.yul\":1403:1435   */\n      slt\n        /* \"#utility.yul\":1400:1519   */\n      iszero\n      tag_75\n      jumpi\n        /* \"#utility.yul\":1438:1517   */\n      tag_76\n      tag_45\n      jump\t// in\n    tag_76:\n        /* \"#utility.yul\":1400:1519   */\n    tag_75:\n        /* \"#utility.yul\":1558:1559   */\n      0x00\n        /* \"#utility.yul\":1583:1644   */\n      tag_77\n        /* \"#utility.yul\":1636:1643   */\n      dup5\n        /* \"#utility.yul\":1627:1633   */\n      dup3\n        /* \"#utility.yul\":1616:1625   */\n      dup6\n        /* \"#utility.yul\":1612:1634   */\n      add\n        /* \"#utility.yul\":1583:1644   */\n      tag_50\n      jump\t// in\n    tag_77:\n        /* \"#utility.yul\":1573:1644   */\n      swap2\n      pop\n        /* \"#utility.yul\":1529:1654   */\n      pop\n        /* \"#utility.yul\":1316:1661   */\n      swap3\n      swap2\n      pop\n      pop\n      jump\t// out\n        /* \"#utility.yul\":1667:1836   */\n    tag_51:\n        /* \"#utility.yul\":1751:1762   */\n      0x00\n        /* \"#utility.yul\":1785:1791   */\n      dup3\n        /* \"#utility.yul\":1780:1783   */\n      dup3\n        /* \"#utility.yul\":1773:1792   */\n      mstore\n        /* \"#utility.yul\":1825:1829   */\n      0x20\n        /* \"#utility.yul\":1820:1823   */\n      dup3\n        /* \"#utility.yul\":1816:1830   */\n      add\n        /* \"#utility.yul\":1801:1830   */\n      swap1\n      pop\n        /* \"#utility.yul\":1667:1836   */\n      swap3\n      swap2\n      pop\n      pop\n      jump\t// out\n        /* \"#utility.yul\":1842:2014   */\n    tag_52:\n        /* \"#utility.yul\":1982:2006   */\n      0x7472616e73616374696f6e20686173206661696c656400000000000000000000\n        /* \"#utility.yul\":1978:1979   */\n      0x00\n        /* \"#utility.yul\":1970:1976   */\n      dup3\n        /* \"#utility.yul\":1966:1980   */\n      add\n        /* \"#utility.yul\":1959:2007   */\n      mstore\n        /* \"#utility.yul\":1842:2014   */\n      pop\n      jump\t// out\n        /* \"#utility.yul\":2020:2386   */\n    tag_53:\n        /* \"#utility.yul\":2162:2165   */\n      0x00\n        /* \"#utility.yul\":2183:2250   */\n      tag_81\n        /* \"#utility.yul\":2247:2249   */\n      0x16\n        /* \"#utility.yul\":2242:2245   */\n      dup4\n        /* \"#utility.yul\":2183:2250   */\n      tag_51\n      jump\t// in\n    tag_81:\n        /* \"#utility.yul\":2176:2250   */\n      swap2\n      pop\n        /* \"#utility.yul\":2259:2352   */\n      tag_82\n        /* \"#utility.yul\":2348:2351   */\n      dup3\n        /* \"#utility.yul\":2259:2352   */\n      tag_52\n      jump\t// in\n    tag_82:\n        /* \"#utility.yul\":2377:2379   */\n      0x20\n        /* \"#utility.yul\":2372:2375   */\n      dup3\n        /* \"#utility.yul\":2368:2380   */\n      add\n        /* \"#utility.yul\":2361:2380   */\n      swap1\n      pop\n        /* \"#utility.yul\":2020:2386   */\n      swap2\n      swap1\n      pop\n      jump\t// out\n        /* \"#utility.yul\":2392:2811   */\n    tag_33:\n        /* \"#utility.yul\":2558:2562   */\n      0x00\n        /* \"#utility.yul\":2596:2598   */\n      0x20\n        /* \"#utility.yul\":2585:2594   */\n      dup3\n        /* \"#utility.yul\":2581:2599   */\n      add\n        /* \"#utility.yul\":2573:2599   */\n      swap1\n      pop\n        /* \"#utility.yul\":2645:2654   */\n      dup2\n        /* \"#utility.yul\":2639:2643   */\n      dup2\n        /* \"#utility.yul\":2635:2655   */\n      sub\n        /* \"#utility.yul\":2631:2632   */\n      0x00\n        /* \"#utility.yul\":2620:2629   */\n      dup4\n        /* \"#utility.yul\":2616:2633   */\n      add\n        /* \"#utility.yul\":2609:2656   */\n      mstore\n        /* \"#utility.yul\":2673:2804   */\n      tag_84\n        /* \"#utility.yul\":2799:2803   */\n      dup2\n        /* \"#utility.yul\":2673:2804   */\n      tag_53\n      jump\t// in\n    tag_84:\n        /* \"#utility.yul\":2665:2804   */\n      swap1\n      pop\n        /* \"#utility.yul\":2392:2811   */\n      swap2\n      swap1\n      pop\n      jump\t// out\n        /* \"#utility.yul\":2817:2964   */\n    tag_54:\n        /* \"#utility.yul\":2918:2929   */\n      0x00\n        /* \"#utility.yul\":2955:2958   */\n      dup2\n        /* \"#utility.yul\":2940:2958   */\n      swap1\n      pop\n        /* \"#utility.yul\":2817:2964   */\n      swap3\n      swap2\n      pop\n      pop\n      jump\t// out\n        /* \"#utility.yul\":2970:3084   */\n    tag_55:\n      pop\n      jump\t// out\n        /* \"#utility.yul\":3090:3488   */\n    tag_56:\n        /* \"#utility.yul\":3249:3252   */\n      0x00\n        /* \"#utility.yul\":3270:3353   */\n      tag_88\n        /* \"#utility.yul\":3351:3352   */\n      0x00\n        /* \"#utility.yul\":3346:3349   */\n      dup4\n        /* \"#utility.yul\":3270:3353   */\n      tag_54\n      jump\t// in\n    tag_88:\n        /* \"#utility.yul\":3263:3353   */\n      swap2\n      pop\n        /* \"#utility.yul\":3362:3455   */\n      tag_89\n        /* \"#utility.yul\":3451:3454   */\n      dup3\n        /* \"#utility.yul\":3362:3455   */\n      tag_55\n      jump\t// in\n    tag_89:\n        /* \"#utility.yul\":3480:3481   */\n      0x00\n        /* \"#utility.yul\":3475:3478   */\n      dup3\n        /* \"#utility.yul\":3471:3482   */\n      add\n        /* \"#utility.yul\":3464:3482   */\n      swap1\n      pop\n        /* \"#utility.yul\":3090:3488   */\n      swap2\n      swap1\n      pop\n      jump\t// out\n        /* \"#utility.yul\":3494:3873   */\n    tag_36:\n        /* \"#utility.yul\":3678:3681   */\n      0x00\n        /* \"#utility.yul\":3700:3847   */\n      tag_91\n        /* \"#utility.yul\":3843:3846   */\n      dup3\n        /* \"#utility.yul\":3700:3847   */\n      tag_56\n      jump\t// in\n    tag_91:\n        /* \"#utility.yul\":3693:3847   */\n      swap2\n      pop\n        /* \"#utility.yul\":3864:3867   */\n      dup2\n        /* \"#utility.yul\":3857:3867   */\n      swap1\n      pop\n        /* \"#utility.yul\":3494:3873   */\n      swap2\n      swap1\n      pop\n      jump\t// out\n\n    auxdata: 0xa2646970667358221220cba7e05af8b49c8f1e4c700cb4aef48da0526454715180875dcb74ca23a1092164736f6c63430008110033\n}\n",
				"bytecode": {
					"linkReferences": {},
					"object": "608060405234801561001057600080fd5b50610441806100206000396000f3fe6080604052600436106100435760003560e01c806320ace1d01461004f5780639cb4ddd01461007a578063af075e0c14610096578063b206494b146100b25761004a565b3661004a57005b600080fd5b34801561005b57600080fd5b506100646100ce565b604051610071919061029d565b60405180910390f35b610094600480360381019061008f919061031b565b6100d6565b005b6100b060048036038101906100ab919061031b565b610120565b005b6100cc60048036038101906100c7919061031b565b6101d4565b005b600047905090565b8073ffffffffffffffffffffffffffffffffffffffff166108fc349081150290604051600060405180830381858888f1935050505015801561011c573d6000803e3d6000fd5b5050565b7ff82c50f1848136e6c140b186ea0c768b7deda5efffe42c25e96336a90b26c7443460405161014f919061029d565b60405180910390a160008173ffffffffffffffffffffffffffffffffffffffff166108fc349081150290604051600060405180830381858888f193505050509050806101d0576040517f08c379a00000000000000000000000000000000000000000000000000000000081526004016101c7906103a5565b60405180910390fd5b5050565b60008173ffffffffffffffffffffffffffffffffffffffff16346040516101fa906103f6565b60006040518083038185875af1925050503d8060008114610237576040519150601f19603f3d011682016040523d82523d6000602084013e61023c565b606091505b5050905080610280576040517f08c379a0000000000000000000000000000000000000000000000000000000008152600401610277906103a5565b60405180910390fd5b5050565b6000819050919050565b61029781610284565b82525050565b60006020820190506102b2600083018461028e565b92915050565b600080fd5b600073ffffffffffffffffffffffffffffffffffffffff82169050919050565b60006102e8826102bd565b9050919050565b6102f8816102dd565b811461030357600080fd5b50565b600081359050610315816102ef565b92915050565b600060208284031215610331576103306102b8565b5b600061033f84828501610306565b91505092915050565b600082825260208201905092915050565b7f7472616e73616374696f6e20686173206661696c656400000000000000000000600082015250565b600061038f601683610348565b915061039a82610359565b602082019050919050565b600060208201905081810360008301526103be81610382565b9050919050565b600081905092915050565b50565b60006103e06000836103c5565b91506103eb826103d0565b600082019050919050565b6000610401826103d3565b915081905091905056fea2646970667358221220cba7e05af8b49c8f1e4c700cb4aef48da0526454715180875dcb74ca23a1092164736f6c63430008110033",
					"opcodes": "PUSH1 0x80 PUSH1 0x40 MSTORE CALLVALUE DUP1 ISZERO PUSH2 0x10 JUMPI PUSH1 0x0 DUP1 REVERT JUMPDEST POP PUSH2 0x441 DUP1 PUSH2 0x20 PUSH1 0x0 CODECOPY PUSH1 0x0 RETURN INVALID PUSH1 0x80 PUSH1 0x40 MSTORE PUSH1 0x4 CALLDATASIZE LT PUSH2 0x43 JUMPI PUSH1 0x0 CALLDATALOAD PUSH1 0xE0 SHR DUP1 PUSH4 0x20ACE1D0 EQ PUSH2 0x4F JUMPI DUP1 PUSH4 0x9CB4DDD0 EQ PUSH2 0x7A JUMPI DUP1 PUSH4 0xAF075E0C EQ PUSH2 0x96 JUMPI DUP1 PUSH4 0xB206494B EQ PUSH2 0xB2 JUMPI PUSH2 0x4A JUMP JUMPDEST CALLDATASIZE PUSH2 0x4A JUMPI STOP JUMPDEST PUSH1 0x0 DUP1 REVERT JUMPDEST CALLVALUE DUP1 ISZERO PUSH2 0x5B JUMPI PUSH1 0x0 DUP1 REVERT JUMPDEST POP PUSH2 0x64 PUSH2 0xCE JUMP JUMPDEST PUSH1 0x40 MLOAD PUSH2 0x71 SWAP2 SWAP1 PUSH2 0x29D JUMP JUMPDEST PUSH1 0x40 MLOAD DUP1 SWAP2 SUB SWAP1 RETURN JUMPDEST PUSH2 0x94 PUSH1 0x4 DUP1 CALLDATASIZE SUB DUP2 ADD SWAP1 PUSH2 0x8F SWAP2 SWAP1 PUSH2 0x31B JUMP JUMPDEST PUSH2 0xD6 JUMP JUMPDEST STOP JUMPDEST PUSH2 0xB0 PUSH1 0x4 DUP1 CALLDATASIZE SUB DUP2 ADD SWAP1 PUSH2 0xAB SWAP2 SWAP1 PUSH2 0x31B JUMP JUMPDEST PUSH2 0x120 JUMP JUMPDEST STOP JUMPDEST PUSH2 0xCC PUSH1 0x4 DUP1 CALLDATASIZE SUB DUP2 ADD SWAP1 PUSH2 0xC7 SWAP2 SWAP1 PUSH2 0x31B JUMP JUMPDEST PUSH2 0x1D4 JUMP JUMPDEST STOP JUMPDEST PUSH1 0x0 SELFBALANCE SWAP1 POP SWAP1 JUMP JUMPDEST DUP1 PUSH20 0xFFFFFFFFFFFFFFFFFFFFFFFFFFFFFFFFFFFFFFFF AND PUSH2 0x8FC CALLVALUE SWAP1 DUP2 ISZERO MUL SWAP1 PUSH1 0x40 MLOAD PUSH1 0x0 PUSH1 0x40 MLOAD DUP1 DUP4 SUB DUP2 DUP6 DUP9 DUP9 CALL SWAP4 POP POP POP POP ISZERO DUP1 ISZERO PUSH2 0x11C JUMPI RETURNDATASIZE PUSH1 0x0 DUP1 RETURNDATACOPY RETURNDATASIZE PUSH1 0x0 REVERT JUMPDEST POP POP JUMP JUMPDEST PUSH32 0xF82C50F1848136E6C140B186EA0C768B7DEDA5EFFFE42C25E96336A90B26C744 CALLVALUE PUSH1 0x40 MLOAD PUSH2 0x14F SWAP2 SWAP1 PUSH2 0x29D JUMP JUMPDEST PUSH1 0x40 MLOAD DUP1 SWAP2 SUB SWAP1 LOG1 PUSH1 0x0 DUP2 PUSH20 0xFFFFFFFFFFFFFFFFFFFFFFFFFFFFFFFFFFFFFFFF AND PUSH2 0x8FC CALLVALUE SWAP1 DUP2 ISZERO MUL SWAP1 PUSH1 0x40 MLOAD PUSH1 0x0 PUSH1 0x40 MLOAD DUP1 DUP4 SUB DUP2 DUP6 DUP9 DUP9 CALL SWAP4 POP POP POP POP SWAP1 POP DUP1 PUSH2 0x1D0 JUMPI PUSH1 0x40 MLOAD PUSH32 0x8C379A000000000000000000000000000000000000000000000000000000000 DUP2 MSTORE PUSH1 0x4 ADD PUSH2 0x1C7 SWAP1 PUSH2 0x3A5 JUMP JUMPDEST PUSH1 0x40 MLOAD DUP1 SWAP2 SUB SWAP1 REVERT JUMPDEST POP POP JUMP JUMPDEST PUSH1 0x0 DUP2 PUSH20 0xFFFFFFFFFFFFFFFFFFFFFFFFFFFFFFFFFFFFFFFF AND CALLVALUE PUSH1 0x40 MLOAD PUSH2 0x1FA SWAP1 PUSH2 0x3F6 JUMP JUMPDEST PUSH1 0x0 PUSH1 0x40 MLOAD DUP1 DUP4 SUB DUP2 DUP6 DUP8 GAS CALL SWAP3 POP POP POP RETURNDATASIZE DUP1 PUSH1 0x0 DUP2 EQ PUSH2 0x237 JUMPI PUSH1 0x40 MLOAD SWAP2 POP PUSH1 0x1F NOT PUSH1 0x3F RETURNDATASIZE ADD AND DUP3 ADD PUSH1 0x40 MSTORE RETURNDATASIZE DUP3 MSTORE RETURNDATASIZE PUSH1 0x0 PUSH1 0x20 DUP5 ADD RETURNDATACOPY PUSH2 0x23C JUMP JUMPDEST PUSH1 0x60 SWAP2 POP JUMPDEST POP POP SWAP1 POP DUP1 PUSH2 0x280 JUMPI PUSH1 0x40 MLOAD PUSH32 0x8C379A000000000000000000000000000000000000000000000000000000000 DUP2 MSTORE PUSH1 0x4 ADD PUSH2 0x277 SWAP1 PUSH2 0x3A5 JUMP JUMPDEST PUSH1 0x40 MLOAD DUP1 SWAP2 SUB SWAP1 REVERT JUMPDEST POP POP JUMP JUMPDEST PUSH1 0x0 DUP2 SWAP1 POP SWAP2 SWAP1 POP JUMP JUMPDEST PUSH2 0x297 DUP2 PUSH2 0x284 JUMP JUMPDEST DUP3 MSTORE POP POP JUMP JUMPDEST PUSH1 0x0 PUSH1 0x20 DUP3 ADD SWAP1 POP PUSH2 0x2B2 PUSH1 0x0 DUP4 ADD DUP5 PUSH2 0x28E JUMP JUMPDEST SWAP3 SWAP2 POP POP JUMP JUMPDEST PUSH1 0x0 DUP1 REVERT JUMPDEST PUSH1 0x0 PUSH20 0xFFFFFFFFFFFFFFFFFFFFFFFFFFFFFFFFFFFFFFFF DUP3 AND SWAP1 POP SWAP2 SWAP1 POP JUMP JUMPDEST PUSH1 0x0 PUSH2 0x2E8 DUP3 PUSH2 0x2BD JUMP JUMPDEST SWAP1 POP SWAP2 SWAP1 POP JUMP JUMPDEST PUSH2 0x2F8 DUP2 PUSH2 0x2DD JUMP JUMPDEST DUP2 EQ PUSH2 0x303 JUMPI PUSH1 0x0 DUP1 REVERT JUMPDEST POP JUMP JUMPDEST PUSH1 0x0 DUP2 CALLDATALOAD SWAP1 POP PUSH2 0x315 DUP2 PUSH2 0x2EF JUMP JUMPDEST SWAP3 SWAP2 POP POP JUMP JUMPDEST PUSH1 0x0 PUSH1 0x20 DUP3 DUP5 SUB SLT ISZERO PUSH2 0x331 JUMPI PUSH2 0x330 PUSH2 0x2B8 JUMP JUMPDEST JUMPDEST PUSH1 0x0 PUSH2 0x33F DUP5 DUP3 DUP6 ADD PUSH2 0x306 JUMP JUMPDEST SWAP2 POP POP SWAP3 SWAP2 POP POP JUMP JUMPDEST PUSH1 0x0 DUP3 DUP3 MSTORE PUSH1 0x20 DUP3 ADD SWAP1 POP SWAP3 SWAP2 POP POP JUMP JUMPDEST PUSH32 0x7472616E73616374696F6E20686173206661696C656400000000000000000000 PUSH1 0x0 DUP3 ADD MSTORE POP JUMP JUMPDEST PUSH1 0x0 PUSH2 0x38F PUSH1 0x16 DUP4 PUSH2 0x348 JUMP JUMPDEST SWAP2 POP PUSH2 0x39A DUP3 PUSH2 0x359 JUMP JUMPDEST PUSH1 0x20 DUP3 ADD SWAP1 POP SWAP2 SWAP1 POP JUMP JUMPDEST PUSH1 0x0 PUSH1 0x20 DUP3 ADD SWAP1 POP DUP2 DUP2 SUB PUSH1 0x0 DUP4 ADD MSTORE PUSH2 0x3BE DUP2 PUSH2 0x382 JUMP JUMPDEST SWAP1 POP SWAP2 SWAP1 POP JUMP JUMPDEST PUSH1 0x0 DUP2 SWAP1 POP SWAP3 SWAP2 POP POP JUMP JUMPDEST POP JUMP JUMPDEST PUSH1 0x0 PUSH2 0x3E0 PUSH1 0x0 DUP4 PUSH2 0x3C5 JUMP JUMPDEST SWAP2 POP PUSH2 0x3EB DUP3 PUSH2 0x3D0 JUMP JUMPDEST PUSH1 0x0 DUP3 ADD SWAP1 POP SWAP2 SWAP1 POP JUMP JUMPDEST PUSH1 0x0 PUSH2 0x401 DUP3 PUSH2 0x3D3 JUMP JUMPDEST SWAP2 POP DUP2 SWAP1 POP SWAP2 SWAP1 POP JUMP INVALID LOG2 PUSH5 0x6970667358 0x22 SLT KECCAK256 0xCB 0xA7 0xE0 GAS 0xF8 0xB4 SWAP13 DUP16 0x1E 0x4C PUSH17 0xCB4AEF48DA0526454715180875DCB74CA 0x23 LOG1 MULMOD 0x21 PUSH5 0x736F6C6343 STOP ADDMOD GT STOP CALLER "
				},
				"gasEstimates": {
					"creation": {
						"codeDepositCost": "217800",
						"executionCost": "263",
						"totalCost": "218063"
					},
					"external": {
						"CALL(address)": "infinite",
						"SEND(address)": "infinite",
						"TRANSFER(address)": "infinite",
						"checkbal()": "317"
					}
				},
				"methodIdentifiers": {
					"CALL(address)": "b206494b",
					"SEND(address)": "af075e0c",
					"TRANSFER(address)": "9cb4ddd0",
					"checkbal()": "20ace1d0"
				}
			},
			"storageLayout": {
				"storage": [],
				"types": null
			},
			"userdoc": {
				"kind": "user",
				"methods": {},
				"version": 1
			}
		}
	}
}