{
	"contracts/statevariable.sol": {
		"statevariable": {
			"abi": [
				{
					"inputs": [],
					"stateMutability": "nonpayable",
					"type": "constructor"
				},
				{
					"inputs": [],
					"name": "age",
					"outputs": [
						{
							"internalType": "uint256",
							"name": "",
							"type": "uint256"
						}
					],
					"stateMutability": "view",
					"type": "function"
				},
				{
					"inputs": [],
					"name": "setage",
					"outputs": [],
					"stateMutability": "nonpayable",
					"type": "function"
				}
			],
			"devdoc": {
				"kind": "dev",
				"methods": {},
				"version": 1
			},
			"evm": {
				"assembly": "    /* \"contracts/statevariable.sol\":62:373  contract statevariable{    // 3 ways to intialize state variable//... */\n  mstore(0x40, 0x80)\n    /* \"contracts/statevariable.sol\":174:237  constructor(){  // with constructor//... */\n  callvalue\n  dup1\n  iszero\n  tag_1\n  jumpi\n  0x00\n  dup1\n  revert\ntag_1:\n  pop\n    /* \"contracts/statevariable.sol\":227:229  14 */\n  0x0e\n    /* \"contracts/statevariable.sol\":221:224  age */\n  0x00\n    /* \"contracts/statevariable.sol\":221:229  age = 14 */\n  dup2\n  swap1\n  sstore\n  pop\n    /* \"contracts/statevariable.sol\":62:373  contract statevariable{    // 3 ways to intialize state variable//... */\n  dataSize(sub_0)\n  dup1\n  dataOffset(sub_0)\n  0x00\n  codecopy\n  0x00\n  return\nstop\n\nsub_0: assembly {\n        /* \"contracts/statevariable.sol\":62:373  contract statevariable{    // 3 ways to intialize state variable//... */\n      mstore(0x40, 0x80)\n      callvalue\n      dup1\n      iszero\n      tag_1\n      jumpi\n      0x00\n      dup1\n      revert\n    tag_1:\n      pop\n      jumpi(tag_2, lt(calldatasize, 0x04))\n      shr(0xe0, calldataload(0x00))\n      dup1\n      0x233ec35b\n      eq\n      tag_3\n      jumpi\n      dup1\n      0x262a9dff\n      eq\n      tag_4\n      jumpi\n    tag_2:\n      0x00\n      dup1\n      revert\n        /* \"contracts/statevariable.sol\":242:313  function setage()public{   // with function//... */\n    tag_3:\n      tag_5\n      tag_6\n      jump\t// in\n    tag_5:\n      stop\n        /* \"contracts/statevariable.sol\":134:149  uint public age */\n    tag_4:\n      tag_7\n      tag_8\n      jump\t// in\n    tag_7:\n      mload(0x40)\n      tag_9\n      swap2\n      swap1\n      tag_10\n      jump\t// in\n    tag_9:\n      mload(0x40)\n      dup1\n      swap2\n      sub\n      swap1\n      return\n        /* \"contracts/statevariable.sol\":242:313  function setage()public{   // with function//... */\n    tag_6:\n        /* \"contracts/statevariable.sol\":302:304  18 */\n      0x12\n        /* \"contracts/statevariable.sol\":296:299  age */\n      0x00\n        /* \"contracts/statevariable.sol\":296:304  age = 18 */\n      dup2\n      swap1\n      sstore\n      pop\n        /* \"contracts/statevariable.sol\":242:313  function setage()public{   // with function//... */\n      jump\t// out\n        /* \"contracts/statevariable.sol\":134:149  uint public age */\n    tag_8:\n      sload(0x00)\n      dup2\n      jump\t// out\n        /* \"#utility.yul\":7:84   */\n    tag_12:\n        /* \"#utility.yul\":44:51   */\n      0x00\n        /* \"#utility.yul\":73:78   */\n      dup2\n        /* \"#utility.yul\":62:78   */\n      swap1\n      pop\n        /* \"#utility.yul\":7:84   */\n      swap2\n      swap1\n      pop\n      jump\t// out\n        /* \"#utility.yul\":90:208   */\n    tag_13:\n        /* \"#utility.yul\":177:201   */\n      tag_17\n        /* \"#utility.yul\":195:200   */\n      dup2\n        /* \"#utility.yul\":177:201   */\n      tag_12\n      jump\t// in\n    tag_17:\n        /* \"#utility.yul\":172:175   */\n      dup3\n        /* \"#utility.yul\":165:202   */\n      mstore\n        /* \"#utility.yul\":90:208   */\n      pop\n      pop\n      jump\t// out\n        /* \"#utility.yul\":214:436   */\n    tag_10:\n        /* \"#utility.yul\":307:311   */\n      0x00\n        /* \"#utility.yul\":345:347   */\n      0x20\n        /* \"#utility.yul\":334:343   */\n      dup3\n        /* \"#utility.yul\":330:348   */\n      add\n        /* \"#utility.yul\":322:348   */\n      swap1\n      pop\n        /* \"#utility.yul\":358:429   */\n      tag_19\n        /* \"#utility.yul\":426:427   */\n      0x00\n        /* \"#utility.yul\":415:424   */\n      dup4\n        /* \"#utility.yul\":411:428   */\n      add\n        /* \"#utility.yul\":402:408   */\n      dup5\n        /* \"#utility.yul\":358:429   */\n      tag_13\n      jump\t// in\n    tag_19:\n        /* \"#utility.yul\":214:436   */\n      swap3\n      swap2\n      pop\n      pop\n      jump\t// out\n\n    auxdata: 0xa264697066735822122024ebe529fe694f9c6a2f9d99c9cbb84199286aa131a710a986bd197ba384f6a764736f6c63430008110033\n}\n",
				"bytecode": {
					"linkReferences": {},
					"object": "608060405234801561001057600080fd5b50600e60008190555060cf806100276000396000f3fe6080604052348015600f57600080fd5b506004361060325760003560e01c8063233ec35b146037578063262a9dff14603f575b600080fd5b603d6059565b005b60456063565b604051605091906080565b60405180910390f35b6012600081905550565b60005481565b6000819050919050565b607a816069565b82525050565b6000602082019050609360008301846073565b9291505056fea264697066735822122024ebe529fe694f9c6a2f9d99c9cbb84199286aa131a710a986bd197ba384f6a764736f6c63430008110033",
					"opcodes": "PUSH1 0x80 PUSH1 0x40 MSTORE CALLVALUE DUP1 ISZERO PUSH2 0x10 JUMPI PUSH1 0x0 DUP1 REVERT JUMPDEST POP PUSH1 0xE PUSH1 0x0 DUP2 SWAP1 SSTORE POP PUSH1 0xCF DUP1 PUSH2 0x27 PUSH1 0x0 CODECOPY PUSH1 0x0 RETURN INVALID PUSH1 0x80 PUSH1 0x40 MSTORE CALLVALUE DUP1 ISZERO PUSH1 0xF JUMPI PUSH1 0x0 DUP1 REVERT JUMPDEST POP PUSH1 0x4 CALLDATASIZE LT PUSH1 0x32 JUMPI PUSH1 0x0 CALLDATALOAD PUSH1 0xE0 SHR DUP1 PUSH4 0x233EC35B EQ PUSH1 0x37 JUMPI DUP1 PUSH4 0x262A9DFF EQ PUSH1 0x3F JUMPI JUMPDEST PUSH1 0x0 DUP1 REVERT JUMPDEST PUSH1 0x3D PUSH1 0x59 JUMP JUMPDEST STOP JUMPDEST PUSH1 0x45 PUSH1 0x63 JUMP JUMPDEST PUSH1 0x40 MLOAD PUSH1 0x50 SWAP2 SWAP1 PUSH1 0x80 JUMP JUMPDEST PUSH1 0x40 MLOAD DUP1 SWAP2 SUB SWAP1 RETURN JUMPDEST PUSH1 0x12 PUSH1 0x0 DUP2 SWAP1 SSTORE POP JUMP JUMPDEST PUSH1 0x0 SLOAD DUP2 JUMP JUMPDEST PUSH1 0x0 DUP2 SWAP1 POP SWAP2 SWAP1 POP JUMP JUMPDEST PUSH1 0x7A DUP2 PUSH1 0x69 JUMP JUMPDEST DUP3 MSTORE POP POP JUMP JUMPDEST PUSH1 0x0 PUSH1 0x20 DUP3 ADD SWAP1 POP PUSH1 0x93 PUSH1 0x0 DUP4 ADD DUP5 PUSH1 0x73 JUMP JUMPDEST SWAP3 SWAP2 POP POP JUMP INVALID LOG2 PUSH5 0x6970667358 0x22 SLT KECCAK256 0x24 0xEB 0xE5 0x29 INVALID PUSH10 0x4F9C6A2F9D99C9CBB841 SWAP10 0x28 PUSH11 0xA131A710A986BD197BA384 0xF6 0xA7 PUSH5 0x736F6C6343 STOP ADDMOD GT STOP CALLER "
				},
				"gasEstimates": {
					"creation": {
						"codeDepositCost": "41400",
						"executionCost": "22207",
						"totalCost": "63607"
					},
					"external": {
						"age()": "2429",
						"setage()": "22236"
					}
				},
				"methodIdentifiers": {
					"age()": "262a9dff",
					"setage()": "233ec35b"
				}
			},
			"storageLayout": {
				"storage": [
					{
						"astId": 3,
						"contract": "contracts/statevariable.sol:statevariable",
						"label": "age",
						"offset": 0,
						"slot": "0",
						"type": "t_uint256"
					}
				],
				"types": {
					"t_uint256": {
						"encoding": "inplace",
						"label": "uint256",
						"numberOfBytes": "32"
					}
				}
			},
			"userdoc": {
				"kind": "user",
				"methods": {},
				"version": 1
			}
		}
	}
}