{
	"contracts/MULTIPLEinheritance.sol": {
		"B": {
			"abi": [
				{
					"inputs": [],
					"stateMutability": "nonpayable",
					"type": "constructor"
				},
				{
					"inputs": [],
					"name": "a",
					"outputs": [
						{
							"internalType": "uint256",
							"name": "",
							"type": "uint256"
						}
					],
					"stateMutability": "view",
					"type": "function"
				},
				{
					"inputs": [],
					"name": "b",
					"outputs": [
						{
							"internalType": "uint256",
							"name": "",
							"type": "uint256"
						}
					],
					"stateMutability": "view",
					"type": "function"
				},
				{
					"inputs": [],
					"name": "changeaA",
					"outputs": [],
					"stateMutability": "nonpayable",
					"type": "function"
				},
				{
					"inputs": [],
					"name": "changeaB",
					"outputs": [],
					"stateMutability": "nonpayable",
					"type": "function"
				}
			],
			"devdoc": {
				"kind": "dev",
				"methods": {},
				"version": 1
			},
			"evm": {
				"assembly": "    /* \"contracts/MULTIPLEinheritance.sol\":202:424  contract B is A{... */\n  mstore(0x40, 0x80)\n    /* \"contracts/MULTIPLEinheritance.sol\":246:362  constructor(){... */\n  callvalue\n  dup1\n  iszero\n  tag_1\n  jumpi\n  0x00\n  dup1\n  revert\ntag_1:\n  pop\n    /* \"contracts/MULTIPLEinheritance.sol\":127:130  100 */\n  0x64\n    /* \"contracts/MULTIPLEinheritance.sol\":123:124  a */\n  0x00\n    /* \"contracts/MULTIPLEinheritance.sol\":123:130  a = 100 */\n  dup2\n  swap1\n  sstore\n  pop\n    /* \"contracts/MULTIPLEinheritance.sol\":274:277  100 */\n  0x64\n    /* \"contracts/MULTIPLEinheritance.sol\":270:271  b */\n  0x01\n    /* \"contracts/MULTIPLEinheritance.sol\":270:277  b = 100 */\n  dup2\n  swap1\n  sstore\n  pop\n    /* \"contracts/MULTIPLEinheritance.sol\":292:294  50 */\n  0x32\n    /* \"contracts/MULTIPLEinheritance.sol\":288:289  a */\n  0x00\n    /* \"contracts/MULTIPLEinheritance.sol\":288:294  a = 50 */\n  dup2\n  swap1\n  sstore\n  pop\n    /* \"contracts/MULTIPLEinheritance.sol\":202:424  contract B is A{... */\n  dataSize(sub_0)\n  dup1\n  dataOffset(sub_0)\n  0x00\n  codecopy\n  0x00\n  return\nstop\n\nsub_0: assembly {\n        /* \"contracts/MULTIPLEinheritance.sol\":202:424  contract B is A{... */\n      mstore(0x40, 0x80)\n      callvalue\n      dup1\n      iszero\n      tag_1\n      jumpi\n      0x00\n      dup1\n      revert\n    tag_1:\n      pop\n      jumpi(tag_2, lt(calldatasize, 0x04))\n      shr(0xe0, calldataload(0x00))\n      dup1\n      0x0dbe671f\n      eq\n      tag_3\n      jumpi\n      dup1\n      0x4df7e3d0\n      eq\n      tag_4\n      jumpi\n      dup1\n      0x833a0c73\n      eq\n      tag_5\n      jumpi\n      dup1\n      0xc25e7a3d\n      eq\n      tag_6\n      jumpi\n    tag_2:\n      0x00\n      dup1\n      revert\n        /* \"contracts/MULTIPLEinheritance.sol\":77:90  uint public a */\n    tag_3:\n      tag_7\n      tag_8\n      jump\t// in\n    tag_7:\n      mload(0x40)\n      tag_9\n      swap2\n      swap1\n      tag_10\n      jump\t// in\n    tag_9:\n      mload(0x40)\n      dup1\n      swap2\n      sub\n      swap1\n      return\n        /* \"contracts/MULTIPLEinheritance.sol\":224:237  uint public b */\n    tag_4:\n      tag_11\n      tag_12\n      jump\t// in\n    tag_11:\n      mload(0x40)\n      tag_13\n      swap2\n      swap1\n      tag_10\n      jump\t// in\n    tag_13:\n      mload(0x40)\n      dup1\n      swap2\n      sub\n      swap1\n      return\n        /* \"contracts/MULTIPLEinheritance.sol\":146:197  function changeaA()public{... */\n    tag_5:\n      tag_14\n      tag_15\n      jump\t// in\n    tag_14:\n      stop\n        /* \"contracts/MULTIPLEinheritance.sol\":370:421  function changeaB()public{... */\n    tag_6:\n      tag_16\n      tag_17\n      jump\t// in\n    tag_16:\n      stop\n        /* \"contracts/MULTIPLEinheritance.sol\":77:90  uint public a */\n    tag_8:\n      sload(0x00)\n      dup2\n      jump\t// out\n        /* \"contracts/MULTIPLEinheritance.sol\":224:237  uint public b */\n    tag_12:\n      sload(0x01)\n      dup2\n      jump\t// out\n        /* \"contracts/MULTIPLEinheritance.sol\":146:197  function changeaA()public{... */\n    tag_15:\n        /* \"contracts/MULTIPLEinheritance.sol\":186:189  101 */\n      0x65\n        /* \"contracts/MULTIPLEinheritance.sol\":182:183  a */\n      0x00\n        /* \"contracts/MULTIPLEinheritance.sol\":182:189  a = 101 */\n      dup2\n      swap1\n      sstore\n      pop\n        /* \"contracts/MULTIPLEinheritance.sol\":146:197  function changeaA()public{... */\n      jump\t// out\n        /* \"contracts/MULTIPLEinheritance.sol\":370:421  function changeaB()public{... */\n    tag_17:\n        /* \"contracts/MULTIPLEinheritance.sol\":410:413  101 */\n      0x65\n        /* \"contracts/MULTIPLEinheritance.sol\":406:407  b */\n      0x01\n        /* \"contracts/MULTIPLEinheritance.sol\":406:413  b = 101 */\n      dup2\n      swap1\n      sstore\n      pop\n        /* \"contracts/MULTIPLEinheritance.sol\":370:421  function changeaB()public{... */\n      jump\t// out\n        /* \"#utility.yul\":7:84   */\n    tag_20:\n        /* \"#utility.yul\":44:51   */\n      0x00\n        /* \"#utility.yul\":73:78   */\n      dup2\n        /* \"#utility.yul\":62:78   */\n      swap1\n      pop\n        /* \"#utility.yul\":7:84   */\n      swap2\n      swap1\n      pop\n      jump\t// out\n        /* \"#utility.yul\":90:208   */\n    tag_21:\n        /* \"#utility.yul\":177:201   */\n      tag_25\n        /* \"#utility.yul\":195:200   */\n      dup2\n        /* \"#utility.yul\":177:201   */\n      tag_20\n      jump\t// in\n    tag_25:\n        /* \"#utility.yul\":172:175   */\n      dup3\n        /* \"#utility.yul\":165:202   */\n      mstore\n        /* \"#utility.yul\":90:208   */\n      pop\n      pop\n      jump\t// out\n        /* \"#utility.yul\":214:436   */\n    tag_10:\n        /* \"#utility.yul\":307:311   */\n      0x00\n        /* \"#utility.yul\":345:347   */\n      0x20\n        /* \"#utility.yul\":334:343   */\n      dup3\n        /* \"#utility.yul\":330:348   */\n      add\n        /* \"#utility.yul\":322:348   */\n      swap1\n      pop\n        /* \"#utility.yul\":358:429   */\n      tag_27\n        /* \"#utility.yul\":426:427   */\n      0x00\n        /* \"#utility.yul\":415:424   */\n      dup4\n        /* \"#utility.yul\":411:428   */\n      add\n        /* \"#utility.yul\":402:408   */\n      dup5\n        /* \"#utility.yul\":358:429   */\n      tag_21\n      jump\t// in\n    tag_27:\n        /* \"#utility.yul\":214:436   */\n      swap3\n      swap2\n      pop\n      pop\n      jump\t// out\n\n    auxdata: 0xa26469706673582212204443ed6edfa2c374c33fad208b3a8ddb63930031a957d26e8fed1f04f71df25564736f6c63430008110033\n}\n",
				"bytecode": {
					"linkReferences": {},
					"object": "608060405234801561001057600080fd5b50606460008190555060646001819055506032600081905550610115806100386000396000f3fe6080604052348015600f57600080fd5b506004361060465760003560e01c80630dbe671f14604b5780634df7e3d0146065578063833a0c7314607f578063c25e7a3d146087575b600080fd5b6051608f565b604051605c919060c6565b60405180910390f35b606b6095565b6040516076919060c6565b60405180910390f35b6085609b565b005b608d60a5565b005b60005481565b60015481565b6065600081905550565b6065600181905550565b6000819050919050565b60c08160af565b82525050565b600060208201905060d9600083018460b9565b9291505056fea26469706673582212204443ed6edfa2c374c33fad208b3a8ddb63930031a957d26e8fed1f04f71df25564736f6c63430008110033",
					"opcodes": "PUSH1 0x80 PUSH1 0x40 MSTORE CALLVALUE DUP1 ISZERO PUSH2 0x10 JUMPI PUSH1 0x0 DUP1 REVERT JUMPDEST POP PUSH1 0x64 PUSH1 0x0 DUP2 SWAP1 SSTORE POP PUSH1 0x64 PUSH1 0x1 DUP2 SWAP1 SSTORE POP PUSH1 0x32 PUSH1 0x0 DUP2 SWAP1 SSTORE POP PUSH2 0x115 DUP1 PUSH2 0x38 PUSH1 0x0 CODECOPY PUSH1 0x0 RETURN INVALID PUSH1 0x80 PUSH1 0x40 MSTORE CALLVALUE DUP1 ISZERO PUSH1 0xF JUMPI PUSH1 0x0 DUP1 REVERT JUMPDEST POP PUSH1 0x4 CALLDATASIZE LT PUSH1 0x46 JUMPI PUSH1 0x0 CALLDATALOAD PUSH1 0xE0 SHR DUP1 PUSH4 0xDBE671F EQ PUSH1 0x4B JUMPI DUP1 PUSH4 0x4DF7E3D0 EQ PUSH1 0x65 JUMPI DUP1 PUSH4 0x833A0C73 EQ PUSH1 0x7F JUMPI DUP1 PUSH4 0xC25E7A3D EQ PUSH1 0x87 JUMPI JUMPDEST PUSH1 0x0 DUP1 REVERT JUMPDEST PUSH1 0x51 PUSH1 0x8F JUMP JUMPDEST PUSH1 0x40 MLOAD PUSH1 0x5C SWAP2 SWAP1 PUSH1 0xC6 JUMP JUMPDEST PUSH1 0x40 MLOAD DUP1 SWAP2 SUB SWAP1 RETURN JUMPDEST PUSH1 0x6B PUSH1 0x95 JUMP JUMPDEST PUSH1 0x40 MLOAD PUSH1 0x76 SWAP2 SWAP1 PUSH1 0xC6 JUMP JUMPDEST PUSH1 0x40 MLOAD DUP1 SWAP2 SUB SWAP1 RETURN JUMPDEST PUSH1 0x85 PUSH1 0x9B JUMP JUMPDEST STOP JUMPDEST PUSH1 0x8D PUSH1 0xA5 JUMP JUMPDEST STOP JUMPDEST PUSH1 0x0 SLOAD DUP2 JUMP JUMPDEST PUSH1 0x1 SLOAD DUP2 JUMP JUMPDEST PUSH1 0x65 PUSH1 0x0 DUP2 SWAP1 SSTORE POP JUMP JUMPDEST PUSH1 0x65 PUSH1 0x1 DUP2 SWAP1 SSTORE POP JUMP JUMPDEST PUSH1 0x0 DUP2 SWAP1 POP SWAP2 SWAP1 POP JUMP JUMPDEST PUSH1 0xC0 DUP2 PUSH1 0xAF JUMP JUMPDEST DUP3 MSTORE POP POP JUMP JUMPDEST PUSH1 0x0 PUSH1 0x20 DUP3 ADD SWAP1 POP PUSH1 0xD9 PUSH1 0x0 DUP4 ADD DUP5 PUSH1 0xB9 JUMP JUMPDEST SWAP3 SWAP2 POP POP JUMP INVALID LOG2 PUSH5 0x6970667358 0x22 SLT KECCAK256 DIFFICULTY NUMBER 0xED PUSH15 0xDFA2C374C33FAD208B3A8DDB639300 BALANCE 0xA9 JUMPI 0xD2 PUSH15 0x8FED1F04F71DF25564736F6C634300 ADDMOD GT STOP CALLER "
				},
				"gasEstimates": {
					"creation": {
						"codeDepositCost": "55400",
						"executionCost": "49347",
						"totalCost": "104747"
					},
					"external": {
						"a()": "2407",
						"b()": "2429",
						"changeaA()": "22280",
						"changeaB()": "22302"
					}
				},
				"methodIdentifiers": {
					"a()": "0dbe671f",
					"b()": "4df7e3d0",
					"changeaA()": "833a0c73",
					"changeaB()": "c25e7a3d"
				}
			},
			"storageLayout": {
				"storage": [
					{
						"astId": 3,
						"contract": "contracts/MULTIPLEinheritance.sol:B",
						"label": "a",
						"offset": 0,
						"slot": "0",
						"type": "t_uint256"
					},
					{
						"astId": 24,
						"contract": "contracts/MULTIPLEinheritance.sol:B",
						"label": "b",
						"offset": 0,
						"slot": "1",
						"type": "t_uint256"
					}
				],
				"types": {
					"t_uint256": {
						"encoding": "inplace",
						"label": "uint256",
						"numberOfBytes": "32"
					}
				}
			},
			"userdoc": {
				"kind": "user",
				"methods": {},
				"version": 1
			}
		}
	}
}