{
	"contracts/defaultVALUE.sol": {
		"defaulvalue": {
			"abi": [
				{
					"inputs": [],
					"name": "q",
					"outputs": [
						{
							"internalType": "bytes32",
							"name": "",
							"type": "bytes32"
						}
					],
					"stateMutability": "view",
					"type": "function"
				},
				{
					"inputs": [],
					"name": "str",
					"outputs": [
						{
							"internalType": "string",
							"name": "",
							"type": "string"
						}
					],
					"stateMutability": "view",
					"type": "function"
				},
				{
					"inputs": [],
					"name": "x",
					"outputs": [
						{
							"internalType": "uint256",
							"name": "",
							"type": "uint256"
						}
					],
					"stateMutability": "view",
					"type": "function"
				},
				{
					"inputs": [],
					"name": "y",
					"outputs": [
						{
							"internalType": "bool",
							"name": "",
							"type": "bool"
						}
					],
					"stateMutability": "view",
					"type": "function"
				},
				{
					"inputs": [],
					"name": "z",
					"outputs": [
						{
							"internalType": "address",
							"name": "",
							"type": "address"
						}
					],
					"stateMutability": "view",
					"type": "function"
				}
			],
			"devdoc": {
				"kind": "dev",
				"methods": {},
				"version": 1
			},
			"evm": {
				"assembly": "    /* \"contracts/defaultVALUE.sol\":62:196  contract defaulvalue{\r... */\n  mstore(0x40, 0x80)\n  callvalue\n  dup1\n  iszero\n  tag_1\n  jumpi\n  0x00\n  dup1\n  revert\ntag_1:\n  pop\n  dataSize(sub_0)\n  dup1\n  dataOffset(sub_0)\n  0x00\n  codecopy\n  0x00\n  return\nstop\n\nsub_0: assembly {\n        /* \"contracts/defaultVALUE.sol\":62:196  contract defaulvalue{\r... */\n      mstore(0x40, 0x80)\n      callvalue\n      dup1\n      iszero\n      tag_1\n      jumpi\n      0x00\n      dup1\n      revert\n    tag_1:\n      pop\n      jumpi(tag_2, lt(calldatasize, 0x04))\n      shr(0xe0, calldataload(0x00))\n      dup1\n      0x0c55699c\n      eq\n      tag_3\n      jumpi\n      dup1\n      0xa56dfe4a\n      eq\n      tag_4\n      jumpi\n      dup1\n      0xc15bae84\n      eq\n      tag_5\n      jumpi\n      dup1\n      0xc5d7802e\n      eq\n      tag_6\n      jumpi\n      dup1\n      0xfd3ab282\n      eq\n      tag_7\n      jumpi\n    tag_2:\n      0x00\n      dup1\n      revert\n        /* \"contracts/defaultVALUE.sol\":89:102  uint public x */\n    tag_3:\n      tag_8\n      tag_9\n      jump\t// in\n    tag_8:\n      mload(0x40)\n      tag_10\n      swap2\n      swap1\n      tag_11\n      jump\t// in\n    tag_10:\n      mload(0x40)\n      dup1\n      swap2\n      sub\n      swap1\n      return\n        /* \"contracts/defaultVALUE.sol\":109:122  bool public y */\n    tag_4:\n      tag_12\n      tag_13\n      jump\t// in\n    tag_12:\n      mload(0x40)\n      tag_14\n      swap2\n      swap1\n      tag_15\n      jump\t// in\n    tag_14:\n      mload(0x40)\n      dup1\n      swap2\n      sub\n      swap1\n      return\n        /* \"contracts/defaultVALUE.sol\":175:192  string public str */\n    tag_5:\n      tag_16\n      tag_17\n      jump\t// in\n    tag_16:\n      mload(0x40)\n      tag_18\n      swap2\n      swap1\n      tag_19\n      jump\t// in\n    tag_18:\n      mload(0x40)\n      dup1\n      swap2\n      sub\n      swap1\n      return\n        /* \"contracts/defaultVALUE.sol\":129:145  address public z */\n    tag_6:\n      tag_20\n      tag_21\n      jump\t// in\n    tag_20:\n      mload(0x40)\n      tag_22\n      swap2\n      swap1\n      tag_23\n      jump\t// in\n    tag_22:\n      mload(0x40)\n      dup1\n      swap2\n      sub\n      swap1\n      return\n        /* \"contracts/defaultVALUE.sol\":152:168  bytes32 public q */\n    tag_7:\n      tag_24\n      tag_25\n      jump\t// in\n    tag_24:\n      mload(0x40)\n      tag_26\n      swap2\n      swap1\n      tag_27\n      jump\t// in\n    tag_26:\n      mload(0x40)\n      dup1\n      swap2\n      sub\n      swap1\n      return\n        /* \"contracts/defaultVALUE.sol\":89:102  uint public x */\n    tag_9:\n      sload(0x00)\n      dup2\n      jump\t// out\n        /* \"contracts/defaultVALUE.sol\":109:122  bool public y */\n    tag_13:\n      0x01\n      0x00\n      swap1\n      sload\n      swap1\n      0x0100\n      exp\n      swap1\n      div\n      0xff\n      and\n      dup2\n      jump\t// out\n        /* \"contracts/defaultVALUE.sol\":175:192  string public str */\n    tag_17:\n      0x03\n      dup1\n      sload\n      tag_28\n      swap1\n      tag_29\n      jump\t// in\n    tag_28:\n      dup1\n      0x1f\n      add\n      0x20\n      dup1\n      swap2\n      div\n      mul\n      0x20\n      add\n      mload(0x40)\n      swap1\n      dup2\n      add\n      0x40\n      mstore\n      dup1\n      swap3\n      swap2\n      swap1\n      dup2\n      dup2\n      mstore\n      0x20\n      add\n      dup3\n      dup1\n      sload\n      tag_30\n      swap1\n      tag_29\n      jump\t// in\n    tag_30:\n      dup1\n      iszero\n      tag_31\n      jumpi\n      dup1\n      0x1f\n      lt\n      tag_32\n      jumpi\n      0x0100\n      dup1\n      dup4\n      sload\n      div\n      mul\n      dup4\n      mstore\n      swap2\n      0x20\n      add\n      swap2\n      jump(tag_31)\n    tag_32:\n      dup3\n      add\n      swap2\n      swap1\n      0x00\n      mstore\n      keccak256(0x00, 0x20)\n      swap1\n    tag_33:\n      dup2\n      sload\n      dup2\n      mstore\n      swap1\n      0x01\n      add\n      swap1\n      0x20\n      add\n      dup1\n      dup4\n      gt\n      tag_33\n      jumpi\n      dup3\n      swap1\n      sub\n      0x1f\n      and\n      dup3\n      add\n      swap2\n    tag_31:\n      pop\n      pop\n      pop\n      pop\n      pop\n      dup2\n      jump\t// out\n        /* \"contracts/defaultVALUE.sol\":129:145  address public z */\n    tag_21:\n      0x01\n      dup1\n      sload\n      swap1\n      0x0100\n      exp\n      swap1\n      div\n      0xffffffffffffffffffffffffffffffffffffffff\n      and\n      dup2\n      jump\t// out\n        /* \"contracts/defaultVALUE.sol\":152:168  bytes32 public q */\n    tag_25:\n      sload(0x02)\n      dup2\n      jump\t// out\n        /* \"#utility.yul\":7:125   */\n    tag_35:\n        /* \"#utility.yul\":94:118   */\n      tag_37\n        /* \"#utility.yul\":112:117   */\n      dup2\n        /* \"#utility.yul\":94:118   */\n      tag_38\n      jump\t// in\n    tag_37:\n        /* \"#utility.yul\":89:92   */\n      dup3\n        /* \"#utility.yul\":82:119   */\n      mstore\n        /* \"#utility.yul\":72:125   */\n      pop\n      pop\n      jump\t// out\n        /* \"#utility.yul\":131:240   */\n    tag_39:\n        /* \"#utility.yul\":212:233   */\n      tag_41\n        /* \"#utility.yul\":227:232   */\n      dup2\n        /* \"#utility.yul\":212:233   */\n      tag_42\n      jump\t// in\n    tag_41:\n        /* \"#utility.yul\":207:210   */\n      dup3\n        /* \"#utility.yul\":200:234   */\n      mstore\n        /* \"#utility.yul\":190:240   */\n      pop\n      pop\n      jump\t// out\n        /* \"#utility.yul\":246:364   */\n    tag_43:\n        /* \"#utility.yul\":333:357   */\n      tag_45\n        /* \"#utility.yul\":351:356   */\n      dup2\n        /* \"#utility.yul\":333:357   */\n      tag_46\n      jump\t// in\n    tag_45:\n        /* \"#utility.yul\":328:331   */\n      dup3\n        /* \"#utility.yul\":321:358   */\n      mstore\n        /* \"#utility.yul\":311:364   */\n      pop\n      pop\n      jump\t// out\n        /* \"#utility.yul\":370:734   */\n    tag_47:\n      0x00\n        /* \"#utility.yul\":486:525   */\n      tag_49\n        /* \"#utility.yul\":519:524   */\n      dup3\n        /* \"#utility.yul\":486:525   */\n      tag_50\n      jump\t// in\n    tag_49:\n        /* \"#utility.yul\":541:612   */\n      tag_51\n        /* \"#utility.yul\":605:611   */\n      dup2\n        /* \"#utility.yul\":600:603   */\n      dup6\n        /* \"#utility.yul\":541:612   */\n      tag_52\n      jump\t// in\n    tag_51:\n        /* \"#utility.yul\":534:612   */\n      swap4\n      pop\n        /* \"#utility.yul\":621:673   */\n      tag_53\n        /* \"#utility.yul\":666:672   */\n      dup2\n        /* \"#utility.yul\":661:664   */\n      dup6\n        /* \"#utility.yul\":654:658   */\n      0x20\n        /* \"#utility.yul\":647:652   */\n      dup7\n        /* \"#utility.yul\":643:659   */\n      add\n        /* \"#utility.yul\":621:673   */\n      tag_54\n      jump\t// in\n    tag_53:\n        /* \"#utility.yul\":698:727   */\n      tag_55\n        /* \"#utility.yul\":720:726   */\n      dup2\n        /* \"#utility.yul\":698:727   */\n      tag_56\n      jump\t// in\n    tag_55:\n        /* \"#utility.yul\":693:696   */\n      dup5\n        /* \"#utility.yul\":689:728   */\n      add\n        /* \"#utility.yul\":682:728   */\n      swap2\n      pop\n        /* \"#utility.yul\":462:734   */\n      pop\n      swap3\n      swap2\n      pop\n      pop\n      jump\t// out\n        /* \"#utility.yul\":740:858   */\n    tag_57:\n        /* \"#utility.yul\":827:851   */\n      tag_59\n        /* \"#utility.yul\":845:850   */\n      dup2\n        /* \"#utility.yul\":827:851   */\n      tag_60\n      jump\t// in\n    tag_59:\n        /* \"#utility.yul\":822:825   */\n      dup3\n        /* \"#utility.yul\":815:852   */\n      mstore\n        /* \"#utility.yul\":805:858   */\n      pop\n      pop\n      jump\t// out\n        /* \"#utility.yul\":864:1086   */\n    tag_23:\n      0x00\n        /* \"#utility.yul\":995:997   */\n      0x20\n        /* \"#utility.yul\":984:993   */\n      dup3\n        /* \"#utility.yul\":980:998   */\n      add\n        /* \"#utility.yul\":972:998   */\n      swap1\n      pop\n        /* \"#utility.yul\":1008:1079   */\n      tag_62\n        /* \"#utility.yul\":1076:1077   */\n      0x00\n        /* \"#utility.yul\":1065:1074   */\n      dup4\n        /* \"#utility.yul\":1061:1078   */\n      add\n        /* \"#utility.yul\":1052:1058   */\n      dup5\n        /* \"#utility.yul\":1008:1079   */\n      tag_35\n      jump\t// in\n    tag_62:\n        /* \"#utility.yul\":962:1086   */\n      swap3\n      swap2\n      pop\n      pop\n      jump\t// out\n        /* \"#utility.yul\":1092:1302   */\n    tag_15:\n      0x00\n        /* \"#utility.yul\":1217:1219   */\n      0x20\n        /* \"#utility.yul\":1206:1215   */\n      dup3\n        /* \"#utility.yul\":1202:1220   */\n      add\n        /* \"#utility.yul\":1194:1220   */\n      swap1\n      pop\n        /* \"#utility.yul\":1230:1295   */\n      tag_64\n        /* \"#utility.yul\":1292:1293   */\n      0x00\n        /* \"#utility.yul\":1281:1290   */\n      dup4\n        /* \"#utility.yul\":1277:1294   */\n      add\n        /* \"#utility.yul\":1268:1274   */\n      dup5\n        /* \"#utility.yul\":1230:1295   */\n      tag_39\n      jump\t// in\n    tag_64:\n        /* \"#utility.yul\":1184:1302   */\n      swap3\n      swap2\n      pop\n      pop\n      jump\t// out\n        /* \"#utility.yul\":1308:1530   */\n    tag_27:\n      0x00\n        /* \"#utility.yul\":1439:1441   */\n      0x20\n        /* \"#utility.yul\":1428:1437   */\n      dup3\n        /* \"#utility.yul\":1424:1442   */\n      add\n        /* \"#utility.yul\":1416:1442   */\n      swap1\n      pop\n        /* \"#utility.yul\":1452:1523   */\n      tag_66\n        /* \"#utility.yul\":1520:1521   */\n      0x00\n        /* \"#utility.yul\":1509:1518   */\n      dup4\n        /* \"#utility.yul\":1505:1522   */\n      add\n        /* \"#utility.yul\":1496:1502   */\n      dup5\n        /* \"#utility.yul\":1452:1523   */\n      tag_43\n      jump\t// in\n    tag_66:\n        /* \"#utility.yul\":1406:1530   */\n      swap3\n      swap2\n      pop\n      pop\n      jump\t// out\n        /* \"#utility.yul\":1536:1849   */\n    tag_19:\n      0x00\n        /* \"#utility.yul\":1687:1689   */\n      0x20\n        /* \"#utility.yul\":1676:1685   */\n      dup3\n        /* \"#utility.yul\":1672:1690   */\n      add\n        /* \"#utility.yul\":1664:1690   */\n      swap1\n      pop\n        /* \"#utility.yul\":1736:1745   */\n      dup2\n        /* \"#utility.yul\":1730:1734   */\n      dup2\n        /* \"#utility.yul\":1726:1746   */\n      sub\n        /* \"#utility.yul\":1722:1723   */\n      0x00\n        /* \"#utility.yul\":1711:1720   */\n      dup4\n        /* \"#utility.yul\":1707:1724   */\n      add\n        /* \"#utility.yul\":1700:1747   */\n      mstore\n        /* \"#utility.yul\":1764:1842   */\n      tag_68\n        /* \"#utility.yul\":1837:1841   */\n      dup2\n        /* \"#utility.yul\":1828:1834   */\n      dup5\n        /* \"#utility.yul\":1764:1842   */\n      tag_47\n      jump\t// in\n    tag_68:\n        /* \"#utility.yul\":1756:1842   */\n      swap1\n      pop\n        /* \"#utility.yul\":1654:1849   */\n      swap3\n      swap2\n      pop\n      pop\n      jump\t// out\n        /* \"#utility.yul\":1855:2077   */\n    tag_11:\n      0x00\n        /* \"#utility.yul\":1986:1988   */\n      0x20\n        /* \"#utility.yul\":1975:1984   */\n      dup3\n        /* \"#utility.yul\":1971:1989   */\n      add\n        /* \"#utility.yul\":1963:1989   */\n      swap1\n      pop\n        /* \"#utility.yul\":1999:2070   */\n      tag_70\n        /* \"#utility.yul\":2067:2068   */\n      0x00\n        /* \"#utility.yul\":2056:2065   */\n      dup4\n        /* \"#utility.yul\":2052:2069   */\n      add\n        /* \"#utility.yul\":2043:2049   */\n      dup5\n        /* \"#utility.yul\":1999:2070   */\n      tag_57\n      jump\t// in\n    tag_70:\n        /* \"#utility.yul\":1953:2077   */\n      swap3\n      swap2\n      pop\n      pop\n      jump\t// out\n        /* \"#utility.yul\":2083:2182   */\n    tag_50:\n      0x00\n        /* \"#utility.yul\":2169:2174   */\n      dup2\n        /* \"#utility.yul\":2163:2175   */\n      mload\n        /* \"#utility.yul\":2153:2175   */\n      swap1\n      pop\n        /* \"#utility.yul\":2142:2182   */\n      swap2\n      swap1\n      pop\n      jump\t// out\n        /* \"#utility.yul\":2188:2357   */\n    tag_52:\n      0x00\n        /* \"#utility.yul\":2306:2312   */\n      dup3\n        /* \"#utility.yul\":2301:2304   */\n      dup3\n        /* \"#utility.yul\":2294:2313   */\n      mstore\n        /* \"#utility.yul\":2346:2350   */\n      0x20\n        /* \"#utility.yul\":2341:2344   */\n      dup3\n        /* \"#utility.yul\":2337:2351   */\n      add\n        /* \"#utility.yul\":2322:2351   */\n      swap1\n      pop\n        /* \"#utility.yul\":2284:2357   */\n      swap3\n      swap2\n      pop\n      pop\n      jump\t// out\n        /* \"#utility.yul\":2363:2459   */\n    tag_38:\n      0x00\n        /* \"#utility.yul\":2429:2453   */\n      tag_74\n        /* \"#utility.yul\":2447:2452   */\n      dup3\n        /* \"#utility.yul\":2429:2453   */\n      tag_75\n      jump\t// in\n    tag_74:\n        /* \"#utility.yul\":2418:2453   */\n      swap1\n      pop\n        /* \"#utility.yul\":2408:2459   */\n      swap2\n      swap1\n      pop\n      jump\t// out\n        /* \"#utility.yul\":2465:2555   */\n    tag_42:\n      0x00\n        /* \"#utility.yul\":2542:2547   */\n      dup2\n        /* \"#utility.yul\":2535:2548   */\n      iszero\n        /* \"#utility.yul\":2528:2549   */\n      iszero\n        /* \"#utility.yul\":2517:2549   */\n      swap1\n      pop\n        /* \"#utility.yul\":2507:2555   */\n      swap2\n      swap1\n      pop\n      jump\t// out\n        /* \"#utility.yul\":2561:2638   */\n    tag_46:\n      0x00\n        /* \"#utility.yul\":2627:2632   */\n      dup2\n        /* \"#utility.yul\":2616:2632   */\n      swap1\n      pop\n        /* \"#utility.yul\":2606:2638   */\n      swap2\n      swap1\n      pop\n      jump\t// out\n        /* \"#utility.yul\":2644:2770   */\n    tag_75:\n      0x00\n        /* \"#utility.yul\":2721:2763   */\n      0xffffffffffffffffffffffffffffffffffffffff\n        /* \"#utility.yul\":2714:2719   */\n      dup3\n        /* \"#utility.yul\":2710:2764   */\n      and\n        /* \"#utility.yul\":2699:2764   */\n      swap1\n      pop\n        /* \"#utility.yul\":2689:2770   */\n      swap2\n      swap1\n      pop\n      jump\t// out\n        /* \"#utility.yul\":2776:2853   */\n    tag_60:\n      0x00\n        /* \"#utility.yul\":2842:2847   */\n      dup2\n        /* \"#utility.yul\":2831:2847   */\n      swap1\n      pop\n        /* \"#utility.yul\":2821:2853   */\n      swap2\n      swap1\n      pop\n      jump\t// out\n        /* \"#utility.yul\":2859:3166   */\n    tag_54:\n        /* \"#utility.yul\":2927:2928   */\n      0x00\n        /* \"#utility.yul\":2937:3050   */\n    tag_81:\n        /* \"#utility.yul\":2951:2957   */\n      dup4\n        /* \"#utility.yul\":2948:2949   */\n      dup2\n        /* \"#utility.yul\":2945:2958   */\n      lt\n        /* \"#utility.yul\":2937:3050   */\n      iszero\n      tag_83\n      jumpi\n        /* \"#utility.yul\":3036:3037   */\n      dup1\n        /* \"#utility.yul\":3031:3034   */\n      dup3\n        /* \"#utility.yul\":3027:3038   */\n      add\n        /* \"#utility.yul\":3021:3039   */\n      mload\n        /* \"#utility.yul\":3017:3018   */\n      dup2\n        /* \"#utility.yul\":3012:3015   */\n      dup5\n        /* \"#utility.yul\":3008:3019   */\n      add\n        /* \"#utility.yul\":3001:3040   */\n      mstore\n        /* \"#utility.yul\":2973:2975   */\n      0x20\n        /* \"#utility.yul\":2970:2971   */\n      dup2\n        /* \"#utility.yul\":2966:2976   */\n      add\n        /* \"#utility.yul\":2961:2976   */\n      swap1\n      pop\n        /* \"#utility.yul\":2937:3050   */\n      jump(tag_81)\n    tag_83:\n        /* \"#utility.yul\":3068:3074   */\n      dup4\n        /* \"#utility.yul\":3065:3066   */\n      dup2\n        /* \"#utility.yul\":3062:3075   */\n      gt\n        /* \"#utility.yul\":3059:3061   */\n      iszero\n      tag_84\n      jumpi\n        /* \"#utility.yul\":3148:3149   */\n      0x00\n        /* \"#utility.yul\":3139:3145   */\n      dup5\n        /* \"#utility.yul\":3134:3137   */\n      dup5\n        /* \"#utility.yul\":3130:3146   */\n      add\n        /* \"#utility.yul\":3123:3150   */\n      mstore\n        /* \"#utility.yul\":3059:3061   */\n    tag_84:\n        /* \"#utility.yul\":2908:3166   */\n      pop\n      pop\n      pop\n      pop\n      jump\t// out\n        /* \"#utility.yul\":3172:3492   */\n    tag_29:\n      0x00\n        /* \"#utility.yul\":3253:3254   */\n      0x02\n        /* \"#utility.yul\":3247:3251   */\n      dup3\n        /* \"#utility.yul\":3243:3255   */\n      div\n        /* \"#utility.yul\":3233:3255   */\n      swap1\n      pop\n        /* \"#utility.yul\":3300:3301   */\n      0x01\n        /* \"#utility.yul\":3294:3298   */\n      dup3\n        /* \"#utility.yul\":3290:3302   */\n      and\n        /* \"#utility.yul\":3321:3339   */\n      dup1\n        /* \"#utility.yul\":3311:3313   */\n      tag_86\n      jumpi\n        /* \"#utility.yul\":3377:3381   */\n      0x7f\n        /* \"#utility.yul\":3369:3375   */\n      dup3\n        /* \"#utility.yul\":3365:3382   */\n      and\n        /* \"#utility.yul\":3355:3382   */\n      swap2\n      pop\n        /* \"#utility.yul\":3311:3313   */\n    tag_86:\n        /* \"#utility.yul\":3439:3441   */\n      0x20\n        /* \"#utility.yul\":3431:3437   */\n      dup3\n        /* \"#utility.yul\":3428:3442   */\n      lt\n        /* \"#utility.yul\":3408:3426   */\n      dup2\n        /* \"#utility.yul\":3405:3443   */\n      eq\n        /* \"#utility.yul\":3402:3404   */\n      iszero\n      tag_87\n      jumpi\n        /* \"#utility.yul\":3458:3476   */\n      tag_88\n      tag_89\n      jump\t// in\n    tag_88:\n        /* \"#utility.yul\":3402:3404   */\n    tag_87:\n        /* \"#utility.yul\":3223:3492   */\n      pop\n      swap2\n      swap1\n      pop\n      jump\t// out\n        /* \"#utility.yul\":3498:3678   */\n    tag_89:\n        /* \"#utility.yul\":3546:3623   */\n      0x4e487b7100000000000000000000000000000000000000000000000000000000\n        /* \"#utility.yul\":3543:3544   */\n      0x00\n        /* \"#utility.yul\":3536:3624   */\n      mstore\n        /* \"#utility.yul\":3643:3647   */\n      0x22\n        /* \"#utility.yul\":3640:3641   */\n      0x04\n        /* \"#utility.yul\":3633:3648   */\n      mstore\n        /* \"#utility.yul\":3667:3671   */\n      0x24\n        /* \"#utility.yul\":3664:3665   */\n      0x00\n        /* \"#utility.yul\":3657:3672   */\n      revert\n        /* \"#utility.yul\":3684:3786   */\n    tag_56:\n      0x00\n        /* \"#utility.yul\":3776:3778   */\n      0x1f\n        /* \"#utility.yul\":3772:3779   */\n      not\n        /* \"#utility.yul\":3767:3769   */\n      0x1f\n        /* \"#utility.yul\":3760:3765   */\n      dup4\n        /* \"#utility.yul\":3756:3770   */\n      add\n        /* \"#utility.yul\":3752:3780   */\n      and\n        /* \"#utility.yul\":3742:3780   */\n      swap1\n      pop\n        /* \"#utility.yul\":3732:3786   */\n      swap2\n      swap1\n      pop\n      jump\t// out\n\n    auxdata: 0xa2646970667358221220aecc367d2bf6b20cb72caaae29f28391faeb7f34713c130d7c58cecee985463164736f6c63430008000033\n}\n",
				"bytecode": {
					"linkReferences": {},
					"object": "608060405234801561001057600080fd5b5061040f806100206000396000f3fe608060405234801561001057600080fd5b50600436106100575760003560e01c80630c55699c1461005c578063a56dfe4a1461007a578063c15bae8414610098578063c5d7802e146100b6578063fd3ab282146100d4575b600080fd5b6100646100f2565b60405161007191906102ab565b60405180910390f35b6100826100f8565b60405161008f9190610253565b60405180910390f35b6100a061010b565b6040516100ad9190610289565b60405180910390f35b6100be610199565b6040516100cb9190610238565b60405180910390f35b6100dc6101bd565b6040516100e9919061026e565b60405180910390f35b60005481565b600160009054906101000a900460ff1681565b6003805461011890610367565b80601f016020809104026020016040519081016040528092919081815260200182805461014490610367565b80156101915780601f1061016657610100808354040283529160200191610191565b820191906000526020600020905b81548152906001019060200180831161017457829003601f168201915b505050505081565b60018054906101000a900473ffffffffffffffffffffffffffffffffffffffff1681565b60025481565b6101cc816102e2565b82525050565b6101db816102f4565b82525050565b6101ea81610300565b82525050565b60006101fb826102c6565b61020581856102d1565b9350610215818560208601610334565b61021e816103c8565b840191505092915050565b6102328161032a565b82525050565b600060208201905061024d60008301846101c3565b92915050565b600060208201905061026860008301846101d2565b92915050565b600060208201905061028360008301846101e1565b92915050565b600060208201905081810360008301526102a381846101f0565b905092915050565b60006020820190506102c06000830184610229565b92915050565b600081519050919050565b600082825260208201905092915050565b60006102ed8261030a565b9050919050565b60008115159050919050565b6000819050919050565b600073ffffffffffffffffffffffffffffffffffffffff82169050919050565b6000819050919050565b60005b83811015610352578082015181840152602081019050610337565b83811115610361576000848401525b50505050565b6000600282049050600182168061037f57607f821691505b6020821081141561039357610392610399565b5b50919050565b7f4e487b7100000000000000000000000000000000000000000000000000000000600052602260045260246000fd5b6000601f19601f830116905091905056fea2646970667358221220aecc367d2bf6b20cb72caaae29f28391faeb7f34713c130d7c58cecee985463164736f6c63430008000033",
					"opcodes": "PUSH1 0x80 PUSH1 0x40 MSTORE CALLVALUE DUP1 ISZERO PUSH2 0x10 JUMPI PUSH1 0x0 DUP1 REVERT JUMPDEST POP PUSH2 0x40F DUP1 PUSH2 0x20 PUSH1 0x0 CODECOPY PUSH1 0x0 RETURN INVALID PUSH1 0x80 PUSH1 0x40 MSTORE CALLVALUE DUP1 ISZERO PUSH2 0x10 JUMPI PUSH1 0x0 DUP1 REVERT JUMPDEST POP PUSH1 0x4 CALLDATASIZE LT PUSH2 0x57 JUMPI PUSH1 0x0 CALLDATALOAD PUSH1 0xE0 SHR DUP1 PUSH4 0xC55699C EQ PUSH2 0x5C JUMPI DUP1 PUSH4 0xA56DFE4A EQ PUSH2 0x7A JUMPI DUP1 PUSH4 0xC15BAE84 EQ PUSH2 0x98 JUMPI DUP1 PUSH4 0xC5D7802E EQ PUSH2 0xB6 JUMPI DUP1 PUSH4 0xFD3AB282 EQ PUSH2 0xD4 JUMPI JUMPDEST PUSH1 0x0 DUP1 REVERT JUMPDEST PUSH2 0x64 PUSH2 0xF2 JUMP JUMPDEST PUSH1 0x40 MLOAD PUSH2 0x71 SWAP2 SWAP1 PUSH2 0x2AB JUMP JUMPDEST PUSH1 0x40 MLOAD DUP1 SWAP2 SUB SWAP1 RETURN JUMPDEST PUSH2 0x82 PUSH2 0xF8 JUMP JUMPDEST PUSH1 0x40 MLOAD PUSH2 0x8F SWAP2 SWAP1 PUSH2 0x253 JUMP JUMPDEST PUSH1 0x40 MLOAD DUP1 SWAP2 SUB SWAP1 RETURN JUMPDEST PUSH2 0xA0 PUSH2 0x10B JUMP JUMPDEST PUSH1 0x40 MLOAD PUSH2 0xAD SWAP2 SWAP1 PUSH2 0x289 JUMP JUMPDEST PUSH1 0x40 MLOAD DUP1 SWAP2 SUB SWAP1 RETURN JUMPDEST PUSH2 0xBE PUSH2 0x199 JUMP JUMPDEST PUSH1 0x40 MLOAD PUSH2 0xCB SWAP2 SWAP1 PUSH2 0x238 JUMP JUMPDEST PUSH1 0x40 MLOAD DUP1 SWAP2 SUB SWAP1 RETURN JUMPDEST PUSH2 0xDC PUSH2 0x1BD JUMP JUMPDEST PUSH1 0x40 MLOAD PUSH2 0xE9 SWAP2 SWAP1 PUSH2 0x26E JUMP JUMPDEST PUSH1 0x40 MLOAD DUP1 SWAP2 SUB SWAP1 RETURN JUMPDEST PUSH1 0x0 SLOAD DUP2 JUMP JUMPDEST PUSH1 0x1 PUSH1 0x0 SWAP1 SLOAD SWAP1 PUSH2 0x100 EXP SWAP1 DIV PUSH1 0xFF AND DUP2 JUMP JUMPDEST PUSH1 0x3 DUP1 SLOAD PUSH2 0x118 SWAP1 PUSH2 0x367 JUMP JUMPDEST DUP1 PUSH1 0x1F ADD PUSH1 0x20 DUP1 SWAP2 DIV MUL PUSH1 0x20 ADD PUSH1 0x40 MLOAD SWAP1 DUP2 ADD PUSH1 0x40 MSTORE DUP1 SWAP3 SWAP2 SWAP1 DUP2 DUP2 MSTORE PUSH1 0x20 ADD DUP3 DUP1 SLOAD PUSH2 0x144 SWAP1 PUSH2 0x367 JUMP JUMPDEST DUP1 ISZERO PUSH2 0x191 JUMPI DUP1 PUSH1 0x1F LT PUSH2 0x166 JUMPI PUSH2 0x100 DUP1 DUP4 SLOAD DIV MUL DUP4 MSTORE SWAP2 PUSH1 0x20 ADD SWAP2 PUSH2 0x191 JUMP JUMPDEST DUP3 ADD SWAP2 SWAP1 PUSH1 0x0 MSTORE PUSH1 0x20 PUSH1 0x0 KECCAK256 SWAP1 JUMPDEST DUP2 SLOAD DUP2 MSTORE SWAP1 PUSH1 0x1 ADD SWAP1 PUSH1 0x20 ADD DUP1 DUP4 GT PUSH2 0x174 JUMPI DUP3 SWAP1 SUB PUSH1 0x1F AND DUP3 ADD SWAP2 JUMPDEST POP POP POP POP POP DUP2 JUMP JUMPDEST PUSH1 0x1 DUP1 SLOAD SWAP1 PUSH2 0x100 EXP SWAP1 DIV PUSH20 0xFFFFFFFFFFFFFFFFFFFFFFFFFFFFFFFFFFFFFFFF AND DUP2 JUMP JUMPDEST PUSH1 0x2 SLOAD DUP2 JUMP JUMPDEST PUSH2 0x1CC DUP2 PUSH2 0x2E2 JUMP JUMPDEST DUP3 MSTORE POP POP JUMP JUMPDEST PUSH2 0x1DB DUP2 PUSH2 0x2F4 JUMP JUMPDEST DUP3 MSTORE POP POP JUMP JUMPDEST PUSH2 0x1EA DUP2 PUSH2 0x300 JUMP JUMPDEST DUP3 MSTORE POP POP JUMP JUMPDEST PUSH1 0x0 PUSH2 0x1FB DUP3 PUSH2 0x2C6 JUMP JUMPDEST PUSH2 0x205 DUP2 DUP6 PUSH2 0x2D1 JUMP JUMPDEST SWAP4 POP PUSH2 0x215 DUP2 DUP6 PUSH1 0x20 DUP7 ADD PUSH2 0x334 JUMP JUMPDEST PUSH2 0x21E DUP2 PUSH2 0x3C8 JUMP JUMPDEST DUP5 ADD SWAP2 POP POP SWAP3 SWAP2 POP POP JUMP JUMPDEST PUSH2 0x232 DUP2 PUSH2 0x32A JUMP JUMPDEST DUP3 MSTORE POP POP JUMP JUMPDEST PUSH1 0x0 PUSH1 0x20 DUP3 ADD SWAP1 POP PUSH2 0x24D PUSH1 0x0 DUP4 ADD DUP5 PUSH2 0x1C3 JUMP JUMPDEST SWAP3 SWAP2 POP POP JUMP JUMPDEST PUSH1 0x0 PUSH1 0x20 DUP3 ADD SWAP1 POP PUSH2 0x268 PUSH1 0x0 DUP4 ADD DUP5 PUSH2 0x1D2 JUMP JUMPDEST SWAP3 SWAP2 POP POP JUMP JUMPDEST PUSH1 0x0 PUSH1 0x20 DUP3 ADD SWAP1 POP PUSH2 0x283 PUSH1 0x0 DUP4 ADD DUP5 PUSH2 0x1E1 JUMP JUMPDEST SWAP3 SWAP2 POP POP JUMP JUMPDEST PUSH1 0x0 PUSH1 0x20 DUP3 ADD SWAP1 POP DUP2 DUP2 SUB PUSH1 0x0 DUP4 ADD MSTORE PUSH2 0x2A3 DUP2 DUP5 PUSH2 0x1F0 JUMP JUMPDEST SWAP1 POP SWAP3 SWAP2 POP POP JUMP JUMPDEST PUSH1 0x0 PUSH1 0x20 DUP3 ADD SWAP1 POP PUSH2 0x2C0 PUSH1 0x0 DUP4 ADD DUP5 PUSH2 0x229 JUMP JUMPDEST SWAP3 SWAP2 POP POP JUMP JUMPDEST PUSH1 0x0 DUP2 MLOAD SWAP1 POP SWAP2 SWAP1 POP JUMP JUMPDEST PUSH1 0x0 DUP3 DUP3 MSTORE PUSH1 0x20 DUP3 ADD SWAP1 POP SWAP3 SWAP2 POP POP JUMP JUMPDEST PUSH1 0x0 PUSH2 0x2ED DUP3 PUSH2 0x30A JUMP JUMPDEST SWAP1 POP SWAP2 SWAP1 POP JUMP JUMPDEST PUSH1 0x0 DUP2 ISZERO ISZERO SWAP1 POP SWAP2 SWAP1 POP JUMP JUMPDEST PUSH1 0x0 DUP2 SWAP1 POP SWAP2 SWAP1 POP JUMP JUMPDEST PUSH1 0x0 PUSH20 0xFFFFFFFFFFFFFFFFFFFFFFFFFFFFFFFFFFFFFFFF DUP3 AND SWAP1 POP SWAP2 SWAP1 POP JUMP JUMPDEST PUSH1 0x0 DUP2 SWAP1 POP SWAP2 SWAP1 POP JUMP JUMPDEST PUSH1 0x0 JUMPDEST DUP4 DUP2 LT ISZERO PUSH2 0x352 JUMPI DUP1 DUP3 ADD MLOAD DUP2 DUP5 ADD MSTORE PUSH1 0x20 DUP2 ADD SWAP1 POP PUSH2 0x337 JUMP JUMPDEST DUP4 DUP2 GT ISZERO PUSH2 0x361 JUMPI PUSH1 0x0 DUP5 DUP5 ADD MSTORE JUMPDEST POP POP POP POP JUMP JUMPDEST PUSH1 0x0 PUSH1 0x2 DUP3 DIV SWAP1 POP PUSH1 0x1 DUP3 AND DUP1 PUSH2 0x37F JUMPI PUSH1 0x7F DUP3 AND SWAP2 POP JUMPDEST PUSH1 0x20 DUP3 LT DUP2 EQ ISZERO PUSH2 0x393 JUMPI PUSH2 0x392 PUSH2 0x399 JUMP JUMPDEST JUMPDEST POP SWAP2 SWAP1 POP JUMP JUMPDEST PUSH32 0x4E487B7100000000000000000000000000000000000000000000000000000000 PUSH1 0x0 MSTORE PUSH1 0x22 PUSH1 0x4 MSTORE PUSH1 0x24 PUSH1 0x0 REVERT JUMPDEST PUSH1 0x0 PUSH1 0x1F NOT PUSH1 0x1F DUP4 ADD AND SWAP1 POP SWAP2 SWAP1 POP JUMP INVALID LOG2 PUSH5 0x6970667358 0x22 SLT KECCAK256 0xAE 0xCC CALLDATASIZE PUSH30 0x2BF6B20CB72CAAAE29F28391FAEB7F34713C130D7C58CECEE98546316473 PUSH16 0x6C634300080000330000000000000000 "
				},
				"gasEstimates": {
					"creation": {
						"codeDepositCost": "207800",
						"executionCost": "251",
						"totalCost": "208051"
					},
					"external": {
						"q()": "1195",
						"str()": "infinite",
						"x()": "1107",
						"y()": "1171",
						"z()": "1305"
					}
				},
				"methodIdentifiers": {
					"q()": "fd3ab282",
					"str()": "c15bae84",
					"x()": "0c55699c",
					"y()": "a56dfe4a",
					"z()": "c5d7802e"
				}
			},
			"storageLayout": {
				"storage": [
					{
						"astId": 3,
						"contract": "contracts/defaultVALUE.sol:defaulvalue",
						"label": "x",
						"offset": 0,
						"slot": "0",
						"type": "t_uint256"
					},
					{
						"astId": 5,
						"contract": "contracts/defaultVALUE.sol:defaulvalue",
						"label": "y",
						"offset": 0,
						"slot": "1",
						"type": "t_bool"
					},
					{
						"astId": 7,
						"contract": "contracts/defaultVALUE.sol:defaulvalue",
						"label": "z",
						"offset": 1,
						"slot": "1",
						"type": "t_address"
					},
					{
						"astId": 9,
						"contract": "contracts/defaultVALUE.sol:defaulvalue",
						"label": "q",
						"offset": 0,
						"slot": "2",
						"type": "t_bytes32"
					},
					{
						"astId": 11,
						"contract": "contracts/defaultVALUE.sol:defaulvalue",
						"label": "str",
						"offset": 0,
						"slot": "3",
						"type": "t_string_storage"
					}
				],
				"types": {
					"t_address": {
						"encoding": "inplace",
						"label": "address",
						"numberOfBytes": "20"
					},
					"t_bool": {
						"encoding": "inplace",
						"label": "bool",
						"numberOfBytes": "1"
					},
					"t_bytes32": {
						"encoding": "inplace",
						"label": "bytes32",
						"numberOfBytes": "32"
					},
					"t_string_storage": {
						"encoding": "bytes",
						"label": "string",
						"numberOfBytes": "32"
					},
					"t_uint256": {
						"encoding": "inplace",
						"label": "uint256",
						"numberOfBytes": "32"
					}
				}
			},
			"userdoc": {
				"kind": "user",
				"methods": {},
				"version": 1
			}
		}
	}
}