{
	"data": {
		"bytecode": {
			"linkReferences": {},
			"object": "608060405234801561001057600080fd5b506105a9806100206000396000f3fe608060405234801561001057600080fd5b506004361061004c5760003560e01c8063a35248a414610051578063a8fc48fa1461006d578063f7d6976014610089578063fae9407f146100a5575b600080fd5b61006b6004803603810190610066919061027e565b6100c1565b005b6100876004803603810190610082919061037c565b6100c4565b005b6100a3600480360381019061009e919061044f565b6100d1565b005b6100bf60048036038101906100ba91906104f2565b6100d5565b005b50565b6100cd816100c1565b5050565b5050565b50505050565b6000604051905090565b600080fd5b600080fd5b600080fd5b6000601f19601f8301169050919050565b7f4e487b7100000000000000000000000000000000000000000000000000000000600052604160045260246000fd5b61013d826100f4565b810181811067ffffffffffffffff8211171561015c5761015b610105565b5b80604052505050565b600061016f6100db565b905061017b8282610134565b919050565b600067ffffffffffffffff82111561019b5761019a610105565b5b602082029050602081019050919050565b600080fd5b6000819050919050565b6101c4816101b1565b81146101cf57600080fd5b50565b6000813590506101e1816101bb565b92915050565b60006101fa6101f584610180565b610165565b9050808382526020820190506020840283018581111561021d5761021c6101ac565b5b835b81811015610246578061023288826101d2565b84526020840193505060208101905061021f565b5050509392505050565b600082601f830112610265576102646100ef565b5b81356102758482602086016101e7565b91505092915050565b600060208284031215610294576102936100e5565b5b600082013567ffffffffffffffff8111156102b2576102b16100ea565b5b6102be84828501610250565b91505092915050565b600080fd5b600067ffffffffffffffff8211156102e7576102e6610105565b5b6102f0826100f4565b9050602081019050919050565b82818337600083830152505050565b600061031f61031a846102cc565b610165565b90508281526020810184848401111561033b5761033a6102c7565b5b6103468482856102fd565b509392505050565b600082601f830112610363576103626100ef565b5b813561037384826020860161030c565b91505092915050565b60008060408385031215610393576103926100e5565b5b600083013567ffffffffffffffff8111156103b1576103b06100ea565b5b6103bd8582860161034e565b925050602083013567ffffffffffffffff8111156103de576103dd6100ea565b5b6103ea85828601610250565b9150509250929050565b600080fd5b60008083601f84011261040f5761040e6100ef565b5b8235905067ffffffffffffffff81111561042c5761042b6103f4565b5b602083019150836020820283011115610448576104476101ac565b5b9250929050565b60008060208385031215610466576104656100e5565b5b600083013567ffffffffffffffff811115610484576104836100ea565b5b610490858286016103f9565b92509250509250929050565b60008083601f8401126104b2576104b16100ef565b5b8235905067ffffffffffffffff8111156104cf576104ce6103f4565b5b6020830191508360018202830111156104eb576104ea6101ac565b5b9250929050565b6000806000806040858703121561050c5761050b6100e5565b5b600085013567ffffffffffffffff81111561052a576105296100ea565b5b6105368782880161049c565b9450945050602085013567ffffffffffffffff811115610559576105586100ea565b5b610565878288016103f9565b92509250509295919450925056fea26469706673582212206b5aa9d199358985a5fcfb0aa0494d8135a6a3d083a9e856cc08222f89ce5c0564736f6c63430008110033",
			"opcodes": "PUSH1 0x80 PUSH1 0x40 MSTORE CALLVALUE DUP1 ISZERO PUSH2 0x10 JUMPI PUSH1 0x0 DUP1 REVERT JUMPDEST POP PUSH2 0x5A9 DUP1 PUSH2 0x20 PUSH1 0x0 CODECOPY PUSH1 0x0 RETURN INVALID PUSH1 0x80 PUSH1 0x40 MSTORE CALLVALUE DUP1 ISZERO PUSH2 0x10 JUMPI PUSH1 0x0 DUP1 REVERT JUMPDEST POP PUSH1 0x4 CALLDATASIZE LT PUSH2 0x4C JUMPI PUSH1 0x0 CALLDATALOAD PUSH1 0xE0 SHR DUP1 PUSH4 0xA35248A4 EQ PUSH2 0x51 JUMPI DUP1 PUSH4 0xA8FC48FA EQ PUSH2 0x6D JUMPI DUP1 PUSH4 0xF7D69760 EQ PUSH2 0x89 JUMPI DUP1 PUSH4 0xFAE9407F EQ PUSH2 0xA5 JUMPI JUMPDEST PUSH1 0x0 DUP1 REVERT JUMPDEST PUSH2 0x6B PUSH1 0x4 DUP1 CALLDATASIZE SUB DUP2 ADD SWAP1 PUSH2 0x66 SWAP2 SWAP1 PUSH2 0x27E JUMP JUMPDEST PUSH2 0xC1 JUMP JUMPDEST STOP JUMPDEST PUSH2 0x87 PUSH1 0x4 DUP1 CALLDATASIZE SUB DUP2 ADD SWAP1 PUSH2 0x82 SWAP2 SWAP1 PUSH2 0x37C JUMP JUMPDEST PUSH2 0xC4 JUMP JUMPDEST STOP JUMPDEST PUSH2 0xA3 PUSH1 0x4 DUP1 CALLDATASIZE SUB DUP2 ADD SWAP1 PUSH2 0x9E SWAP2 SWAP1 PUSH2 0x44F JUMP JUMPDEST PUSH2 0xD1 JUMP JUMPDEST STOP JUMPDEST PUSH2 0xBF PUSH1 0x4 DUP1 CALLDATASIZE SUB DUP2 ADD SWAP1 PUSH2 0xBA SWAP2 SWAP1 PUSH2 0x4F2 JUMP JUMPDEST PUSH2 0xD5 JUMP JUMPDEST STOP JUMPDEST POP JUMP JUMPDEST PUSH2 0xCD DUP2 PUSH2 0xC1 JUMP JUMPDEST POP POP JUMP JUMPDEST POP POP JUMP JUMPDEST POP POP POP POP JUMP JUMPDEST PUSH1 0x0 PUSH1 0x40 MLOAD SWAP1 POP SWAP1 JUMP JUMPDEST PUSH1 0x0 DUP1 REVERT JUMPDEST PUSH1 0x0 DUP1 REVERT JUMPDEST PUSH1 0x0 DUP1 REVERT JUMPDEST PUSH1 0x0 PUSH1 0x1F NOT PUSH1 0x1F DUP4 ADD AND SWAP1 POP SWAP2 SWAP1 POP JUMP JUMPDEST PUSH32 0x4E487B7100000000000000000000000000000000000000000000000000000000 PUSH1 0x0 MSTORE PUSH1 0x41 PUSH1 0x4 MSTORE PUSH1 0x24 PUSH1 0x0 REVERT JUMPDEST PUSH2 0x13D DUP3 PUSH2 0xF4 JUMP JUMPDEST DUP2 ADD DUP2 DUP2 LT PUSH8 0xFFFFFFFFFFFFFFFF DUP3 GT OR ISZERO PUSH2 0x15C JUMPI PUSH2 0x15B PUSH2 0x105 JUMP JUMPDEST JUMPDEST DUP1 PUSH1 0x40 MSTORE POP POP POP JUMP JUMPDEST PUSH1 0x0 PUSH2 0x16F PUSH2 0xDB JUMP JUMPDEST SWAP1 POP PUSH2 0x17B DUP3 DUP3 PUSH2 0x134 JUMP JUMPDEST SWAP2 SWAP1 POP JUMP JUMPDEST PUSH1 0x0 PUSH8 0xFFFFFFFFFFFFFFFF DUP3 GT ISZERO PUSH2 0x19B JUMPI PUSH2 0x19A PUSH2 0x105 JUMP JUMPDEST JUMPDEST PUSH1 0x20 DUP3 MUL SWAP1 POP PUSH1 0x20 DUP2 ADD SWAP1 POP SWAP2 SWAP1 POP JUMP JUMPDEST PUSH1 0x0 DUP1 REVERT JUMPDEST PUSH1 0x0 DUP2 SWAP1 POP SWAP2 SWAP1 POP JUMP JUMPDEST PUSH2 0x1C4 DUP2 PUSH2 0x1B1 JUMP JUMPDEST DUP2 EQ PUSH2 0x1CF JUMPI PUSH1 0x0 DUP1 REVERT JUMPDEST POP JUMP JUMPDEST PUSH1 0x0 DUP2 CALLDATALOAD SWAP1 POP PUSH2 0x1E1 DUP2 PUSH2 0x1BB JUMP JUMPDEST SWAP3 SWAP2 POP POP JUMP JUMPDEST PUSH1 0x0 PUSH2 0x1FA PUSH2 0x1F5 DUP5 PUSH2 0x180 JUMP JUMPDEST PUSH2 0x165 JUMP JUMPDEST SWAP1 POP DUP1 DUP4 DUP3 MSTORE PUSH1 0x20 DUP3 ADD SWAP1 POP PUSH1 0x20 DUP5 MUL DUP4 ADD DUP6 DUP2 GT ISZERO PUSH2 0x21D JUMPI PUSH2 0x21C PUSH2 0x1AC JUMP JUMPDEST JUMPDEST DUP4 JUMPDEST DUP2 DUP2 LT ISZERO PUSH2 0x246 JUMPI DUP1 PUSH2 0x232 DUP9 DUP3 PUSH2 0x1D2 JUMP JUMPDEST DUP5 MSTORE PUSH1 0x20 DUP5 ADD SWAP4 POP POP PUSH1 0x20 DUP2 ADD SWAP1 POP PUSH2 0x21F JUMP JUMPDEST POP POP POP SWAP4 SWAP3 POP POP POP JUMP JUMPDEST PUSH1 0x0 DUP3 PUSH1 0x1F DUP4 ADD SLT PUSH2 0x265 JUMPI PUSH2 0x264 PUSH2 0xEF JUMP JUMPDEST JUMPDEST DUP2 CALLDATALOAD PUSH2 0x275 DUP5 DUP3 PUSH1 0x20 DUP7 ADD PUSH2 0x1E7 JUMP JUMPDEST SWAP2 POP POP SWAP3 SWAP2 POP POP JUMP JUMPDEST PUSH1 0x0 PUSH1 0x20 DUP3 DUP5 SUB SLT ISZERO PUSH2 0x294 JUMPI PUSH2 0x293 PUSH2 0xE5 JUMP JUMPDEST JUMPDEST PUSH1 0x0 DUP3 ADD CALLDATALOAD PUSH8 0xFFFFFFFFFFFFFFFF DUP2 GT ISZERO PUSH2 0x2B2 JUMPI PUSH2 0x2B1 PUSH2 0xEA JUMP JUMPDEST JUMPDEST PUSH2 0x2BE DUP5 DUP3 DUP6 ADD PUSH2 0x250 JUMP JUMPDEST SWAP2 POP POP SWAP3 SWAP2 POP POP JUMP JUMPDEST PUSH1 0x0 DUP1 REVERT JUMPDEST PUSH1 0x0 PUSH8 0xFFFFFFFFFFFFFFFF DUP3 GT ISZERO PUSH2 0x2E7 JUMPI PUSH2 0x2E6 PUSH2 0x105 JUMP JUMPDEST JUMPDEST PUSH2 0x2F0 DUP3 PUSH2 0xF4 JUMP JUMPDEST SWAP1 POP PUSH1 0x20 DUP2 ADD SWAP1 POP SWAP2 SWAP1 POP JUMP JUMPDEST DUP3 DUP2 DUP4 CALLDATACOPY PUSH1 0x0 DUP4 DUP4 ADD MSTORE POP POP POP JUMP JUMPDEST PUSH1 0x0 PUSH2 0x31F PUSH2 0x31A DUP5 PUSH2 0x2CC JUMP JUMPDEST PUSH2 0x165 JUMP JUMPDEST SWAP1 POP DUP3 DUP2 MSTORE PUSH1 0x20 DUP2 ADD DUP5 DUP5 DUP5 ADD GT ISZERO PUSH2 0x33B JUMPI PUSH2 0x33A PUSH2 0x2C7 JUMP JUMPDEST JUMPDEST PUSH2 0x346 DUP5 DUP3 DUP6 PUSH2 0x2FD JUMP JUMPDEST POP SWAP4 SWAP3 POP POP POP JUMP JUMPDEST PUSH1 0x0 DUP3 PUSH1 0x1F DUP4 ADD SLT PUSH2 0x363 JUMPI PUSH2 0x362 PUSH2 0xEF JUMP JUMPDEST JUMPDEST DUP2 CALLDATALOAD PUSH2 0x373 DUP5 DUP3 PUSH1 0x20 DUP7 ADD PUSH2 0x30C JUMP JUMPDEST SWAP2 POP POP SWAP3 SWAP2 POP POP JUMP JUMPDEST PUSH1 0x0 DUP1 PUSH1 0x40 DUP4 DUP6 SUB SLT ISZERO PUSH2 0x393 JUMPI PUSH2 0x392 PUSH2 0xE5 JUMP JUMPDEST JUMPDEST PUSH1 0x0 DUP4 ADD CALLDATALOAD PUSH8 0xFFFFFFFFFFFFFFFF DUP2 GT ISZERO PUSH2 0x3B1 JUMPI PUSH2 0x3B0 PUSH2 0xEA JUMP JUMPDEST JUMPDEST PUSH2 0x3BD DUP6 DUP3 DUP7 ADD PUSH2 0x34E JUMP JUMPDEST SWAP3 POP POP PUSH1 0x20 DUP4 ADD CALLDATALOAD PUSH8 0xFFFFFFFFFFFFFFFF DUP2 GT ISZERO PUSH2 0x3DE JUMPI PUSH2 0x3DD PUSH2 0xEA JUMP JUMPDEST JUMPDEST PUSH2 0x3EA DUP6 DUP3 DUP7 ADD PUSH2 0x250 JUMP JUMPDEST SWAP2 POP POP SWAP3 POP SWAP3 SWAP1 POP JUMP JUMPDEST PUSH1 0x0 DUP1 REVERT JUMPDEST PUSH1 0x0 DUP1 DUP4 PUSH1 0x1F DUP5 ADD SLT PUSH2 0x40F JUMPI PUSH2 0x40E PUSH2 0xEF JUMP JUMPDEST JUMPDEST DUP3 CALLDATALOAD SWAP1 POP PUSH8 0xFFFFFFFFFFFFFFFF DUP2 GT ISZERO PUSH2 0x42C JUMPI PUSH2 0x42B PUSH2 0x3F4 JUMP JUMPDEST JUMPDEST PUSH1 0x20 DUP4 ADD SWAP2 POP DUP4 PUSH1 0x20 DUP3 MUL DUP4 ADD GT ISZERO PUSH2 0x448 JUMPI PUSH2 0x447 PUSH2 0x1AC JUMP JUMPDEST JUMPDEST SWAP3 POP SWAP3 SWAP1 POP JUMP JUMPDEST PUSH1 0x0 DUP1 PUSH1 0x20 DUP4 DUP6 SUB SLT ISZERO PUSH2 0x466 JUMPI PUSH2 0x465 PUSH2 0xE5 JUMP JUMPDEST JUMPDEST PUSH1 0x0 DUP4 ADD CALLDATALOAD PUSH8 0xFFFFFFFFFFFFFFFF DUP2 GT ISZERO PUSH2 0x484 JUMPI PUSH2 0x483 PUSH2 0xEA JUMP JUMPDEST JUMPDEST PUSH2 0x490 DUP6 DUP3 DUP7 ADD PUSH2 0x3F9 JUMP JUMPDEST SWAP3 POP SWAP3 POP POP SWAP3 POP SWAP3 SWAP1 POP JUMP JUMPDEST PUSH1 0x0 DUP1 DUP4 PUSH1 0x1F DUP5 ADD SLT PUSH2 0x4B2 JUMPI PUSH2 0x4B1 PUSH2 0xEF JUMP JUMPDEST JUMPDEST DUP3 CALLDATALOAD SWAP1 POP PUSH8 0xFFFFFFFFFFFFFFFF DUP2 GT ISZERO PUSH2 0x4CF JUMPI PUSH2 0x4CE PUSH2 0x3F4 JUMP JUMPDEST JUMPDEST PUSH1 0x20 DUP4 ADD SWAP2 POP DUP4 PUSH1 0x1 DUP3 MUL DUP4 ADD GT ISZERO PUSH2 0x4EB JUMPI PUSH2 0x4EA PUSH2 0x1AC JUMP JUMPDEST JUMPDEST SWAP3 POP SWAP3 SWAP1 POP JUMP JUMPDEST PUSH1 0x0 DUP1 PUSH1 0x0 DUP1 PUSH1 0x40 DUP6 DUP8 SUB SLT ISZERO PUSH2 0x50C JUMPI PUSH2 0x50B PUSH2 0xE5 JUMP JUMPDEST JUMPDEST PUSH1 0x0 DUP6 ADD CALLDATALOAD PUSH8 0xFFFFFFFFFFFFFFFF DUP2 GT ISZERO PUSH2 0x52A JUMPI PUSH2 0x529 PUSH2 0xEA JUMP JUMPDEST JUMPDEST PUSH2 0x536 DUP8 DUP3 DUP9 ADD PUSH2 0x49C JUMP JUMPDEST SWAP5 POP SWAP5 POP POP PUSH1 0x20 DUP6 ADD CALLDATALOAD PUSH8 0xFFFFFFFFFFFFFFFF DUP2 GT ISZERO PUSH2 0x559 JUMPI PUSH2 0x558 PUSH2 0xEA JUMP JUMPDEST JUMPDEST PUSH2 0x565 DUP8 DUP3 DUP9 ADD PUSH2 0x3F9 JUMP JUMPDEST SWAP3 POP SWAP3 POP POP SWAP3 SWAP6 SWAP2 SWAP5 POP SWAP3 POP JUMP INVALID LOG2 PUSH5 0x6970667358 0x22 SLT KECCAK256 PUSH12 0x5AA9D199358985A5FCFB0AA0 0x49 0x4D DUP2 CALLDATALOAD 0xA6 LOG3 0xD0 DUP4 0xA9 0xE8 JUMP 0xCC ADDMOD 0x22 0x2F DUP10 0xCE 0x5C SDIV PUSH5 0x736F6C6343 STOP ADDMOD GT STOP CALLER "
		},
		"gasEstimates": {
			"creation": {
				"codeDepositCost": "289800",
				"executionCost": "331",
				"totalCost": "290131"
			},
			"external": {
				"Calldata(string,uint256[])": "759",
				"Memory(string,uint256[])": "infinite",
				"getincalldat(uint256[])": "496",
				"getinmem(uint256[])": "infinite"
			}
		},
		"methodIdentifiers": {
			"Calldata(string,uint256[])": "fae9407f",
			"Memory(string,uint256[])": "a8fc48fa",
			"getincalldat(uint256[])": "f7d69760",
			"getinmem(uint256[])": "a35248a4"
		}
	},
	"abi": [
		{
			"inputs": [
				{
					"internalType": "string",
					"name": "strr",
					"type": "string"
				},
				{
					"internalType": "uint256[]",
					"name": "arrr",
					"type": "uint256[]"
				}
			],
			"name": "Calldata",
			"outputs": [],
			"stateMutability": "nonpayable",
			"type": "function"
		},
		{
			"inputs": [
				{
					"internalType": "string",
					"name": "str",
					"type": "string"
				},
				{
					"internalType": "uint256[]",
					"name": "arr",
					"type": "uint256[]"
				}
			],
			"name": "Memory",
			"outputs": [],
			"stateMutability": "nonpayable",
			"type": "function"
		},
		{
			"inputs": [
				{
					"internalType": "uint256[]",
					"name": "arr",
					"type": "uint256[]"
				}
			],
			"name": "getincalldat",
			"outputs": [],
			"stateMutability": "nonpayable",
			"type": "function"
		},
		{
			"inputs": [
				{
					"internalType": "uint256[]",
					"name": "arr",
					"type": "uint256[]"
				}
			],
			"name": "getinmem",
			"outputs": [],
			"stateMutability": "nonpayable",
			"type": "function"
		}
	]
}