{
	"data": {
		"bytecode": {
			"linkReferences": {},
			"object": "60806040523480156200001157600080fd5b5060405162000a1638038062000a16833981810160405281019062000037919062000257565b81818560028662000049919062000336565b81600190816200005a9190620005b2565b508060008190555050508160039081620000759190620005b2565b508060028190555050505050505062000699565b6000604051905090565b600080fd5b600080fd5b600080fd5b600080fd5b6000601f19601f8301169050919050565b7f4e487b7100000000000000000000000000000000000000000000000000000000600052604160045260246000fd5b620000f282620000a7565b810181811067ffffffffffffffff82111715620001145762000113620000b8565b5b80604052505050565b60006200012962000089565b9050620001378282620000e7565b919050565b600067ffffffffffffffff8211156200015a5762000159620000b8565b5b6200016582620000a7565b9050602081019050919050565b60005b838110156200019257808201518184015260208101905062000175565b60008484015250505050565b6000620001b5620001af846200013c565b6200011d565b905082815260208101848484011115620001d457620001d3620000a2565b5b620001e184828562000172565b509392505050565b600082601f8301126200020157620002006200009d565b5b8151620002138482602086016200019e565b91505092915050565b6000819050919050565b62000231816200021c565b81146200023d57600080fd5b50565b600081519050620002518162000226565b92915050565b6000806000806080858703121562000274576200027362000093565b5b600085015167ffffffffffffffff81111562000295576200029462000098565b5b620002a387828801620001e9565b9450506020620002b68782880162000240565b935050604085015167ffffffffffffffff811115620002da57620002d962000098565b5b620002e887828801620001e9565b9250506060620002fb8782880162000240565b91505092959194509250565b7f4e487b7100000000000000000000000000000000000000000000000000000000600052601160045260246000fd5b600062000343826200021c565b915062000350836200021c565b92508282019050808211156200036b576200036a62000307565b5b92915050565b600081519050919050565b7f4e487b7100000000000000000000000000000000000000000000000000000000600052602260045260246000fd5b60006002820490506001821680620003c457607f821691505b602082108103620003da57620003d96200037c565b5b50919050565b60008190508160005260206000209050919050565b60006020601f8301049050919050565b600082821b905092915050565b600060088302620004447fffffffffffffffffffffffffffffffffffffffffffffffffffffffffffffffff8262000405565b62000450868362000405565b95508019841693508086168417925050509392505050565b6000819050919050565b6000620004936200048d62000487846200021c565b62000468565b6200021c565b9050919050565b6000819050919050565b620004af8362000472565b620004c7620004be826200049a565b84845462000412565b825550505050565b600090565b620004de620004cf565b620004eb818484620004a4565b505050565b5b81811015620005135762000507600082620004d4565b600181019050620004f1565b5050565b601f82111562000562576200052c81620003e0565b6200053784620003f5565b8101602085101562000547578190505b6200055f6200055685620003f5565b830182620004f0565b50505b505050565b600082821c905092915050565b6000620005876000198460080262000567565b1980831691505092915050565b6000620005a2838362000574565b9150826002028217905092915050565b620005bd8262000371565b67ffffffffffffffff811115620005d957620005d8620000b8565b5b620005e58254620003ab565b620005f282828562000517565b600060209050601f8311600181146200062a576000841562000615578287015190505b62000621858262000594565b86555062000691565b601f1984166200063a86620003e0565b60005b8281101562000664578489015182556001820191506020850194506020810190506200063d565b8683101562000684578489015162000680601f89168262000574565b8355505b6001600288020188555050505b505050505050565b61036d80620006a96000396000f3fe608060405234801561001057600080fd5b506004361061004c5760003560e01c80630397b6521461005157806306fdde031461006f578063262a9dff1461008d5780634f2be91f146100ab575b600080fd5b6100596100c9565b604051610066919061020a565b60405180910390f35b6100776100cf565b60405161008491906102b5565b60405180910390f35b61009561015d565b6040516100a2919061020a565b60405180910390f35b6100b3610163565b6040516100c091906102b5565b60405180910390f35b60025481565b600180546100dc90610306565b80601f016020809104026020016040519081016040528092919081815260200182805461010890610306565b80156101555780601f1061012a57610100808354040283529160200191610155565b820191906000526020600020905b81548152906001019060200180831161013857829003601f168201915b505050505081565b60005481565b6003805461017090610306565b80601f016020809104026020016040519081016040528092919081815260200182805461019c90610306565b80156101e95780601f106101be576101008083540402835291602001916101e9565b820191906000526020600020905b8154815290600101906020018083116101cc57829003601f168201915b505050505081565b6000819050919050565b610204816101f1565b82525050565b600060208201905061021f60008301846101fb565b92915050565b600081519050919050565b600082825260208201905092915050565b60005b8381101561025f578082015181840152602081019050610244565b60008484015250505050565b6000601f19601f8301169050919050565b600061028782610225565b6102918185610230565b93506102a1818560208601610241565b6102aa8161026b565b840191505092915050565b600060208201905081810360008301526102cf818461027c565b905092915050565b7f4e487b7100000000000000000000000000000000000000000000000000000000600052602260045260246000fd5b6000600282049050600182168061031e57607f821691505b602082108103610331576103306102d7565b5b5091905056fea2646970667358221220a19b53b063a72477983fe96cd733f2a4deb7d4ce7edc1ac04b78c9b72bb57b6664736f6c63430008110033",
			"opcodes": "PUSH1 0x80 PUSH1 0x40 MSTORE CALLVALUE DUP1 ISZERO PUSH3 0x11 JUMPI PUSH1 0x0 DUP1 REVERT JUMPDEST POP PUSH1 0x40 MLOAD PUSH3 0xA16 CODESIZE SUB DUP1 PUSH3 0xA16 DUP4 CODECOPY DUP2 DUP2 ADD PUSH1 0x40 MSTORE DUP2 ADD SWAP1 PUSH3 0x37 SWAP2 SWAP1 PUSH3 0x257 JUMP JUMPDEST DUP2 DUP2 DUP6 PUSH1 0x2 DUP7 PUSH3 0x49 SWAP2 SWAP1 PUSH3 0x336 JUMP JUMPDEST DUP2 PUSH1 0x1 SWAP1 DUP2 PUSH3 0x5A SWAP2 SWAP1 PUSH3 0x5B2 JUMP JUMPDEST POP DUP1 PUSH1 0x0 DUP2 SWAP1 SSTORE POP POP POP DUP2 PUSH1 0x3 SWAP1 DUP2 PUSH3 0x75 SWAP2 SWAP1 PUSH3 0x5B2 JUMP JUMPDEST POP DUP1 PUSH1 0x2 DUP2 SWAP1 SSTORE POP POP POP POP POP POP POP PUSH3 0x699 JUMP JUMPDEST PUSH1 0x0 PUSH1 0x40 MLOAD SWAP1 POP SWAP1 JUMP JUMPDEST PUSH1 0x0 DUP1 REVERT JUMPDEST PUSH1 0x0 DUP1 REVERT JUMPDEST PUSH1 0x0 DUP1 REVERT JUMPDEST PUSH1 0x0 DUP1 REVERT JUMPDEST PUSH1 0x0 PUSH1 0x1F NOT PUSH1 0x1F DUP4 ADD AND SWAP1 POP SWAP2 SWAP1 POP JUMP JUMPDEST PUSH32 0x4E487B7100000000000000000000000000000000000000000000000000000000 PUSH1 0x0 MSTORE PUSH1 0x41 PUSH1 0x4 MSTORE PUSH1 0x24 PUSH1 0x0 REVERT JUMPDEST PUSH3 0xF2 DUP3 PUSH3 0xA7 JUMP JUMPDEST DUP2 ADD DUP2 DUP2 LT PUSH8 0xFFFFFFFFFFFFFFFF DUP3 GT OR ISZERO PUSH3 0x114 JUMPI PUSH3 0x113 PUSH3 0xB8 JUMP JUMPDEST JUMPDEST DUP1 PUSH1 0x40 MSTORE POP POP POP JUMP JUMPDEST PUSH1 0x0 PUSH3 0x129 PUSH3 0x89 JUMP JUMPDEST SWAP1 POP PUSH3 0x137 DUP3 DUP3 PUSH3 0xE7 JUMP JUMPDEST SWAP2 SWAP1 POP JUMP JUMPDEST PUSH1 0x0 PUSH8 0xFFFFFFFFFFFFFFFF DUP3 GT ISZERO PUSH3 0x15A JUMPI PUSH3 0x159 PUSH3 0xB8 JUMP JUMPDEST JUMPDEST PUSH3 0x165 DUP3 PUSH3 0xA7 JUMP JUMPDEST SWAP1 POP PUSH1 0x20 DUP2 ADD SWAP1 POP SWAP2 SWAP1 POP JUMP JUMPDEST PUSH1 0x0 JUMPDEST DUP4 DUP2 LT ISZERO PUSH3 0x192 JUMPI DUP1 DUP3 ADD MLOAD DUP2 DUP5 ADD MSTORE PUSH1 0x20 DUP2 ADD SWAP1 POP PUSH3 0x175 JUMP JUMPDEST PUSH1 0x0 DUP5 DUP5 ADD MSTORE POP POP POP POP JUMP JUMPDEST PUSH1 0x0 PUSH3 0x1B5 PUSH3 0x1AF DUP5 PUSH3 0x13C JUMP JUMPDEST PUSH3 0x11D JUMP JUMPDEST SWAP1 POP DUP3 DUP2 MSTORE PUSH1 0x20 DUP2 ADD DUP5 DUP5 DUP5 ADD GT ISZERO PUSH3 0x1D4 JUMPI PUSH3 0x1D3 PUSH3 0xA2 JUMP JUMPDEST JUMPDEST PUSH3 0x1E1 DUP5 DUP3 DUP6 PUSH3 0x172 JUMP JUMPDEST POP SWAP4 SWAP3 POP POP POP JUMP JUMPDEST PUSH1 0x0 DUP3 PUSH1 0x1F DUP4 ADD SLT PUSH3 0x201 JUMPI PUSH3 0x200 PUSH3 0x9D JUMP JUMPDEST JUMPDEST DUP2 MLOAD PUSH3 0x213 DUP5 DUP3 PUSH1 0x20 DUP7 ADD PUSH3 0x19E JUMP JUMPDEST SWAP2 POP POP SWAP3 SWAP2 POP POP JUMP JUMPDEST PUSH1 0x0 DUP2 SWAP1 POP SWAP2 SWAP1 POP JUMP JUMPDEST PUSH3 0x231 DUP2 PUSH3 0x21C JUMP JUMPDEST DUP2 EQ PUSH3 0x23D JUMPI PUSH1 0x0 DUP1 REVERT JUMPDEST POP JUMP JUMPDEST PUSH1 0x0 DUP2 MLOAD SWAP1 POP PUSH3 0x251 DUP2 PUSH3 0x226 JUMP JUMPDEST SWAP3 SWAP2 POP POP JUMP JUMPDEST PUSH1 0x0 DUP1 PUSH1 0x0 DUP1 PUSH1 0x80 DUP6 DUP8 SUB SLT ISZERO PUSH3 0x274 JUMPI PUSH3 0x273 PUSH3 0x93 JUMP JUMPDEST JUMPDEST PUSH1 0x0 DUP6 ADD MLOAD PUSH8 0xFFFFFFFFFFFFFFFF DUP2 GT ISZERO PUSH3 0x295 JUMPI PUSH3 0x294 PUSH3 0x98 JUMP JUMPDEST JUMPDEST PUSH3 0x2A3 DUP8 DUP3 DUP9 ADD PUSH3 0x1E9 JUMP JUMPDEST SWAP5 POP POP PUSH1 0x20 PUSH3 0x2B6 DUP8 DUP3 DUP9 ADD PUSH3 0x240 JUMP JUMPDEST SWAP4 POP POP PUSH1 0x40 DUP6 ADD MLOAD PUSH8 0xFFFFFFFFFFFFFFFF DUP2 GT ISZERO PUSH3 0x2DA JUMPI PUSH3 0x2D9 PUSH3 0x98 JUMP JUMPDEST JUMPDEST PUSH3 0x2E8 DUP8 DUP3 DUP9 ADD PUSH3 0x1E9 JUMP JUMPDEST SWAP3 POP POP PUSH1 0x60 PUSH3 0x2FB DUP8 DUP3 DUP9 ADD PUSH3 0x240 JUMP JUMPDEST SWAP2 POP POP SWAP3 SWAP6 SWAP2 SWAP5 POP SWAP3 POP JUMP JUMPDEST PUSH32 0x4E487B7100000000000000000000000000000000000000000000000000000000 PUSH1 0x0 MSTORE PUSH1 0x11 PUSH1 0x4 MSTORE PUSH1 0x24 PUSH1 0x0 REVERT JUMPDEST PUSH1 0x0 PUSH3 0x343 DUP3 PUSH3 0x21C JUMP JUMPDEST SWAP2 POP PUSH3 0x350 DUP4 PUSH3 0x21C JUMP JUMPDEST SWAP3 POP DUP3 DUP3 ADD SWAP1 POP DUP1 DUP3 GT ISZERO PUSH3 0x36B JUMPI PUSH3 0x36A PUSH3 0x307 JUMP JUMPDEST JUMPDEST SWAP3 SWAP2 POP POP JUMP JUMPDEST PUSH1 0x0 DUP2 MLOAD SWAP1 POP SWAP2 SWAP1 POP JUMP JUMPDEST PUSH32 0x4E487B7100000000000000000000000000000000000000000000000000000000 PUSH1 0x0 MSTORE PUSH1 0x22 PUSH1 0x4 MSTORE PUSH1 0x24 PUSH1 0x0 REVERT JUMPDEST PUSH1 0x0 PUSH1 0x2 DUP3 DIV SWAP1 POP PUSH1 0x1 DUP3 AND DUP1 PUSH3 0x3C4 JUMPI PUSH1 0x7F DUP3 AND SWAP2 POP JUMPDEST PUSH1 0x20 DUP3 LT DUP2 SUB PUSH3 0x3DA JUMPI PUSH3 0x3D9 PUSH3 0x37C JUMP JUMPDEST JUMPDEST POP SWAP2 SWAP1 POP JUMP JUMPDEST PUSH1 0x0 DUP2 SWAP1 POP DUP2 PUSH1 0x0 MSTORE PUSH1 0x20 PUSH1 0x0 KECCAK256 SWAP1 POP SWAP2 SWAP1 POP JUMP JUMPDEST PUSH1 0x0 PUSH1 0x20 PUSH1 0x1F DUP4 ADD DIV SWAP1 POP SWAP2 SWAP1 POP JUMP JUMPDEST PUSH1 0x0 DUP3 DUP3 SHL SWAP1 POP SWAP3 SWAP2 POP POP JUMP JUMPDEST PUSH1 0x0 PUSH1 0x8 DUP4 MUL PUSH3 0x444 PUSH32 0xFFFFFFFFFFFFFFFFFFFFFFFFFFFFFFFFFFFFFFFFFFFFFFFFFFFFFFFFFFFFFFFF DUP3 PUSH3 0x405 JUMP JUMPDEST PUSH3 0x450 DUP7 DUP4 PUSH3 0x405 JUMP JUMPDEST SWAP6 POP DUP1 NOT DUP5 AND SWAP4 POP DUP1 DUP7 AND DUP5 OR SWAP3 POP POP POP SWAP4 SWAP3 POP POP POP JUMP JUMPDEST PUSH1 0x0 DUP2 SWAP1 POP SWAP2 SWAP1 POP JUMP JUMPDEST PUSH1 0x0 PUSH3 0x493 PUSH3 0x48D PUSH3 0x487 DUP5 PUSH3 0x21C JUMP JUMPDEST PUSH3 0x468 JUMP JUMPDEST PUSH3 0x21C JUMP JUMPDEST SWAP1 POP SWAP2 SWAP1 POP JUMP JUMPDEST PUSH1 0x0 DUP2 SWAP1 POP SWAP2 SWAP1 POP JUMP JUMPDEST PUSH3 0x4AF DUP4 PUSH3 0x472 JUMP JUMPDEST PUSH3 0x4C7 PUSH3 0x4BE DUP3 PUSH3 0x49A JUMP JUMPDEST DUP5 DUP5 SLOAD PUSH3 0x412 JUMP JUMPDEST DUP3 SSTORE POP POP POP POP JUMP JUMPDEST PUSH1 0x0 SWAP1 JUMP JUMPDEST PUSH3 0x4DE PUSH3 0x4CF JUMP JUMPDEST PUSH3 0x4EB DUP2 DUP5 DUP5 PUSH3 0x4A4 JUMP JUMPDEST POP POP POP JUMP JUMPDEST JUMPDEST DUP2 DUP2 LT ISZERO PUSH3 0x513 JUMPI PUSH3 0x507 PUSH1 0x0 DUP3 PUSH3 0x4D4 JUMP JUMPDEST PUSH1 0x1 DUP2 ADD SWAP1 POP PUSH3 0x4F1 JUMP JUMPDEST POP POP JUMP JUMPDEST PUSH1 0x1F DUP3 GT ISZERO PUSH3 0x562 JUMPI PUSH3 0x52C DUP2 PUSH3 0x3E0 JUMP JUMPDEST PUSH3 0x537 DUP5 PUSH3 0x3F5 JUMP JUMPDEST DUP2 ADD PUSH1 0x20 DUP6 LT ISZERO PUSH3 0x547 JUMPI DUP2 SWAP1 POP JUMPDEST PUSH3 0x55F PUSH3 0x556 DUP6 PUSH3 0x3F5 JUMP JUMPDEST DUP4 ADD DUP3 PUSH3 0x4F0 JUMP JUMPDEST POP POP JUMPDEST POP POP POP JUMP JUMPDEST PUSH1 0x0 DUP3 DUP3 SHR SWAP1 POP SWAP3 SWAP2 POP POP JUMP JUMPDEST PUSH1 0x0 PUSH3 0x587 PUSH1 0x0 NOT DUP5 PUSH1 0x8 MUL PUSH3 0x567 JUMP JUMPDEST NOT DUP1 DUP4 AND SWAP2 POP POP SWAP3 SWAP2 POP POP JUMP JUMPDEST PUSH1 0x0 PUSH3 0x5A2 DUP4 DUP4 PUSH3 0x574 JUMP JUMPDEST SWAP2 POP DUP3 PUSH1 0x2 MUL DUP3 OR SWAP1 POP SWAP3 SWAP2 POP POP JUMP JUMPDEST PUSH3 0x5BD DUP3 PUSH3 0x371 JUMP JUMPDEST PUSH8 0xFFFFFFFFFFFFFFFF DUP2 GT ISZERO PUSH3 0x5D9 JUMPI PUSH3 0x5D8 PUSH3 0xB8 JUMP JUMPDEST JUMPDEST PUSH3 0x5E5 DUP3 SLOAD PUSH3 0x3AB JUMP JUMPDEST PUSH3 0x5F2 DUP3 DUP3 DUP6 PUSH3 0x517 JUMP JUMPDEST PUSH1 0x0 PUSH1 0x20 SWAP1 POP PUSH1 0x1F DUP4 GT PUSH1 0x1 DUP2 EQ PUSH3 0x62A JUMPI PUSH1 0x0 DUP5 ISZERO PUSH3 0x615 JUMPI DUP3 DUP8 ADD MLOAD SWAP1 POP JUMPDEST PUSH3 0x621 DUP6 DUP3 PUSH3 0x594 JUMP JUMPDEST DUP7 SSTORE POP PUSH3 0x691 JUMP JUMPDEST PUSH1 0x1F NOT DUP5 AND PUSH3 0x63A DUP7 PUSH3 0x3E0 JUMP JUMPDEST PUSH1 0x0 JUMPDEST DUP3 DUP2 LT ISZERO PUSH3 0x664 JUMPI DUP5 DUP10 ADD MLOAD DUP3 SSTORE PUSH1 0x1 DUP3 ADD SWAP2 POP PUSH1 0x20 DUP6 ADD SWAP5 POP PUSH1 0x20 DUP2 ADD SWAP1 POP PUSH3 0x63D JUMP JUMPDEST DUP7 DUP4 LT ISZERO PUSH3 0x684 JUMPI DUP5 DUP10 ADD MLOAD PUSH3 0x680 PUSH1 0x1F DUP10 AND DUP3 PUSH3 0x574 JUMP JUMPDEST DUP4 SSTORE POP JUMPDEST PUSH1 0x1 PUSH1 0x2 DUP9 MUL ADD DUP9 SSTORE POP POP POP JUMPDEST POP POP POP POP POP POP JUMP JUMPDEST PUSH2 0x36D DUP1 PUSH3 0x6A9 PUSH1 0x0 CODECOPY PUSH1 0x0 RETURN INVALID PUSH1 0x80 PUSH1 0x40 MSTORE CALLVALUE DUP1 ISZERO PUSH2 0x10 JUMPI PUSH1 0x0 DUP1 REVERT JUMPDEST POP PUSH1 0x4 CALLDATASIZE LT PUSH2 0x4C JUMPI PUSH1 0x0 CALLDATALOAD PUSH1 0xE0 SHR DUP1 PUSH4 0x397B652 EQ PUSH2 0x51 JUMPI DUP1 PUSH4 0x6FDDE03 EQ PUSH2 0x6F JUMPI DUP1 PUSH4 0x262A9DFF EQ PUSH2 0x8D JUMPI DUP1 PUSH4 0x4F2BE91F EQ PUSH2 0xAB JUMPI JUMPDEST PUSH1 0x0 DUP1 REVERT JUMPDEST PUSH2 0x59 PUSH2 0xC9 JUMP JUMPDEST PUSH1 0x40 MLOAD PUSH2 0x66 SWAP2 SWAP1 PUSH2 0x20A JUMP JUMPDEST PUSH1 0x40 MLOAD DUP1 SWAP2 SUB SWAP1 RETURN JUMPDEST PUSH2 0x77 PUSH2 0xCF JUMP JUMPDEST PUSH1 0x40 MLOAD PUSH2 0x84 SWAP2 SWAP1 PUSH2 0x2B5 JUMP JUMPDEST PUSH1 0x40 MLOAD DUP1 SWAP2 SUB SWAP1 RETURN JUMPDEST PUSH2 0x95 PUSH2 0x15D JUMP JUMPDEST PUSH1 0x40 MLOAD PUSH2 0xA2 SWAP2 SWAP1 PUSH2 0x20A JUMP JUMPDEST PUSH1 0x40 MLOAD DUP1 SWAP2 SUB SWAP1 RETURN JUMPDEST PUSH2 0xB3 PUSH2 0x163 JUMP JUMPDEST PUSH1 0x40 MLOAD PUSH2 0xC0 SWAP2 SWAP1 PUSH2 0x2B5 JUMP JUMPDEST PUSH1 0x40 MLOAD DUP1 SWAP2 SUB SWAP1 RETURN JUMPDEST PUSH1 0x2 SLOAD DUP2 JUMP JUMPDEST PUSH1 0x1 DUP1 SLOAD PUSH2 0xDC SWAP1 PUSH2 0x306 JUMP JUMPDEST DUP1 PUSH1 0x1F ADD PUSH1 0x20 DUP1 SWAP2 DIV MUL PUSH1 0x20 ADD PUSH1 0x40 MLOAD SWAP1 DUP2 ADD PUSH1 0x40 MSTORE DUP1 SWAP3 SWAP2 SWAP1 DUP2 DUP2 MSTORE PUSH1 0x20 ADD DUP3 DUP1 SLOAD PUSH2 0x108 SWAP1 PUSH2 0x306 JUMP JUMPDEST DUP1 ISZERO PUSH2 0x155 JUMPI DUP1 PUSH1 0x1F LT PUSH2 0x12A JUMPI PUSH2 0x100 DUP1 DUP4 SLOAD DIV MUL DUP4 MSTORE SWAP2 PUSH1 0x20 ADD SWAP2 PUSH2 0x155 JUMP JUMPDEST DUP3 ADD SWAP2 SWAP1 PUSH1 0x0 MSTORE PUSH1 0x20 PUSH1 0x0 KECCAK256 SWAP1 JUMPDEST DUP2 SLOAD DUP2 MSTORE SWAP1 PUSH1 0x1 ADD SWAP1 PUSH1 0x20 ADD DUP1 DUP4 GT PUSH2 0x138 JUMPI DUP3 SWAP1 SUB PUSH1 0x1F AND DUP3 ADD SWAP2 JUMPDEST POP POP POP POP POP DUP2 JUMP JUMPDEST PUSH1 0x0 SLOAD DUP2 JUMP JUMPDEST PUSH1 0x3 DUP1 SLOAD PUSH2 0x170 SWAP1 PUSH2 0x306 JUMP JUMPDEST DUP1 PUSH1 0x1F ADD PUSH1 0x20 DUP1 SWAP2 DIV MUL PUSH1 0x20 ADD PUSH1 0x40 MLOAD SWAP1 DUP2 ADD PUSH1 0x40 MSTORE DUP1 SWAP3 SWAP2 SWAP1 DUP2 DUP2 MSTORE PUSH1 0x20 ADD DUP3 DUP1 SLOAD PUSH2 0x19C SWAP1 PUSH2 0x306 JUMP JUMPDEST DUP1 ISZERO PUSH2 0x1E9 JUMPI DUP1 PUSH1 0x1F LT PUSH2 0x1BE JUMPI PUSH2 0x100 DUP1 DUP4 SLOAD DIV MUL DUP4 MSTORE SWAP2 PUSH1 0x20 ADD SWAP2 PUSH2 0x1E9 JUMP JUMPDEST DUP3 ADD SWAP2 SWAP1 PUSH1 0x0 MSTORE PUSH1 0x20 PUSH1 0x0 KECCAK256 SWAP1 JUMPDEST DUP2 SLOAD DUP2 MSTORE SWAP1 PUSH1 0x1 ADD SWAP1 PUSH1 0x20 ADD DUP1 DUP4 GT PUSH2 0x1CC JUMPI DUP3 SWAP1 SUB PUSH1 0x1F AND DUP3 ADD SWAP2 JUMPDEST POP POP POP POP POP DUP2 JUMP JUMPDEST PUSH1 0x0 DUP2 SWAP1 POP SWAP2 SWAP1 POP JUMP JUMPDEST PUSH2 0x204 DUP2 PUSH2 0x1F1 JUMP JUMPDEST DUP3 MSTORE POP POP JUMP JUMPDEST PUSH1 0x0 PUSH1 0x20 DUP3 ADD SWAP1 POP PUSH2 0x21F PUSH1 0x0 DUP4 ADD DUP5 PUSH2 0x1FB JUMP JUMPDEST SWAP3 SWAP2 POP POP JUMP JUMPDEST PUSH1 0x0 DUP2 MLOAD SWAP1 POP SWAP2 SWAP1 POP JUMP JUMPDEST PUSH1 0x0 DUP3 DUP3 MSTORE PUSH1 0x20 DUP3 ADD SWAP1 POP SWAP3 SWAP2 POP POP JUMP JUMPDEST PUSH1 0x0 JUMPDEST DUP4 DUP2 LT ISZERO PUSH2 0x25F JUMPI DUP1 DUP3 ADD MLOAD DUP2 DUP5 ADD MSTORE PUSH1 0x20 DUP2 ADD SWAP1 POP PUSH2 0x244 JUMP JUMPDEST PUSH1 0x0 DUP5 DUP5 ADD MSTORE POP POP POP POP JUMP JUMPDEST PUSH1 0x0 PUSH1 0x1F NOT PUSH1 0x1F DUP4 ADD AND SWAP1 POP SWAP2 SWAP1 POP JUMP JUMPDEST PUSH1 0x0 PUSH2 0x287 DUP3 PUSH2 0x225 JUMP JUMPDEST PUSH2 0x291 DUP2 DUP6 PUSH2 0x230 JUMP JUMPDEST SWAP4 POP PUSH2 0x2A1 DUP2 DUP6 PUSH1 0x20 DUP7 ADD PUSH2 0x241 JUMP JUMPDEST PUSH2 0x2AA DUP2 PUSH2 0x26B JUMP JUMPDEST DUP5 ADD SWAP2 POP POP SWAP3 SWAP2 POP POP JUMP JUMPDEST PUSH1 0x0 PUSH1 0x20 DUP3 ADD SWAP1 POP DUP2 DUP2 SUB PUSH1 0x0 DUP4 ADD MSTORE PUSH2 0x2CF DUP2 DUP5 PUSH2 0x27C JUMP JUMPDEST SWAP1 POP SWAP3 SWAP2 POP POP JUMP JUMPDEST PUSH32 0x4E487B7100000000000000000000000000000000000000000000000000000000 PUSH1 0x0 MSTORE PUSH1 0x22 PUSH1 0x4 MSTORE PUSH1 0x24 PUSH1 0x0 REVERT JUMPDEST PUSH1 0x0 PUSH1 0x2 DUP3 DIV SWAP1 POP PUSH1 0x1 DUP3 AND DUP1 PUSH2 0x31E JUMPI PUSH1 0x7F DUP3 AND SWAP2 POP JUMPDEST PUSH1 0x20 DUP3 LT DUP2 SUB PUSH2 0x331 JUMPI PUSH2 0x330 PUSH2 0x2D7 JUMP JUMPDEST JUMPDEST POP SWAP2 SWAP1 POP JUMP INVALID LOG2 PUSH5 0x6970667358 0x22 SLT KECCAK256 LOG1 SWAP12 MSTORE8 0xB0 PUSH4 0xA7247798 EXTCODEHASH 0xE9 PUSH13 0xD733F2A4DEB7D4CE7EDC1AC04B PUSH25 0xC9B72BB57B6664736F6C634300081100330000000000000000 "
		},
		"gasEstimates": {
			"creation": {
				"codeDepositCost": "175400",
				"executionCost": "infinite",
				"totalCost": "infinite"
			},
			"external": {
				"add()": "infinite",
				"age()": "2451",
				"name()": "infinite",
				"salary()": "2407"
			}
		},
		"methodIdentifiers": {
			"add()": "4f2be91f",
			"age()": "262a9dff",
			"name()": "06fdde03",
			"salary()": "0397b652"
		}
	},
	"abi": [
		{
			"inputs": [
				{
					"internalType": "string",
					"name": "_name",
					"type": "string"
				},
				{
					"internalType": "uint256",
					"name": "_age",
					"type": "uint256"
				},
				{
					"internalType": "string",
					"name": "_add",
					"type": "string"
				},
				{
					"internalType": "uint256",
					"name": "_sal",
					"type": "uint256"
				}
			],
			"stateMutability": "nonpayable",
			"type": "constructor"
		},
		{
			"inputs": [],
			"name": "add",
			"outputs": [
				{
					"internalType": "string",
					"name": "",
					"type": "string"
				}
			],
			"stateMutability": "view",
			"type": "function"
		},
		{
			"inputs": [],
			"name": "age",
			"outputs": [
				{
					"internalType": "uint256",
					"name": "",
					"type": "uint256"
				}
			],
			"stateMutability": "view",
			"type": "function"
		},
		{
			"inputs": [],
			"name": "name",
			"outputs": [
				{
					"internalType": "string",
					"name": "",
					"type": "string"
				}
			],
			"stateMutability": "view",
			"type": "function"
		},
		{
			"inputs": [],
			"name": "salary",
			"outputs": [
				{
					"internalType": "uint256",
					"name": "",
					"type": "uint256"
				}
			],
			"stateMutability": "view",
			"type": "function"
		}
	]
}