{
	"data": {
		"bytecode": {
			"linkReferences": {},
			"object": "608060405234801561001057600080fd5b506107a6806100206000396000f3fe608060405234801561001057600080fd5b506004361061004c5760003560e01c80632792cacf1461005157806330bc6db0146100815780636558b805146100b1578063af9db7d2146100e1575b600080fd5b61006b6004803603810190610066919061045d565b610111565b60405161007891906104e5565b60405180910390f35b61009b6004803603810190610096919061045d565b610185565b6040516100a891906104e5565b60405180910390f35b6100cb60048036038101906100c6919061045d565b610203565b6040516100d891906104e5565b60405180910390f35b6100fb60048036038101906100f6919061045d565b610239565b60405161010891906104e5565b60405180910390f35b6000600384848460405160200161012a9392919061059d565b6040516020818303038152906040526040516101469190610622565b602060405180830381855afa158015610163573d6000803e3d6000fd5b5050506040515160601b6bffffffffffffffffffffffff191690509392505050565b6000600284848460405160200161019e9392919061059d565b6040516020818303038152906040526040516101ba9190610622565b602060405180830381855afa1580156101d7573d6000803e3d6000fd5b5050506040513d601f19601f820116820180604052508101906101fa9190610665565b90509392505050565b600083838360405160200161021a9392919061059d565b6040516020818303038152906040528051906020012090509392505050565b600083838360405160200161025093929190610737565b6040516020818303038152906040528051906020012090509392505050565b6000604051905090565b600080fd5b600080fd5b6000819050919050565b61029681610283565b81146102a157600080fd5b50565b6000813590506102b38161028d565b92915050565b600080fd5b600080fd5b6000601f19601f8301169050919050565b7f4e487b7100000000000000000000000000000000000000000000000000000000600052604160045260246000fd5b61030c826102c3565b810181811067ffffffffffffffff8211171561032b5761032a6102d4565b5b80604052505050565b600061033e61026f565b905061034a8282610303565b919050565b600067ffffffffffffffff82111561036a576103696102d4565b5b610373826102c3565b9050602081019050919050565b82818337600083830152505050565b60006103a261039d8461034f565b610334565b9050828152602081018484840111156103be576103bd6102be565b5b6103c9848285610380565b509392505050565b600082601f8301126103e6576103e56102b9565b5b81356103f684826020860161038f565b91505092915050565b600073ffffffffffffffffffffffffffffffffffffffff82169050919050565b600061042a826103ff565b9050919050565b61043a8161041f565b811461044557600080fd5b50565b60008135905061045781610431565b92915050565b60008060006060848603121561047657610475610279565b5b6000610484868287016102a4565b935050602084013567ffffffffffffffff8111156104a5576104a461027e565b5b6104b1868287016103d1565b92505060406104c286828701610448565b9150509250925092565b6000819050919050565b6104df816104cc565b82525050565b60006020820190506104fa60008301846104d6565b92915050565b61050981610283565b82525050565b600081519050919050565b600082825260208201905092915050565b60005b8381101561054957808201518184015260208101905061052e565b60008484015250505050565b60006105608261050f565b61056a818561051a565b935061057a81856020860161052b565b610583816102c3565b840191505092915050565b6105978161041f565b82525050565b60006060820190506105b26000830186610500565b81810360208301526105c48185610555565b90506105d3604083018461058e565b949350505050565b600081519050919050565b600081905092915050565b60006105fc826105db565b61060681856105e6565b935061061681856020860161052b565b80840191505092915050565b600061062e82846105f1565b915081905092915050565b610642816104cc565b811461064d57600080fd5b50565b60008151905061065f81610639565b92915050565b60006020828403121561067b5761067a610279565b5b600061068984828501610650565b91505092915050565b6000819050919050565b6106ad6106a882610283565b610692565b82525050565b600081905092915050565b60006106c98261050f565b6106d381856106b3565b93506106e381856020860161052b565b80840191505092915050565b60008160601b9050919050565b6000610707826106ef565b9050919050565b6000610719826106fc565b9050919050565b61073161072c8261041f565b61070e565b82525050565b6000610743828661069c565b60208201915061075382856106be565b915061075f8284610720565b60148201915081905094935050505056fea2646970667358221220e0e5f67ccc22229cfd6f5888f0b9b3b77ca89157cae8c479cba7142c1c4ba2c164736f6c63430008110033",
			"opcodes": "PUSH1 0x80 PUSH1 0x40 MSTORE CALLVALUE DUP1 ISZERO PUSH2 0x10 JUMPI PUSH1 0x0 DUP1 REVERT JUMPDEST POP PUSH2 0x7A6 DUP1 PUSH2 0x20 PUSH1 0x0 CODECOPY PUSH1 0x0 RETURN INVALID PUSH1 0x80 PUSH1 0x40 MSTORE CALLVALUE DUP1 ISZERO PUSH2 0x10 JUMPI PUSH1 0x0 DUP1 REVERT JUMPDEST POP PUSH1 0x4 CALLDATASIZE LT PUSH2 0x4C JUMPI PUSH1 0x0 CALLDATALOAD PUSH1 0xE0 SHR DUP1 PUSH4 0x2792CACF EQ PUSH2 0x51 JUMPI DUP1 PUSH4 0x30BC6DB0 EQ PUSH2 0x81 JUMPI DUP1 PUSH4 0x6558B805 EQ PUSH2 0xB1 JUMPI DUP1 PUSH4 0xAF9DB7D2 EQ PUSH2 0xE1 JUMPI JUMPDEST PUSH1 0x0 DUP1 REVERT JUMPDEST PUSH2 0x6B PUSH1 0x4 DUP1 CALLDATASIZE SUB DUP2 ADD SWAP1 PUSH2 0x66 SWAP2 SWAP1 PUSH2 0x45D JUMP JUMPDEST PUSH2 0x111 JUMP JUMPDEST PUSH1 0x40 MLOAD PUSH2 0x78 SWAP2 SWAP1 PUSH2 0x4E5 JUMP JUMPDEST PUSH1 0x40 MLOAD DUP1 SWAP2 SUB SWAP1 RETURN JUMPDEST PUSH2 0x9B PUSH1 0x4 DUP1 CALLDATASIZE SUB DUP2 ADD SWAP1 PUSH2 0x96 SWAP2 SWAP1 PUSH2 0x45D JUMP JUMPDEST PUSH2 0x185 JUMP JUMPDEST PUSH1 0x40 MLOAD PUSH2 0xA8 SWAP2 SWAP1 PUSH2 0x4E5 JUMP JUMPDEST PUSH1 0x40 MLOAD DUP1 SWAP2 SUB SWAP1 RETURN JUMPDEST PUSH2 0xCB PUSH1 0x4 DUP1 CALLDATASIZE SUB DUP2 ADD SWAP1 PUSH2 0xC6 SWAP2 SWAP1 PUSH2 0x45D JUMP JUMPDEST PUSH2 0x203 JUMP JUMPDEST PUSH1 0x40 MLOAD PUSH2 0xD8 SWAP2 SWAP1 PUSH2 0x4E5 JUMP JUMPDEST PUSH1 0x40 MLOAD DUP1 SWAP2 SUB SWAP1 RETURN JUMPDEST PUSH2 0xFB PUSH1 0x4 DUP1 CALLDATASIZE SUB DUP2 ADD SWAP1 PUSH2 0xF6 SWAP2 SWAP1 PUSH2 0x45D JUMP JUMPDEST PUSH2 0x239 JUMP JUMPDEST PUSH1 0x40 MLOAD PUSH2 0x108 SWAP2 SWAP1 PUSH2 0x4E5 JUMP JUMPDEST PUSH1 0x40 MLOAD DUP1 SWAP2 SUB SWAP1 RETURN JUMPDEST PUSH1 0x0 PUSH1 0x3 DUP5 DUP5 DUP5 PUSH1 0x40 MLOAD PUSH1 0x20 ADD PUSH2 0x12A SWAP4 SWAP3 SWAP2 SWAP1 PUSH2 0x59D JUMP JUMPDEST PUSH1 0x40 MLOAD PUSH1 0x20 DUP2 DUP4 SUB SUB DUP2 MSTORE SWAP1 PUSH1 0x40 MSTORE PUSH1 0x40 MLOAD PUSH2 0x146 SWAP2 SWAP1 PUSH2 0x622 JUMP JUMPDEST PUSH1 0x20 PUSH1 0x40 MLOAD DUP1 DUP4 SUB DUP2 DUP6 GAS STATICCALL ISZERO DUP1 ISZERO PUSH2 0x163 JUMPI RETURNDATASIZE PUSH1 0x0 DUP1 RETURNDATACOPY RETURNDATASIZE PUSH1 0x0 REVERT JUMPDEST POP POP POP PUSH1 0x40 MLOAD MLOAD PUSH1 0x60 SHL PUSH12 0xFFFFFFFFFFFFFFFFFFFFFFFF NOT AND SWAP1 POP SWAP4 SWAP3 POP POP POP JUMP JUMPDEST PUSH1 0x0 PUSH1 0x2 DUP5 DUP5 DUP5 PUSH1 0x40 MLOAD PUSH1 0x20 ADD PUSH2 0x19E SWAP4 SWAP3 SWAP2 SWAP1 PUSH2 0x59D JUMP JUMPDEST PUSH1 0x40 MLOAD PUSH1 0x20 DUP2 DUP4 SUB SUB DUP2 MSTORE SWAP1 PUSH1 0x40 MSTORE PUSH1 0x40 MLOAD PUSH2 0x1BA SWAP2 SWAP1 PUSH2 0x622 JUMP JUMPDEST PUSH1 0x20 PUSH1 0x40 MLOAD DUP1 DUP4 SUB DUP2 DUP6 GAS STATICCALL ISZERO DUP1 ISZERO PUSH2 0x1D7 JUMPI RETURNDATASIZE PUSH1 0x0 DUP1 RETURNDATACOPY RETURNDATASIZE PUSH1 0x0 REVERT JUMPDEST POP POP POP PUSH1 0x40 MLOAD RETURNDATASIZE PUSH1 0x1F NOT PUSH1 0x1F DUP3 ADD AND DUP3 ADD DUP1 PUSH1 0x40 MSTORE POP DUP2 ADD SWAP1 PUSH2 0x1FA SWAP2 SWAP1 PUSH2 0x665 JUMP JUMPDEST SWAP1 POP SWAP4 SWAP3 POP POP POP JUMP JUMPDEST PUSH1 0x0 DUP4 DUP4 DUP4 PUSH1 0x40 MLOAD PUSH1 0x20 ADD PUSH2 0x21A SWAP4 SWAP3 SWAP2 SWAP1 PUSH2 0x59D JUMP JUMPDEST PUSH1 0x40 MLOAD PUSH1 0x20 DUP2 DUP4 SUB SUB DUP2 MSTORE SWAP1 PUSH1 0x40 MSTORE DUP1 MLOAD SWAP1 PUSH1 0x20 ADD KECCAK256 SWAP1 POP SWAP4 SWAP3 POP POP POP JUMP JUMPDEST PUSH1 0x0 DUP4 DUP4 DUP4 PUSH1 0x40 MLOAD PUSH1 0x20 ADD PUSH2 0x250 SWAP4 SWAP3 SWAP2 SWAP1 PUSH2 0x737 JUMP JUMPDEST PUSH1 0x40 MLOAD PUSH1 0x20 DUP2 DUP4 SUB SUB DUP2 MSTORE SWAP1 PUSH1 0x40 MSTORE DUP1 MLOAD SWAP1 PUSH1 0x20 ADD KECCAK256 SWAP1 POP SWAP4 SWAP3 POP POP POP JUMP JUMPDEST PUSH1 0x0 PUSH1 0x40 MLOAD SWAP1 POP SWAP1 JUMP JUMPDEST PUSH1 0x0 DUP1 REVERT JUMPDEST PUSH1 0x0 DUP1 REVERT JUMPDEST PUSH1 0x0 DUP2 SWAP1 POP SWAP2 SWAP1 POP JUMP JUMPDEST PUSH2 0x296 DUP2 PUSH2 0x283 JUMP JUMPDEST DUP2 EQ PUSH2 0x2A1 JUMPI PUSH1 0x0 DUP1 REVERT JUMPDEST POP JUMP JUMPDEST PUSH1 0x0 DUP2 CALLDATALOAD SWAP1 POP PUSH2 0x2B3 DUP2 PUSH2 0x28D JUMP JUMPDEST SWAP3 SWAP2 POP POP JUMP JUMPDEST PUSH1 0x0 DUP1 REVERT JUMPDEST PUSH1 0x0 DUP1 REVERT JUMPDEST PUSH1 0x0 PUSH1 0x1F NOT PUSH1 0x1F DUP4 ADD AND SWAP1 POP SWAP2 SWAP1 POP JUMP JUMPDEST PUSH32 0x4E487B7100000000000000000000000000000000000000000000000000000000 PUSH1 0x0 MSTORE PUSH1 0x41 PUSH1 0x4 MSTORE PUSH1 0x24 PUSH1 0x0 REVERT JUMPDEST PUSH2 0x30C DUP3 PUSH2 0x2C3 JUMP JUMPDEST DUP2 ADD DUP2 DUP2 LT PUSH8 0xFFFFFFFFFFFFFFFF DUP3 GT OR ISZERO PUSH2 0x32B JUMPI PUSH2 0x32A PUSH2 0x2D4 JUMP JUMPDEST JUMPDEST DUP1 PUSH1 0x40 MSTORE POP POP POP JUMP JUMPDEST PUSH1 0x0 PUSH2 0x33E PUSH2 0x26F JUMP JUMPDEST SWAP1 POP PUSH2 0x34A DUP3 DUP3 PUSH2 0x303 JUMP JUMPDEST SWAP2 SWAP1 POP JUMP JUMPDEST PUSH1 0x0 PUSH8 0xFFFFFFFFFFFFFFFF DUP3 GT ISZERO PUSH2 0x36A JUMPI PUSH2 0x369 PUSH2 0x2D4 JUMP JUMPDEST JUMPDEST PUSH2 0x373 DUP3 PUSH2 0x2C3 JUMP JUMPDEST SWAP1 POP PUSH1 0x20 DUP2 ADD SWAP1 POP SWAP2 SWAP1 POP JUMP JUMPDEST DUP3 DUP2 DUP4 CALLDATACOPY PUSH1 0x0 DUP4 DUP4 ADD MSTORE POP POP POP JUMP JUMPDEST PUSH1 0x0 PUSH2 0x3A2 PUSH2 0x39D DUP5 PUSH2 0x34F JUMP JUMPDEST PUSH2 0x334 JUMP JUMPDEST SWAP1 POP DUP3 DUP2 MSTORE PUSH1 0x20 DUP2 ADD DUP5 DUP5 DUP5 ADD GT ISZERO PUSH2 0x3BE JUMPI PUSH2 0x3BD PUSH2 0x2BE JUMP JUMPDEST JUMPDEST PUSH2 0x3C9 DUP5 DUP3 DUP6 PUSH2 0x380 JUMP JUMPDEST POP SWAP4 SWAP3 POP POP POP JUMP JUMPDEST PUSH1 0x0 DUP3 PUSH1 0x1F DUP4 ADD SLT PUSH2 0x3E6 JUMPI PUSH2 0x3E5 PUSH2 0x2B9 JUMP JUMPDEST JUMPDEST DUP2 CALLDATALOAD PUSH2 0x3F6 DUP5 DUP3 PUSH1 0x20 DUP7 ADD PUSH2 0x38F JUMP JUMPDEST SWAP2 POP POP SWAP3 SWAP2 POP POP JUMP JUMPDEST PUSH1 0x0 PUSH20 0xFFFFFFFFFFFFFFFFFFFFFFFFFFFFFFFFFFFFFFFF DUP3 AND SWAP1 POP SWAP2 SWAP1 POP JUMP JUMPDEST PUSH1 0x0 PUSH2 0x42A DUP3 PUSH2 0x3FF JUMP JUMPDEST SWAP1 POP SWAP2 SWAP1 POP JUMP JUMPDEST PUSH2 0x43A DUP2 PUSH2 0x41F JUMP JUMPDEST DUP2 EQ PUSH2 0x445 JUMPI PUSH1 0x0 DUP1 REVERT JUMPDEST POP JUMP JUMPDEST PUSH1 0x0 DUP2 CALLDATALOAD SWAP1 POP PUSH2 0x457 DUP2 PUSH2 0x431 JUMP JUMPDEST SWAP3 SWAP2 POP POP JUMP JUMPDEST PUSH1 0x0 DUP1 PUSH1 0x0 PUSH1 0x60 DUP5 DUP7 SUB SLT ISZERO PUSH2 0x476 JUMPI PUSH2 0x475 PUSH2 0x279 JUMP JUMPDEST JUMPDEST PUSH1 0x0 PUSH2 0x484 DUP7 DUP3 DUP8 ADD PUSH2 0x2A4 JUMP JUMPDEST SWAP4 POP POP PUSH1 0x20 DUP5 ADD CALLDATALOAD PUSH8 0xFFFFFFFFFFFFFFFF DUP2 GT ISZERO PUSH2 0x4A5 JUMPI PUSH2 0x4A4 PUSH2 0x27E JUMP JUMPDEST JUMPDEST PUSH2 0x4B1 DUP7 DUP3 DUP8 ADD PUSH2 0x3D1 JUMP JUMPDEST SWAP3 POP POP PUSH1 0x40 PUSH2 0x4C2 DUP7 DUP3 DUP8 ADD PUSH2 0x448 JUMP JUMPDEST SWAP2 POP POP SWAP3 POP SWAP3 POP SWAP3 JUMP JUMPDEST PUSH1 0x0 DUP2 SWAP1 POP SWAP2 SWAP1 POP JUMP JUMPDEST PUSH2 0x4DF DUP2 PUSH2 0x4CC JUMP JUMPDEST DUP3 MSTORE POP POP JUMP JUMPDEST PUSH1 0x0 PUSH1 0x20 DUP3 ADD SWAP1 POP PUSH2 0x4FA PUSH1 0x0 DUP4 ADD DUP5 PUSH2 0x4D6 JUMP JUMPDEST SWAP3 SWAP2 POP POP JUMP JUMPDEST PUSH2 0x509 DUP2 PUSH2 0x283 JUMP JUMPDEST DUP3 MSTORE POP POP JUMP JUMPDEST PUSH1 0x0 DUP2 MLOAD SWAP1 POP SWAP2 SWAP1 POP JUMP JUMPDEST PUSH1 0x0 DUP3 DUP3 MSTORE PUSH1 0x20 DUP3 ADD SWAP1 POP SWAP3 SWAP2 POP POP JUMP JUMPDEST PUSH1 0x0 JUMPDEST DUP4 DUP2 LT ISZERO PUSH2 0x549 JUMPI DUP1 DUP3 ADD MLOAD DUP2 DUP5 ADD MSTORE PUSH1 0x20 DUP2 ADD SWAP1 POP PUSH2 0x52E JUMP JUMPDEST PUSH1 0x0 DUP5 DUP5 ADD MSTORE POP POP POP POP JUMP JUMPDEST PUSH1 0x0 PUSH2 0x560 DUP3 PUSH2 0x50F JUMP JUMPDEST PUSH2 0x56A DUP2 DUP6 PUSH2 0x51A JUMP JUMPDEST SWAP4 POP PUSH2 0x57A DUP2 DUP6 PUSH1 0x20 DUP7 ADD PUSH2 0x52B JUMP JUMPDEST PUSH2 0x583 DUP2 PUSH2 0x2C3 JUMP JUMPDEST DUP5 ADD SWAP2 POP POP SWAP3 SWAP2 POP POP JUMP JUMPDEST PUSH2 0x597 DUP2 PUSH2 0x41F JUMP JUMPDEST DUP3 MSTORE POP POP JUMP JUMPDEST PUSH1 0x0 PUSH1 0x60 DUP3 ADD SWAP1 POP PUSH2 0x5B2 PUSH1 0x0 DUP4 ADD DUP7 PUSH2 0x500 JUMP JUMPDEST DUP2 DUP2 SUB PUSH1 0x20 DUP4 ADD MSTORE PUSH2 0x5C4 DUP2 DUP6 PUSH2 0x555 JUMP JUMPDEST SWAP1 POP PUSH2 0x5D3 PUSH1 0x40 DUP4 ADD DUP5 PUSH2 0x58E JUMP JUMPDEST SWAP5 SWAP4 POP POP POP POP JUMP JUMPDEST PUSH1 0x0 DUP2 MLOAD SWAP1 POP SWAP2 SWAP1 POP JUMP JUMPDEST PUSH1 0x0 DUP2 SWAP1 POP SWAP3 SWAP2 POP POP JUMP JUMPDEST PUSH1 0x0 PUSH2 0x5FC DUP3 PUSH2 0x5DB JUMP JUMPDEST PUSH2 0x606 DUP2 DUP6 PUSH2 0x5E6 JUMP JUMPDEST SWAP4 POP PUSH2 0x616 DUP2 DUP6 PUSH1 0x20 DUP7 ADD PUSH2 0x52B JUMP JUMPDEST DUP1 DUP5 ADD SWAP2 POP POP SWAP3 SWAP2 POP POP JUMP JUMPDEST PUSH1 0x0 PUSH2 0x62E DUP3 DUP5 PUSH2 0x5F1 JUMP JUMPDEST SWAP2 POP DUP2 SWAP1 POP SWAP3 SWAP2 POP POP JUMP JUMPDEST PUSH2 0x642 DUP2 PUSH2 0x4CC JUMP JUMPDEST DUP2 EQ PUSH2 0x64D JUMPI PUSH1 0x0 DUP1 REVERT JUMPDEST POP JUMP JUMPDEST PUSH1 0x0 DUP2 MLOAD SWAP1 POP PUSH2 0x65F DUP2 PUSH2 0x639 JUMP JUMPDEST SWAP3 SWAP2 POP POP JUMP JUMPDEST PUSH1 0x0 PUSH1 0x20 DUP3 DUP5 SUB SLT ISZERO PUSH2 0x67B JUMPI PUSH2 0x67A PUSH2 0x279 JUMP JUMPDEST JUMPDEST PUSH1 0x0 PUSH2 0x689 DUP5 DUP3 DUP6 ADD PUSH2 0x650 JUMP JUMPDEST SWAP2 POP POP SWAP3 SWAP2 POP POP JUMP JUMPDEST PUSH1 0x0 DUP2 SWAP1 POP SWAP2 SWAP1 POP JUMP JUMPDEST PUSH2 0x6AD PUSH2 0x6A8 DUP3 PUSH2 0x283 JUMP JUMPDEST PUSH2 0x692 JUMP JUMPDEST DUP3 MSTORE POP POP JUMP JUMPDEST PUSH1 0x0 DUP2 SWAP1 POP SWAP3 SWAP2 POP POP JUMP JUMPDEST PUSH1 0x0 PUSH2 0x6C9 DUP3 PUSH2 0x50F JUMP JUMPDEST PUSH2 0x6D3 DUP2 DUP6 PUSH2 0x6B3 JUMP JUMPDEST SWAP4 POP PUSH2 0x6E3 DUP2 DUP6 PUSH1 0x20 DUP7 ADD PUSH2 0x52B JUMP JUMPDEST DUP1 DUP5 ADD SWAP2 POP POP SWAP3 SWAP2 POP POP JUMP JUMPDEST PUSH1 0x0 DUP2 PUSH1 0x60 SHL SWAP1 POP SWAP2 SWAP1 POP JUMP JUMPDEST PUSH1 0x0 PUSH2 0x707 DUP3 PUSH2 0x6EF JUMP JUMPDEST SWAP1 POP SWAP2 SWAP1 POP JUMP JUMPDEST PUSH1 0x0 PUSH2 0x719 DUP3 PUSH2 0x6FC JUMP JUMPDEST SWAP1 POP SWAP2 SWAP1 POP JUMP JUMPDEST PUSH2 0x731 PUSH2 0x72C DUP3 PUSH2 0x41F JUMP JUMPDEST PUSH2 0x70E JUMP JUMPDEST DUP3 MSTORE POP POP JUMP JUMPDEST PUSH1 0x0 PUSH2 0x743 DUP3 DUP7 PUSH2 0x69C JUMP JUMPDEST PUSH1 0x20 DUP3 ADD SWAP2 POP PUSH2 0x753 DUP3 DUP6 PUSH2 0x6BE JUMP JUMPDEST SWAP2 POP PUSH2 0x75F DUP3 DUP5 PUSH2 0x720 JUMP JUMPDEST PUSH1 0x14 DUP3 ADD SWAP2 POP DUP2 SWAP1 POP SWAP5 SWAP4 POP POP POP POP JUMP INVALID LOG2 PUSH5 0x6970667358 0x22 SLT KECCAK256 0xE0 0xE5 0xF6 PUSH29 0xCC22229CFD6F5888F0B9B3B77CA89157CAE8C479CBA7142C1C4BA2C164 PUSH20 0x6F6C634300081100330000000000000000000000 "
		},
		"gasEstimates": {
			"creation": {
				"codeDepositCost": "391600",
				"executionCost": "430",
				"totalCost": "392030"
			},
			"external": {
				"hashkeccak256(uint256,string,address)": "infinite",
				"hashkeccak2562(uint256,string,address)": "infinite",
				"hashripemd160(uint256,string,address)": "infinite",
				"hashsha256(uint256,string,address)": "infinite"
			}
		},
		"methodIdentifiers": {
			"hashkeccak256(uint256,string,address)": "6558b805",
			"hashkeccak2562(uint256,string,address)": "af9db7d2",
			"hashripemd160(uint256,string,address)": "2792cacf",
			"hashsha256(uint256,string,address)": "30bc6db0"
		}
	},
	"abi": [
		{
			"inputs": [
				{
					"internalType": "uint256",
					"name": "_x",
					"type": "uint256"
				},
				{
					"internalType": "string",
					"name": "name",
					"type": "string"
				},
				{
					"internalType": "address",
					"name": "_add",
					"type": "address"
				}
			],
			"name": "hashkeccak256",
			"outputs": [
				{
					"internalType": "bytes32",
					"name": "",
					"type": "bytes32"
				}
			],
			"stateMutability": "pure",
			"type": "function"
		},
		{
			"inputs": [
				{
					"internalType": "uint256",
					"name": "_x",
					"type": "uint256"
				},
				{
					"internalType": "string",
					"name": "name",
					"type": "string"
				},
				{
					"internalType": "address",
					"name": "_add",
					"type": "address"
				}
			],
			"name": "hashkeccak2562",
			"outputs": [
				{
					"internalType": "bytes32",
					"name": "",
					"type": "bytes32"
				}
			],
			"stateMutability": "pure",
			"type": "function"
		},
		{
			"inputs": [
				{
					"internalType": "uint256",
					"name": "_x",
					"type": "uint256"
				},
				{
					"internalType": "string",
					"name": "name",
					"type": "string"
				},
				{
					"internalType": "address",
					"name": "_add",
					"type": "address"
				}
			],
			"name": "hashripemd160",
			"outputs": [
				{
					"internalType": "bytes32",
					"name": "",
					"type": "bytes32"
				}
			],
			"stateMutability": "pure",
			"type": "function"
		},
		{
			"inputs": [
				{
					"internalType": "uint256",
					"name": "_x",
					"type": "uint256"
				},
				{
					"internalType": "string",
					"name": "name",
					"type": "string"
				},
				{
					"internalType": "address",
					"name": "_add",
					"type": "address"
				}
			],
			"name": "hashsha256",
			"outputs": [
				{
					"internalType": "bytes32",
					"name": "",
					"type": "bytes32"
				}
			],
			"stateMutability": "pure",
			"type": "function"
		}
	]
}