{
	"artifacts/BASICMAPPING.sol": {
		"basicmapping": {
			"abi": [
				{
					"inputs": [
						{
							"internalType": "uint256",
							"name": "",
							"type": "uint256"
						}
					],
					"name": "emp_ids",
					"outputs": [
						{
							"internalType": "string",
							"name": "",
							"type": "string"
						}
					],
					"stateMutability": "view",
					"type": "function"
				},
				{
					"inputs": [
						{
							"internalType": "uint256",
							"name": "_id",
							"type": "uint256"
						}
					],
					"name": "getids",
					"outputs": [
						{
							"internalType": "string",
							"name": "",
							"type": "string"
						}
					],
					"stateMutability": "view",
					"type": "function"
				},
				{
					"inputs": [],
					"name": "setids",
					"outputs": [],
					"stateMutability": "nonpayable",
					"type": "function"
				}
			],
			"devdoc": {
				"kind": "dev",
				"methods": {},
				"version": 1
			},
			"evm": {
				"assembly": "    /* \"artifacts/BASICMAPPING.sol\":60:395  contract basicmapping{... */\n  mstore(0x40, 0x80)\n  callvalue\n  dup1\n  iszero\n  tag_1\n  jumpi\n  0x00\n  dup1\n  revert\ntag_1:\n  pop\n  dataSize(sub_0)\n  dup1\n  dataOffset(sub_0)\n  0x00\n  codecopy\n  0x00\n  return\nstop\n\nsub_0: assembly {\n        /* \"artifacts/BASICMAPPING.sol\":60:395  contract basicmapping{... */\n      mstore(0x40, 0x80)\n      callvalue\n      dup1\n      iszero\n      tag_1\n      jumpi\n      0x00\n      dup1\n      revert\n    tag_1:\n      pop\n      jumpi(tag_2, lt(calldatasize, 0x04))\n      shr(0xe0, calldataload(0x00))\n      dup1\n      0x2bac7532\n      eq\n      tag_3\n      jumpi\n      dup1\n      0x3d13cdac\n      eq\n      tag_4\n      jumpi\n      dup1\n      0xe3828e4b\n      eq\n      tag_5\n      jumpi\n    tag_2:\n      0x00\n      dup1\n      revert\n        /* \"artifacts/BASICMAPPING.sol\":90:126  mapping(uint=>string) public emp_ids */\n    tag_3:\n      tag_6\n      0x04\n      dup1\n      calldatasize\n      sub\n      dup2\n      add\n      swap1\n      tag_7\n      swap2\n      swap1\n      tag_8\n      jump\t// in\n    tag_7:\n      tag_9\n      jump\t// in\n    tag_6:\n      mload(0x40)\n      tag_10\n      swap2\n      swap1\n      tag_11\n      jump\t// in\n    tag_10:\n      mload(0x40)\n      dup1\n      swap2\n      sub\n      swap1\n      return\n        /* \"artifacts/BASICMAPPING.sol\":135:288  function setids() public{... */\n    tag_4:\n      tag_12\n      tag_13\n      jump\t// in\n    tag_12:\n      stop\n        /* \"artifacts/BASICMAPPING.sol\":294:392  function getids(uint _id) public view returns(string memory){... */\n    tag_5:\n      tag_14\n      0x04\n      dup1\n      calldatasize\n      sub\n      dup2\n      add\n      swap1\n      tag_15\n      swap2\n      swap1\n      tag_8\n      jump\t// in\n    tag_15:\n      tag_16\n      jump\t// in\n    tag_14:\n      mload(0x40)\n      tag_17\n      swap2\n      swap1\n      tag_11\n      jump\t// in\n    tag_17:\n      mload(0x40)\n      dup1\n      swap2\n      sub\n      swap1\n      return\n        /* \"artifacts/BASICMAPPING.sol\":90:126  mapping(uint=>string) public emp_ids */\n    tag_9:\n      mstore(0x20, 0x00)\n      dup1\n      0x00\n      mstore\n      keccak256(0x00, 0x40)\n      0x00\n      swap2\n      pop\n      swap1\n      pop\n      dup1\n      sload\n      tag_18\n      swap1\n      tag_19\n      jump\t// in\n    tag_18:\n      dup1\n      0x1f\n      add\n      0x20\n      dup1\n      swap2\n      div\n      mul\n      0x20\n      add\n      mload(0x40)\n      swap1\n      dup2\n      add\n      0x40\n      mstore\n      dup1\n      swap3\n      swap2\n      swap1\n      dup2\n      dup2\n      mstore\n      0x20\n      add\n      dup3\n      dup1\n      sload\n      tag_20\n      swap1\n      tag_19\n      jump\t// in\n    tag_20:\n      dup1\n      iszero\n      tag_21\n      jumpi\n      dup1\n      0x1f\n      lt\n      tag_22\n      jumpi\n      0x0100\n      dup1\n      dup4\n      sload\n      div\n      mul\n      dup4\n      mstore\n      swap2\n      0x20\n      add\n      swap2\n      jump(tag_21)\n    tag_22:\n      dup3\n      add\n      swap2\n      swap1\n      0x00\n      mstore\n      keccak256(0x00, 0x20)\n      swap1\n    tag_23:\n      dup2\n      sload\n      dup2\n      mstore\n      swap1\n      0x01\n      add\n      swap1\n      0x20\n      add\n      dup1\n      dup4\n      gt\n      tag_23\n      jumpi\n      dup3\n      swap1\n      sub\n      0x1f\n      and\n      dup3\n      add\n      swap2\n    tag_21:\n      pop\n      pop\n      pop\n      pop\n      pop\n      dup2\n      jump\t// out\n        /* \"artifacts/BASICMAPPING.sol\":135:288  function setids() public{... */\n    tag_13:\n        /* \"artifacts/BASICMAPPING.sol\":170:191  emp_ids[31]=\"lakshay\" */\n      mload(0x40)\n      dup1\n      0x40\n      add\n      0x40\n      mstore\n      dup1\n      0x07\n      dup2\n      mstore\n      0x20\n      add\n      0x6c616b7368617900000000000000000000000000000000000000000000000000\n      dup2\n      mstore\n      pop\n        /* \"artifacts/BASICMAPPING.sol\":170:177  emp_ids */\n      0x00\n        /* \"artifacts/BASICMAPPING.sol\":170:181  emp_ids[31] */\n      dup1\n        /* \"artifacts/BASICMAPPING.sol\":178:180  31 */\n      0x1f\n        /* \"artifacts/BASICMAPPING.sol\":170:181  emp_ids[31] */\n      dup2\n      mstore\n      0x20\n      add\n      swap1\n      dup2\n      mstore\n      0x20\n      add\n      0x00\n      keccak256\n        /* \"artifacts/BASICMAPPING.sol\":170:191  emp_ids[31]=\"lakshay\" */\n      swap1\n      dup2\n      tag_25\n      swap2\n      swap1\n      tag_26\n      jump\t// in\n    tag_25:\n      pop\n        /* \"artifacts/BASICMAPPING.sol\":202:220  emp_ids[14]=\"lolu\" */\n      mload(0x40)\n      dup1\n      0x40\n      add\n      0x40\n      mstore\n      dup1\n      0x04\n      dup2\n      mstore\n      0x20\n      add\n      0x6c6f6c7500000000000000000000000000000000000000000000000000000000\n      dup2\n      mstore\n      pop\n        /* \"artifacts/BASICMAPPING.sol\":202:209  emp_ids */\n      0x00\n        /* \"artifacts/BASICMAPPING.sol\":202:213  emp_ids[14] */\n      dup1\n        /* \"artifacts/BASICMAPPING.sol\":210:212  14 */\n      0x0e\n        /* \"artifacts/BASICMAPPING.sol\":202:213  emp_ids[14] */\n      dup2\n      mstore\n      0x20\n      add\n      swap1\n      dup2\n      mstore\n      0x20\n      add\n      0x00\n      keccak256\n        /* \"artifacts/BASICMAPPING.sol\":202:220  emp_ids[14]=\"lolu\" */\n      swap1\n      dup2\n      tag_27\n      swap2\n      swap1\n      tag_26\n      jump\t// in\n    tag_27:\n      pop\n        /* \"artifacts/BASICMAPPING.sol\":231:248  emp_ids[22]=\"bhr\" */\n      mload(0x40)\n      dup1\n      0x40\n      add\n      0x40\n      mstore\n      dup1\n      0x03\n      dup2\n      mstore\n      0x20\n      add\n      0x6268720000000000000000000000000000000000000000000000000000000000\n      dup2\n      mstore\n      pop\n        /* \"artifacts/BASICMAPPING.sol\":231:238  emp_ids */\n      0x00\n        /* \"artifacts/BASICMAPPING.sol\":231:242  emp_ids[22] */\n      dup1\n        /* \"artifacts/BASICMAPPING.sol\":239:241  22 */\n      0x16\n        /* \"artifacts/BASICMAPPING.sol\":231:242  emp_ids[22] */\n      dup2\n      mstore\n      0x20\n      add\n      swap1\n      dup2\n      mstore\n      0x20\n      add\n      0x00\n      keccak256\n        /* \"artifacts/BASICMAPPING.sol\":231:248  emp_ids[22]=\"bhr\" */\n      swap1\n      dup2\n      tag_28\n      swap2\n      swap1\n      tag_26\n      jump\t// in\n    tag_28:\n      pop\n        /* \"artifacts/BASICMAPPING.sol\":259:280  emp_ids[33]=\"hjdbjds\" */\n      mload(0x40)\n      dup1\n      0x40\n      add\n      0x40\n      mstore\n      dup1\n      0x07\n      dup2\n      mstore\n      0x20\n      add\n      0x686a64626a647300000000000000000000000000000000000000000000000000\n      dup2\n      mstore\n      pop\n        /* \"artifacts/BASICMAPPING.sol\":259:266  emp_ids */\n      0x00\n        /* \"artifacts/BASICMAPPING.sol\":259:270  emp_ids[33] */\n      dup1\n        /* \"artifacts/BASICMAPPING.sol\":267:269  33 */\n      0x21\n        /* \"artifacts/BASICMAPPING.sol\":259:270  emp_ids[33] */\n      dup2\n      mstore\n      0x20\n      add\n      swap1\n      dup2\n      mstore\n      0x20\n      add\n      0x00\n      keccak256\n        /* \"artifacts/BASICMAPPING.sol\":259:280  emp_ids[33]=\"hjdbjds\" */\n      swap1\n      dup2\n      tag_29\n      swap2\n      swap1\n      tag_26\n      jump\t// in\n    tag_29:\n      pop\n        /* \"artifacts/BASICMAPPING.sol\":135:288  function setids() public{... */\n      jump\t// out\n        /* \"artifacts/BASICMAPPING.sol\":294:392  function getids(uint _id) public view returns(string memory){... */\n    tag_16:\n        /* \"artifacts/BASICMAPPING.sol\":340:353  string memory */\n      0x60\n        /* \"artifacts/BASICMAPPING.sol\":372:379  emp_ids */\n      0x00\n        /* \"artifacts/BASICMAPPING.sol\":372:384  emp_ids[_id] */\n      dup1\n        /* \"artifacts/BASICMAPPING.sol\":380:383  _id */\n      dup4\n        /* \"artifacts/BASICMAPPING.sol\":372:384  emp_ids[_id] */\n      dup2\n      mstore\n      0x20\n      add\n      swap1\n      dup2\n      mstore\n      0x20\n      add\n      0x00\n      keccak256\n        /* \"artifacts/BASICMAPPING.sol\":365:384  return emp_ids[_id] */\n      dup1\n      sload\n      tag_31\n      swap1\n      tag_19\n      jump\t// in\n    tag_31:\n      dup1\n      0x1f\n      add\n      0x20\n      dup1\n      swap2\n      div\n      mul\n      0x20\n      add\n      mload(0x40)\n      swap1\n      dup2\n      add\n      0x40\n      mstore\n      dup1\n      swap3\n      swap2\n      swap1\n      dup2\n      dup2\n      mstore\n      0x20\n      add\n      dup3\n      dup1\n      sload\n      tag_32\n      swap1\n      tag_19\n      jump\t// in\n    tag_32:\n      dup1\n      iszero\n      tag_33\n      jumpi\n      dup1\n      0x1f\n      lt\n      tag_34\n      jumpi\n      0x0100\n      dup1\n      dup4\n      sload\n      div\n      mul\n      dup4\n      mstore\n      swap2\n      0x20\n      add\n      swap2\n      jump(tag_33)\n    tag_34:\n      dup3\n      add\n      swap2\n      swap1\n      0x00\n      mstore\n      keccak256(0x00, 0x20)\n      swap1\n    tag_35:\n      dup2\n      sload\n      dup2\n      mstore\n      swap1\n      0x01\n      add\n      swap1\n      0x20\n      add\n      dup1\n      dup4\n      gt\n      tag_35\n      jumpi\n      dup3\n      swap1\n      sub\n      0x1f\n      and\n      dup3\n      add\n      swap2\n    tag_33:\n      pop\n      pop\n      pop\n      pop\n      pop\n      swap1\n      pop\n        /* \"artifacts/BASICMAPPING.sol\":294:392  function getids(uint _id) public view returns(string memory){... */\n      swap2\n      swap1\n      pop\n      jump\t// out\n        /* \"#utility.yul\":88:205   */\n    tag_37:\n        /* \"#utility.yul\":197:198   */\n      0x00\n        /* \"#utility.yul\":194:195   */\n      dup1\n        /* \"#utility.yul\":187:199   */\n      revert\n        /* \"#utility.yul\":334:411   */\n    tag_39:\n        /* \"#utility.yul\":371:378   */\n      0x00\n        /* \"#utility.yul\":400:405   */\n      dup2\n        /* \"#utility.yul\":389:405   */\n      swap1\n      pop\n        /* \"#utility.yul\":334:411   */\n      swap2\n      swap1\n      pop\n      jump\t// out\n        /* \"#utility.yul\":417:539   */\n    tag_40:\n        /* \"#utility.yul\":490:514   */\n      tag_70\n        /* \"#utility.yul\":508:513   */\n      dup2\n        /* \"#utility.yul\":490:514   */\n      tag_39\n      jump\t// in\n    tag_70:\n        /* \"#utility.yul\":483:488   */\n      dup2\n        /* \"#utility.yul\":480:515   */\n      eq\n        /* \"#utility.yul\":470:533   */\n      tag_71\n      jumpi\n        /* \"#utility.yul\":529:530   */\n      0x00\n        /* \"#utility.yul\":526:527   */\n      dup1\n        /* \"#utility.yul\":519:531   */\n      revert\n        /* \"#utility.yul\":470:533   */\n    tag_71:\n        /* \"#utility.yul\":417:539   */\n      pop\n      jump\t// out\n        /* \"#utility.yul\":545:684   */\n    tag_41:\n        /* \"#utility.yul\":591:596   */\n      0x00\n        /* \"#utility.yul\":629:635   */\n      dup2\n        /* \"#utility.yul\":616:636   */\n      calldataload\n        /* \"#utility.yul\":607:636   */\n      swap1\n      pop\n        /* \"#utility.yul\":645:678   */\n      tag_73\n        /* \"#utility.yul\":672:677   */\n      dup2\n        /* \"#utility.yul\":645:678   */\n      tag_40\n      jump\t// in\n    tag_73:\n        /* \"#utility.yul\":545:684   */\n      swap3\n      swap2\n      pop\n      pop\n      jump\t// out\n        /* \"#utility.yul\":690:1019   */\n    tag_8:\n        /* \"#utility.yul\":749:755   */\n      0x00\n        /* \"#utility.yul\":798:800   */\n      0x20\n        /* \"#utility.yul\":786:795   */\n      dup3\n        /* \"#utility.yul\":777:784   */\n      dup5\n        /* \"#utility.yul\":773:796   */\n      sub\n        /* \"#utility.yul\":769:801   */\n      slt\n        /* \"#utility.yul\":766:885   */\n      iszero\n      tag_75\n      jumpi\n        /* \"#utility.yul\":804:883   */\n      tag_76\n      tag_37\n      jump\t// in\n    tag_76:\n        /* \"#utility.yul\":766:885   */\n    tag_75:\n        /* \"#utility.yul\":924:925   */\n      0x00\n        /* \"#utility.yul\":949:1002   */\n      tag_77\n        /* \"#utility.yul\":994:1001   */\n      dup5\n        /* \"#utility.yul\":985:991   */\n      dup3\n        /* \"#utility.yul\":974:983   */\n      dup6\n        /* \"#utility.yul\":970:992   */\n      add\n        /* \"#utility.yul\":949:1002   */\n      tag_41\n      jump\t// in\n    tag_77:\n        /* \"#utility.yul\":939:1002   */\n      swap2\n      pop\n        /* \"#utility.yul\":895:1012   */\n      pop\n        /* \"#utility.yul\":690:1019   */\n      swap3\n      swap2\n      pop\n      pop\n      jump\t// out\n        /* \"#utility.yul\":1025:1124   */\n    tag_42:\n        /* \"#utility.yul\":1077:1083   */\n      0x00\n        /* \"#utility.yul\":1111:1116   */\n      dup2\n        /* \"#utility.yul\":1105:1117   */\n      mload\n        /* \"#utility.yul\":1095:1117   */\n      swap1\n      pop\n        /* \"#utility.yul\":1025:1124   */\n      swap2\n      swap1\n      pop\n      jump\t// out\n        /* \"#utility.yul\":1130:1299   */\n    tag_43:\n        /* \"#utility.yul\":1214:1225   */\n      0x00\n        /* \"#utility.yul\":1248:1254   */\n      dup3\n        /* \"#utility.yul\":1243:1246   */\n      dup3\n        /* \"#utility.yul\":1236:1255   */\n      mstore\n        /* \"#utility.yul\":1288:1292   */\n      0x20\n        /* \"#utility.yul\":1283:1286   */\n      dup3\n        /* \"#utility.yul\":1279:1293   */\n      add\n        /* \"#utility.yul\":1264:1293   */\n      swap1\n      pop\n        /* \"#utility.yul\":1130:1299   */\n      swap3\n      swap2\n      pop\n      pop\n      jump\t// out\n        /* \"#utility.yul\":1305:1551   */\n    tag_44:\n        /* \"#utility.yul\":1386:1387   */\n      0x00\n        /* \"#utility.yul\":1396:1509   */\n    tag_81:\n        /* \"#utility.yul\":1410:1416   */\n      dup4\n        /* \"#utility.yul\":1407:1408   */\n      dup2\n        /* \"#utility.yul\":1404:1417   */\n      lt\n        /* \"#utility.yul\":1396:1509   */\n      iszero\n      tag_83\n      jumpi\n        /* \"#utility.yul\":1495:1496   */\n      dup1\n        /* \"#utility.yul\":1490:1493   */\n      dup3\n        /* \"#utility.yul\":1486:1497   */\n      add\n        /* \"#utility.yul\":1480:1498   */\n      mload\n        /* \"#utility.yul\":1476:1477   */\n      dup2\n        /* \"#utility.yul\":1471:1474   */\n      dup5\n        /* \"#utility.yul\":1467:1478   */\n      add\n        /* \"#utility.yul\":1460:1499   */\n      mstore\n        /* \"#utility.yul\":1432:1434   */\n      0x20\n        /* \"#utility.yul\":1429:1430   */\n      dup2\n        /* \"#utility.yul\":1425:1435   */\n      add\n        /* \"#utility.yul\":1420:1435   */\n      swap1\n      pop\n        /* \"#utility.yul\":1396:1509   */\n      jump(tag_81)\n    tag_83:\n        /* \"#utility.yul\":1543:1544   */\n      0x00\n        /* \"#utility.yul\":1534:1540   */\n      dup5\n        /* \"#utility.yul\":1529:1532   */\n      dup5\n        /* \"#utility.yul\":1525:1541   */\n      add\n        /* \"#utility.yul\":1518:1545   */\n      mstore\n        /* \"#utility.yul\":1367:1551   */\n      pop\n        /* \"#utility.yul\":1305:1551   */\n      pop\n      pop\n      pop\n      jump\t// out\n        /* \"#utility.yul\":1557:1659   */\n    tag_45:\n        /* \"#utility.yul\":1598:1604   */\n      0x00\n        /* \"#utility.yul\":1649:1651   */\n      0x1f\n        /* \"#utility.yul\":1645:1652   */\n      not\n        /* \"#utility.yul\":1640:1642   */\n      0x1f\n        /* \"#utility.yul\":1633:1638   */\n      dup4\n        /* \"#utility.yul\":1629:1643   */\n      add\n        /* \"#utility.yul\":1625:1653   */\n      and\n        /* \"#utility.yul\":1615:1653   */\n      swap1\n      pop\n        /* \"#utility.yul\":1557:1659   */\n      swap2\n      swap1\n      pop\n      jump\t// out\n        /* \"#utility.yul\":1665:2042   */\n    tag_46:\n        /* \"#utility.yul\":1753:1756   */\n      0x00\n        /* \"#utility.yul\":1781:1820   */\n      tag_86\n        /* \"#utility.yul\":1814:1819   */\n      dup3\n        /* \"#utility.yul\":1781:1820   */\n      tag_42\n      jump\t// in\n    tag_86:\n        /* \"#utility.yul\":1836:1907   */\n      tag_87\n        /* \"#utility.yul\":1900:1906   */\n      dup2\n        /* \"#utility.yul\":1895:1898   */\n      dup6\n        /* \"#utility.yul\":1836:1907   */\n      tag_43\n      jump\t// in\n    tag_87:\n        /* \"#utility.yul\":1829:1907   */\n      swap4\n      pop\n        /* \"#utility.yul\":1916:1981   */\n      tag_88\n        /* \"#utility.yul\":1974:1980   */\n      dup2\n        /* \"#utility.yul\":1969:1972   */\n      dup6\n        /* \"#utility.yul\":1962:1966   */\n      0x20\n        /* \"#utility.yul\":1955:1960   */\n      dup7\n        /* \"#utility.yul\":1951:1967   */\n      add\n        /* \"#utility.yul\":1916:1981   */\n      tag_44\n      jump\t// in\n    tag_88:\n        /* \"#utility.yul\":2006:2035   */\n      tag_89\n        /* \"#utility.yul\":2028:2034   */\n      dup2\n        /* \"#utility.yul\":2006:2035   */\n      tag_45\n      jump\t// in\n    tag_89:\n        /* \"#utility.yul\":2001:2004   */\n      dup5\n        /* \"#utility.yul\":1997:2036   */\n      add\n        /* \"#utility.yul\":1990:2036   */\n      swap2\n      pop\n        /* \"#utility.yul\":1757:2042   */\n      pop\n        /* \"#utility.yul\":1665:2042   */\n      swap3\n      swap2\n      pop\n      pop\n      jump\t// out\n        /* \"#utility.yul\":2048:2361   */\n    tag_11:\n        /* \"#utility.yul\":2161:2165   */\n      0x00\n        /* \"#utility.yul\":2199:2201   */\n      0x20\n        /* \"#utility.yul\":2188:2197   */\n      dup3\n        /* \"#utility.yul\":2184:2202   */\n      add\n        /* \"#utility.yul\":2176:2202   */\n      swap1\n      pop\n        /* \"#utility.yul\":2248:2257   */\n      dup2\n        /* \"#utility.yul\":2242:2246   */\n      dup2\n        /* \"#utility.yul\":2238:2258   */\n      sub\n        /* \"#utility.yul\":2234:2235   */\n      0x00\n        /* \"#utility.yul\":2223:2232   */\n      dup4\n        /* \"#utility.yul\":2219:2236   */\n      add\n        /* \"#utility.yul\":2212:2259   */\n      mstore\n        /* \"#utility.yul\":2276:2354   */\n      tag_91\n        /* \"#utility.yul\":2349:2353   */\n      dup2\n        /* \"#utility.yul\":2340:2346   */\n      dup5\n        /* \"#utility.yul\":2276:2354   */\n      tag_46\n      jump\t// in\n    tag_91:\n        /* \"#utility.yul\":2268:2354   */\n      swap1\n      pop\n        /* \"#utility.yul\":2048:2361   */\n      swap3\n      swap2\n      pop\n      pop\n      jump\t// out\n        /* \"#utility.yul\":2367:2547   */\n    tag_47:\n        /* \"#utility.yul\":2415:2492   */\n      0x4e487b7100000000000000000000000000000000000000000000000000000000\n        /* \"#utility.yul\":2412:2413   */\n      0x00\n        /* \"#utility.yul\":2405:2493   */\n      mstore\n        /* \"#utility.yul\":2512:2516   */\n      0x22\n        /* \"#utility.yul\":2509:2510   */\n      0x04\n        /* \"#utility.yul\":2502:2517   */\n      mstore\n        /* \"#utility.yul\":2536:2540   */\n      0x24\n        /* \"#utility.yul\":2533:2534   */\n      0x00\n        /* \"#utility.yul\":2526:2541   */\n      revert\n        /* \"#utility.yul\":2553:2873   */\n    tag_19:\n        /* \"#utility.yul\":2597:2603   */\n      0x00\n        /* \"#utility.yul\":2634:2635   */\n      0x02\n        /* \"#utility.yul\":2628:2632   */\n      dup3\n        /* \"#utility.yul\":2624:2636   */\n      div\n        /* \"#utility.yul\":2614:2636   */\n      swap1\n      pop\n        /* \"#utility.yul\":2681:2682   */\n      0x01\n        /* \"#utility.yul\":2675:2679   */\n      dup3\n        /* \"#utility.yul\":2671:2683   */\n      and\n        /* \"#utility.yul\":2702:2720   */\n      dup1\n        /* \"#utility.yul\":2692:2773   */\n      tag_94\n      jumpi\n        /* \"#utility.yul\":2758:2762   */\n      0x7f\n        /* \"#utility.yul\":2750:2756   */\n      dup3\n        /* \"#utility.yul\":2746:2763   */\n      and\n        /* \"#utility.yul\":2736:2763   */\n      swap2\n      pop\n        /* \"#utility.yul\":2692:2773   */\n    tag_94:\n        /* \"#utility.yul\":2820:2822   */\n      0x20\n        /* \"#utility.yul\":2812:2818   */\n      dup3\n        /* \"#utility.yul\":2809:2823   */\n      lt\n        /* \"#utility.yul\":2789:2807   */\n      dup2\n        /* \"#utility.yul\":2786:2824   */\n      sub\n        /* \"#utility.yul\":2783:2867   */\n      tag_95\n      jumpi\n        /* \"#utility.yul\":2839:2857   */\n      tag_96\n      tag_47\n      jump\t// in\n    tag_96:\n        /* \"#utility.yul\":2783:2867   */\n    tag_95:\n        /* \"#utility.yul\":2604:2873   */\n      pop\n        /* \"#utility.yul\":2553:2873   */\n      swap2\n      swap1\n      pop\n      jump\t// out\n        /* \"#utility.yul\":2879:3059   */\n    tag_48:\n        /* \"#utility.yul\":2927:3004   */\n      0x4e487b7100000000000000000000000000000000000000000000000000000000\n        /* \"#utility.yul\":2924:2925   */\n      0x00\n        /* \"#utility.yul\":2917:3005   */\n      mstore\n        /* \"#utility.yul\":3024:3028   */\n      0x41\n        /* \"#utility.yul\":3021:3022   */\n      0x04\n        /* \"#utility.yul\":3014:3029   */\n      mstore\n        /* \"#utility.yul\":3048:3052   */\n      0x24\n        /* \"#utility.yul\":3045:3046   */\n      0x00\n        /* \"#utility.yul\":3038:3053   */\n      revert\n        /* \"#utility.yul\":3065:3206   */\n    tag_49:\n        /* \"#utility.yul\":3114:3118   */\n      0x00\n        /* \"#utility.yul\":3137:3140   */\n      dup2\n        /* \"#utility.yul\":3129:3140   */\n      swap1\n      pop\n        /* \"#utility.yul\":3160:3163   */\n      dup2\n        /* \"#utility.yul\":3157:3158   */\n      0x00\n        /* \"#utility.yul\":3150:3164   */\n      mstore\n        /* \"#utility.yul\":3194:3198   */\n      0x20\n        /* \"#utility.yul\":3191:3192   */\n      0x00\n        /* \"#utility.yul\":3181:3199   */\n      keccak256\n        /* \"#utility.yul\":3173:3199   */\n      swap1\n      pop\n        /* \"#utility.yul\":3065:3206   */\n      swap2\n      swap1\n      pop\n      jump\t// out\n        /* \"#utility.yul\":3212:3305   */\n    tag_50:\n        /* \"#utility.yul\":3249:3255   */\n      0x00\n        /* \"#utility.yul\":3296:3298   */\n      0x20\n        /* \"#utility.yul\":3291:3293   */\n      0x1f\n        /* \"#utility.yul\":3284:3289   */\n      dup4\n        /* \"#utility.yul\":3280:3294   */\n      add\n        /* \"#utility.yul\":3276:3299   */\n      div\n        /* \"#utility.yul\":3266:3299   */\n      swap1\n      pop\n        /* \"#utility.yul\":3212:3305   */\n      swap2\n      swap1\n      pop\n      jump\t// out\n        /* \"#utility.yul\":3311:3418   */\n    tag_51:\n        /* \"#utility.yul\":3355:3363   */\n      0x00\n        /* \"#utility.yul\":3405:3410   */\n      dup3\n        /* \"#utility.yul\":3399:3403   */\n      dup3\n        /* \"#utility.yul\":3395:3411   */\n      shl\n        /* \"#utility.yul\":3374:3411   */\n      swap1\n      pop\n        /* \"#utility.yul\":3311:3418   */\n      swap3\n      swap2\n      pop\n      pop\n      jump\t// out\n        /* \"#utility.yul\":3424:3817   */\n    tag_52:\n        /* \"#utility.yul\":3493:3499   */\n      0x00\n        /* \"#utility.yul\":3543:3544   */\n      0x08\n        /* \"#utility.yul\":3531:3541   */\n      dup4\n        /* \"#utility.yul\":3527:3545   */\n      mul\n        /* \"#utility.yul\":3566:3663   */\n      tag_102\n        /* \"#utility.yul\":3596:3662   */\n      0xffffffffffffffffffffffffffffffffffffffffffffffffffffffffffffffff\n        /* \"#utility.yul\":3585:3594   */\n      dup3\n        /* \"#utility.yul\":3566:3663   */\n      tag_51\n      jump\t// in\n    tag_102:\n        /* \"#utility.yul\":3684:3723   */\n      tag_103\n        /* \"#utility.yul\":3714:3722   */\n      dup7\n        /* \"#utility.yul\":3703:3712   */\n      dup4\n        /* \"#utility.yul\":3684:3723   */\n      tag_51\n      jump\t// in\n    tag_103:\n        /* \"#utility.yul\":3672:3723   */\n      swap6\n      pop\n        /* \"#utility.yul\":3756:3760   */\n      dup1\n        /* \"#utility.yul\":3752:3761   */\n      not\n        /* \"#utility.yul\":3745:3750   */\n      dup5\n        /* \"#utility.yul\":3741:3762   */\n      and\n        /* \"#utility.yul\":3732:3762   */\n      swap4\n      pop\n        /* \"#utility.yul\":3805:3809   */\n      dup1\n        /* \"#utility.yul\":3795:3803   */\n      dup7\n        /* \"#utility.yul\":3791:3810   */\n      and\n        /* \"#utility.yul\":3784:3789   */\n      dup5\n        /* \"#utility.yul\":3781:3811   */\n      or\n        /* \"#utility.yul\":3771:3811   */\n      swap3\n      pop\n        /* \"#utility.yul\":3500:3817   */\n      pop\n      pop\n        /* \"#utility.yul\":3424:3817   */\n      swap4\n      swap3\n      pop\n      pop\n      pop\n      jump\t// out\n        /* \"#utility.yul\":3823:3883   */\n    tag_53:\n        /* \"#utility.yul\":3851:3854   */\n      0x00\n        /* \"#utility.yul\":3872:3877   */\n      dup2\n        /* \"#utility.yul\":3865:3877   */\n      swap1\n      pop\n        /* \"#utility.yul\":3823:3883   */\n      swap2\n      swap1\n      pop\n      jump\t// out\n        /* \"#utility.yul\":3889:4031   */\n    tag_54:\n        /* \"#utility.yul\":3939:3948   */\n      0x00\n        /* \"#utility.yul\":3972:4025   */\n      tag_106\n        /* \"#utility.yul\":3990:4024   */\n      tag_107\n        /* \"#utility.yul\":3999:4023   */\n      tag_108\n        /* \"#utility.yul\":4017:4022   */\n      dup5\n        /* \"#utility.yul\":3999:4023   */\n      tag_39\n      jump\t// in\n    tag_108:\n        /* \"#utility.yul\":3990:4024   */\n      tag_53\n      jump\t// in\n    tag_107:\n        /* \"#utility.yul\":3972:4025   */\n      tag_39\n      jump\t// in\n    tag_106:\n        /* \"#utility.yul\":3959:4025   */\n      swap1\n      pop\n        /* \"#utility.yul\":3889:4031   */\n      swap2\n      swap1\n      pop\n      jump\t// out\n        /* \"#utility.yul\":4037:4112   */\n    tag_55:\n        /* \"#utility.yul\":4080:4083   */\n      0x00\n        /* \"#utility.yul\":4101:4106   */\n      dup2\n        /* \"#utility.yul\":4094:4106   */\n      swap1\n      pop\n        /* \"#utility.yul\":4037:4112   */\n      swap2\n      swap1\n      pop\n      jump\t// out\n        /* \"#utility.yul\":4118:4387   */\n    tag_56:\n        /* \"#utility.yul\":4228:4267   */\n      tag_111\n        /* \"#utility.yul\":4259:4266   */\n      dup4\n        /* \"#utility.yul\":4228:4267   */\n      tag_54\n      jump\t// in\n    tag_111:\n        /* \"#utility.yul\":4289:4380   */\n      tag_112\n        /* \"#utility.yul\":4338:4379   */\n      tag_113\n        /* \"#utility.yul\":4362:4378   */\n      dup3\n        /* \"#utility.yul\":4338:4379   */\n      tag_55\n      jump\t// in\n    tag_113:\n        /* \"#utility.yul\":4330:4336   */\n      dup5\n        /* \"#utility.yul\":4323:4327   */\n      dup5\n        /* \"#utility.yul\":4317:4328   */\n      sload\n        /* \"#utility.yul\":4289:4380   */\n      tag_52\n      jump\t// in\n    tag_112:\n        /* \"#utility.yul\":4283:4287   */\n      dup3\n        /* \"#utility.yul\":4276:4381   */\n      sstore\n        /* \"#utility.yul\":4194:4387   */\n      pop\n        /* \"#utility.yul\":4118:4387   */\n      pop\n      pop\n      pop\n      jump\t// out\n        /* \"#utility.yul\":4393:4466   */\n    tag_57:\n        /* \"#utility.yul\":4438:4441   */\n      0x00\n        /* \"#utility.yul\":4393:4466   */\n      swap1\n      jump\t// out\n        /* \"#utility.yul\":4472:4661   */\n    tag_58:\n        /* \"#utility.yul\":4549:4581   */\n      tag_116\n      tag_57\n      jump\t// in\n    tag_116:\n        /* \"#utility.yul\":4590:4655   */\n      tag_117\n        /* \"#utility.yul\":4648:4654   */\n      dup2\n        /* \"#utility.yul\":4640:4646   */\n      dup5\n        /* \"#utility.yul\":4634:4638   */\n      dup5\n        /* \"#utility.yul\":4590:4655   */\n      tag_56\n      jump\t// in\n    tag_117:\n        /* \"#utility.yul\":4525:4661   */\n      pop\n        /* \"#utility.yul\":4472:4661   */\n      pop\n      pop\n      jump\t// out\n        /* \"#utility.yul\":4667:4853   */\n    tag_59:\n        /* \"#utility.yul\":4727:4847   */\n    tag_119:\n        /* \"#utility.yul\":4744:4747   */\n      dup2\n        /* \"#utility.yul\":4737:4742   */\n      dup2\n        /* \"#utility.yul\":4734:4748   */\n      lt\n        /* \"#utility.yul\":4727:4847   */\n      iszero\n      tag_121\n      jumpi\n        /* \"#utility.yul\":4798:4837   */\n      tag_122\n        /* \"#utility.yul\":4835:4836   */\n      0x00\n        /* \"#utility.yul\":4828:4833   */\n      dup3\n        /* \"#utility.yul\":4798:4837   */\n      tag_58\n      jump\t// in\n    tag_122:\n        /* \"#utility.yul\":4771:4772   */\n      0x01\n        /* \"#utility.yul\":4764:4769   */\n      dup2\n        /* \"#utility.yul\":4760:4773   */\n      add\n        /* \"#utility.yul\":4751:4773   */\n      swap1\n      pop\n        /* \"#utility.yul\":4727:4847   */\n      jump(tag_119)\n    tag_121:\n        /* \"#utility.yul\":4667:4853   */\n      pop\n      pop\n      jump\t// out\n        /* \"#utility.yul\":4859:5402   */\n    tag_60:\n        /* \"#utility.yul\":4960:4962   */\n      0x1f\n        /* \"#utility.yul\":4955:4958   */\n      dup3\n        /* \"#utility.yul\":4952:4963   */\n      gt\n        /* \"#utility.yul\":4949:5395   */\n      iszero\n      tag_124\n      jumpi\n        /* \"#utility.yul\":4994:5032   */\n      tag_125\n        /* \"#utility.yul\":5026:5031   */\n      dup2\n        /* \"#utility.yul\":4994:5032   */\n      tag_49\n      jump\t// in\n    tag_125:\n        /* \"#utility.yul\":5078:5107   */\n      tag_126\n        /* \"#utility.yul\":5096:5106   */\n      dup5\n        /* \"#utility.yul\":5078:5107   */\n      tag_50\n      jump\t// in\n    tag_126:\n        /* \"#utility.yul\":5068:5076   */\n      dup2\n        /* \"#utility.yul\":5064:5108   */\n      add\n        /* \"#utility.yul\":5261:5263   */\n      0x20\n        /* \"#utility.yul\":5249:5259   */\n      dup6\n        /* \"#utility.yul\":5246:5264   */\n      lt\n        /* \"#utility.yul\":5243:5292   */\n      iszero\n      tag_127\n      jumpi\n        /* \"#utility.yul\":5282:5290   */\n      dup2\n        /* \"#utility.yul\":5267:5290   */\n      swap1\n      pop\n        /* \"#utility.yul\":5243:5292   */\n    tag_127:\n        /* \"#utility.yul\":5305:5385   */\n      tag_128\n        /* \"#utility.yul\":5361:5383   */\n      tag_129\n        /* \"#utility.yul\":5379:5382   */\n      dup6\n        /* \"#utility.yul\":5361:5383   */\n      tag_50\n      jump\t// in\n    tag_129:\n        /* \"#utility.yul\":5351:5359   */\n      dup4\n        /* \"#utility.yul\":5347:5384   */\n      add\n        /* \"#utility.yul\":5334:5345   */\n      dup3\n        /* \"#utility.yul\":5305:5385   */\n      tag_59\n      jump\t// in\n    tag_128:\n        /* \"#utility.yul\":4964:5395   */\n      pop\n      pop\n        /* \"#utility.yul\":4949:5395   */\n    tag_124:\n        /* \"#utility.yul\":4859:5402   */\n      pop\n      pop\n      pop\n      jump\t// out\n        /* \"#utility.yul\":5408:5525   */\n    tag_61:\n        /* \"#utility.yul\":5462:5470   */\n      0x00\n        /* \"#utility.yul\":5512:5517   */\n      dup3\n        /* \"#utility.yul\":5506:5510   */\n      dup3\n        /* \"#utility.yul\":5502:5518   */\n      shr\n        /* \"#utility.yul\":5481:5518   */\n      swap1\n      pop\n        /* \"#utility.yul\":5408:5525   */\n      swap3\n      swap2\n      pop\n      pop\n      jump\t// out\n        /* \"#utility.yul\":5531:5700   */\n    tag_62:\n        /* \"#utility.yul\":5575:5581   */\n      0x00\n        /* \"#utility.yul\":5608:5659   */\n      tag_132\n        /* \"#utility.yul\":5656:5657   */\n      0x00\n        /* \"#utility.yul\":5652:5658   */\n      not\n        /* \"#utility.yul\":5644:5649   */\n      dup5\n        /* \"#utility.yul\":5641:5642   */\n      0x08\n        /* \"#utility.yul\":5637:5650   */\n      mul\n        /* \"#utility.yul\":5608:5659   */\n      tag_61\n      jump\t// in\n    tag_132:\n        /* \"#utility.yul\":5604:5660   */\n      not\n        /* \"#utility.yul\":5689:5693   */\n      dup1\n        /* \"#utility.yul\":5683:5687   */\n      dup4\n        /* \"#utility.yul\":5679:5694   */\n      and\n        /* \"#utility.yul\":5669:5694   */\n      swap2\n      pop\n        /* \"#utility.yul\":5582:5700   */\n      pop\n        /* \"#utility.yul\":5531:5700   */\n      swap3\n      swap2\n      pop\n      pop\n      jump\t// out\n        /* \"#utility.yul\":5705:6000   */\n    tag_63:\n        /* \"#utility.yul\":5781:5785   */\n      0x00\n        /* \"#utility.yul\":5927:5956   */\n      tag_134\n        /* \"#utility.yul\":5952:5955   */\n      dup4\n        /* \"#utility.yul\":5946:5950   */\n      dup4\n        /* \"#utility.yul\":5927:5956   */\n      tag_62\n      jump\t// in\n    tag_134:\n        /* \"#utility.yul\":5919:5956   */\n      swap2\n      pop\n        /* \"#utility.yul\":5989:5992   */\n      dup3\n        /* \"#utility.yul\":5986:5987   */\n      0x02\n        /* \"#utility.yul\":5982:5993   */\n      mul\n        /* \"#utility.yul\":5976:5980   */\n      dup3\n        /* \"#utility.yul\":5973:5994   */\n      or\n        /* \"#utility.yul\":5965:5994   */\n      swap1\n      pop\n        /* \"#utility.yul\":5705:6000   */\n      swap3\n      swap2\n      pop\n      pop\n      jump\t// out\n        /* \"#utility.yul\":6005:7400   */\n    tag_26:\n        /* \"#utility.yul\":6122:6159   */\n      tag_136\n        /* \"#utility.yul\":6155:6158   */\n      dup3\n        /* \"#utility.yul\":6122:6159   */\n      tag_42\n      jump\t// in\n    tag_136:\n        /* \"#utility.yul\":6224:6242   */\n      0xffffffffffffffff\n        /* \"#utility.yul\":6216:6222   */\n      dup2\n        /* \"#utility.yul\":6213:6243   */\n      gt\n        /* \"#utility.yul\":6210:6266   */\n      iszero\n      tag_137\n      jumpi\n        /* \"#utility.yul\":6246:6264   */\n      tag_138\n      tag_48\n      jump\t// in\n    tag_138:\n        /* \"#utility.yul\":6210:6266   */\n    tag_137:\n        /* \"#utility.yul\":6290:6328   */\n      tag_139\n        /* \"#utility.yul\":6322:6326   */\n      dup3\n        /* \"#utility.yul\":6316:6327   */\n      sload\n        /* \"#utility.yul\":6290:6328   */\n      tag_19\n      jump\t// in\n    tag_139:\n        /* \"#utility.yul\":6375:6442   */\n      tag_140\n        /* \"#utility.yul\":6435:6441   */\n      dup3\n        /* \"#utility.yul\":6427:6433   */\n      dup3\n        /* \"#utility.yul\":6421:6425   */\n      dup6\n        /* \"#utility.yul\":6375:6442   */\n      tag_60\n      jump\t// in\n    tag_140:\n        /* \"#utility.yul\":6469:6470   */\n      0x00\n        /* \"#utility.yul\":6493:6497   */\n      0x20\n        /* \"#utility.yul\":6480:6497   */\n      swap1\n      pop\n        /* \"#utility.yul\":6525:6527   */\n      0x1f\n        /* \"#utility.yul\":6517:6523   */\n      dup4\n        /* \"#utility.yul\":6514:6528   */\n      gt\n        /* \"#utility.yul\":6542:6543   */\n      0x01\n        /* \"#utility.yul\":6537:7155   */\n      dup2\n      eq\n      tag_142\n      jumpi\n        /* \"#utility.yul\":7199:7200   */\n      0x00\n        /* \"#utility.yul\":7216:7222   */\n      dup5\n        /* \"#utility.yul\":7213:7290   */\n      iszero\n      tag_143\n      jumpi\n        /* \"#utility.yul\":7265:7274   */\n      dup3\n        /* \"#utility.yul\":7260:7263   */\n      dup8\n        /* \"#utility.yul\":7256:7275   */\n      add\n        /* \"#utility.yul\":7250:7276   */\n      mload\n        /* \"#utility.yul\":7241:7276   */\n      swap1\n      pop\n        /* \"#utility.yul\":7213:7290   */\n    tag_143:\n        /* \"#utility.yul\":7316:7383   */\n      tag_144\n        /* \"#utility.yul\":7376:7382   */\n      dup6\n        /* \"#utility.yul\":7369:7374   */\n      dup3\n        /* \"#utility.yul\":7316:7383   */\n      tag_63\n      jump\t// in\n    tag_144:\n        /* \"#utility.yul\":7310:7314   */\n      dup7\n        /* \"#utility.yul\":7303:7384   */\n      sstore\n        /* \"#utility.yul\":7172:7394   */\n      pop\n        /* \"#utility.yul\":6507:7394   */\n      jump(tag_141)\n        /* \"#utility.yul\":6537:7155   */\n    tag_142:\n        /* \"#utility.yul\":6589:6593   */\n      0x1f\n        /* \"#utility.yul\":6585:6594   */\n      not\n        /* \"#utility.yul\":6577:6583   */\n      dup5\n        /* \"#utility.yul\":6573:6595   */\n      and\n        /* \"#utility.yul\":6623:6660   */\n      tag_145\n        /* \"#utility.yul\":6655:6659   */\n      dup7\n        /* \"#utility.yul\":6623:6660   */\n      tag_49\n      jump\t// in\n    tag_145:\n        /* \"#utility.yul\":6682:6683   */\n      0x00\n        /* \"#utility.yul\":6696:6904   */\n    tag_146:\n        /* \"#utility.yul\":6710:6717   */\n      dup3\n        /* \"#utility.yul\":6707:6708   */\n      dup2\n        /* \"#utility.yul\":6704:6718   */\n      lt\n        /* \"#utility.yul\":6696:6904   */\n      iszero\n      tag_148\n      jumpi\n        /* \"#utility.yul\":6789:6798   */\n      dup5\n        /* \"#utility.yul\":6784:6787   */\n      dup10\n        /* \"#utility.yul\":6780:6799   */\n      add\n        /* \"#utility.yul\":6774:6800   */\n      mload\n        /* \"#utility.yul\":6766:6772   */\n      dup3\n        /* \"#utility.yul\":6759:6801   */\n      sstore\n        /* \"#utility.yul\":6840:6841   */\n      0x01\n        /* \"#utility.yul\":6832:6838   */\n      dup3\n        /* \"#utility.yul\":6828:6842   */\n      add\n        /* \"#utility.yul\":6818:6842   */\n      swap2\n      pop\n        /* \"#utility.yul\":6887:6889   */\n      0x20\n        /* \"#utility.yul\":6876:6885   */\n      dup6\n        /* \"#utility.yul\":6872:6890   */\n      add\n        /* \"#utility.yul\":6859:6890   */\n      swap5\n      pop\n        /* \"#utility.yul\":6733:6737   */\n      0x20\n        /* \"#utility.yul\":6730:6731   */\n      dup2\n        /* \"#utility.yul\":6726:6738   */\n      add\n        /* \"#utility.yul\":6721:6738   */\n      swap1\n      pop\n        /* \"#utility.yul\":6696:6904   */\n      jump(tag_146)\n    tag_148:\n        /* \"#utility.yul\":6932:6938   */\n      dup7\n        /* \"#utility.yul\":6923:6930   */\n      dup4\n        /* \"#utility.yul\":6920:6939   */\n      lt\n        /* \"#utility.yul\":6917:7096   */\n      iszero\n      tag_149\n      jumpi\n        /* \"#utility.yul\":6990:6999   */\n      dup5\n        /* \"#utility.yul\":6985:6988   */\n      dup10\n        /* \"#utility.yul\":6981:7000   */\n      add\n        /* \"#utility.yul\":6975:7001   */\n      mload\n        /* \"#utility.yul\":7033:7081   */\n      tag_150\n        /* \"#utility.yul\":7075:7079   */\n      0x1f\n        /* \"#utility.yul\":7067:7073   */\n      dup10\n        /* \"#utility.yul\":7063:7080   */\n      and\n        /* \"#utility.yul\":7052:7061   */\n      dup3\n        /* \"#utility.yul\":7033:7081   */\n      tag_62\n      jump\t// in\n    tag_150:\n        /* \"#utility.yul\":7025:7031   */\n      dup4\n        /* \"#utility.yul\":7018:7082   */\n      sstore\n        /* \"#utility.yul\":6940:7096   */\n      pop\n        /* \"#utility.yul\":6917:7096   */\n    tag_149:\n        /* \"#utility.yul\":7142:7143   */\n      0x01\n        /* \"#utility.yul\":7138:7139   */\n      0x02\n        /* \"#utility.yul\":7130:7136   */\n      dup9\n        /* \"#utility.yul\":7126:7140   */\n      mul\n        /* \"#utility.yul\":7122:7144   */\n      add\n        /* \"#utility.yul\":7116:7120   */\n      dup9\n        /* \"#utility.yul\":7109:7145   */\n      sstore\n        /* \"#utility.yul\":6544:7155   */\n      pop\n      pop\n      pop\n        /* \"#utility.yul\":6507:7394   */\n    tag_141:\n      pop\n        /* \"#utility.yul\":6097:7400   */\n      pop\n      pop\n      pop\n        /* \"#utility.yul\":6005:7400   */\n      pop\n      pop\n      jump\t// out\n\n    auxdata: 0xa264697066735822122064b6b291c3828540bf840406c99d8f65d89e4c4380283550230b9327115ea0da64736f6c63430008110033\n}\n",
				"bytecode": {
					"linkReferences": {},
					"object": "608060405234801561001057600080fd5b506107ab806100206000396000f3fe608060405234801561001057600080fd5b50600436106100415760003560e01c80632bac7532146100465780633d13cdac14610076578063e3828e4b14610080575b600080fd5b610060600480360381019061005b9190610389565b6100b0565b60405161006d9190610446565b60405180910390f35b61007e610150565b005b61009a60048036038101906100959190610389565b6102aa565b6040516100a79190610446565b60405180910390f35b600060205280600052604060002060009150905080546100cf90610497565b80601f01602080910402602001604051908101604052809291908181526020018280546100fb90610497565b80156101485780601f1061011d57610100808354040283529160200191610148565b820191906000526020600020905b81548152906001019060200180831161012b57829003601f168201915b505050505081565b6040518060400160405280600781526020017f6c616b7368617900000000000000000000000000000000000000000000000000815250600080601f815260200190815260200160002090816101a591906106a3565b506040518060400160405280600481526020017f6c6f6c7500000000000000000000000000000000000000000000000000000000815250600080600e815260200190815260200160002090816101fb91906106a3565b506040518060400160405280600381526020017f626872000000000000000000000000000000000000000000000000000000000081525060008060168152602001908152602001600020908161025191906106a3565b506040518060400160405280600781526020017f686a64626a6473000000000000000000000000000000000000000000000000008152506000806021815260200190815260200160002090816102a791906106a3565b50565b606060008083815260200190815260200160002080546102c990610497565b80601f01602080910402602001604051908101604052809291908181526020018280546102f590610497565b80156103425780601f1061031757610100808354040283529160200191610342565b820191906000526020600020905b81548152906001019060200180831161032557829003601f168201915b50505050509050919050565b600080fd5b6000819050919050565b61036681610353565b811461037157600080fd5b50565b6000813590506103838161035d565b92915050565b60006020828403121561039f5761039e61034e565b5b60006103ad84828501610374565b91505092915050565b600081519050919050565b600082825260208201905092915050565b60005b838110156103f05780820151818401526020810190506103d5565b60008484015250505050565b6000601f19601f8301169050919050565b6000610418826103b6565b61042281856103c1565b93506104328185602086016103d2565b61043b816103fc565b840191505092915050565b60006020820190508181036000830152610460818461040d565b905092915050565b7f4e487b7100000000000000000000000000000000000000000000000000000000600052602260045260246000fd5b600060028204905060018216806104af57607f821691505b6020821081036104c2576104c1610468565b5b50919050565b7f4e487b7100000000000000000000000000000000000000000000000000000000600052604160045260246000fd5b60008190508160005260206000209050919050565b60006020601f8301049050919050565b600082821b905092915050565b6000600883026105597fffffffffffffffffffffffffffffffffffffffffffffffffffffffffffffffff8261051c565b610563868361051c565b95508019841693508086168417925050509392505050565b6000819050919050565b60006105a061059b61059684610353565b61057b565b610353565b9050919050565b6000819050919050565b6105ba83610585565b6105ce6105c6826105a7565b848454610529565b825550505050565b600090565b6105e36105d6565b6105ee8184846105b1565b505050565b5b81811015610612576106076000826105db565b6001810190506105f4565b5050565b601f82111561065757610628816104f7565b6106318461050c565b81016020851015610640578190505b61065461064c8561050c565b8301826105f3565b50505b505050565b600082821c905092915050565b600061067a6000198460080261065c565b1980831691505092915050565b60006106938383610669565b9150826002028217905092915050565b6106ac826103b6565b67ffffffffffffffff8111156106c5576106c46104c8565b5b6106cf8254610497565b6106da828285610616565b600060209050601f83116001811461070d57600084156106fb578287015190505b6107058582610687565b86555061076d565b601f19841661071b866104f7565b60005b828110156107435784890151825560018201915060208501945060208101905061071e565b86831015610760578489015161075c601f891682610669565b8355505b6001600288020188555050505b50505050505056fea264697066735822122064b6b291c3828540bf840406c99d8f65d89e4c4380283550230b9327115ea0da64736f6c63430008110033",
					"opcodes": "PUSH1 0x80 PUSH1 0x40 MSTORE CALLVALUE DUP1 ISZERO PUSH2 0x10 JUMPI PUSH1 0x0 DUP1 REVERT JUMPDEST POP PUSH2 0x7AB DUP1 PUSH2 0x20 PUSH1 0x0 CODECOPY PUSH1 0x0 RETURN INVALID PUSH1 0x80 PUSH1 0x40 MSTORE CALLVALUE DUP1 ISZERO PUSH2 0x10 JUMPI PUSH1 0x0 DUP1 REVERT JUMPDEST POP PUSH1 0x4 CALLDATASIZE LT PUSH2 0x41 JUMPI PUSH1 0x0 CALLDATALOAD PUSH1 0xE0 SHR DUP1 PUSH4 0x2BAC7532 EQ PUSH2 0x46 JUMPI DUP1 PUSH4 0x3D13CDAC EQ PUSH2 0x76 JUMPI DUP1 PUSH4 0xE3828E4B EQ PUSH2 0x80 JUMPI JUMPDEST PUSH1 0x0 DUP1 REVERT JUMPDEST PUSH2 0x60 PUSH1 0x4 DUP1 CALLDATASIZE SUB DUP2 ADD SWAP1 PUSH2 0x5B SWAP2 SWAP1 PUSH2 0x389 JUMP JUMPDEST PUSH2 0xB0 JUMP JUMPDEST PUSH1 0x40 MLOAD PUSH2 0x6D SWAP2 SWAP1 PUSH2 0x446 JUMP JUMPDEST PUSH1 0x40 MLOAD DUP1 SWAP2 SUB SWAP1 RETURN JUMPDEST PUSH2 0x7E PUSH2 0x150 JUMP JUMPDEST STOP JUMPDEST PUSH2 0x9A PUSH1 0x4 DUP1 CALLDATASIZE SUB DUP2 ADD SWAP1 PUSH2 0x95 SWAP2 SWAP1 PUSH2 0x389 JUMP JUMPDEST PUSH2 0x2AA JUMP JUMPDEST PUSH1 0x40 MLOAD PUSH2 0xA7 SWAP2 SWAP1 PUSH2 0x446 JUMP JUMPDEST PUSH1 0x40 MLOAD DUP1 SWAP2 SUB SWAP1 RETURN JUMPDEST PUSH1 0x0 PUSH1 0x20 MSTORE DUP1 PUSH1 0x0 MSTORE PUSH1 0x40 PUSH1 0x0 KECCAK256 PUSH1 0x0 SWAP2 POP SWAP1 POP DUP1 SLOAD PUSH2 0xCF SWAP1 PUSH2 0x497 JUMP JUMPDEST DUP1 PUSH1 0x1F ADD PUSH1 0x20 DUP1 SWAP2 DIV MUL PUSH1 0x20 ADD PUSH1 0x40 MLOAD SWAP1 DUP2 ADD PUSH1 0x40 MSTORE DUP1 SWAP3 SWAP2 SWAP1 DUP2 DUP2 MSTORE PUSH1 0x20 ADD DUP3 DUP1 SLOAD PUSH2 0xFB SWAP1 PUSH2 0x497 JUMP JUMPDEST DUP1 ISZERO PUSH2 0x148 JUMPI DUP1 PUSH1 0x1F LT PUSH2 0x11D JUMPI PUSH2 0x100 DUP1 DUP4 SLOAD DIV MUL DUP4 MSTORE SWAP2 PUSH1 0x20 ADD SWAP2 PUSH2 0x148 JUMP JUMPDEST DUP3 ADD SWAP2 SWAP1 PUSH1 0x0 MSTORE PUSH1 0x20 PUSH1 0x0 KECCAK256 SWAP1 JUMPDEST DUP2 SLOAD DUP2 MSTORE SWAP1 PUSH1 0x1 ADD SWAP1 PUSH1 0x20 ADD DUP1 DUP4 GT PUSH2 0x12B JUMPI DUP3 SWAP1 SUB PUSH1 0x1F AND DUP3 ADD SWAP2 JUMPDEST POP POP POP POP POP DUP2 JUMP JUMPDEST PUSH1 0x40 MLOAD DUP1 PUSH1 0x40 ADD PUSH1 0x40 MSTORE DUP1 PUSH1 0x7 DUP2 MSTORE PUSH1 0x20 ADD PUSH32 0x6C616B7368617900000000000000000000000000000000000000000000000000 DUP2 MSTORE POP PUSH1 0x0 DUP1 PUSH1 0x1F DUP2 MSTORE PUSH1 0x20 ADD SWAP1 DUP2 MSTORE PUSH1 0x20 ADD PUSH1 0x0 KECCAK256 SWAP1 DUP2 PUSH2 0x1A5 SWAP2 SWAP1 PUSH2 0x6A3 JUMP JUMPDEST POP PUSH1 0x40 MLOAD DUP1 PUSH1 0x40 ADD PUSH1 0x40 MSTORE DUP1 PUSH1 0x4 DUP2 MSTORE PUSH1 0x20 ADD PUSH32 0x6C6F6C7500000000000000000000000000000000000000000000000000000000 DUP2 MSTORE POP PUSH1 0x0 DUP1 PUSH1 0xE DUP2 MSTORE PUSH1 0x20 ADD SWAP1 DUP2 MSTORE PUSH1 0x20 ADD PUSH1 0x0 KECCAK256 SWAP1 DUP2 PUSH2 0x1FB SWAP2 SWAP1 PUSH2 0x6A3 JUMP JUMPDEST POP PUSH1 0x40 MLOAD DUP1 PUSH1 0x40 ADD PUSH1 0x40 MSTORE DUP1 PUSH1 0x3 DUP2 MSTORE PUSH1 0x20 ADD PUSH32 0x6268720000000000000000000000000000000000000000000000000000000000 DUP2 MSTORE POP PUSH1 0x0 DUP1 PUSH1 0x16 DUP2 MSTORE PUSH1 0x20 ADD SWAP1 DUP2 MSTORE PUSH1 0x20 ADD PUSH1 0x0 KECCAK256 SWAP1 DUP2 PUSH2 0x251 SWAP2 SWAP1 PUSH2 0x6A3 JUMP JUMPDEST POP PUSH1 0x40 MLOAD DUP1 PUSH1 0x40 ADD PUSH1 0x40 MSTORE DUP1 PUSH1 0x7 DUP2 MSTORE PUSH1 0x20 ADD PUSH32 0x686A64626A647300000000000000000000000000000000000000000000000000 DUP2 MSTORE POP PUSH1 0x0 DUP1 PUSH1 0x21 DUP2 MSTORE PUSH1 0x20 ADD SWAP1 DUP2 MSTORE PUSH1 0x20 ADD PUSH1 0x0 KECCAK256 SWAP1 DUP2 PUSH2 0x2A7 SWAP2 SWAP1 PUSH2 0x6A3 JUMP JUMPDEST POP JUMP JUMPDEST PUSH1 0x60 PUSH1 0x0 DUP1 DUP4 DUP2 MSTORE PUSH1 0x20 ADD SWAP1 DUP2 MSTORE PUSH1 0x20 ADD PUSH1 0x0 KECCAK256 DUP1 SLOAD PUSH2 0x2C9 SWAP1 PUSH2 0x497 JUMP JUMPDEST DUP1 PUSH1 0x1F ADD PUSH1 0x20 DUP1 SWAP2 DIV MUL PUSH1 0x20 ADD PUSH1 0x40 MLOAD SWAP1 DUP2 ADD PUSH1 0x40 MSTORE DUP1 SWAP3 SWAP2 SWAP1 DUP2 DUP2 MSTORE PUSH1 0x20 ADD DUP3 DUP1 SLOAD PUSH2 0x2F5 SWAP1 PUSH2 0x497 JUMP JUMPDEST DUP1 ISZERO PUSH2 0x342 JUMPI DUP1 PUSH1 0x1F LT PUSH2 0x317 JUMPI PUSH2 0x100 DUP1 DUP4 SLOAD DIV MUL DUP4 MSTORE SWAP2 PUSH1 0x20 ADD SWAP2 PUSH2 0x342 JUMP JUMPDEST DUP3 ADD SWAP2 SWAP1 PUSH1 0x0 MSTORE PUSH1 0x20 PUSH1 0x0 KECCAK256 SWAP1 JUMPDEST DUP2 SLOAD DUP2 MSTORE SWAP1 PUSH1 0x1 ADD SWAP1 PUSH1 0x20 ADD DUP1 DUP4 GT PUSH2 0x325 JUMPI DUP3 SWAP1 SUB PUSH1 0x1F AND DUP3 ADD SWAP2 JUMPDEST POP POP POP POP POP SWAP1 POP SWAP2 SWAP1 POP JUMP JUMPDEST PUSH1 0x0 DUP1 REVERT JUMPDEST PUSH1 0x0 DUP2 SWAP1 POP SWAP2 SWAP1 POP JUMP JUMPDEST PUSH2 0x366 DUP2 PUSH2 0x353 JUMP JUMPDEST DUP2 EQ PUSH2 0x371 JUMPI PUSH1 0x0 DUP1 REVERT JUMPDEST POP JUMP JUMPDEST PUSH1 0x0 DUP2 CALLDATALOAD SWAP1 POP PUSH2 0x383 DUP2 PUSH2 0x35D JUMP JUMPDEST SWAP3 SWAP2 POP POP JUMP JUMPDEST PUSH1 0x0 PUSH1 0x20 DUP3 DUP5 SUB SLT ISZERO PUSH2 0x39F JUMPI PUSH2 0x39E PUSH2 0x34E JUMP JUMPDEST JUMPDEST PUSH1 0x0 PUSH2 0x3AD DUP5 DUP3 DUP6 ADD PUSH2 0x374 JUMP JUMPDEST SWAP2 POP POP SWAP3 SWAP2 POP POP JUMP JUMPDEST PUSH1 0x0 DUP2 MLOAD SWAP1 POP SWAP2 SWAP1 POP JUMP JUMPDEST PUSH1 0x0 DUP3 DUP3 MSTORE PUSH1 0x20 DUP3 ADD SWAP1 POP SWAP3 SWAP2 POP POP JUMP JUMPDEST PUSH1 0x0 JUMPDEST DUP4 DUP2 LT ISZERO PUSH2 0x3F0 JUMPI DUP1 DUP3 ADD MLOAD DUP2 DUP5 ADD MSTORE PUSH1 0x20 DUP2 ADD SWAP1 POP PUSH2 0x3D5 JUMP JUMPDEST PUSH1 0x0 DUP5 DUP5 ADD MSTORE POP POP POP POP JUMP JUMPDEST PUSH1 0x0 PUSH1 0x1F NOT PUSH1 0x1F DUP4 ADD AND SWAP1 POP SWAP2 SWAP1 POP JUMP JUMPDEST PUSH1 0x0 PUSH2 0x418 DUP3 PUSH2 0x3B6 JUMP JUMPDEST PUSH2 0x422 DUP2 DUP6 PUSH2 0x3C1 JUMP JUMPDEST SWAP4 POP PUSH2 0x432 DUP2 DUP6 PUSH1 0x20 DUP7 ADD PUSH2 0x3D2 JUMP JUMPDEST PUSH2 0x43B DUP2 PUSH2 0x3FC JUMP JUMPDEST DUP5 ADD SWAP2 POP POP SWAP3 SWAP2 POP POP JUMP JUMPDEST PUSH1 0x0 PUSH1 0x20 DUP3 ADD SWAP1 POP DUP2 DUP2 SUB PUSH1 0x0 DUP4 ADD MSTORE PUSH2 0x460 DUP2 DUP5 PUSH2 0x40D JUMP JUMPDEST SWAP1 POP SWAP3 SWAP2 POP POP JUMP JUMPDEST PUSH32 0x4E487B7100000000000000000000000000000000000000000000000000000000 PUSH1 0x0 MSTORE PUSH1 0x22 PUSH1 0x4 MSTORE PUSH1 0x24 PUSH1 0x0 REVERT JUMPDEST PUSH1 0x0 PUSH1 0x2 DUP3 DIV SWAP1 POP PUSH1 0x1 DUP3 AND DUP1 PUSH2 0x4AF JUMPI PUSH1 0x7F DUP3 AND SWAP2 POP JUMPDEST PUSH1 0x20 DUP3 LT DUP2 SUB PUSH2 0x4C2 JUMPI PUSH2 0x4C1 PUSH2 0x468 JUMP JUMPDEST JUMPDEST POP SWAP2 SWAP1 POP JUMP JUMPDEST PUSH32 0x4E487B7100000000000000000000000000000000000000000000000000000000 PUSH1 0x0 MSTORE PUSH1 0x41 PUSH1 0x4 MSTORE PUSH1 0x24 PUSH1 0x0 REVERT JUMPDEST PUSH1 0x0 DUP2 SWAP1 POP DUP2 PUSH1 0x0 MSTORE PUSH1 0x20 PUSH1 0x0 KECCAK256 SWAP1 POP SWAP2 SWAP1 POP JUMP JUMPDEST PUSH1 0x0 PUSH1 0x20 PUSH1 0x1F DUP4 ADD DIV SWAP1 POP SWAP2 SWAP1 POP JUMP JUMPDEST PUSH1 0x0 DUP3 DUP3 SHL SWAP1 POP SWAP3 SWAP2 POP POP JUMP JUMPDEST PUSH1 0x0 PUSH1 0x8 DUP4 MUL PUSH2 0x559 PUSH32 0xFFFFFFFFFFFFFFFFFFFFFFFFFFFFFFFFFFFFFFFFFFFFFFFFFFFFFFFFFFFFFFFF DUP3 PUSH2 0x51C JUMP JUMPDEST PUSH2 0x563 DUP7 DUP4 PUSH2 0x51C JUMP JUMPDEST SWAP6 POP DUP1 NOT DUP5 AND SWAP4 POP DUP1 DUP7 AND DUP5 OR SWAP3 POP POP POP SWAP4 SWAP3 POP POP POP JUMP JUMPDEST PUSH1 0x0 DUP2 SWAP1 POP SWAP2 SWAP1 POP JUMP JUMPDEST PUSH1 0x0 PUSH2 0x5A0 PUSH2 0x59B PUSH2 0x596 DUP5 PUSH2 0x353 JUMP JUMPDEST PUSH2 0x57B JUMP JUMPDEST PUSH2 0x353 JUMP JUMPDEST SWAP1 POP SWAP2 SWAP1 POP JUMP JUMPDEST PUSH1 0x0 DUP2 SWAP1 POP SWAP2 SWAP1 POP JUMP JUMPDEST PUSH2 0x5BA DUP4 PUSH2 0x585 JUMP JUMPDEST PUSH2 0x5CE PUSH2 0x5C6 DUP3 PUSH2 0x5A7 JUMP JUMPDEST DUP5 DUP5 SLOAD PUSH2 0x529 JUMP JUMPDEST DUP3 SSTORE POP POP POP POP JUMP JUMPDEST PUSH1 0x0 SWAP1 JUMP JUMPDEST PUSH2 0x5E3 PUSH2 0x5D6 JUMP JUMPDEST PUSH2 0x5EE DUP2 DUP5 DUP5 PUSH2 0x5B1 JUMP JUMPDEST POP POP POP JUMP JUMPDEST JUMPDEST DUP2 DUP2 LT ISZERO PUSH2 0x612 JUMPI PUSH2 0x607 PUSH1 0x0 DUP3 PUSH2 0x5DB JUMP JUMPDEST PUSH1 0x1 DUP2 ADD SWAP1 POP PUSH2 0x5F4 JUMP JUMPDEST POP POP JUMP JUMPDEST PUSH1 0x1F DUP3 GT ISZERO PUSH2 0x657 JUMPI PUSH2 0x628 DUP2 PUSH2 0x4F7 JUMP JUMPDEST PUSH2 0x631 DUP5 PUSH2 0x50C JUMP JUMPDEST DUP2 ADD PUSH1 0x20 DUP6 LT ISZERO PUSH2 0x640 JUMPI DUP2 SWAP1 POP JUMPDEST PUSH2 0x654 PUSH2 0x64C DUP6 PUSH2 0x50C JUMP JUMPDEST DUP4 ADD DUP3 PUSH2 0x5F3 JUMP JUMPDEST POP POP JUMPDEST POP POP POP JUMP JUMPDEST PUSH1 0x0 DUP3 DUP3 SHR SWAP1 POP SWAP3 SWAP2 POP POP JUMP JUMPDEST PUSH1 0x0 PUSH2 0x67A PUSH1 0x0 NOT DUP5 PUSH1 0x8 MUL PUSH2 0x65C JUMP JUMPDEST NOT DUP1 DUP4 AND SWAP2 POP POP SWAP3 SWAP2 POP POP JUMP JUMPDEST PUSH1 0x0 PUSH2 0x693 DUP4 DUP4 PUSH2 0x669 JUMP JUMPDEST SWAP2 POP DUP3 PUSH1 0x2 MUL DUP3 OR SWAP1 POP SWAP3 SWAP2 POP POP JUMP JUMPDEST PUSH2 0x6AC DUP3 PUSH2 0x3B6 JUMP JUMPDEST PUSH8 0xFFFFFFFFFFFFFFFF DUP2 GT ISZERO PUSH2 0x6C5 JUMPI PUSH2 0x6C4 PUSH2 0x4C8 JUMP JUMPDEST JUMPDEST PUSH2 0x6CF DUP3 SLOAD PUSH2 0x497 JUMP JUMPDEST PUSH2 0x6DA DUP3 DUP3 DUP6 PUSH2 0x616 JUMP JUMPDEST PUSH1 0x0 PUSH1 0x20 SWAP1 POP PUSH1 0x1F DUP4 GT PUSH1 0x1 DUP2 EQ PUSH2 0x70D JUMPI PUSH1 0x0 DUP5 ISZERO PUSH2 0x6FB JUMPI DUP3 DUP8 ADD MLOAD SWAP1 POP JUMPDEST PUSH2 0x705 DUP6 DUP3 PUSH2 0x687 JUMP JUMPDEST DUP7 SSTORE POP PUSH2 0x76D JUMP JUMPDEST PUSH1 0x1F NOT DUP5 AND PUSH2 0x71B DUP7 PUSH2 0x4F7 JUMP JUMPDEST PUSH1 0x0 JUMPDEST DUP3 DUP2 LT ISZERO PUSH2 0x743 JUMPI DUP5 DUP10 ADD MLOAD DUP3 SSTORE PUSH1 0x1 DUP3 ADD SWAP2 POP PUSH1 0x20 DUP6 ADD SWAP5 POP PUSH1 0x20 DUP2 ADD SWAP1 POP PUSH2 0x71E JUMP JUMPDEST DUP7 DUP4 LT ISZERO PUSH2 0x760 JUMPI DUP5 DUP10 ADD MLOAD PUSH2 0x75C PUSH1 0x1F DUP10 AND DUP3 PUSH2 0x669 JUMP JUMPDEST DUP4 SSTORE POP JUMPDEST PUSH1 0x1 PUSH1 0x2 DUP9 MUL ADD DUP9 SSTORE POP POP POP JUMPDEST POP POP POP POP POP POP JUMP INVALID LOG2 PUSH5 0x6970667358 0x22 SLT KECCAK256 PUSH5 0xB6B291C382 DUP6 BLOCKHASH 0xBF DUP5 DIV MOD 0xC9 SWAP14 DUP16 PUSH6 0xD89E4C438028 CALLDATALOAD POP 0x23 SIGNEXTEND SWAP4 0x27 GT 0x5E LOG0 0xDA PUSH5 0x736F6C6343 STOP ADDMOD GT STOP CALLER "
				},
				"gasEstimates": {
					"creation": {
						"codeDepositCost": "392600",
						"executionCost": "430",
						"totalCost": "393030"
					},
					"external": {
						"emp_ids(uint256)": "infinite",
						"getids(uint256)": "infinite",
						"setids()": "infinite"
					}
				},
				"methodIdentifiers": {
					"emp_ids(uint256)": "2bac7532",
					"getids(uint256)": "e3828e4b",
					"setids()": "3d13cdac"
				}
			},
			"storageLayout": {
				"storage": [
					{
						"astId": 5,
						"contract": "artifacts/BASICMAPPING.sol:basicmapping",
						"label": "emp_ids",
						"offset": 0,
						"slot": "0",
						"type": "t_mapping(t_uint256,t_string_storage)"
					}
				],
				"types": {
					"t_mapping(t_uint256,t_string_storage)": {
						"encoding": "mapping",
						"key": "t_uint256",
						"label": "mapping(uint256 => string)",
						"numberOfBytes": "32",
						"value": "t_string_storage"
					},
					"t_string_storage": {
						"encoding": "bytes",
						"label": "string",
						"numberOfBytes": "32"
					},
					"t_uint256": {
						"encoding": "inplace",
						"label": "uint256",
						"numberOfBytes": "32"
					}
				}
			},
			"userdoc": {
				"kind": "user",
				"methods": {},
				"version": 1
			}
		}
	}
}