{
	"data": {
		"bytecode": {
			"linkReferences": {},
			"object": "608060405234801561001057600080fd5b506107f2806100206000396000f3fe608060405234801561001057600080fd5b50600436106100415760003560e01c806393a47c4b146100465780639507d39a14610050578063f513f38e14610080575b600080fd5b61004e61009e565b005b61006a600480360381019061006591906103d0565b61024e565b604051610077919061048d565b60405180910390f35b6100886102f2565b604051610095919061048d565b60405180910390f35b6040518060400160405280600781526020017f6c616b73686179000000000000000000000000000000000000000000000000008152506000806001815260200190815260200160002090816100f391906106ea565b506040518060400160405280600681526020017f736861726d61000000000000000000000000000000000000000000000000000081525060008060028152602001908152602001600020908161014991906106ea565b506040518060400160405280600481526020017f647765630000000000000000000000000000000000000000000000000000000081525060008060048152602001908152602001600020908161019f91906106ea565b506040518060400160405280600381526020017f66666600000000000000000000000000000000000000000000000000000000008152506000806006815260200190815260200160002090816101f591906106ea565b506040518060400160405280600581526020017f666672667200000000000000000000000000000000000000000000000000000081525060008060038152602001908152602001600020908161024b91906106ea565b50565b6060600080838152602001908152602001600020805461026d9061050d565b80601f01602080910402602001604051908101604052809291908181526020018280546102999061050d565b80156102e65780601f106102bb576101008083540402835291602001916102e6565b820191906000526020600020905b8154815290600101906020018083116102c957829003601f168201915b50505050509050919050565b60606000806001815260200190815260200160002080546103129061050d565b80601f016020809104026020016040519081016040528092919081815260200182805461033e9061050d565b801561038b5780601f106103605761010080835404028352916020019161038b565b820191906000526020600020905b81548152906001019060200180831161036e57829003601f168201915b5050505050905090565b600080fd5b6000819050919050565b6103ad8161039a565b81146103b857600080fd5b50565b6000813590506103ca816103a4565b92915050565b6000602082840312156103e6576103e5610395565b5b60006103f4848285016103bb565b91505092915050565b600081519050919050565b600082825260208201905092915050565b60005b8381101561043757808201518184015260208101905061041c565b60008484015250505050565b6000601f19601f8301169050919050565b600061045f826103fd565b6104698185610408565b9350610479818560208601610419565b61048281610443565b840191505092915050565b600060208201905081810360008301526104a78184610454565b905092915050565b7f4e487b7100000000000000000000000000000000000000000000000000000000600052604160045260246000fd5b7f4e487b7100000000000000000000000000000000000000000000000000000000600052602260045260246000fd5b6000600282049050600182168061052557607f821691505b602082108103610538576105376104de565b5b50919050565b60008190508160005260206000209050919050565b60006020601f8301049050919050565b600082821b905092915050565b6000600883026105a07fffffffffffffffffffffffffffffffffffffffffffffffffffffffffffffffff82610563565b6105aa8683610563565b95508019841693508086168417925050509392505050565b6000819050919050565b60006105e76105e26105dd8461039a565b6105c2565b61039a565b9050919050565b6000819050919050565b610601836105cc565b61061561060d826105ee565b848454610570565b825550505050565b600090565b61062a61061d565b6106358184846105f8565b505050565b5b818110156106595761064e600082610622565b60018101905061063b565b5050565b601f82111561069e5761066f8161053e565b61067884610553565b81016020851015610687578190505b61069b61069385610553565b83018261063a565b50505b505050565b600082821c905092915050565b60006106c1600019846008026106a3565b1980831691505092915050565b60006106da83836106b0565b9150826002028217905092915050565b6106f3826103fd565b67ffffffffffffffff81111561070c5761070b6104af565b5b610716825461050d565b61072182828561065d565b600060209050601f8311600181146107545760008415610742578287015190505b61074c85826106ce565b8655506107b4565b601f1984166107628661053e565b60005b8281101561078a57848901518255600182019150602085019450602081019050610765565b868310156107a757848901516107a3601f8916826106b0565b8355505b6001600288020188555050505b50505050505056fea2646970667358221220cb8970e8e67f9480e4bc4807410b1301484a6d37549ddcc6fd011a6efdfd9a6664736f6c63430008110033",
			"opcodes": "PUSH1 0x80 PUSH1 0x40 MSTORE CALLVALUE DUP1 ISZERO PUSH2 0x10 JUMPI PUSH1 0x0 DUP1 REVERT JUMPDEST POP PUSH2 0x7F2 DUP1 PUSH2 0x20 PUSH1 0x0 CODECOPY PUSH1 0x0 RETURN INVALID PUSH1 0x80 PUSH1 0x40 MSTORE CALLVALUE DUP1 ISZERO PUSH2 0x10 JUMPI PUSH1 0x0 DUP1 REVERT JUMPDEST POP PUSH1 0x4 CALLDATASIZE LT PUSH2 0x41 JUMPI PUSH1 0x0 CALLDATALOAD PUSH1 0xE0 SHR DUP1 PUSH4 0x93A47C4B EQ PUSH2 0x46 JUMPI DUP1 PUSH4 0x9507D39A EQ PUSH2 0x50 JUMPI DUP1 PUSH4 0xF513F38E EQ PUSH2 0x80 JUMPI JUMPDEST PUSH1 0x0 DUP1 REVERT JUMPDEST PUSH2 0x4E PUSH2 0x9E JUMP JUMPDEST STOP JUMPDEST PUSH2 0x6A PUSH1 0x4 DUP1 CALLDATASIZE SUB DUP2 ADD SWAP1 PUSH2 0x65 SWAP2 SWAP1 PUSH2 0x3D0 JUMP JUMPDEST PUSH2 0x24E JUMP JUMPDEST PUSH1 0x40 MLOAD PUSH2 0x77 SWAP2 SWAP1 PUSH2 0x48D JUMP JUMPDEST PUSH1 0x40 MLOAD DUP1 SWAP2 SUB SWAP1 RETURN JUMPDEST PUSH2 0x88 PUSH2 0x2F2 JUMP JUMPDEST PUSH1 0x40 MLOAD PUSH2 0x95 SWAP2 SWAP1 PUSH2 0x48D JUMP JUMPDEST PUSH1 0x40 MLOAD DUP1 SWAP2 SUB SWAP1 RETURN JUMPDEST PUSH1 0x40 MLOAD DUP1 PUSH1 0x40 ADD PUSH1 0x40 MSTORE DUP1 PUSH1 0x7 DUP2 MSTORE PUSH1 0x20 ADD PUSH32 0x6C616B7368617900000000000000000000000000000000000000000000000000 DUP2 MSTORE POP PUSH1 0x0 DUP1 PUSH1 0x1 DUP2 MSTORE PUSH1 0x20 ADD SWAP1 DUP2 MSTORE PUSH1 0x20 ADD PUSH1 0x0 KECCAK256 SWAP1 DUP2 PUSH2 0xF3 SWAP2 SWAP1 PUSH2 0x6EA JUMP JUMPDEST POP PUSH1 0x40 MLOAD DUP1 PUSH1 0x40 ADD PUSH1 0x40 MSTORE DUP1 PUSH1 0x6 DUP2 MSTORE PUSH1 0x20 ADD PUSH32 0x736861726D610000000000000000000000000000000000000000000000000000 DUP2 MSTORE POP PUSH1 0x0 DUP1 PUSH1 0x2 DUP2 MSTORE PUSH1 0x20 ADD SWAP1 DUP2 MSTORE PUSH1 0x20 ADD PUSH1 0x0 KECCAK256 SWAP1 DUP2 PUSH2 0x149 SWAP2 SWAP1 PUSH2 0x6EA JUMP JUMPDEST POP PUSH1 0x40 MLOAD DUP1 PUSH1 0x40 ADD PUSH1 0x40 MSTORE DUP1 PUSH1 0x4 DUP2 MSTORE PUSH1 0x20 ADD PUSH32 0x6477656300000000000000000000000000000000000000000000000000000000 DUP2 MSTORE POP PUSH1 0x0 DUP1 PUSH1 0x4 DUP2 MSTORE PUSH1 0x20 ADD SWAP1 DUP2 MSTORE PUSH1 0x20 ADD PUSH1 0x0 KECCAK256 SWAP1 DUP2 PUSH2 0x19F SWAP2 SWAP1 PUSH2 0x6EA JUMP JUMPDEST POP PUSH1 0x40 MLOAD DUP1 PUSH1 0x40 ADD PUSH1 0x40 MSTORE DUP1 PUSH1 0x3 DUP2 MSTORE PUSH1 0x20 ADD PUSH32 0x6666660000000000000000000000000000000000000000000000000000000000 DUP2 MSTORE POP PUSH1 0x0 DUP1 PUSH1 0x6 DUP2 MSTORE PUSH1 0x20 ADD SWAP1 DUP2 MSTORE PUSH1 0x20 ADD PUSH1 0x0 KECCAK256 SWAP1 DUP2 PUSH2 0x1F5 SWAP2 SWAP1 PUSH2 0x6EA JUMP JUMPDEST POP PUSH1 0x40 MLOAD DUP1 PUSH1 0x40 ADD PUSH1 0x40 MSTORE DUP1 PUSH1 0x5 DUP2 MSTORE PUSH1 0x20 ADD PUSH32 0x6666726672000000000000000000000000000000000000000000000000000000 DUP2 MSTORE POP PUSH1 0x0 DUP1 PUSH1 0x3 DUP2 MSTORE PUSH1 0x20 ADD SWAP1 DUP2 MSTORE PUSH1 0x20 ADD PUSH1 0x0 KECCAK256 SWAP1 DUP2 PUSH2 0x24B SWAP2 SWAP1 PUSH2 0x6EA JUMP JUMPDEST POP JUMP JUMPDEST PUSH1 0x60 PUSH1 0x0 DUP1 DUP4 DUP2 MSTORE PUSH1 0x20 ADD SWAP1 DUP2 MSTORE PUSH1 0x20 ADD PUSH1 0x0 KECCAK256 DUP1 SLOAD PUSH2 0x26D SWAP1 PUSH2 0x50D JUMP JUMPDEST DUP1 PUSH1 0x1F ADD PUSH1 0x20 DUP1 SWAP2 DIV MUL PUSH1 0x20 ADD PUSH1 0x40 MLOAD SWAP1 DUP2 ADD PUSH1 0x40 MSTORE DUP1 SWAP3 SWAP2 SWAP1 DUP2 DUP2 MSTORE PUSH1 0x20 ADD DUP3 DUP1 SLOAD PUSH2 0x299 SWAP1 PUSH2 0x50D JUMP JUMPDEST DUP1 ISZERO PUSH2 0x2E6 JUMPI DUP1 PUSH1 0x1F LT PUSH2 0x2BB JUMPI PUSH2 0x100 DUP1 DUP4 SLOAD DIV MUL DUP4 MSTORE SWAP2 PUSH1 0x20 ADD SWAP2 PUSH2 0x2E6 JUMP JUMPDEST DUP3 ADD SWAP2 SWAP1 PUSH1 0x0 MSTORE PUSH1 0x20 PUSH1 0x0 KECCAK256 SWAP1 JUMPDEST DUP2 SLOAD DUP2 MSTORE SWAP1 PUSH1 0x1 ADD SWAP1 PUSH1 0x20 ADD DUP1 DUP4 GT PUSH2 0x2C9 JUMPI DUP3 SWAP1 SUB PUSH1 0x1F AND DUP3 ADD SWAP2 JUMPDEST POP POP POP POP POP SWAP1 POP SWAP2 SWAP1 POP JUMP JUMPDEST PUSH1 0x60 PUSH1 0x0 DUP1 PUSH1 0x1 DUP2 MSTORE PUSH1 0x20 ADD SWAP1 DUP2 MSTORE PUSH1 0x20 ADD PUSH1 0x0 KECCAK256 DUP1 SLOAD PUSH2 0x312 SWAP1 PUSH2 0x50D JUMP JUMPDEST DUP1 PUSH1 0x1F ADD PUSH1 0x20 DUP1 SWAP2 DIV MUL PUSH1 0x20 ADD PUSH1 0x40 MLOAD SWAP1 DUP2 ADD PUSH1 0x40 MSTORE DUP1 SWAP3 SWAP2 SWAP1 DUP2 DUP2 MSTORE PUSH1 0x20 ADD DUP3 DUP1 SLOAD PUSH2 0x33E SWAP1 PUSH2 0x50D JUMP JUMPDEST DUP1 ISZERO PUSH2 0x38B JUMPI DUP1 PUSH1 0x1F LT PUSH2 0x360 JUMPI PUSH2 0x100 DUP1 DUP4 SLOAD DIV MUL DUP4 MSTORE SWAP2 PUSH1 0x20 ADD SWAP2 PUSH2 0x38B JUMP JUMPDEST DUP3 ADD SWAP2 SWAP1 PUSH1 0x0 MSTORE PUSH1 0x20 PUSH1 0x0 KECCAK256 SWAP1 JUMPDEST DUP2 SLOAD DUP2 MSTORE SWAP1 PUSH1 0x1 ADD SWAP1 PUSH1 0x20 ADD DUP1 DUP4 GT PUSH2 0x36E JUMPI DUP3 SWAP1 SUB PUSH1 0x1F AND DUP3 ADD SWAP2 JUMPDEST POP POP POP POP POP SWAP1 POP SWAP1 JUMP JUMPDEST PUSH1 0x0 DUP1 REVERT JUMPDEST PUSH1 0x0 DUP2 SWAP1 POP SWAP2 SWAP1 POP JUMP JUMPDEST PUSH2 0x3AD DUP2 PUSH2 0x39A JUMP JUMPDEST DUP2 EQ PUSH2 0x3B8 JUMPI PUSH1 0x0 DUP1 REVERT JUMPDEST POP JUMP JUMPDEST PUSH1 0x0 DUP2 CALLDATALOAD SWAP1 POP PUSH2 0x3CA DUP2 PUSH2 0x3A4 JUMP JUMPDEST SWAP3 SWAP2 POP POP JUMP JUMPDEST PUSH1 0x0 PUSH1 0x20 DUP3 DUP5 SUB SLT ISZERO PUSH2 0x3E6 JUMPI PUSH2 0x3E5 PUSH2 0x395 JUMP JUMPDEST JUMPDEST PUSH1 0x0 PUSH2 0x3F4 DUP5 DUP3 DUP6 ADD PUSH2 0x3BB JUMP JUMPDEST SWAP2 POP POP SWAP3 SWAP2 POP POP JUMP JUMPDEST PUSH1 0x0 DUP2 MLOAD SWAP1 POP SWAP2 SWAP1 POP JUMP JUMPDEST PUSH1 0x0 DUP3 DUP3 MSTORE PUSH1 0x20 DUP3 ADD SWAP1 POP SWAP3 SWAP2 POP POP JUMP JUMPDEST PUSH1 0x0 JUMPDEST DUP4 DUP2 LT ISZERO PUSH2 0x437 JUMPI DUP1 DUP3 ADD MLOAD DUP2 DUP5 ADD MSTORE PUSH1 0x20 DUP2 ADD SWAP1 POP PUSH2 0x41C JUMP JUMPDEST PUSH1 0x0 DUP5 DUP5 ADD MSTORE POP POP POP POP JUMP JUMPDEST PUSH1 0x0 PUSH1 0x1F NOT PUSH1 0x1F DUP4 ADD AND SWAP1 POP SWAP2 SWAP1 POP JUMP JUMPDEST PUSH1 0x0 PUSH2 0x45F DUP3 PUSH2 0x3FD JUMP JUMPDEST PUSH2 0x469 DUP2 DUP6 PUSH2 0x408 JUMP JUMPDEST SWAP4 POP PUSH2 0x479 DUP2 DUP6 PUSH1 0x20 DUP7 ADD PUSH2 0x419 JUMP JUMPDEST PUSH2 0x482 DUP2 PUSH2 0x443 JUMP JUMPDEST DUP5 ADD SWAP2 POP POP SWAP3 SWAP2 POP POP JUMP JUMPDEST PUSH1 0x0 PUSH1 0x20 DUP3 ADD SWAP1 POP DUP2 DUP2 SUB PUSH1 0x0 DUP4 ADD MSTORE PUSH2 0x4A7 DUP2 DUP5 PUSH2 0x454 JUMP JUMPDEST SWAP1 POP SWAP3 SWAP2 POP POP JUMP JUMPDEST PUSH32 0x4E487B7100000000000000000000000000000000000000000000000000000000 PUSH1 0x0 MSTORE PUSH1 0x41 PUSH1 0x4 MSTORE PUSH1 0x24 PUSH1 0x0 REVERT JUMPDEST PUSH32 0x4E487B7100000000000000000000000000000000000000000000000000000000 PUSH1 0x0 MSTORE PUSH1 0x22 PUSH1 0x4 MSTORE PUSH1 0x24 PUSH1 0x0 REVERT JUMPDEST PUSH1 0x0 PUSH1 0x2 DUP3 DIV SWAP1 POP PUSH1 0x1 DUP3 AND DUP1 PUSH2 0x525 JUMPI PUSH1 0x7F DUP3 AND SWAP2 POP JUMPDEST PUSH1 0x20 DUP3 LT DUP2 SUB PUSH2 0x538 JUMPI PUSH2 0x537 PUSH2 0x4DE JUMP JUMPDEST JUMPDEST POP SWAP2 SWAP1 POP JUMP JUMPDEST PUSH1 0x0 DUP2 SWAP1 POP DUP2 PUSH1 0x0 MSTORE PUSH1 0x20 PUSH1 0x0 KECCAK256 SWAP1 POP SWAP2 SWAP1 POP JUMP JUMPDEST PUSH1 0x0 PUSH1 0x20 PUSH1 0x1F DUP4 ADD DIV SWAP1 POP SWAP2 SWAP1 POP JUMP JUMPDEST PUSH1 0x0 DUP3 DUP3 SHL SWAP1 POP SWAP3 SWAP2 POP POP JUMP JUMPDEST PUSH1 0x0 PUSH1 0x8 DUP4 MUL PUSH2 0x5A0 PUSH32 0xFFFFFFFFFFFFFFFFFFFFFFFFFFFFFFFFFFFFFFFFFFFFFFFFFFFFFFFFFFFFFFFF DUP3 PUSH2 0x563 JUMP JUMPDEST PUSH2 0x5AA DUP7 DUP4 PUSH2 0x563 JUMP JUMPDEST SWAP6 POP DUP1 NOT DUP5 AND SWAP4 POP DUP1 DUP7 AND DUP5 OR SWAP3 POP POP POP SWAP4 SWAP3 POP POP POP JUMP JUMPDEST PUSH1 0x0 DUP2 SWAP1 POP SWAP2 SWAP1 POP JUMP JUMPDEST PUSH1 0x0 PUSH2 0x5E7 PUSH2 0x5E2 PUSH2 0x5DD DUP5 PUSH2 0x39A JUMP JUMPDEST PUSH2 0x5C2 JUMP JUMPDEST PUSH2 0x39A JUMP JUMPDEST SWAP1 POP SWAP2 SWAP1 POP JUMP JUMPDEST PUSH1 0x0 DUP2 SWAP1 POP SWAP2 SWAP1 POP JUMP JUMPDEST PUSH2 0x601 DUP4 PUSH2 0x5CC JUMP JUMPDEST PUSH2 0x615 PUSH2 0x60D DUP3 PUSH2 0x5EE JUMP JUMPDEST DUP5 DUP5 SLOAD PUSH2 0x570 JUMP JUMPDEST DUP3 SSTORE POP POP POP POP JUMP JUMPDEST PUSH1 0x0 SWAP1 JUMP JUMPDEST PUSH2 0x62A PUSH2 0x61D JUMP JUMPDEST PUSH2 0x635 DUP2 DUP5 DUP5 PUSH2 0x5F8 JUMP JUMPDEST POP POP POP JUMP JUMPDEST JUMPDEST DUP2 DUP2 LT ISZERO PUSH2 0x659 JUMPI PUSH2 0x64E PUSH1 0x0 DUP3 PUSH2 0x622 JUMP JUMPDEST PUSH1 0x1 DUP2 ADD SWAP1 POP PUSH2 0x63B JUMP JUMPDEST POP POP JUMP JUMPDEST PUSH1 0x1F DUP3 GT ISZERO PUSH2 0x69E JUMPI PUSH2 0x66F DUP2 PUSH2 0x53E JUMP JUMPDEST PUSH2 0x678 DUP5 PUSH2 0x553 JUMP JUMPDEST DUP2 ADD PUSH1 0x20 DUP6 LT ISZERO PUSH2 0x687 JUMPI DUP2 SWAP1 POP JUMPDEST PUSH2 0x69B PUSH2 0x693 DUP6 PUSH2 0x553 JUMP JUMPDEST DUP4 ADD DUP3 PUSH2 0x63A JUMP JUMPDEST POP POP JUMPDEST POP POP POP JUMP JUMPDEST PUSH1 0x0 DUP3 DUP3 SHR SWAP1 POP SWAP3 SWAP2 POP POP JUMP JUMPDEST PUSH1 0x0 PUSH2 0x6C1 PUSH1 0x0 NOT DUP5 PUSH1 0x8 MUL PUSH2 0x6A3 JUMP JUMPDEST NOT DUP1 DUP4 AND SWAP2 POP POP SWAP3 SWAP2 POP POP JUMP JUMPDEST PUSH1 0x0 PUSH2 0x6DA DUP4 DUP4 PUSH2 0x6B0 JUMP JUMPDEST SWAP2 POP DUP3 PUSH1 0x2 MUL DUP3 OR SWAP1 POP SWAP3 SWAP2 POP POP JUMP JUMPDEST PUSH2 0x6F3 DUP3 PUSH2 0x3FD JUMP JUMPDEST PUSH8 0xFFFFFFFFFFFFFFFF DUP2 GT ISZERO PUSH2 0x70C JUMPI PUSH2 0x70B PUSH2 0x4AF JUMP JUMPDEST JUMPDEST PUSH2 0x716 DUP3 SLOAD PUSH2 0x50D JUMP JUMPDEST PUSH2 0x721 DUP3 DUP3 DUP6 PUSH2 0x65D JUMP JUMPDEST PUSH1 0x0 PUSH1 0x20 SWAP1 POP PUSH1 0x1F DUP4 GT PUSH1 0x1 DUP2 EQ PUSH2 0x754 JUMPI PUSH1 0x0 DUP5 ISZERO PUSH2 0x742 JUMPI DUP3 DUP8 ADD MLOAD SWAP1 POP JUMPDEST PUSH2 0x74C DUP6 DUP3 PUSH2 0x6CE JUMP JUMPDEST DUP7 SSTORE POP PUSH2 0x7B4 JUMP JUMPDEST PUSH1 0x1F NOT DUP5 AND PUSH2 0x762 DUP7 PUSH2 0x53E JUMP JUMPDEST PUSH1 0x0 JUMPDEST DUP3 DUP2 LT ISZERO PUSH2 0x78A JUMPI DUP5 DUP10 ADD MLOAD DUP3 SSTORE PUSH1 0x1 DUP3 ADD SWAP2 POP PUSH1 0x20 DUP6 ADD SWAP5 POP PUSH1 0x20 DUP2 ADD SWAP1 POP PUSH2 0x765 JUMP JUMPDEST DUP7 DUP4 LT ISZERO PUSH2 0x7A7 JUMPI DUP5 DUP10 ADD MLOAD PUSH2 0x7A3 PUSH1 0x1F DUP10 AND DUP3 PUSH2 0x6B0 JUMP JUMPDEST DUP4 SSTORE POP JUMPDEST PUSH1 0x1 PUSH1 0x2 DUP9 MUL ADD DUP9 SSTORE POP POP POP JUMPDEST POP POP POP POP POP POP JUMP INVALID LOG2 PUSH5 0x6970667358 0x22 SLT KECCAK256 0xCB DUP10 PUSH17 0xE8E67F9480E4BC4807410B1301484A6D37 SLOAD SWAP14 0xDC 0xC6 REVERT ADD BYTE PUSH15 0xFDFD9A6664736F6C63430008110033 "
		},
		"gasEstimates": {
			"creation": {
				"codeDepositCost": "406800",
				"executionCost": "443",
				"totalCost": "407243"
			},
			"external": {
				"get(uint256)": "infinite",
				"getid()": "infinite",
				"setid()": "infinite"
			}
		},
		"methodIdentifiers": {
			"get(uint256)": "9507d39a",
			"getid()": "f513f38e",
			"setid()": "93a47c4b"
		}
	},
	"abi": [
		{
			"inputs": [
				{
					"internalType": "uint256",
					"name": "_id",
					"type": "uint256"
				}
			],
			"name": "get",
			"outputs": [
				{
					"internalType": "string",
					"name": "",
					"type": "string"
				}
			],
			"stateMutability": "view",
			"type": "function"
		},
		{
			"inputs": [],
			"name": "getid",
			"outputs": [
				{
					"internalType": "string",
					"name": "",
					"type": "string"
				}
			],
			"stateMutability": "view",
			"type": "function"
		},
		{
			"inputs": [],
			"name": "setid",
			"outputs": [],
			"stateMutability": "nonpayable",
			"type": "function"
		}
	]
}